:020000040800F2
:1000000008070020A1010008D72A000817230008CC
:10001000D52A00082F090008052E0008000000005E
:10002000000000000000000000000000712C00082B
:10003000290A000800000000D92A0008732C0008D3
:10004000BB010008BB010008BB010008BB010008A0
:10005000BB010008BB010008BB010008BB01000890
:10006000BB010008BB010008BB010008BB01000880
:10007000BB010008BB010008BB010008BB01000870
:10008000BB010008BB010008BB0100083D090008D6
:1000900031090008BB010008BB010008BB010008D2
:1000A000BB010008BB010008192D0008BB010008B6
:1000B000BB010008BB010008BB010008BB01000830
:1000C000BB010008BB010008BB010008BB01000820
:1000D000BB010008BB010008BB010008BB01000810
:1000E000BB010008BB010008BB010008BB01000800
:1000F000312D0008252D0008BB010008BB010008B8
:10010000BB010008BB010008BB010008BB010008DF
:10011000BB010008BB010008BB010008BB010008CF
:10012000BB010008BB010008BB010008BB010008BF
:10013000BB010008BB010008BB010008BB010008AF
:10014000BB010008BB010008BB010008BB0100089F
:10015000BB010008BB010008BB010008BB0100088F
:10016000BB010008BB010008BB010008BB0100087F
:10017000BB010008BB010008BB0100080000000033
:10018000BB010008BB010008DFF810D000F040FB05
:100190000048004781500008AFF3008008070020A6
:1001A0000648804706480047FEE7FEE7FEE7FEE711
:1001B000FEE7FEE7FEE7FEE7FEE7FEE7092D0008A3
:1001C000890100082DE9F05F0546002092469B4614
:1001D00088460646814640241BE02846414647465D
:1001E000224600F047FA53465A46C01A914110D3AE
:1001F00011461846224600F02EFA2D1A67EB010828
:100200004F4622460120002100F025FA17EB000995
:100210004E41201EA4F10104DFDC484631462A4647
:100220004346BDE8F09F2DE9F0410024061B25461A
:1002300071F1000605DA01240027D0EB070067EB17
:100240000101161E73F1000605DA0027D2EB070242
:10025000012567EB0303FFF7B5FF86460E461746F9
:100260009C46AC4204D00025D0EB050E65EB0106A0
:1002700024B10020D2EB000760EB030C704631463E
:100280003A466346BDE8F081D2B201E000F8012BA6
:10029000491EFBD270470022F6E710B513460A4606
:1002A00004461946FFF7F0FF204610BD30B504465E
:1002B0000020034600E05B1C934203D2E05CCD5C6F
:1002C000401BF8D030BD2DE9FE4F804681EA030087
:1002D000C00F0C46009021F0004123F00045B8EB20
:1002E0000200A94105D24046214690461C460B46D5
:1002F000024623F00040104347D0270DC7F30A0001
:10030000C3F30A510290401A019040286BDAC3F3FC
:10031000130040F4801B0098924620B10023D2EBDA
:10032000030A63EB0B0B01985946C0F1400250469B
:1003300000F091F906460D4650465946019A00F0E4
:10034000A9F910EB08006141002487EA115284EA00
:10035000E7731A4340D0009A62B3019A012A4FEA28
:10036000075215DC001B61EB02014FF0004202EA6C
:100370000752CDE90042001C41F5801132462B4660
:1003800000F0E0F903B0BDE8F08F40462146F9E700
:10039000001B61EB0201001C41F5801300185B415A
:1003A0002018A2F5001747EB030140EAD570B619F3
:1003B0006D4111E06D084FEA360645EAC0754FEA17
:1003C0000752001B61EB0201001C41F58011490836
:1003D0004FEA30000019514132462B4603B0BDE8C8
:1003E000F04F00F0A0B90098012240000023D0EBAC
:1003F000020263EBE073009821464FEAE074B8EB29
:10040000000061EB0401E9E783F000435BE781F062
:10041000004158E72DE9FE4F81EA030404F000444F
:1004200021F0004100944FF0000B23F0004350EA0C
:1004300001045ED052EA03045BD0C3F30A54C1F353
:100440000A552C44A4F2F3340194A0FB0254C1F3E6
:10045000130141F48011C3F3130343F4801301FB30
:10046000024400FB034E840A970A44EA815447EA97
:100470008357A4FB076802958D0A05FB07854FEAA1
:10048000932C04FB0C542705029D4FEA065847EABB
:100490001637B5EB08056EEB070C870E920E47EA90
:1004A000811742EA8312A7FB0201B6EB0B0164EB52
:1004B00000042B0D43EA0C335E1844EB1C50DA4663
:1004C0005146E7FB0201C5F313044FEA0B3343EA3D
:1004D00014534FEA0432019C43EA0603A4F10C04CE
:1004E0000294009CCDE900B400F02CF903B0BDE803
:1004F000F08F00200146F9E72DE9F04D81EA030471
:1005000004F0004B21F0004514464FF0000A23F0A0
:10051000004150EA050220D054EA01021DD0C5F383
:100520000A570246C5F31303C1F31300C1F30A5679
:1005300040F4801543F48013A7EB0608101BD64641
:1005400008F2FD3873EB050002D308F1010801E061
:1005500092185B41B8F1000F03DA00200146BDE8B4
:10056000F08D00204FF48011064684460EE0171BE4
:1005700073EB050705D3121B63EB050306434CEA37
:10058000010C49084FEA300092185B4150EA01071C
:10059000EDD152EA030012D082EA040083EA050199
:1005A000084305D0101BAB4106D20122002306E010
:1005B00000224FF0004302E06FF0010253101AEBEB
:1005C00006004CEB085110EB0A0041EB0B01BDE8B3
:1005D000F04D00F0A8B80EB5C10F80EAE0700844F5
:1005E000CA07002140F233438DE80E000A460B464D
:1005F00000F0A8F803B000BD00F0004230F0004069
:100600000AD0C10D01F56071C0F3160042EA015134
:10061000C20840071143704700200146704701F0AF
:10062000004330B421F0004150EA010206D00A0D27
:10063000A2F56072C1F31301002A02DC30BC002075
:100640007047440F44EAC104C100E01830BC00EB1D
:10065000C25000F031B8202A04DB203A00FA02F13F
:10066000002070479140C2F1200320FA03F31943A0
:1006700090407047202A04DB203A21FA02F0002142
:10068000704721FA02F3D040C2F1200291400843A2
:1006900019467047202A06DBCB17203A41FA02F0B0
:1006A00043EAE07306E041FA02F3D040C2F12002CF
:1006B00091400843194670470029A8BF7047401C65
:1006C000490008BF20F00100704710B4B0FA80FC68
:1006D00000FA0CF050EA010404BF10BC704749B1A5
:1006E000CCF1200421FA04F411FA0CF118BF012115
:1006F00021430843A3EB0C01CB1D4FEA00614FEAF5
:10070000102042BF002010BC704700EBC3501044C3
:100710000029A4BF10BC7047401C490008BF20F04E
:10072000010010BC704710B5141E73F1000408DA04
:10073000401C41F1000192185B411A4301D120F0A5
:10074000010010BD2DE9F04D92469B4611B1B1FA62
:1007500081F202E0B0FA80F220329046FFF77BFF90
:1007600004460F4640EA0A0041EA0B0153465A4646
:10077000084313D0114653EA010019D0C8F14002D2
:100780005046FFF777FF05460E465046594642460B
:10079000FFF761FF084305D0012004E020463946F9
:1007A000BDE8F08D0020054346EAE0762C43374350
:1007B0000A986305E40AA0EB08000022FD0A44EA57
:1007C00047540A3002D500200146E9E70105101917
:1007D0006941DDE9084500196941BDE8F04DA2E72E
:1007E00030B5041E71F1000404DB4FF000444042B8
:1007F00064EB0101141E73F1000405DB1C464FF08D
:100800000043524263EB04038B4208BF824230BD77
:10081000064C074D06E0E06840F0010394E807004D
:1008200098471034AC42F6D3FFF7B2FC986C00083E
:10083000B86C00082DE9F04D00231A461B1A8A41B6
:1008400003DB00200146BDE8F08DC1F30A52C1F37D
:10085000130141F480154FF0000BD10702D10018AD
:100860006D41521E0027044640F2FF11384601EB4D
:10087000620A3E468046024600204FF48011FFF790
:10088000F9FEC2197141BB1846EB0100B4EB030C31
:1008900075EB000C04D3E41A65EB000517460E4611
:1008A000241908F101006D4180463428E3DDF9196F
:1008B00046EB0600091BA84103D24FF0FF32134656
:1008C00001E0002213461BEB070046EB0A51BDE88E
:1008D000F04DFFF728BF0EB540F2334102910021E1
:1008E000CDE900110A460B46FFF72CFF03B000BD0F
:1008F00070B5C1F30A5201F000450024C1F31301A1
:1009000040F2FF3341F480119A4201DA002070BDB9
:1009100040F233439A42A2F2334203DC5242FFF7E1
:10092000A9FE00E090402C43F1D0404270BDFEE7AC
:10093000014800F0F8B9000070010020014800F003
:10094000F2B900007001002038B50A4A00230424DF
:1009500093601160C2E9033407490A460C7048707D
:1009600001208870CB706B460249044800F071F892
:1009700038BD0000EC0000200100002070010020C4
:100980003EB52649642301228DE80E0013467522E8
:10099000D02100F0CBFD2148007868280CD0BFF3AF
:1009A0004F8F1F4801681F4A01F4E0611143016045
:1009B000BFF34F8F00BFFDE704F07EFC00282BD172
:1009C000782005F005F9782004F0A2FBC82005F096
:1009D000BFF803F00DFD11482C30044604F02CFB49
:1009E0000546E01C04F028FB45EAC005A01D04F004
:1009F00023FB45EA801080B203F0BCFE40F2731086
:100A000003F0CEFBC82003F01DFE05F068F9BDE839
:100A10003E40012004F0C2BF3EBD00003400002073
:100A20000CED00E00400FA05704772B6FEE790F89E
:100A30002020012A07D0022A05D0416A41F48021F2
:100A4000416201207047006842690A434261002008
:100A50007047F0B590F820500468A468012D05D0C7
:100A6000022D03D0416A41F480215DE014F0406F13
:100A700001D1E50055D5C4F30164022C03D9416AC4
:100A800041F4000150E00125A5401D608D684FF440
:100A9000C0739DB1CE6835434E6845EAC605066809
:100AA00003EB0417F5514FF4C275076805EB041505
:100AB0000E697E51097D012905D009E00E88CD68B7
:100AC00045EA4655EBE701684E5946F480764E51AB
:100AD0001179D579567941EA056195792D0445EA70
:100AE000062529434FF4C676056806EB0416A9517E
:100AF0001178D57841EA0561957852782D0445EA58
:100B0000022211434FF4C475026805EB04155151DC
:100B1000006803EB0411425842F0010242500020E9
:100B2000F0BD416A41F4001141620120F0BD0000B6
:100B300010B590F82020012A07D0022A05D0416A7A
:100B400041F480214162012010BD3B48D0F80022D1
:100B500042F00102C0F80022D0F8002222F47C52B8
:100B6000C0F80022D0F800224B6A42EA0322C0F803
:100B700000220A7D02F01F0301229A40D0F81C32A5
:100B80009343C0F81C32CB69B3B9D0F80C3293430D
:100B9000C0F80C328C894B6864F31F434C6900EB3E
:100BA000C404C4F840320C890B6864F31F434C69D9
:100BB00000EBC404C4F84432CB69012B16D1D0F841
:100BC0000C321343C0F80C320C884B6864F31F439B
:100BD0004C6900EBC404C4F840320C89CB6864F360
:100BE0001F434C6900EBC404C4F844328B69002BEA
:100BF000D0F804320ED01343C0F804320B69002B36
:100C0000D0F8143208D01343C0F81432096A01290D
:100C100004D008E09343EFE79343F5E7D0F81C12C4
:100C20001143C0F81C12D0F8001221F00101C0F8E5
:100C30000012002010BD000000640040704730B575
:100C400090F82040012C05D0022C03D0416A41F4D9
:100C500080215DE00468002955D02469A40754D0A0
:100C60004FF4D874056804EB01142D5915F00405F0
:100C7000956005682D594ED0ED08556005682C59D2
:100C800004F00204D4604FF4DA74056804EB011434
:100C90002D5905F00F05156105682D59C5F3072578
:100CA000956105682C59240C54614FF4DC7204687A
:100CB00002EB0112A4581C700468A458240A5C704A
:100CC0000468A458240C9C700468A258120EDA70B0
:100CD0004FF4DE72046802EB0112A4581C71046820
:100CE000A458240A5C710468A458240C9C710468FC
:100CF000A258120EDA71006881B1016941F0200139
:100D00000161002030BDE468A8E7416A41F40011A8
:100D10004162012030BD6D0D1560AFE7C16841F043
:100D20002001C160EDE72DE9F05F05460068002471
:100D30004669D0F804908768D0F80CB0D0F810A0BD
:100D4000D0F81880F10748D0F90714D0012181604C
:100D5000B80703D5284600F00EFA0CE0780702D554
:100D60004FF4006407E0380702D54FF4805402E0E6
:100D7000284600F0FFF9F80516D529684FF4807071
:100D80008860B80503D5284600F0F7F90CE078052F
:100D900002D544F4005407E0380502D544F48044F9
:100DA00002E0284600F0E8F9F80316D529684FF468
:100DB00080308860B80303D5284600F0E0F90CE0E5
:100DC000780302D544F4004407E0380302D544F424
:100DD000803402E0284600F0D1F9300707D55FEAF9
:100DE000CB6004D52968102044F40074C8607007F3
:100DF0004FF0080707D55FEA0B7004D52868C76075
:100E0000284600F05FF9B00706D52868C06880075B
:100E100002D0284600F058F9700607D55FEACA608C
:100E200004D52968102044F480640861B00607D511
:100E30005FEA0A7004D528680761284600F06AF95D
:100E4000F00606D528680069800702D0284600F021
:100E500062F9B00308D55FEAC96005D5296810209A
:100E60004860284600F058F9F00307D55FEA09709A
:100E700004D528684760284600F082F9300446D53A
:100E80005FEA497040D5F00504D55FEAC87001D02B
:100E900044F00104B00504D55FEA887001D544F040
:100EA0000204700504D55FEA487001D544F00404DB
:100EB000300529D518F0700F26D008F070004028B2
:100EC00015D006DC102809D020280AD0302816D1E9
:100ED0000AE050280ED0602811D10EE044F008043A
:100EE0000DE044F010040AE044F0200407E044F070
:100EF000400404E044F0800401E044F48074286875
:100F0000816921F070018161296804204860002C0A
:100F100005D0686A204368622846FFF78FFEBDE867
:100F2000F09F70B5040003D094F8200010B104E0E5
:100F3000012070BD204600F081F82068016841F072
:100F40000101016000F028FA0546052604E000F0E2
:100F500023FA401B0A2811D820684068C007F6D041
:100F60002068016821F00201016000F015FA0546D1
:100F70000BE000F011FA401B0A2806D9606A40F421
:100F80000030606284F82060D2E720684068800703
:100F9000EFD4207E0128206801683DD021F0800137
:100FA0000160607E01282068016838D021F040018E
:100FB0000160A07E01282068016833D021F0200163
:100FC0000160E07E0128206801682ED041F0100108
:100FD0000160207F01282068016829D021F00801E4
:100FE0000160607F01282068016824D021F004019D
:100FF0000160D4E902010843D4E904121143084313
:101000006168491E08432168C861002060620120B0
:1010100084F82000002070BD41F08001C0E741F05D
:101020004001C5E741F02001CAE721F01001CFE7F8
:1010300041F00801D4E741F00401D9E710B586B0CA
:10104000044614216846FFF726F91B4920688842A8
:101050002FD11A480021026842F000720260006835
:1010600000F00070059015481038026842F0080240
:1010700002600068022200F0080005900320CDE91C
:101080000210CDE900020920049069460C4800F0E6
:101090008BF800220121132000F07AFC132000F0CD
:1010A00069FC00220121142000F072FC142000F0E1
:1010B00061FC06B010BD00000064004040380240F2
:1010C000000C02407047000000B50F4A016889B06B
:1010D0001268914215D107AB6A460021FFF7AFFDB8
:1010E00000980A49401EC0B20870094900EB800010
:1010F00001EB800007A903F063FD02210248FFF71E
:1011000096FC09B000BD0000700100200000002026
:101110009C000020704770477047000070B504467F
:1011200090F82000012804D0606A40F4002060623A
:1011300018E0022084F820002068016821F00101F5
:10114000016000F029F905460EE000BF00F024F927
:10115000401B0A2808D9606A40F40030606205200C
:1011600084F82000012070BD20684068C007EDD1E0
:10117000606270BD70477047704770477047704736
:101180007047000070B5044600F006F90546601C83
:1011900002D004480078044400F0FEF8401BA0424E
:1011A000FAD370BD880000202DE9F84FDFF8BCA10C
:1011B0000022012503264FF00F090AF1040BAAF1C2
:1011C000040E00BF0B6805FA02F42340A34270D15D
:1011D0000F7907F00307012F01D0022F16D187687E
:1011E0004FEA420806FA08FC27EA0C07D1F80CC0BF
:1011F0000CFA08FC4CEA070CC0F808C04768A74383
:101200000C79C4F3001494403C4344600C79E443EB
:10121000A4070AD0C4684FEA420C06FA0CF7BC4394
:101220008F6807FA0CF72743C7600C7904F00304B2
:10123000022C12D1D40800EB840CDCF820405707B4
:10124000FF0E09FA07F824EA0804D1F8108008FA1A
:1012500007F848EA0408CCF8208004684FEA420CFA
:1012600006FA0CF7BC430F7907F0030707FA0CF7EF
:10127000274307604C6814F4403F70D03C4C27680B
:1012800047F480472760246822F0030704F4804471
:101290000094384C07EB040CDCF8084897074FEA39
:1012A000177809FA08F7BC43334FB84202D1002738
:1012B00024E054E0314FB84201D101271EE0304F05
:1012C000B84201D1022719E02E4FB84201D10327BD
:1012D00014E02D4FB84201D104270FE02B4FB84244
:1012E00001D105270AE02A4FB84201D1062705E0BF
:1012F000284FB84201D1072700E0082707FA08F76E
:101300002743CCF80878DAF800405746D1F804C0F3
:101310009C435FEACC2C00D51C433C60DBF80040CA
:101320005F46D1F804C09C435FEA8C2C00D51C4377
:101330003C60DEF800407746D1F804C09C435FEA89
:101340008C3C00D51C433C60084F083F3C68D1F8FA
:1013500004C09C435FEACC3C00D51C433C60521C5B
:10136000102AFFF42FAFBDE8F88F0000083C0140C1
:1013700044380240003001400000024000040240B6
:1013800000080240000C024000100240001402401D
:1013900000180240001C02400148806870470000AD
:1013A0008800002070B5040025D094F83D00002589
:1013B00020B984F83C50204600F04CFA242084F8F0
:1013C0003D002068016821F001010160206801688A
:1013D00041F4004101602068016821F4004101608E
:1013E00000F0A2FB4D4A6168914201D84C4900E0EF
:1013F0004C49884201D2012070BD4B492368B0FBA3
:10140000F1F15E6826F03F060E435E60636893422A
:1014100006D94FF4967359434FF47A73B1FBF3F145
:101420002368491C1E6A26F03F0631431962616831
:10143000914210D84900401EB0FBF1F2521CC2F399
:101440000B02042A01D2042022E0B0FBF1F0401C80
:10145000C0F30B001CE0A268F2B301EBC10303EB85
:101460000116431EB3FBF6F35B1C43F480431B05DC
:1014700049D092B301EBC10202EB0111401EB0FB57
:10148000F1F0401CC0F30B0040F4804040F40040F9
:101490002168CA694CF6FF739A431043C861D4E9C6
:1014A000071001432068026822F0C0021143016066
:1014B000D4E9030101432068826848F2FF339A436C
:1014C00011438160D4E9050108432168CA6822F00C
:1014D000FF021043C86001E00EE016E020680168DA
:1014E00041F0010101602564202084F83D0025635E
:1014F00084F83E50002070BD01EB4106431EB3FB53
:10150000F6F35B1CB3E70120C2E701EB4101401E8B
:10151000B0FBF1F0401CC0F30B00B7E7A086010060
:1015200080841E0000093D0040420F002DE9FF4F5E
:1015300083B09A46DDE9119793460446DDF8408072
:10154000FFF72AFF054694F83D00202870D11923A3
:10155000012271492046009500F0EEFF0028F5D1E8
:1015600094F83C00012863D0012084F83C002068F6
:101570000168C90703D1016841F0010101602068D9
:10158000016821F400610160222084F83D004020C0
:1015900084F83E0000262664C4F82480A4F82A902B
:1015A000608D20855D48E062CDE9007553465A465E
:1015B0002046049900F0C8FE00287CD1208DD0B1CF
:1015C000012821D00228206824D041698069009038
:1015D000208D032869D801282BD0514902283B4689
:1015E0004FF00002009559D08846204600F0A4FF35
:1015F000002860D13CE02068416981690091016860
:1016000041F40071016077E02068016821F4806195
:101610000160F0E7016821F48061016020680168E1
:1016200041F400610160206841698069009063E0D5
:101630006FE02A463946204600F0FDFF98BB20683F
:101640000069616A08704EE02068016841F4007129
:10165000016020680069616A0870606A401C60620D
:10166000218D491E2185618D491E6185216838E0E3
:101670002068016821F48061016020680069616A66
:101680000870606A401C6062208D401E2085608D5D
:10169000401E60853B46002241460095204600F0F2
:1016A0004BFF00B9D0E706E0FFE72A46394620465F
:1016B00000F0C1FF18B1012007B0BDE8F08F20682D
:1016C0000069616A0870606A401C6062218D491E71
:1016D0002185618D491E618521684A69D24352077F
:1016E0000AD409690170606A401C6062208D401E46
:1016F0002085608D401E6085208D00287FF468AFB6
:10170000202084F83D0084F83E6084F83C6000208E
:10171000D2E70220D0E70000020010000000FFFF27
:10172000040001002DE9FF4F83B09A46DDE91197CF
:1017300093460446DDF84080FFF72EFE054694F8F8
:101740003D0020287FD119230122404920460095E1
:1017500000F0F2FE002876D194F83C00012872D007
:10176000012084F83C0020680168C90703D10168A2
:1017700041F0010101602068016821F4006101600D
:10178000212084F83D00402084F83E000026266495
:10179000C4F82480A4F82A90608D20852C48E0624B
:1017A000CDE9007553465A462046049900F04AFE9A
:1017B00070B930E02A463946204600F06FFF58B134
:1017C000206C042804D12068016841F40071016094
:1017D000012007B0BDE8F08F606A216800780861D9
:1017E000606A401C6062218D491E89B22185628D2C
:1017F000521E628522685369DB435B070BD469B1D3
:1018000000781061606A401C6062208D401E208557
:10181000608D401E6085208D0028CBD12A46394638
:10182000204600F063FE0028CAD154F83D0B016841
:1018300041F400710160202004F81E09E677667704
:101840000020C6E7FFE70220C3E700000200100007
:101850000000FFFF10B586B0044614216846FEF76D
:101860001AFD14492068884221D1134800210268DA
:1018700042F002020260006800F0020005904FF49E
:10188000407000901220CDE9010103200390042054
:10189000049069460948FFF787FC07481030016843
:1018A00041F400110160006800F40010059006B0DA
:1018B00010BD0000005400403038024000040240D7
:1018C00002488168027811448160704788000020D6
:1018D0000B4810B5016841F400710160016841F4E2
:1018E00080610160016841F480710160032000F0B3
:1018F0006FF80F2000F006F800F024F8002010BD6B
:10190000003C024070B50D4D04464FF47A712878C2
:10191000B1FBF0F00A490968B1FBF0F000F0FCFA05
:1019200048B9102C07D200222146501E00F030F892
:1019300000206C6070BD012070BD00008800002098
:10194000940000200A4808B5016841F48041016014
:10195000006800F4804000900548001F016841F0D5
:1019600080510160006800F08050009008BD0000C8
:1019700044380240002809DB00F01F020121914099
:101980004009800000F1E020C0F80011704700001D
:10199000F0B40E4B1B680C46C3F30223C3F10705DA
:1019A000042D00D90425191D072901D2002300E0C8
:1019B000DB1E012606FA05F1491E214099409E4092
:1019C000761E16403143F0BC01F035BA0CED00E054
:1019D000064900F0070208684FF6FF03184040EA86
:1019E0000220034A10430860704700000CED00E03D
:1019F0000000FA052DE9F0470E46050065D0DFF836
:101A00001481D8F80000F7B200F00700B04207D206
:101A100088F80070D8F8000000F00700B04254D1F8
:101A200028683D4C810712D5400703D5206840F453
:101A3000E05020602878000703D5206840F460401B
:101A400020602068A96820F0F00008432060287812
:101A5000C0072DD0304968680839012812D0022803
:101A600013D0032811D00968890700292DDA2168CD
:101A700021F0030101432160FFF78EFC814641F212
:101A8000883A0EE009688903EFE709688901ECE705
:101A9000FFF782FCA0EB0901514502D90320BDE804
:101AA000F0872068696800F00C00B0EB810FEFD17F
:101AB000D8F80010404601F00701B14207D907707D
:101AC000006800F00700B04201D00120E7E7287865
:101AD000400705D52068E96820F4E05008432060FD
:101AE0002878000706D52068296920F4604040EA7C
:101AF000C100206000F028F82168084AC1F30311F2
:101B0000515CC8400649086006480068FFF7FAFEC5
:101B10000020C4E7003C0240083802406E6A00081A
:101B2000940000208C0000200448054900680968E2
:101B3000044AC1F38221515CC840704794000020E0
:101B4000083802407E6A0008154810B5006810F099
:101B50000C02144813D01449042A0FD0082A0ED1BD
:101B60000F4C241F2268236802F03F025B0207D556
:101B70002068C0F38810A0FB010106E0084610BDF4
:101B80002168C1F38811A1FB00010023FEF71AFBB5
:101B90002168C1F30141491C4900B0FBF1F010BDBF
:101BA000083802400024F40040787D012DE9F84F08
:101BB00004006ED02078DFF84C93C007A9F104052B
:101BC0004AD009F104000168C1F38101012908D05C
:101BD0000068C0F3810002280AD1D9F80000400251
:101BE00006D52868800337D560680028E1D033E047
:101BF0006068B0F5803F10D0B0F5A02F286810D0F5
:101C000020F480302860286820F4802028606068F4
:101C1000A8B1FFF7C1FB06460DE0286840F480300C
:101C2000F4E740F480202860F7E700BFFFF7B4FB3B
:101C3000801B642873D828688003F7D50CE0FFF771
:101C4000ABFB064605E000BFFFF7A6FB801B642840
:101C5000F0D828688003F7D42078DFF8AC828007BA
:101C60004FF0000A3ED5A748001D016811F00C0F87
:101C700008D00068C0F3810002280BD1D9F8000019
:101C8000400207D42868800716D5E068012800D1F3
:101C900012E033E1E068B8B10120C8F80000FFF7B6
:101CA0007BFB064605E000BFFFF776FB801B0228A2
:101CB000C0D828688007F7D52868216920F0F80087
:101CC00040EAC10028600DE0C8F800A0FFF764FBFF
:101CD000064604E0FFF760FB801B02281FD8286837
:101CE0008007F7D42078000722D5864F874861699E
:101CF000703771B101210160FFF74EFB064604E029
:101D0000FFF74AFB801B022809D838688007F7D5FF
:101D10000EE0C0F800A0FFF73FFB064605E082E0BA
:101D2000FFF73AFB801B02287DD838688007F7D47C
:101D30002078400768D5DFF8CCB100270BF13C0BC9
:101D4000DBF80000C0000BD4DBF8001041F080513C
:101D5000CBF80010DBF80000012700F08050009065
:101D60006B4E3068C00510D4306840F4807030602D
:101D7000FFF712FB009005E0FFF70EFB0099401AF9
:101D8000022850D83068C005F6D55E4EA0686C3683
:101D900001280FD00528306810D020F001003060F5
:101DA000306820F004003060A068B8B1FFF7F4FAA2
:101DB00000900FE0306840F00100F4E740F00400CC
:101DC0003060F7E7FFF7E8FA0099411A41F28830EE
:101DD000814266D830688007F4D50EE0FFF7DCFA60
:101DE000009007E0FFF7D8FA0099411A41F28830D5
:101DF000814256D830688007F4D42FB1DBF8001048
:101E000021F08051CBF80010A069C8B33D49091DED
:101E10000968C1F3810102294AD00228504607D03F
:101E2000C8F8600000E03CE0FFF7B6FA04463BE08B
:101E30004746C8F86000FFF7AFFA064605E000BF66
:101E4000FFF7AAFA801B02282BD828688001F7D454
:101E5000D4E907010843A16A2E4A490802EB01416F
:101E6000626A41EA8211084394F82C1040EA016149
:101E7000C9F8001001203866FFF78EFA044606E024
:101E80003EE000BFFFF788FA001B022809D8286847
:101E90008001F7D534E000BFFFF77EFA001B02286F
:101EA00002D90320BDE8F88F28688001F4D427E028
:101EB0000128F7D0D9F80000E26900F480019142CE
:101EC0001CD1226A00F03F01914217D147F6C07140
:101ED000626A0140B1EB821F10D1A26A4FF0FF335A
:101EE00000F4403103EB5202B1EB024F06D194F8FB
:101EF0002C1000F07060B0EB016F01D00120D1E731
:101F00000020CFE70438024000004742800E4742DD
:101F1000007000400000FFFF10B5401EB0F1807F50
:101F200001D3012010BD4FF0E02460610F21601744
:101F300000F081FF0020A06107202061002010BD7B
:101F40007047704710B5040003D094F83D0010B1FD
:101F500007E0012010BD002084F83C00204600F07E
:101F60001FF8022084F83D00211D206800F0E6FEE5
:101F7000012084F8460084F83E0084F83F0084F88D
:101F8000400084F8410084F8420084F8430084F85B
:101F9000440084F8450084F83D00002010BD000096
:101FA00008B501681E4881420FD11E48016841F4FE
:101FB000802101600068002200F48020009011461A
:101FC0001A20FFF7E5FC1A2024E01648164A001FE5
:101FD00091420ED1016841F0800101600068002249
:101FE00000F08000009011462C20FFF7D1FC2C203F
:101FF00010E00E4A914211D1016841F480710160F4
:102000000068002200F48070009002212D20FFF76C
:10201000BFFC2D20BDE80840FFF7ACBC08BD0000A8
:102020000048014044380240001C004000200040AD
:1020300090F83D10012901D001207047022180F85D
:102040003D100168CA6842F00102CA600068114987
:10205000884214D0B0F1804F11D00F4988420ED081
:102060000E4988420BD00E49884208D00D4988425B
:1020700005D00D49884202D00C49884204D18168BC
:1020800001F00701062903D0016841F00101016058
:10209000002070470000014000040040000800409C
:1020A000000C0040000401400040014000180040C6
:1020B000704770B50446006801694FF00005C943D8
:1020C000890715D4C168C943890711D4E91E016184
:1020D00001202077206880698007204602D0FFF722
:1020E000E7FF04E000F098F8204600F096F8257726
:1020F00020680169C943490717D4C168C943490722
:1021000013D46FF0040101610220207720688069F8
:1021100010F4407F204602D0FFF7CAFF04E000F031
:102120007BF8204600F079F8257720680169C943DB
:10213000090716D4C168C943090712D46FF0080112
:102140000161042020772068C0698007204602D002
:10215000FFF7AEFF04E000F05FF8204600F05DF806
:10216000257720680169C943C90617D4C168C943E6
:10217000C90613D46FF01001016108202077206890
:10218000C06910F4407F204602D0FFF791FF04E0C1
:1021900000F042F8204600F040F8257720680169F9
:1021A000C943C90708D1C168C943C90704D1891EF9
:1021B0000161204600F032F820680169C943090630
:1021C00009D4C168C943090605D46FF080010161D3
:1021D0002046FFF7B5FE20680169C943490609D4C6
:1021E000C168C943490605D46FF04001016120462A
:1021F00000F090F820680169C94389060BD4C168D2
:10220000C943890607D46FF0200101612046BDE86B
:102210007040FFF796BE70BD7047704770B50546B9
:102220003048314C85422DED028B2BD1032020709C
:1022300001466060FEF788FB2C4E3169B068401A99
:10224000E060FEF7C8F99FED2A8B53EC182BFEF7E0
:10225000E1F8FEF7E4F9606101202070014660605A
:10226000FEF772FBB16B306B401A2061FEF7B3F9D9
:1022700053EC182BFEF7CEF8FEF7D1F9A061A06859
:10228000401CA0601C481D4E85420FD131461C48A1
:1022900000F0F4FA306DFEF7AFF99FED1A1B53EC26
:1022A000112BFEF710F8FEF7BAF930651748854292
:1022B00015D16069FEF7A0F9154DC5E90001A069C7
:1022C000FEF79AF9C5E90201F06CFEF795F9C5E948
:1022D0000401BDEC028BBDE8704000F005BABDEC16
:1022E000028B70BD7C0200206C0000209C0000204E
:1022F000000000000000AE3F340200201801002062
:1023000098010020D0E2D6EE682DF63EEC010020C8
:10231000D80200207047FEE701684A69D24352059F
:102320000FD46FF480624A61002140F8301F2022F0
:1023300042738173026942F0040202610173012059
:1023400070470020704700002DE9F84F04460068F0
:1023500089460B9D01689846174641F480610160EB
:102360002068016841F48071016000954FF0011B05
:102370000022594620460A9B00F0DEF84FF4007A0E
:1023800040B120680068C00501D5C4F840A0032012
:10239000BDE8F88F216809F0FE0008612B46284946
:1023A00020460A9A00F0FCF8F0BB20684169806979
:1023B00000902A4620460A9900F070F940B1206C3E
:1023C00004283AD12068016841F40071016034E0CA
:1023D000FEB2B8F1010F09D02168380A08612A4617
:1023E00020460A9900F05AF90028E8D120680661D1
:1023F0002A4620460A9900F051F90028DFD12068CA
:10240000016841F480710160009500225946204620
:102410000A9B00F091F80028B3D1216809F0FF0071
:1024200040F00100086100E007E02B460449204627
:102430000A9A00F0B5F80028AAD00120A8E7000009
:10244000020001002DE9F843044600680D46DDE96D
:10245000089701689846164641F4807101604B4622
:1024600000224FF001112046009700F065F848B1B6
:1024700020680068C00502D54FF400702064032076
:10248000BDE8F883216805F0FE0008613B464A4636
:102490001549204600F084F888B9206841698069B0
:1024A00000903A464946204600F0F8F848B1206CC2
:1024B000042804D12068016841F400710160012002
:1024C000DEE7F5B2B8F1010F09D02168300A0861E2
:1024D0003A464946204600F0E1F80028E7D1206856
:1024E00005610020CCE700000200010070B516462F
:1024F0000D4604460DE02046FFF70EFF08B101200F
:1025000070BD681C05D0FEF747FF801BA84207D8A6
:1025100035B120684069C0434007ECD4002070BD4D
:10252000002044F8300F20216173A073216941F02D
:10253000200121612073E2E72DE9F0471E46904615
:102540000D460446C1F30747DDF8209008E0701CF3
:1025500006D0FEF721FFA0EB0900B0420FD876B1FC
:102560002068012F18D0806925EA00000004000CC3
:1025700014D000214145EAD00020BDE8F0870020BA
:1025800044F8300F20216173A073216941F02001CC
:10259000216120730120F0E74069E5E70121E9E7C7
:1025A0002DE9F0479A4691460E46044600254FF025
:1025B0002008C1F3074725E020684069C043400573
:1025C00014D42068016841F40071016021686FF43F
:1025D00080604861256384F83D8084F83E50206C1B
:1025E00040F00400206484F83C501FE0B9F1FF3F44
:1025F00008D0FEF7D1FEA0EB0A0149450CD8B9F18D
:10260000000F09D02068012F13D0806926EA00004E
:102610000004000C0BD0CFE744F8305F84F80D8045
:10262000A573206940F02000206125730120BDE8DA
:10263000F0874069EAE72DE9F041002590460E4613
:102640000446202717E04069C043C0060CD454F864
:10265000301B6FF01000486144F810596777A57778
:10266000206A2062257717E0FEF796FEA0EB0800AF
:10267000B04208D83EB120684169C9434906E2D456
:102680000020BDE8F08144F8305F6773A5732069CE
:1026900040F02000206125730120F2E770B5164656
:1026A0000D4604460DE02046FFF736FE08B1012036
:1026B00070BD681C05D0FEF76FFE801BA84207D8CE
:1026C00035B120684069C0430006ECD4002070BDDD
:1026D000002044F8300F20216173A073216941F07C
:1026E000200121612073E2E770B53B4C9FED3B1B5D
:1026F00004F128052DED0A8B04F1100653EC112B83
:1027000094ED000B85ED000B94ED020B85ED020BB3
:1027100096ED040B51EC100BFDF77CFE41EC180B11
:1027200085ED048BB0EE480AF0EE680A01F014F86B
:10273000B0EE409AF0EE609AB0EE480AF0EE680A09
:1027400000F0A6FF96ED02ABB0EE40BAF0EE60BA34
:1027500053EC192B51EC1A0BFDF75CFE96ED008B38
:1027600041EC1C0B53EC1B2B51EC180BFDF752FEEC
:1027700053EC1C2BFDF748FE9FED1ACB53EC1C2BA2
:10278000FDF748FE94ED001B53EC112BFDF79BFD6C
:10279000C4E9000153EC1B2B51EC1A0BFDF73AFE78
:1027A00041EC1A0B53EC192B51EC180BFDF732FED0
:1027B00053EC1A2BFDF787FD53EC1C2BFDF72AFE7B
:1027C00094ED021B53EC112BFDF77DFDC4E90201D2
:1027D000BDEC0A8B70BD0000C8020020399D52A2DA
:1027E00046DF913F7B14AE47E17A843F2DE9FF41FC
:1027F000804601252048CDE9000564242B4675223A
:10280000D02102944046FEF791FE1B4800786828CC
:102810002FD1002703AE8DF80C700096CDE901543E
:1028200001236B22D0214046FEF77CFF07208DF864
:102830000C000096CDE9015401231922D021404615
:10284000FEF770FF18208DF80C000096CDE90154BA
:1028500001231B22D0214046FEF764FF8DF80C7047
:102860000096CDE9015401231C22D0214046FEF7F9
:1028700059FFBDE8FF8100003400002070B50C4610
:102880002DED028B86B0054600F028F96422062162
:1028900003A88DE8070001233B22D0212846FEF73C
:1028A00045FEBDF80C0040BA00B22080BDF80E1005
:1028B00049BA0EB26680BDF8101049BA0DB2A580B3
:1028C000FDF789FE9FED208B53EC182BFDF7A2FD41
:1028D000C4E902013046FDF77EFE53EC182BFDF7EC
:1028E00099FDC4E904012846FDF775FE9FED181B0C
:1028F00053EC112BFDF700FEC4E90601206DFDF736
:102900007BFE9FED151B53EC112BFDF7DCFCFDF757
:1029100086FE00EE100A124884ED140AD0ED060A75
:1029200070EE200AC4ED120AD0ED070A70EE200AFC
:10293000C4ED130AD0ED050A30EE200A84ED110A29
:1029400006B0BDEC028B70BD000000000000103F1F
:10295000000000000029CC40D0E2D6EE682DF63E03
:10296000340000200E4810B50C490160152141606B
:1029700000214FF480328160C0E903124161017689
:1029800041768176C17601774177FEF7CAFA002851
:1029900003D0BDE81040FEF748B810BD0064004009
:1029A00070010020114808B5016841F08001016004
:1029B000016801F080010091016841F001010160AE
:1029C000016801F001010091016841F00801016016
:1029D000016801F008010091016841F00201016005
:1029E000006800F00200009008BD0000303802408E
:1029F0000D4810B50B4901600C49416000214FF4AE
:102A000080428160C0E9031241618161C16101625C
:102A1000FEF7C8FC002803D0BDE81040FEF705B85B
:102A200010BD00000054004098010020801A0600EC
:102A30000B4810B50949016053214160002142F261
:102A40001072C0E9021201618161FFF77BFA002870
:102A500003D0BDE81040FDF7E8BF10BD00480140BD
:102A6000EC0100200C4810B50A4901605321416077
:102A7000002141F28732C0E90212016180218161A7
:102A8000FFF760FA002803D0BDE81040FDF7CDBF86
:102A900010BD0000001C0040340200200C4810B59E
:102AA0000A49016053214160002142F20F72C0E9DE
:102AB0000212016180218161FFF744FA002803D0EE
:102AC000BDE81040FDF7B1BF10BD00000020004080
:102AD0007C020020FEE7FEE77047000010B560486A
:102AE0002DED0A8B88B007A906AB02AACDE900013B
:102AF00000F124011E3001F085FC594CA41E6088B1
:102B0000C0057CD59DED020AF8EEC00A9FED550A7E
:102B1000B8EE009AB0EE008A60EE801AC4ED011A99
:102B2000DDED030AF8EEE00A60EE800AC4ED020A69
:102B30009DED041A60EE890AB8EEC11A21EE001A62
:102B400084ED031A9DED052AB8EEC22A22EE000A92
:102B500084ED040A20EE800A61EE880A00EE810A04
:102B600010EE100AFDF748FD41EC100B00F074F96F
:102B70009FED3DAB51EC100B53EC1A2BFDF74AFCCB
:102B8000FDF74DFD6061D4ED028A28EE890A60EE02
:102B9000280A94ED030A20EE08BA4BEE400AB7EE7D
:102BA000000A30EE800A10EE100AFDF725FD94EDC4
:102BB000040AD4ED010A41EC190B2BEE000A60EE79
:102BC000880A00EEA80A10EE100AFDF715FD41EC88
:102BD000100BB0EE491AF0EE691A00F059FC53ECF4
:102BE0001A2B51EC100BFDF715FCFDF718FDA06139
:102BF00094ED01CAD4ED029A2CEE0C0A00E02AE012
:102C000009EEA90A94ED039AD4ED048A09EE490A63
:102C100008EEE80A10EE100AFDF7EEFC29EE890A2C
:102C200041EC1B0B0CEE280A20EE080A10EE100AED
:102C3000FDF7E2FC41EC100BB0EE4B1AF0EE6B1A14
:102C400000F026FC53EC1A2B51EC100BFDF7E2FBC5
:102C5000FDF7E5FCE06108B0BDEC0A8B10BD00009B
:102C600036000020000080306666666666A64C402E
:102C70007047FEF725BE000030B593B0302168469E
:102C8000FDF709FB14210CA8FDF705FB1C480025E6
:102C9000016841F080510160006800F0805011909F
:102CA0001848016841F4804101600068022400F482
:102CB000804011900120039010200490009406940D
:102CC0000820CDE90750A820CDE9090404200B9085
:102CD0006846FEF76BFF08B172B6FEE70CA90F203D
:102CE00081E831004FF4A0500F90109005210CA8FE
:102CF000FEF780FE002801D072B6FEE713B030BDAB
:102D000040380240007000400248016841F4700100
:102D10000160704788ED00E00148FFF7CAB9000084
:102D2000EC0100200148FFF7C4B900007C0200203C
:102D30000148FFF7BEB9000034020020F0B5026878
:102D4000254C264D264E274F274B4FF0804CA04256
:102D500009D0604507D0A84205D0B04203D0B842A0
:102D600001D0984204D122F0700E4A6842EA0E0265
:102D7000A0421BD0604519D0A84217D0B04215D050
:102D8000B84213D0984211D0184DA8420ED0184D19
:102D9000A8420BD0174DA84208D0174DA84205D025
:102DA000164DA84202D0164DA84203D122F4407518
:102DB000CA682A434D6922F080022A4302608A6869
:102DC000C2620A688262A04201D0984201D10969B8
:102DD000016301214161F0BD000001400004004099
:102DE00000080040000C0040000401400040014089
:102DF000004401400048014000180040001C004011
:102E000000200040FEE703B401984100009850EA1A
:102E1000C12018BF04204A0D18BF40F0010040F245
:102E2000FF72B2EB515F08BF40F00200012808BFFB
:102E3000052002B070470907090E002804DB00F1E5
:102E4000E02080F80014704700F00F0000F1E0204F
:102E500080F8141D7047000070B5C1482DED020BBD
:102E60002DED0E8B82B0119D25F000449FEDBEDB51
:102E70009FEDBFEB84423EDBA4F140511098A1F1DD
:102E80007F6108430FD0BC48844202DC28D11098EF
:102E900030B39DED100B02B0BDEC0E8B02B0BDE85F
:102EA000704001F0A5B89DED100B53EC1D2B51ECBB
:102EB000100BFDF7AFFA9DED100B41EC180B53EC26
:102EC0001E2B51EC100BFDF7A5FA53EC182BFDF758
:102ED000FAF941EC100B02B0BDEC0E8B02B070BDE4
:102EE000012001F0C9F802B0BDEC0E8B02B0BDE8C4
:102EF000704001F091B8A1489FEDA18B844256DA51
:102F00009DED100BB4F1795F0ADA51EC100BFFF76D
:102F10007AFF042808BF01F08FF89DED100BDAE767
:102F200053EC102B51EC100BFDF774FA41EC190B1C
:102F300095480621B0EE490AF0EE690A784400F09F
:102F400043FF53EC192B51EC100BFDF763FA41ECE6
:102F50001A0B8E48B0EE490AF0EE690A0421784453
:102F600000F032FF53EC192B51EC100BFDF752FA25
:102F700053EC182BFDF7A7F941EC100B51EC1A0B91
:102F800053EC102BFDF7B8FACDE900019DED000BD5
:102F900053EC102B9DED100B51EC100BFDF73AFA92
:102FA0009DED101B53EC112BFDF78DF9D2E09DED3B
:102FB000100B51EC100B01F09DFD53EC182BFDF79D
:102FC00026FA9FED730BCDE9000153EC102B9DED1C
:102FD000000B51EC100BFDF71DFA41EC190B6E487C
:102FE0000621B0EE490AF0EE690A784400F0ECFEE2
:102FF00053EC192B51EC100BFDF70CFA41EC1B0BA9
:103000006648B0EE490AF0EE690A0421784400F0FF
:10301000DBFE53EC192B51EC100BFDF7FBF953ECD5
:10302000182BFDF750F941EC1C0B51EC190B02F079
:10303000C3FE41EC180B5A489FED5BABA04222DC6B
:1030400053EC1C2B51EC1B0BFDF756FACDE900019C
:103050009DED000B51EC180B53EC102BFDF7DAF93A
:1030600053EC182BFDF72FF953EC1A2BFDF7D2F97F
:1030700053EC1D2BFDF7C8F953EC1E2BFDF7C7F9D8
:1030800041EC100B5FE08DED008B002000909DED7A
:10309000000B51EC180B53EC102BFDF714F99DEDC0
:1030A000000B41EC1E0B53EC102B51EC100BFDF7F9
:1030B000B1F953EC192BFDF7AAF953EC1E2BFDF7D0
:1030C0001BFA41EC190B53EC1C2B51EC1B0BFDF7BD
:1030D00013FA41EC1B0B53EC1A2B51EC190BFDF7B7
:1030E00099F953EC1D2BFDF792F941EC190B53ECB8
:1030F0001A2B51EC180BFDF78DF953EC1B2BFDF738
:1031000089F953EC192BFDF77FF99DED000B41EC8C
:10311000180B53EC1A2B51EC100BFDF77BF99FEDBC
:10312000249B53EC192BFDF772F941EC100B51EC79
:10313000180B53EC102BFDF767F953EC192BFDF727
:1031400066F941EC100B002D3FF7C5AE51EC100BAA
:1031500081F0004141EC100BBDE6000000000000D2
:103160000000F03F00000000075C143326A6913CED
:10317000182D4454FB21F93F0000F07F0000E03F90
:10318000000000000000F03F483B0000563B0000FC
:10319000000000000000E03F9A3A0000A83A00005A
:1031A0003333EF3F0000000000000000000000404B
:1031B000182D4454FB21E93F70B59B482DED020BBF
:1031C0002DED068B079D25F00044A04218DC9748A2
:1031D000844202DC0AD1069840B19DED060BBDEC9D
:1031E000068B02B0BDE8704000F002BF002DCCBFDE
:1031F0009FED8F0B9FED900BBDEC068B02B070BD69
:103200008F48A04215DD8F48A042D8BF4FF0FF3451
:1032100058DD9DED060B51EC100BFFF7F4FD042873
:1032200008BF00F009FF9DED060BBDEC068B02B058
:1032300070BD9DED060B51EC100B01F05BFCCDE970
:10324000060181489FED828BA0423CDD8248A0426E
:103250001FDD00249FED82AB9DED060B53EC1A2B76
:1032600051EC100BFDF72FF89DED060B41EC190BFF
:1032700053EC1A2B51EC100BFDF7CCF853EC182B38
:10328000FDF7C2F853EC192BFDF736F9CDE906012D
:1032900049E09DED060B012453EC182B51EC100B6B
:1032A000FDF711F89DED060B41EC190B53EC182BB3
:1032B00051EC100BFDF7A8F853EC192BFDF71CF996
:1032C000CDE906012FE06848A0421FDD02249FEDF2
:1032D000689B9DED060B53EC192B51EC100BFDF781
:1032E00099F853EC182BFCF7EEFF9DED060B41EC23
:1032F000180B53EC192B51EC100BFDF785F853EC20
:10330000182BFDF7F9F8CDE906010CE09DED060B51
:10331000032453EC102B9FED580B51EC100BFDF7D1
:10332000EBF8CDE906019DED060B53EC102B51ECAB
:10333000100BFDF76FF841EC180B53EC182BFDF751
:1033400069F841EC190B4E480621B0EE490AF0EE3F
:10335000690A784400F038FD53EC182B51EC100B3F
:10336000FDF758F841EC180B4648B0EE490AF0EE6C
:10337000690A0521784400F027FD53EC192B51EC24
:10338000100BFDF747F841EC100B51EC180B53EC08
:10339000102B002C0EDAFCF796FF9DED061B53EC6C
:1033A000112BFDF737F89DED061B53EC112BFDF7A4
:1033B0002EF835E0FCF787FF9DED061B53EC112B33
:1033C000FDF728F841EC100B2F48784400EBC400BF
:1033D00090ED001B51EC100B53EC112BFDF714F882
:1033E0009DED061B53EC112BFDF70EF841EC100B75
:1033F0002648784400EBC40090ED001B51EC100B04
:1034000053EC112BFDF703F841EC100B002DA2BF7C
:10341000BDEC068B02B070BD51EC100B81F0004189
:1034200041EC100B01E70000000010440000F07FA9
:10343000182D4454FB21F93F182D4454FB21F9BFAA
:103440000000DC3F0000203E0000F33F00000000D1
:10345000000000000000F03F0000E63F0000000018
:103460000000000000000040008003400000000059
:10347000000000000000F83F000000000000F0BF66
:10348000EA370000A03700002A370000E2360000CB
:1034900070B56F4E2DED040B2DED048B82B0DDF871
:1034A00024C0DDE907235C422CF000411C4341EAC3
:1034B000D474069D22F00040B44205D86C422C43DF
:1034C00040EAD474B4420BD99DED081B9DED060B68
:1034D00002B0BDEC048B04B0BDE8704000F092BDBA
:1034E000ACF14054A4F17F641C430BD0022404EAE5
:1034F000AC7444EAD27405439FED578B9FED582B73
:1035000007D015E09DED060B51EC100B00F002FE0C
:1035100042E0002C11BF012C9DED060B02B0BDEC6A
:10352000048B04BF04B070BD022C38D0032C3BD0F8
:103530000B439FED4D1B9FED4E0B0AD0B14218D1AE
:10354000B04209D121F0804120F0804009910790DC
:103550000FE0002A15DA10E0474B7B44002C08BF2F
:1035600093ED000B0DD0012C10D0022C17D0032CA2
:103570001AD0B0421DD1002A03DAB0EE410AF0EEB3
:10358000610A02B0BDEC048B04B070BD93ED000B7A
:1035900051EC100B81F0004141EC100BF1E7B0EE63
:1035A000480AF0EE680AECE7B0EE420AF0EE620A72
:1035B000E7E7401A00159FED329B3C28C8BF8DED10
:1035C000000B17DCBCF1000FBCBF10F13C0F8DED00
:1035D000009B0FDB9DED080B53EC102B9DED060BB4
:1035E00051EC100BFCF788FF01F084FA00F092FD1B
:1035F000CDE90001B4B1012C10D0022C9FED220BBB
:1036000053EC102B9DED000B51EC100B19D0FCF777
:10361000FBFE53EC182BFCF7F7FEBDE7019880F09A
:10362000004001909DED000B53EC192B51EC100B59
:10363000FDF7D6F804BF022000F01EFD9DED000B43
:103640009FE7FCF7E1FE53EC182BFCF7E0FEA3E745
:103650000000F07F00000000182D4454FB210940B9
:10366000182D4454FB2109C0182D4454FB21F9BFE7
:10367000182D4454FB21F93F4236000000000000A1
:103680000000000000000000075C143326A6A13CE7
:1036900010B52F499FED2C1B2DED020B84B0059822
:1036A00020F000408842D8BF9DED040B2DDD294954
:1036B000884209D1049840B94FF0010000F0DCFCC9
:1036C00000F0AAFC06B010BD05DB9DED040B00F078
:1036D0008FFC06B010BD68469DED040B00F0A0F80D
:1036E00010F0030004BF9DED021B9DED000B0CD0FC
:1036F00001280ED09DED021B9DED000B022817D076
:10370000012000F0DDFB06B010BD00F0A5FA06B008
:1037100010BD9DED021B9DED000B012000F0D0FBC4
:1037200051EC100B81F0004106B041EC100B10BDC4
:1037300000F092FA51EC100B81F0004106B041EC20
:10374000100B10BD00000000000000000000000091
:10375000FB21E93F0000F07F10B52F499FED2C1BA6
:103760002DED020B84B0059820F000408842DCBFAC
:1037700000209DED040B32DD2849884209D10498D0
:1037800040B94FF0010000F077FC00F045FC06B0B6
:1037900010BD05DB9DED040B00F02AFC06B010BD4A
:1037A00068469DED040B00F03BF810F0030011D0CB
:1037B000012818D09DED021B9DED000B02281AD0A8
:1037C00000F04AFA51EC100B81F0004106B041ECD8
:1037D000100B10BD9DED021B9DED000B012000F0B4
:1037E0006FFB06B010BD9DED021B9DED000B00F0C0
:1037F00033FA06B010BD012000F062FB51EC100B53
:1038000081F0004106B041EC100B10BD000000003B
:103810000000000000000000FB21E93F0000F07FF5
:103820002DE9F14F04462DED020B2DED088B8AB0EA
:103830009FEDE70B80ED020B139EE74826F0004555
:1038400085420ADC9DED120B002084ED000B0AB0CE
:10385000BDEC088B03B0BDE8F08FE0489FEDE0AB16
:103860009FEDE1BBA84247DDE14F9FEDE39B9FED5C
:10387000E48B9DED120B53EC1A2B51EC100B002E28
:103880001CDDFCF7C1FD41EC100BBD4208D053EC30
:103890001B2B51EC100BFCF7B7FDC4E900010BE04A
:1038A00053EC192B51EC100BFCF7AEFD53EC182B1D
:1038B000FCF7AAFDC4E900010120C8E7FCF703FDFD
:1038C00041EC100BBD4208D053EC1B2B51EC100BFC
:1038D000FCF7F9FCC4E900010BE053EC192B51ECA7
:1038E000100BFCF7F0FC53EC182BFCF7ECFCC4E9D4
:1038F00000014FF0FF30AAE7C348A84279DB9DEDF5
:10390000120B51EC100B01F0F5F841EC180B9FED88
:10391000C00B53EC102BFCF77DFD9FEDBF1B53EC50
:10392000112BFCF7D0FCFCF7E3FF0746FCF753FE36
:1039300041EC190B53EC1A2BFCF76CFD53EC182BD4
:10394000FCF765FD41EC180B53EC1B2B51EC190BEC
:10395000FCF760FDDFF8C8A241EC100B4FEA1558E8
:103960000125FA4453EC102B51EC180BFCF74CFDDD
:10397000032DC4E900013DD0C1F30A5005EB451108
:10398000A8EB00001139814234DA0AEB051BB0EED6
:1039900048AA9BED000BF0EE68AA53EC102B51ECFB
:1039A000190BFCF737FD41EC1B0B51EC1A0B53ECD8
:1039B0001B2BFCF729FD41EC180B51EC1A0B53ECB7
:1039C000182BFCF721FD53EC1B2BFCF71DFD9BED89
:1039D000020B41EC1A0B53EC102B51EC190BFCF7BA
:1039E00019FD53EC1A2BFCF70FFD41EC100B6D1C6D
:1039F000B8E70EE0002EA8BF3846BFF628AF94ED1A
:103A0000000B51EC100B81F00041C4E90001784239
:103A10001DE7C6F3130040F4801EC6F30A50A0F25F
:103A2000F530471100F01F05C5F12000DDF848B062
:103A300008900020069007900520EC467949002D5B
:103A400007EB0002794408BF51F8221009D051F861
:103A5000223001EB8201AB404A68089922FA01F159
:103A60001943A1FB0E26A1FB0B131A449A4234BF43
:103A70000123002303EB06080CEB8003D3E901A626
:103A80000E448E4234BF0121002192448A4411B178
:103A9000924502D903E0924501D2012100E00021C4
:103AA000C3E901A641444CF82010011EA0F1010019
:103AB000C4DC029800F10050850F0298DDE903672D
:103AC0008000DDF81480FCF786FD41EC1A0B3046CF
:103AD000FCF701FF9FED541B53EC112BFCF79AFCF4
:103AE00041EC1B0B3846FCF7F6FE9FED511B53ECE7
:103AF000112BFCF78FFC41EC180B4046FCF7EBFE5A
:103B00009FED4D1B53EC112BFCF784FC41EC190B82
:103B100051EC180B53EC192BFCF7D5FB53EC1B2B7A
:103B2000FCF7D1FB53EC1A2BFCF7CDFBCDE90801D8
:103B3000002008909DED080B53EC1A2B51EC100B54
:103B4000FCF762FC53EC1B2BFCF75EFC53EC182BD0
:103B5000FCF75AFC53EC192BFCF759FC9FED381B72
:103B600053EC112BFCF756FC9FED370B41EC180B77
:103B700053EC102B9DED080B51EC100BFCF74AFC9D
:103B800053EC182BFCF79FFB9FED310B41EC180B0E
:103B900053EC102B9DED080B51EC100BFCF73AFC8D
:103BA00053EC182BFCF78FFB41EC100B139810F023
:103BB000004F06D06D4251EC100B81F0004141ECFA
:103BC000100B284684ED000B41E6000000000000C9
:103BD0000000000000000000FB21E93F7CD902400A
:103BE00000004054FB21F93F3163621A61B4D03DBB
:103BF000FB21F93F000000000000601A61B4D03DD5
:103C00007370032E8A19A33BFB2139410000000089
:103C100083C8C96D305FE43F000000000000E03F52
:103C20004232000090310000000000000000103E11
:103C3000000000000000103C000000000000103AEE
:103C4000182D4454FB21F93D3326A611460B113C97
:103C500000000054FB21F93D10B52DED040B2DEDB6
:103C6000088B82B0B0EE419AF0EE619A0B9820F08A
:103C700000449FED4BABB4F1795F11DA9DED0A0B77
:103C800051EC100BFCF734FE002801BFB0EE4A0ADD
:103C9000F0EE6A0A02B0BDEC088B04BF04B010BDA0
:103CA0009DED0A0B53EC102B51EC100BFCF7B2FB03
:103CB00041EC180B3C480621B0EE480AF0EE680AC9
:103CC000784400F081F853EC182B51EC100BFCF702
:103CD000A1FB9DED0A0B41EC1B0B53EC192B51EC96
:103CE000100BFCF797FB41EC190B53EC1B2B51EC21
:103CF000180BFCF78FFB53EC192BFCF785FB9FEDA2
:103D00002C0B41EC190B53EC102B51EC180BFCF75E
:103D100081FB41EC100B2848844210DA53EC192B3C
:103D200051EC100BFCF770FB53EC1A2BFCF76FFBFC
:103D300041EC100B02B0BDEC088B04B010BD1F4865
:103D4000A042BCBF9FED1E1B8DED001B06DBA4F542
:103D500000100190002000909DED001B51EC100B15
:103D600053EC112BFCF750FB9DED000B41EC180BB5
:103D700053EC102B51EC1A0BFCF746FB41EC1A0BE1
:103D800053EC192B51EC180BFCF73EFB53EC1A2BA0
:103D9000FCF73DFB41EC100BCCE7000000000000FD
:103DA000000000000000F03FAC2E0000000000000A
:103DB000000000000000E03F3333D33F0000E93F44
:103DC000000000000000D23F70B504462DED028BCC
:103DD0004D1E00EBC500B0EE408AF0EE608A90ED1B
:103DE000000B35F0060017D053EC182B51EC100BDC
:103DF000FCF710FB41EC100B6D1E04EBC50090EDC1
:103E0000001B51EC100B53EC112BFCF75CFA41EC4E
:103E1000100B35F00600E7D1022D36D0042D1CD052
:103E2000062D1CBFBDEC028B70BD53EC182B51EC62
:103E3000100BFCF7EFFA94ED0A1B53EC112BFCF777
:103E400042FA53EC182BFCF7E5FA94ED081B53ECFF
:103E5000112BFCF738FA41EC100B53EC182B51ECFA
:103E6000100BFCF7D7FA94ED061B53EC112BFCF763
:103E70002AFA53EC182BFCF7CDFA94ED040B53EC13
:103E8000102BFCF720FA41EC100B53EC182B51ECE3
:103E9000100BFCF7BFFA94ED021B53EC112BFCF74F
:103EA00012FA53EC182BFCF7B5FA94ED001B53EC07
:103EB000112BFCF708FABDEC028B41EC100B70BD26
:103EC00031B504462DED040B2DED0A8BB0EE41BA51
:103ED000F0EE61BA0B989DED0A0B20F00040B0F1B6
:103EE000795F0DDA51EC100BFEF78DFF042808BF47
:103EF00000F0A2F89DED0A0BBDEC0A8B05B030BDB9
:103F000053EC102B51EC100BFCF784FA41EC180B1E
:103F10009DED0A0B53EC182B51EC100BFCF77AFAC1
:103F200041EC190B2C48B0EE480AF0EE680A052166
:103F30007844FFF749FF9FED2ACBB0EE40AAF0EEA0
:103F400060AA9CB353EC1C2B51EC190BFCF762FAE2
:103F500041EC1C0B53EC1A2B51EC190BFCF75AFAE1
:103F60009FED210B41EC190B53EC102B51EC1B0B6B
:103F7000FCF750FA53EC192BFCF746FA53EC182BCC
:103F8000FCF748FA53EC1B2BFCF73EFA53EC1C2BC6
:103F9000FCF73AFA9DED0A1B53EC112BFCF737FAAC
:103FA000BDEC0A8B05B041EC100B30BDFFE753ECC4
:103FB0001A2B51EC180BFCF72DFA53EC1C2BFCF7C9
:103FC00082F953EC192BFCF725FA9DED0A1B53ECF3
:103FD000112BFCF778F9E3E73C2D0000000000000E
:103FE000495555555555C5BF000000000000E03F3C
:103FF00010B553EC102B51EC100BFCF764F941ECAD
:10400000100B10BD10B553EC112B51EC100BFCF73D
:104010005AF941EC100B10BD9FED050B10B553EC98
:10402000102B51EC100BFCF767FA41EC100B10BD94
:1040300000000000000000009FED050B10B553ECE0
:10404000102B51EC100BFCF7E5F941EC100B10BDF7
:10405000000000000000001002E008C8121F08C1A4
:10406000002AFAD170477047002001E001C1121FF9
:10407000002AFBD17047000001490860704700002A
:1040800098000020FEB506460D460024684600F064
:104090003DFD00229FED1B1A6B46012156F8227050
:1040A00055F82200381A00D5404200EE100A03EB02
:1040B0008200B8EEC00AD0ED000A20EE010AF5EE4B
:1040C000C00AF1EE10FA0DD0C0EE201AB7EE000AC9
:1040D0000D4F31EEC00AB0EEC00A10EE100AB84221
:1040E00007DC09E010EE100A084F3844084FB842C8
:1040F00002D301FA02F00443521C032ACEDB20460D
:10410000FEBD000000008037295C0F3E666666C178
:104110009A99D90010B541EC100BFFF74DF851EC0E
:10412000100B10BD00B58BB001200690202100912E
:104130000890002060210191079040210291802188
:104140000590CDE9031069460548FCF7F1FC0448E9
:10415000FCF7E4FF02210248FCF769FC0BB000BD4C
:104160007001002008B560B120208DF800002820E3
:104170008DF8010030208DF8020038208DF8030002
:1041800004E0A32204216846FCF77EF86A46042175
:1041900040F69E2001F078FD01F03EFA08BD0000D7
:1041A0003EB5044602208DF80000CA208DF80100BB
:1041B000E3208DF8020009208DF803006A460421EF
:1041C000682001F061FDA3208DF80000610609D58B
:1041D000C0218DF80110C8218DF80210C2218DF880
:1041E000031005E08DF801008DF802008DF8030042
:1041F00014F4C07F09D0C4218DF80410CC218DF8AF
:104200000510C6218DF8061005E08DF804008DF824
:1042100005008DF806008DF808008DF807008DF870
:1042200009006A460A2140F6A72001F02DFDA007EB
:104230004FF0D80503D020208DF8000001E08DF864
:1042400000506A46012140F6B62001F01DFDA0068F
:1042500001D5012000E0002000F08EF814F4C07FAA
:104260001ED0E0050AD5B2208DF800008B208DF815
:104270000100B6208DF802009B2009E0B0208DF8E7
:10428000000080208DF80100B4208DF802009020FD
:104290008DF803006A46042140F6A22001F0F4FCE8
:1042A000E1074FF40B6022D0F8218DF800106A4628
:1042B000012101F0E9FCFA21072000F04BFB072067
:1042C00000F016FB012000F033FB642000F0F2FB4D
:1042D0004FF4FA7000F0FEFBC821254800F0D0FA38
:1042E000282000F0E5FA0A2000F0F2FA05E08DF847
:1042F00000506A46012101F0C7FCA00703D5D92070
:104300008DF8000001E08DF800506A46012140F26E
:104310003D7001F0B9FC600701D5012000E00020EC
:1043200000F048F8E00601D5012000E00020FFF78A
:1043300019FF104D44F00800688101F06DF900206C
:10434000A873600601D50620A87314F4C07F02D0BC
:10435000A87B801DA87314F0140F02D0A87B103026
:10436000A873A00702D0A87B001DA87300203EBD43
:1043700009E3CA02040100200EB54FF4976310B19F
:1043800006A107C901E008A207CA8DE807006A462E
:104390000921184601F078FC0EBD0000B8AAB38DC3
:1043A000B4980D355D000000B8AAAAAAB088C3C5AC
:1043B000C700000008B560B1C0208DF80000C22021
:1043C0008DF80100C4208DF80200C6208DF803008E
:1043D00004E08B2204216846FBF756FF6A4604215D
:1043E00040F6982001F050FC01F016F908BD0000DD
:1043F000C8234FF48062024940F6F63000F0EEBF69
:10440000785E00082DE9FF4F89B01746DDE91652A6
:104410000024554E884681462C80A246B07B6946D2
:1044200001F088F84FF0FF3B18B158460DB0BDE8D9
:10443000F08F708910F0140F4ED0BDF800109DF869
:10444000022049BA090441EA02229DF803100A43F6
:104450003A60BDF804109DF8063049BA090441EAF3
:1044600003219DF80730121419437960BDF8083014
:104470009DF80A405BBA1B0443EA04239DF80B40F5
:1044800009142343BB60BDF80C409DF80EC064BA0C
:10449000240444EA0C2C9DF80F404CEA040C102430
:1044A000C7F80CC01B144FEA2C4712FB02F211FB99
:1044B000012113FB03F217FB07221144A1F17061E4
:1044C000B1F1007F04D901F0A7F8A5F800A0ACE78E
:1044D000298841F4807129804206694611D50A195C
:1044E000A41D13885BBAA8F8003053885BBAA8F8FB
:1044F0000230928852BAA8F804202A8842F00802B2
:104500002A8010F4C07F11D00A19A41D13885BBA49
:10451000A9F8003053885BBAA9F80230928852BAE1
:10452000A9F804202A8842F070022A80800716D059
:104530000C44E07800F0C00500F03F016078C0074F
:1045400006D0C80801F007013268491C02B1904743
:104550006078000703D5716809B1A80988470C98ED
:1045600001F0BCFB002061E7040100202DE9FF41C0
:10457000044603A800F014FEBDF80C00410CC30370
:104580002F48008900F0030254F82250420700D55A
:104590006D42C0F3C102860654F8222000D5524273
:1045A000C0F38116C00554F8264000D56442A5FB2F
:1045B0000367E81700FB037005FB0100850045EA6F
:1045C0009670A2FB0367D51705FB037502FB01522A
:1045D000950045EA9672A4FB0367E51705FB037394
:1045E00004FB01318B0043EA9671030E8DF8003015
:1045F000030C8DF80130030A8DF802308DF80300AA
:10460000100E8DF80400100C8DF80500100A8DF8BE
:104610000600080E8DF80800080C8DF80900080A3D
:104620008DF80A008DF807208DF80B106A460C21D2
:104630004FF4257001F028FB04B0BDE8F0810000C4
:104640000401002030B5044613A285B007CA8DE8E6
:1046500007004FF0FF35C82C16D8C820B0FBF4F186
:10466000491E080A8DF80C008DF80D1003AA0221CE
:1046700040F2162001F008FB30B96A460C2140F6E2
:10468000C12001F001FB10B1284605B030BD05483E
:1046900084810020F9E70000FEF2ABC4AAF1DFDF5D
:1046A000BBAFDFDF04010020F8B53049098901F014
:1046B000030250F822404A0700D56442C1F3C10208
:1046C0008B0650F8222000D55242C1F3811350F8D6
:1046D0002330C80500D55B42254984FB0140850095
:1046E00045EA947082FB0142A40F44EA820483FBF2
:1046F0000121950F45EA8105010E8DF80010010C8E
:104700008DF80110010A8DF802108DF803006A4639
:1047100004214FF4747001F0B7FA4FF0FF3688B9F6
:10472000200E8DF80000200C8DF80100200A8DF875
:1047300002008DF803406A4604214FF4757001F0C1
:10474000A3FA08B13046F8BD280E8DF80000280CF9
:104750008DF80100280A8DF802008DF803506A4692
:1047600004214FF4767001F08FFAF8BD04010020A7
:1047700009E3CA022DE9FF4104463CA004F003030B
:10478000006802903AA0006803903AA006683AA038
:10479000056802A8C15C8DF80010C4F3C101425C39
:1047A0008DF80120C4F38112805C8DF8020003A80B
:1047B000C35C8DF80430415C8DF80510805C8DF889
:1047C00006006A46032140F2264001F05DFA4FF0F0
:1047D000FF37E0BB01AA032140F22A4001F054FA5E
:1047E000A8BBCDE9006560070BD59DF8000040F03F
:1047F00001008DF800009DF8040040F001008DF8E4
:104800000400A0060BD59DF8010040F001008DF8D2
:1048100001009DF8050040F001008DF80500E0055D
:104820000BD59DF8020040F001008DF802009DF8C4
:10483000060040F001008DF806006A4603214FF49F
:10484000886001F021FA10B901AA032100E004E018
:1048500040F2314001F018FA18B1384604B0BDE812
:10486000F081064804810020F8E700004CCD6C0080
:104870000CC92C003656760026466600040100203E
:104880004FF47A7290FBF2F008B54843010E8DF8B0
:104890000010010C8DF80110010A8DF802108DF83E
:1048A00003006A4604214FF4AE7001F0EDF908BD33
:1048B0000521B0FBF1F008B5010A8DF800108DF864
:1048C00001006A4602214FF4AD7001F0DDF908BD28
:1048D0000521B0FBF1F008B5010A8DF800108DF844
:1048E00001006A4602214FF4AC7001F0CDF908BD19
:1048F00008B500218DF80010C10702D030218DF8D5
:104900000010810705D59DF8001041F00C018DF8CD
:104910000010400705D59DF8000040F003008DF819
:1049200000006A4601214FF4A47001F0ADF908BD02
:1049300008B560B1042800D90420401E8DF800009D
:104940006A46012140F24F1001F09EF908BD012096
:10495000F3E7000070B504462DED028B82B04007EE
:104960004FF0FF357ED0B1F5C86F7BD800EE101A3E
:10497000B8EE400ADFED460A01A880EE208A00F07A
:10498000F1FB9DF80400022806D0042810D0082866
:1049900035D0102874D13EE09FED3E0A28EE000A83
:1049A000BCEEC00A10EE100A9FED3B0A82B20AE08C
:1049B0009FED3A0A28EE000ABCEEC00A10EE100A7B
:1049C0009FED370A82B228EE000A6E46BCEEC00A9E
:1049D00010EE100A81B2100A8DF800008DF8012047
:1049E000080A8DF802008DF80310E00726D0324641
:1049F00002214FF4EA7001F047F998BB17E09FEDF0
:104A0000290A28EE000ABCEEC00A10EE100A9FED3B
:104A1000260A82B2D7E79FED250A28EE000ABCEEEF
:104A2000C00A10EE100A9FED220A82B2CBE7B21C38
:104A300002214FF4927001F027F998B9A0070DD523
:104A40006A4602214FF4EC7001F01EF950B9B21C15
:104A500002214FF4947001F017F918B9600714D5CA
:104A60006A4600E00CE002214FF4EE7001F00CF910
:104A700030B9B21C02214FF4967001F005F920B153
:104A8000284602B0BDEC028B70BD0020F9E70000A3
:104A900000004843000080460000404600000046F9
:104AA0000000C04500008045000040450000004572
:104AB0000000C0440521B0FBF1F008B5010A8DF8F3
:104AC00000108DF801006A4602214FF4EF7001F0EA
:104AD000DBF808BD0521B0FBF1F008B5010A8DF83F
:104AE00000108DF801006A4602214FF4ED7001F0CC
:104AF000CBF808BD82B0CDE9000121F00040019063
:104B00009DED000B02B051EC100B70471FB5044631
:104B1000274802AB042240680D21007800F068FAB3
:104B200010B1072004B010BD9DF808101C2000EA49
:104B3000D1029DF80B10DFED1F0AC1F301131A43D8
:104B40008DF800209DF80920C1F3810300EAD2020C
:104B50001A438DF801209DF80A2001F0030100EAB4
:104B6000D20008439FED141A9FED140A8DF802003D
:104B700000216A46505C002804EB810002D080EDE1
:104B8000001A09E0C0ED000A0CE000BFD0ED001AE9
:104B900061EE801AC0ED001A535C5B1E13F0FF0338
:104BA0005354F3D1491CC9B20329E3D30020B9E718
:104BB00008000020000000007B14AE3E1D5A843F18
:104BC00010B50368436082680261CA788C7942EA52
:104BD00004624C790979240444EA01210A43026001
:104BE0009B1A44F62064C168A34201DD491C04E01D
:104BF00044F62064E34201DA491EC16001EB410141
:104C000002EB4131816010BD2DE9FE4F05460120C8
:104C1000C14E8DF800004FF000088DF8018030681B
:104C20000C461746817C70686B460222007800F0C3
:104C3000F1F94FF0FF3A00287AD1C820FCF7A2FA28
:104C40008DF8008030686B460122C17B7068007867
:104C500000F0E0F90028EFD130686B46012241797D
:104C60007068007800F0D6F90028E5D130686B460E
:104C70000122817C7068007800F0CCF90028DBD13B
:104C800030686B460122C17D7068007800F0C2F97F
:104C90000028D1D130686B46012201797068007814
:104CA00000F0B8F90028C7D14FF00C098DF800903A
:104CB00030686B46012201797068007800F0AAF92B
:104CC000002835D10F20FCF75DFAB06A6B4601224F
:104CD000407A8DF80000306881787068007800F0C4
:104CE00099F9002824D1B06A6B460122007A8DF828
:104CF0000000306841787068007800F08BF9002877
:104D000073D1B06A807A0FB140F0E0008DF80000F6
:104D100030686B46012281797068007800F07AF97A
:104D2000002862D12FB1B06AC07A40F0E00001E003
:104D30004AE018208DF8000030686B460122C179E6
:104D40007068007800F066F9F0BB17B1C820FCF776
:104D500019FA40208DF8000030686B460122017975
:104D60007068007800F056F970BB78208DF800006C
:104D700030686B46012241797068007800F04AF98A
:104D800010BB3220FCF7FEF98DF8008030684746F2
:104D90006B46417970680122007800F03BF998B9C0
:104DA00031687068B046897A00786B46022200F05C
:104DB0001FF948B9BDF80000AF6040BAB0FBF9F088
:104DC0006F60C6B22F6000E00FE0A76067602760E9
:104DD000002739E0D8F80010D8F804006B46C97AEB
:104DE00000780C2200F004F910B15046BDE8FE8FA7
:104DF000BDF80000236840BA00B2BDF80210BDF84B
:104E000004201844206049BA606809B20844606010
:104E100052BAA06812B21044A060BDF806002B6818
:104E200040BA01B2BDF80800BDF80A201944296053
:104E300040BA696800B20844686052BAA86812B201
:104E400010447F1CFFB2A860B742C3D328688322F6
:104E5000C117090441EA104100040023FBF7E3F9FC
:104E600032460023FBF7DFF9286068688322C11708
:104E7000090441EA104100040023FBF7D4F932464B
:104E80000023FBF7D0F96860A8688322C1170904E2
:104E900041EA104100040023FBF7C5F93246002324
:104EA000FBF7C1F9A86020684FF40065C117090439
:104EB00041EA104100042A460023FBF7B4F93246C8
:104EC0000023FBF7B0F9206060682A46C117090487
:104ED00041EA104100040023FBF7A5F93246002304
:104EE000FBF7A1F96060A0682A46C117090441EAEE
:104EF000104100040023FBF796F932460023FBF72C
:104F000092F9A060002802DDA0F5803001E000F5F4
:104F10008030A060002069E708000020F8B5064650
:104F20002E480D46002440686B46032200780D2170
:104F300000F05EF808B10720F8BD9DF800000022DF
:104F400000F01F008DF800009DF801009FED241A6D
:104F500000F01F008DF801009DF802006B4600F084
:104F60001F008DF80200012156F8220055F822702A
:104F7000C01B00D5404200EE100A985CB8EEC00A93
:104F800060EE010AD0B1B3EE090ADFED161A01E0B6
:104F900020EE210AC0B2401E10F0FF009854F7D155
:104FA000C0EE801AB7EE000A0F4F31EEC00AB0EE25
:104FB000C00A10EE100AB84207DC09E010EE900AB1
:104FC0000A4F3844B0F1D97F02D901FA02F0044304
:104FD000521C032AC8DB2046F8BD00000800002050
:104FE0000000803754E3853F295C0F3E0000E0BE9F
:104FF0003EB54000CDE900320A46642401460294E1
:1050000001230348FCF792FA002800D001203EBD9E
:10501000980100203EB54000CDE900320A466424E4
:105020000146029401230348FCF77CFB002800D0D2
:1050300001203EBD9801002090F90010002902DDFA
:105040004FF00000704702DA4FF00400704790F90B
:105050000110002902DD4FF00100704702DA4FF025
:105060000500704790F90200002802DD4FF00200B1
:10507000704702DA4FF0060070474FF007007047A4
:10508000FCF726FCFDF7F8FDFDF78CFCFDF76AFC4C
:10509000FDF704FDFDF7ACFCFDF7E4FCFDF7C8FCF3
:1050A0001448FDF7A3FB1348FBF76AFC1248FCF712
:1050B000BFFF1248FCF7BCFFFFF734F8104C032089
:1050C000014620706060FBF73FFC0120FCF75AF8B6
:1050D0000120207001466060FBF736FC0120FCF7E0
:1050E00051F809489FED070A80ED140A0748FCF7BC
:1050F0009FFFFEE798010020340200207C02002080
:105100006C0000200000000018010020EC010020CD
:105110002DE9F041124C20F00101002594F8240003
:1051200010B10020BDE8F081A07A4FF0FF3668B1E1
:105130000840277C2074884200D0354641B10120C8
:1051400000F00EFE00F068FA38B127743046E9E747
:10515000207D00B1012000F003FE2846E2E70000B8
:10516000080000200D494A7A42B1012A08D0022ADB
:105170000FD0032A0FD04FF0FF307047022200E01B
:1051800004220270C97C11B11106C90D0170002002
:1051900070470822F5E71022F3E70000080000201E
:1051A0000F494A7A42B1012A09D0022A11D0032AB2
:1051B00012D04FF0FF3070474FF4804201E041F6CB
:1051C0009C720280C97C11B1C2F34E0101800020A3
:1051D00070474FF48052F4E74FF40062F1E70000AB
:1051E000080000200B49097A39B1012907D00229AA
:1051F0000AD003290BD0002103E0FA2101E04FF48B
:10520000FA710180002070474FF47A71F9E74FF48A
:10521000FA61F6E7080000200D49097A41B1012939
:1052200009D002290DD003290ED04FF0FF3070476E
:105230009FED080A01E09FED080A80ED000A0020BA
:1052400070479FED060AF8E79FED050AF5E70000B5
:105250000800002000000343000083423333034270
:10526000333383410C49C97A072913D2DFE801F0AF
:105270001204060A0C0E1000BC2100E0622101801D
:10528000002070472A21FAE71421F8E70A21F6E7FF
:105290000521F4E70021F2E708000020054991F814
:1052A000242012B14FF0FF307047C98901800020DF
:1052B00070470000080000202DE9FC41464C80208A
:1052C0008DF8000020686B460122817C60680078C0
:1052D000FFF7A0FE4FF0FF37002875D16420FBF7E1
:1052E00051FF00258DF8005020686B460122817C1B
:1052F00060680078FFF78EFE002865D120686B4655
:105300000622817D60680078FFF772FE00285BD17D
:105310009DF805009DF80310C007400F01F0010142
:1053200040EA41009DF801104FF0010601F0010133
:10533000084304D0012831D0022810D044E020686E
:105340006B460122C17860680078FFF751FED8BB38
:105350009DF8000010F00F0036D004281ED0E57430
:10536000FF2004F80A0F4FF6FF7104F8020C04F84E
:10537000010C6070A180A0712072A67026766576FF
:10538000E572A572E56025616561A576E576A58380
:105390004FF4FA6000F03EFBB0B901E0E674DFE7DD
:1053A000022000F059FA78B92A2000F09BFB58B986
:1053B000322000F0CDFB38B90020FFF7A9FE18B964
:1053C000002000F07DFA10B13846BDE8FC810020D5
:1053D00000F0FEFB0020F8E7080000202DE9FF4F59
:1053E000DFF89480064685B098F8250015460F46EC
:1053F0004FF0FF39B0BBAFB3002420E0301B1028C2
:1054000000DD102080B283463A19014692462046BC
:1054100000F03AFC30BB6A465946204600F0D2F80C
:1054200000BB50465A466946FAF740FF20B16FF07C
:10543000010009B0BDE8F08F04EB0B0084B2B44268
:10544000DCD3280A8DF810008DF81150D8F8000030
:10545000444604AB817ED8F8040002220078FFF7AE
:10546000D9FD08B14846E4E7012084F825000898F2
:10547000E0840020DDE70000080000202DE9F8436B
:1054800005464FF0FF39282844D80727284C002626
:105490007DB1012000F0F4FA20208DF800004FF0DB
:1054A0000108012D17D0052D18D88DF80180052091
:1054B0001FE0002000F0E4FA8DF800608DF8017024
:1054C00020686B460222817C60680078FFF7A2FDAD
:1054D00000BB267529E08DF80160E8E7142D04D89B
:1054E00002208DF801000A2003E003208DF801005E
:1054F000142000F0F7FA9DF801006B4607EB8010CE
:105500008DF8010020680222817C60680078FFF736
:1055100081FD10B14846BDE8F8830820A0722673CB
:1055200084F814800020FFF7F3FD0020F3E700006B
:10553000080000202DE9F843214C0646174694F850
:10554000240089464FF0FF3890B3A07A80B32068DA
:105550006B460222817A60680078FFF749FD38BB0C
:10556000BDF8000045BAB54202D2002038701FE0F5
:1055700060684188B5EB510F11D9216800786B46FE
:10558000497C0122FFF734FD90B99DF80000C00668
:1055900005D500F041F86FF00100BDE8F883206800
:1055A000F2B24B46C17A60680078FFF721FD08B17E
:1055B0004046F2E7B5FBF6F0401E38700020ECE7FD
:1055C00008000020F8B516000D464FF0FF371FD039
:1055D000104CA17AE1B1010A8DF80010C0B28DF82B
:1055E0000100411960684289914211D82168007810
:1055F0006B46097E0222FFF70DFD48B92068EAB22A
:105600003346417D60680078FFF7F2FC002800D047
:105610003846F8BD08000020F8B5524C4FF0FF3670
:10562000A07A00287CD000258DF8005020686B46B9
:105630000122C17B60680078FFF7ECFC00286FD185
:1056400020686B460122417960680078FFF7E2FC30
:10565000002865D120686B460122017960680078D6
:10566000FFF7D8FC00287AD194F82400C8B30C20A6
:105670008DF8000020686B4601220179606800788F
:10568000FFF7C8FC00286AD1C0208DF80000A07A7E
:10569000C00702D0E0208DF8000020686B46012290
:1056A000017960680078FFF7B5FC002857D1607C6D
:1056B00018B102208DF8000001E08DF8005020683C
:1056C0006B460122C17B60680078FFF7A3FC38BB02
:1056D0008DF8005020686B4601224179606800789F
:1056E00039E0FFE704208DF8000020686B460122B6
:1056F000017960680078FFF78DFC88B9A07C80B9DB
:10570000A07AC0070DD060208DF8000020686B469D
:105710000122017960680078FFF77CFC00B902E0A3
:105720001DE04020F0E7607C18B101208DF80000FA
:1057300001E08DF8005020686B460122C17B606853
:105740000078FFF767FC50B92068064B01224179C9
:10575000606810330078FFF75DFC002800D0304609
:10576000F8BD0000080000202DE9F047394C8246C2
:105770008AB094F824000F4620B1002000F00EF902
:10578000012600E0002607A8FFF72CFD06A8FFF77A
:10579000E9FC09A8FFF766FD08A8FFF77FFD94F86C
:1057A0000A9094F810800025002239465046FFF7F1
:1057B0002BFA10B16D1C022DF6DB022D1AD000253C
:1057C000012203A96846FFF71FFA10B16D1C022DD4
:1057D000F6DB022D0ED003A93846FEF753FCC7B204
:1057E00069465046FFF79AFB10F0FF0F4FF0000597
:1057F00002D002E0002503E001250FB945F00205C3
:10580000FF2020726072E0724FF6FF71E181A0729A
:10581000207401202073BDF81C0000F0FBF89DF8F7
:10582000180000F019F8BDF8240000F05BF9BDF88D
:10583000200000F08DF9484600F0CAF94046FFF715
:1058400067FC16B1012000F0A9F80AB02846BDE8AF
:10585000F08700000800002038B5184C4FF0FF35E5
:10586000A17A19B3022806D0042806D008280ED041
:1058700010281BD10DE0002000E008208DF800006A
:10588000607A9DF80010B0EBD10F04D005E0102035
:10589000F4E71820F2E7002038BD20686B460122AB
:1058A000C17960680078FFF7B5FB08B1284638BDBC
:1058B0009DF80000C0086072EDE7000008000020BD
:1058C000F8B5354C0546A07CA84201D10020F8BDB2
:1058D00031484FF0FF366B46D0E900104FF001021F
:1058E0000979007835B3FFF783FB70BB9DF80000A2
:1058F0006B4620F020008DF800002068012201791D
:1059000060680078FFF786FBF8B90320FBF73AFCE4
:1059100002208DF8000094F8220078B382202BE05A
:1059200020686B460122017D60680078FFF772FBFA
:1059300058B92EE0FFF75CFB38B9A07AC0079DF894
:10594000000003D040F0200002E00CE020F0200036
:105950008DF8000020686B460122017960680078AC
:10596000FFF758FB08B13046F8BD0320FBF70AFCEF
:1059700094F8220000B180208DF8000094F82300F4
:105980000028CDD09DF8000040F030008DF80000D8
:10599000C6E7A5749AE700000800002038B51C4C43
:1059A00094F8241081421DD0002500B394F82500FE
:1059B000D0B1002000F0D4F90020FFF781FFE08C87
:1059C00000F0C6F88DF8005060686B460122007840
:1059D0002321FFF71FFB012084F8240000F0C0F909
:1059E000FFF71AFE002038BD4FF0FF3038BD002011
:1059F00000F0B6F9207C8DF8000060686B4601224B
:105A000000782321FFF706FB84F82450E8E7000024
:105A10000800002038B5194C4FF0FF35A17A31B39A
:105A2000FA2809D0B0F5FA7F08D0B0F57A7F0FD008
:105A3000B0F5FA6F1BD10DE0002000E008208DF8D2
:105A40000000207A9DF80010B0EBD10F04D005E0E3
:105A50001020F4E71820F2E7002038BD20686B46DC
:105A60000122817960680078FFF7D4FA08B12846EE
:105A700038BD9DF80000C0082072EDE70800002046
:105A800038B5174C054694F82300A84201D10020F0
:105A900038BD0DB1302000E000208DF80000A07C62
:105AA00028B19DF8000040F002008DF8000094F845
:105AB000220028B19DF8000040F080008DF8000021
:105AC00020686B460122017D60680078FFF7A2FA2A
:105AD00010B14FF0FF3038BD84F82350D7E70000F5
