:020000040800F2
:1000000060930020A101000849440008833D0008D6
:1000100045440008D10C0008854E0008000000008F
:10002000000000000000000000000000C9450008BA
:10003000270F0008000000004D440008CB450008D1
:10004000BB010008BB010008BB010008BB010008A0
:10005000BB010008BB010008BB010008BB01000890
:10006000BB010008BB010008BB010008BB01000880
:10007000BB010008BB010008BB010008BB01000870
:10008000BB010008BB010008BB010008E50C00082B
:10009000D50C0008BB010008BB010008BB0100082B
:1000A000BB010008BB0100089D460008BB01000819
:1000B000BB010008BB010008BB010008BB01000830
:1000C000BB010008BB010008BB0100085144000847
:1000D00061440008754E0008BB010008BB01000820
:1000E000BB010008BB010008BB010008BB01000800
:1000F000BD460008AD460008BB010008BB01000872
:10010000BB010008BB010008BB010008BB010008DF
:10011000BB010008BB010008BB010008BB010008CF
:10012000BB010008BB0100080D0E0008BB01000860
:10013000BB010008BB010008BB010008BB010008AF
:10014000BB010008BB010008BB010008BB0100089F
:10015000BB010008BB010008BB010008BB0100088F
:10016000BB010008BB010008BB010008BB0100087F
:10017000BB010008BB010008BB0100080000000033
:10018000BB010008BB010008DFF810D000F0F0FC54
:1001900000480047115B0008AFF300806093002027
:1001A0000648804706480047FEE7FEE7FEE7FEE711
:1001B000FEE7FEE7FEE7FEE7FEE7FEE7894600080A
:1001C000890100089FED1A1AF5EE000A40EE010AB7
:1001D000BDEEE00AF5EEC00A10EE100AF1EE10FADC
:1001E00038BF401E00EE100A1349F7EE001AB8EEB1
:1001F000C00A30EEC00ADFED0F0A20EE200AFCEE46
:10020000C00A10EE900AC0F3080000EE900A01EB5D
:100210008000F8EE600A90ED011A70EE600A90ED31
:10022000000A71EEE01A21EE800A00EE810A7047A2
:1002300083F9223E00000044505E0008B5EEC00A7B
:10024000F1EE10FA07D2DFED1E0AB4EEE00AF1EE8D
:1002500010FAA8BF7047DFED1B0AB5EEC00A60EECA
:10026000200ABDEEE01A11EE100AF1EE10FA38BFC6
:10027000401E00EE100A1549F7EE001AB8EEC00A4B
:1002800030EEC00ADFED100A60EE200ABCEEE00A94
:1002900010EE100AC0F3080000EE100A01EB800017
:1002A000B8EE400A90ED011A70EEC00A90ED000A17
:1002B00071EEE01A21EE800A00EE810A704700001C
:1002C000CD024CB483F9223E00000044505E000889
:1002D00001804280436070472DE9F04F82B046684C
:1002E00053680193058847884B8800200090088850
:1002F000874201BFB2F800C06545528893421EBFD5
:100300006FF0020002B0BDE8F08F9FED412A4FEA86
:10031000970EC7F3400B00BFDDE9000202EB800A35
:100320004A6898464FF00009B0EE420AB4465FEAC8
:100330000E0025D092ED001ADCED001A02EB8302CC
:10034000DCED010A01EE810A92ED001A02EB830254
:10035000401ED2ED001A02EB830200EE810A9CEDF2
:10036000021ADCED030A00040CF1100C000C01EE83
:10037000210A92ED001A02EB830200EE810AD9D124
:1003800017F0030026D0ACF10404A2EB830210F0B6
:10039000010F08D002EB8302D4ED010A92ED001A9E
:1003A000241D00EE810A5FEA0B0013D002EB830CE0
:1003B000D4ED010A9CED001A02EBC302401E00EED0
:1003C000810AD4ED020A92ED001A04F1080400EE4D
:1003D000810AEBD109F10100AAEC010A1FFA80F9A8
:1003E000486800EB8902A8F101001FFA80F8B8F113
:1003F000000F99D1009806EB8706184480B2009050
:10040000681E05042D0C87D102B00020BDE8F08FD6
:10041000000000002DE9F04F02884768B0F8028024
:100420004888D1F8049082B04FF0000A1646824204
:1004300007BF098888456FF0020002B018BFBDE809
:10044000F08F4FEA980B02EB42000190C8F3400096
:10045000CDF8000009EB8A01BBF1000F33D0019801
:1004600001EB820C01EB80043B46E64601EBC20542
:100470004FEA0B0093ED000A401E81ED000A93ED58
:10048000010A01EB02118CED000A93ED020A0CEB5C
:10049000021C85ED000A93ED030A05EB021584EDBD
:1004A000000A04EB021403F11003E3D10EEB820007
:1004B00000EB820000EB8201ABF10100504307EB3F
:1004C0000B1701EB001118F0030C21D03B1FA1EB1F
:1004D00082011CF0010F06D093ED010A01EB8201AD
:1004E0001B1D81ED000A009880B100BF93ED010A49
:1004F00001EB820401EBC20184ED000A93ED020AD4
:10050000401E81ED000A03F10803EFD107EB8C07D1
:100510000AF101001FFA80FA701E0604360C99D108
:1005200002B00020BDE8F08F2DE9F05F0546002005
:1005300092469B4688460646814640241BE0284654
:1005400041464746224600F026FA53465A46C01A0C
:10055000914110D311461846224600F00DFA2D1A8B
:1005600067EB01084F4622460120002100F004FA03
:1005700017EB00094E41201EA4F10104DFDC4846C0
:1005800031462A464346BDE8F09FD2B201E000F86A
:10059000012B491EFBD270470022F6E710B5134627
:1005A0000A4604461946FFF7F0FF204610BD2DE924
:1005B000FE4F804681EA0300C00F0C46009021F0F8
:1005C000004123F00045B8EB0200A94105D24046A6
:1005D000214690461C460B46024623F0004010433D
:1005E00047D0270DC7F30A00C3F30A510290401AFF
:1005F000019040286BDAC3F3130040F4801B00988D
:10060000924620B10023D2EB030A63EB0B0B019857
:100610005946C0F14002504600F0AEF906460D467C
:1006200050465946019A00F0C6F910EB08006141A6
:10063000002487EA115284EAE7731A4340D0009AF3
:1006400062B3019A012A4FEA075215DC001B61EBE5
:1006500002014FF0004202EA0752CDE90042001CBD
:1006600041F5801132462B4600F01BFA03B0BDE87D
:10067000F08F40462146F9E7001B61EB0201001CA8
:1006800041F5801300185B412018A2F5001747EBD5
:10069000030140EAD570B6196D4111E06D084FEACB
:1006A000360645EAC0754FEA0752001B61EB0201AE
:1006B000001C41F5801149084FEA300000195141F2
:1006C00032462B4603B0BDE8F04F00F0DBB900988E
:1006D000012240000023D0EB020263EBE07300989C
:1006E00021464FEAE074B8EB000061EB0401E9E752
:1006F00083F000435BE781F0004158E72DE9FE4FAE
:1007000081EA030404F0004421F0004100944FF01A
:10071000000B23F0004350EA01045ED052EA0304C8
:100720005BD0C3F30A54C1F30A552C44A4F2F3344A
:100730000194A0FB0254C1F3130141F48011C3F3EF
:10074000130343F4801301FB024400FB034E840AAD
:10075000970A44EA815447EA8357A4FB0768029545
:100760008D0A05FB07854FEA932C04FB0C542705E3
:10077000029D4FEA065847EA1637B5EB08056EEBBF
:10078000070C870E920E47EA811742EA8312A7FBF5
:100790000201B6EB0B0164EB00042B0D43EA0C33B2
:1007A0005E1844EB1C50DA465146E7FB0201C5F3E4
:1007B00013044FEA0B3343EA14534FEA0432019C0B
:1007C00043EA0603A4F10C040294009CCDE900B4B2
:1007D00000F067F903B0BDE8F08F00200146F9E7AB
:1007E0002DE9F04D81EA030404F0004B21F00045AF
:1007F00014464FF0000A23F0004150EA050220D0D1
:1008000054EA01021DD0C5F30A570246C5F313038B
:10081000C1F31300C1F30A5640F4801543F480136A
:10082000A7EB0608101BD64608F2FD3873EB05004F
:1008300002D308F1010801E092185B41B8F1000F02
:1008400003DA00200146BDE8F08D00204FF480114E
:10085000064684460EE0171B73EB050705D3121BF3
:1008600063EB050306434CEA010C49084FEA3000EC
:1008700092185B4150EA0107EDD152EA030012D011
:1008800082EA040083EA0501084305D0101BAB414E
:1008900006D20122002306E000224FF0004302E0CE
:1008A0006FF0010253101AEB06004CEB085110EBED
:1008B0000A0041EB0B01BDE8F04D00F0E3B800F099
:1008C000004230F000400AD0C10D01F56071C0F364
:1008D000160042EA0151C208400711437047002048
:1008E0000146704730B5041E71F1000404DB4FF07F
:1008F0000044404264EB0101141E73F1000405DB67
:100900001C464FF00043524263EB0403994208BF78
:10091000904230BD01F0004330B421F0004150EA74
:10092000010206D00A0DA2F56072C1F31301002A7C
:1009300002DC30BC00207047440F44EAC104C1000F
:10094000E01830BC00EBC25000F047B830B50B46A1
:10095000014600202022012409E021FA02F59D42EF
:1009600005D303FA02F5491B04FA02F52844151EC3
:10097000A2F10102F1DC30BD202A04DB203A00FAAA
:1009800002F1002070479140C2F1200320FA03F3E6
:10099000194390407047202A04DB203A21FA02F0E4
:1009A0000021704721FA02F3D040C2F120029140A9
:1009B000084319467047202A06DBCB17203A41FA34
:1009C00002F043EAE07306E041FA02F3D040C2F1DC
:1009D000200291400843194670470029A8BF70477C
:1009E000401C490008BF20F00100704710B4B0FA65
:1009F00080FC00FA0CF050EA010404BF10BC704700
:100A000049B1CCF1200421FA04F411FA0CF118BF19
:100A1000012121430843A3EB0C01CB1D4FEA0061E8
:100A20004FEA102042BF002010BC704700EBC350BB
:100A300010440029A4BF10BC7047401C490008BFE7
:100A400020F0010010BC704710B541000CD0C0F37D
:100A5000C751962908DC7E2909DC06DB410204D057
:100A600000F0004040F07E5010BD002010BDC1F1EC
:100A70009604C4F1200100FA01F1E040FFF7ADFF58
:100A8000A04010BD10B5141E73F1000408DA401C1C
:100A900041F1000192185B411A4301D120F001009D
:100AA00010BD2DE9F04D92469B4611B1B1FA81F28D
:100AB00002E0B0FA80F220329046FFF75DFF044674
:100AC0000F4640EA0A0041EA0B0153465A460843E2
:100AD00013D0114653EA010019D0C8F14002504624
:100AE000FFF759FF05460E46504659464246FFF766
:100AF00043FF084305D0012004E020463946BDE805
:100B0000F08D0020054346EAE0762C4337430A98EF
:100B10006305E40AA0EB08000022FD0A44EA4754FA
:100B20000A3002D500200146E9E7010510196941A4
:100B3000DDE9084500196941BDE8F04DA2E7C1F3C0
:100B40000A52C1F3130140F2FF3341F480119A427B
:100B500002DA00200146704740F233439A42A2F283
:100B6000334202DC5242FFF716BFFFF705BF000019
:100B7000064C074D06E0E06840F0010394E80700EA
:100B800098471034AC42F6D3FFF702FB54660008D6
:100B900074660008FEB506460C46002002900190DF
:100BA000E0B28DF80700200A8DF80600E0B28DF85B
:100BB0000500200A8DF8040006EBC600104901EB81
:100BC0008000A0F12405A9890022A86801F0FAFBA1
:100BD0004FF47A700090042302AA01A9686802F019
:100BE00005FAA9890122A86801F0ECFB9DF809002B
:100BF0009DF8081060F31F2121F44040FEBD000065
:100C0000C48C002010B5024602EBC2031A4C04EB60
:100C10008303A3F12400D0E90434191BB1F57A5FF2
:100C20000BDDC3695B1EC3610469C36904EB8333D5
:100C30008361A1F5804303621BE011F57A5F0BDA53
:100C4000C3695B1CC3610469C36904EB83338361BB
:100C500001F5804303620CE0002904DB83690B4447
:100C60008361016205E0002903DA83690B44836133
:100C700001620369436110BDC48C002070B5044655
:100C800004EBC400054901EB8000A0F124054FF6F8
:100C9000FF712046FFF77EFF286170BDC48C0020E5
:100CA00070B5044604EBC405084E06EB8505A5F1B6
:100CB0002400416082608381002505618561C561F2
:100CC000056945610025056270BD0000C48C0020E7
:100CD00000BFFEE710B5024800F0FEFA10BD0000AC
:100CE0000C8D002010B5024800F0F6FA10BD00008F
:100CF0000C8D002010B50446206800F0010000B102
:100D00006068206800F0020000B16068206800F0B0
:100D1000040000B16068206800F0080000B160685D
:100D2000E06840F40050E060606940F001006061FC
:100D3000606940F40040606108220249024802F004
:100D400069FF10BD71000020BC8E002010B52DED94
:100D5000048B04466078A17840EA012000EE100A76
:100D6000B8EEC00A264880ED250AE078217940EAED
:100D7000012000EE100AB8EEC00A214880ED260AD4
:100D800090ED250A10EE101A0846FFF798FD41EC89
:100D9000190B9FED1C0B53EC102BFFF721FD41ECC1
:100DA000180BFFF7B7FD1649C1F8A800084690EDEB
:100DB000260A10EE101A0846FFF781FD41EC190BC8
:100DC0009FED100B53EC102BFFF70AFD41EC180BB5
:100DD000FFF7A0FD0A49C1F8AC006079A17940EAAB
:100DE000012000EE100AB8EEC00A054880ED290A7D
:100DF00090ED130A80ED280ABDEC048B10BD0000B5
:100E0000E089002012329067976F8D3F10B502483D
:100E100000F0FEFF10BD0000008F002001460878A2
:100E200010381823B0FBF3F20848805CC865032A29
:100E300005D908686FF30900001D886503E008689C
:100E40006FF309008865886D70470000305E000808
:100E5000014600208A6A8B69CBB932B1012A0DD0D4
:100E6000022A03D0032A10D10EE000BFCB6A03F0A0
:100E70008073B3F1807F00D1012007E0CB6AB3F12A
:100E8000C07F00D1012001E000E000BF34E08B69A9
:100E9000B3F5005F1AD132B1012A07D0022A03D07C
:100EA000032A11D10AE000BF01200EE0CB6A03F053
:100EB0008073B3F1807F00D1012006E0CB6AB3F1EB
:100EC000C07F00D1012000E000BF15E032B1012A4F
:100ED00005D0022A04D0032A0CD103E000BF00BFD2
:100EE000012008E0CB6A03F08073B3F1807F00D16A
:100EF000012000E000BF00BF704730B504682468DF
:100F000024F4802405682C60046863608468402CA5
:100F100004D10468A2600468E16003E00468A16091
:100F20000468E26030BD704772B600BFFEE70000A3
:100F30002DE9F0478246884615469946089E0024CA
:100F40005EE005EB840090ED000AF7EE000AB4EED7
:100F5000E00AF1EE10FA08D305EB8400D0ED000AA8
:100F6000B0EE600A04F0E4FE40B108EB840090EDBE
:100F7000000A09EB840080ED000A22E005EB840101
:100F800091ED000ADFED200AB4EEE00AF1EE10FA6E
:100F900002DD4FF4805007E005EB840191ED000A7B
:100FA000BCEEC00A10EE100A06EB8431C0F5805288
:100FB00001EB820191ED000A09EB840181ED000A49
:100FC00000BF00270DE006EB8431781C01EB8000A8
:100FD00090ED000A06EB843000EB870080ED000AFC
:100FE0007F1C40F6FF708742EDDB08EB840090ED3C
:100FF000000A06EB843000F5705080EDFF0A641C97
:1010000054459EDBBDE8F0870000804510B50246E0
:1010100092F82030012B01D0022B06D110684069D4
:10102000084314686061002010BD506A40F48020BD
:1010300050620120F8E70000F0B504460A46216836
:1010400094F82050012D01D0022D7ED1424901F5A6
:101050000071086840F001000860086820F47C50C6
:1010600008600868566A40EA06200860107D00F0B3
:101070001F06012000FA06F3C8699843C861A1F56C
:101080000071D069C8B9D1F80C029843C1F80C02BC
:10109000908880B2968940EA064601F5107057693B
:1010A00040F83760108880B2168940EA064601F59C
:1010B0001070576900EBC7004660D069012819D14C
:1010C000D1F80C021843C1F80C02908880B216883F
:1010D00040EA064601F51070576940F8376090897C
:1010E00080B2168940EA064601F51070576900EB98
:1010F000C7004660906928B9D1F804029843C1F846
:10110000040204E0D1F804021843C1F80402106993
:1011100028B9D1F814029843C1F8140204E0D1F8B8
:1011200014021843C1F81402106A012804D1D1F83E
:101130001C021843C1F81C02D1F8000220F0010083
:10114000C1F800020020F0BDFFE7606A40F4802093
:1011500060620120F7E7000000640040704770B54E
:10116000044694F82050012D01D0022D7DD151B9B3
:101170002068C06800F0030080B9606A40F4001085
:101180006062012070BD2068006900F0030028B98A
:10119000606A40F4001060620120F3E7206800F507
:1011A000D87000EB0110006800F0040090609068B7
:1011B00040B9206800F5D87000EB01100068400DC0
:1011C000106007E0206800F5D87000EB011000689F
:1011D000C0085060206800F5D87000EB011000686E
:1011E00000F00200D060206800F5D87000EB01101C
:1011F000406800F00F001061206800F5D87000EB27
:101200000110406800F47F40000A9061206800F5FA
:10121000D87000EB01104068000C5061206800F5A8
:10122000D87000EB011080681870206800F5D87045
:1012300000EB0110806800F47F40000A58702068BD
:1012400000F5D87000EB0110806800F47F00000CFE
:101250009870206800F5D87000EB01108068000ECF
:10126000D870206800F5D87000E02FE000EB011086
:10127000C0681871206800F5D87000EB0110C068D4
:1012800000F47F40000A5871206800F5D87000EB28
:101290000110C06800F47F00000C9871206800F510
:1012A000D87000EB0110C068000ED87131B9206809
:1012B000C06840F020002668F06005E02068006902
:1012C00040F020002668306100205BE7606A40F44F
:1012D00080206062012055E72DE9F05F044600257B
:1012E000206846692068D0F80490206887682068E4
:1012F000D0F80CA02068D0F810B02068D0F8188082
:1013000006F00100002855D007F00100C0B101200F
:101310002168886007F0020018B1204600F007FD40
:101320000EE007F0040010B145F4006508E007F096
:10133000080010B145F4805502E0204600F0F6FCAC
:1013400007F48070C8B14FF480702168886007F49A
:10135000007018B1204600F0ECFC0EE007F480604D
:1013600010B145F4005508E007F4006010B145F4F1
:10137000804502E0204600F0DBFC07F48030C8B175
:101380004FF480302168886007F4003018B120469F
:1013900000F0D1FC0EE007F4802010B145F40045C8
:1013A00008E007F4002010B145F4803502E0204643
:1013B00000F0C0FC06F0080038B10AF0100020B1BF
:1013C00045F4007510202168C86006F0040040B1A3
:1013D0000AF0080028B108202168C860204600F003
:1013E000B1F906F0020038B12068C06800F00300CF
:1013F00010B1204600F0A8F906F0400038B10BF01B
:10140000100020B145F4806510202168086106F0C5
:10141000200040B10BF0080028B1082021680861C5
:10142000204600F051FC06F0100038B12068006939
:1014300000F0030010B1204600F047FC06F4003035
:1014400040B109F0100028B1102021684860204602
:1014500000F03CFC06F4803040B109F0080028B1EF
:10146000082021684860204600F066FC06F4004031
:1014700088B309F0040078B306F4807020B108F056
:10148000010008B145F0010506F4007020B108F034
:10149000020008B145F0020506F4806020B108F0B2
:1014A000040008B145F0040506F40060A0B108F09E
:1014B000700088B108F07000402817D006DC1028B2
:1014C0000BD020280CD0302819D10CE0502810D097
:1014D000602814D110E01DE019E045F008050FE088
:1014E00045F010050CE045F0200509E045F0400509
:1014F00006E045F0800503E045F4807500E000BF9C
:1015000000BF2068806920F0700021688861042095
:10151000216848602DB1606A284360622046FFF769
:101520001DFEBDE8F09F70B504460CB9012070BDEA
:1015300094F8200010B9204600F0B0F82068006848
:1015400040F001002168086000F042FF05460DE010
:1015500000F03EFF401B0A2808D9606A40F40030C2
:101560006062052084F820000120E0E720684068E0
:1015700000F001000028EBD02068006820F0020095
:101580002168086000F024FF05460DE000F020FF10
:10159000401B0A2808D9606A40F4003060620520C8
:1015A00084F820000120C2E72068406800F00200B3
:1015B0000028EBD1207E012806D12068006840F089
:1015C00080002168086005E02068006820F0800045
:1015D00021680860607E012806D12068006840F01C
:1015E00040002168086005E02068006820F04000A5
:1015F00021680860A07E012806D12068006840F0BC
:1016000020002168086005E02068006820F02000C4
:1016100021680860E07E012806D12068006820F07B
:1016200010002168086005E02068006840F01000A4
:1016300021680860207F012806D12068006840F0FA
:1016400008002168086005E02068006820F00800B4
:1016500021680860607F012806D12068006840F09A
:1016600004002168086005E02068006820F004009C
:1016700021680860D4E902010843216908436169CF
:1016800008436168491E08432168C8610020606200
:10169000012084F82000002049E7000010B586B042
:1016A0000446142101A8FEF777FF234920688842E9
:1016B00040D100BF002000902048006840F000703A
:1016C0001E4908600846006800F00070009000BFE6
:1016D00000BF00BF0020009018481038006840F09C
:1016E00001001649103908600846006800F0010042
:1016F000009000BF00BF4FF4C05001900220029044
:1017000000200390032004900920059001A90C48B3
:1017100000F05EFD00220121132000F0E3FE132003
:1017200000F0D0FE00220121142000F0DBFE142086
:1017300000F0C8FE06B010BD006400404038024012
:101740000000024070470000F0B52DED068B89B017
:1017500007466B4602AA00213846FFF700FDFE4906
:101760000398084400287CD0B0F5807F7AD0B0F58B
:10177000806F03D0B0F5E06F75D124E103F084FBF6
:101780009DF800009DF8012040EA022000EE100ABA
:10179000B8EEC00A10EE101A0846FFF790F841ECB8
:1017A0001A0B9FEDEE0B53EC102BFEF7A7FF41EC4D
:1017B000190B9FEDEC0B53EC102BFEF799FF41EC4E
:1017C000180BFFF7A7F8E94908609DF802009DF89B
:1017D000032040EA022000EE100AB8EEC00A10EE24
:1017E000101A0846FFF76BF841EC1A0B9FEDDB0B64
:1017F00053EC102BFEF782FF41EC190B9FEDD90B38
:1018000053EC102BFEF774FF41EC180BFFF782F836
:10181000D64948609DF804009DF8052040EA022062
:1018200000EE100AB8EEC00A10EE101A0846FFF7D4
:1018300046F841EC1A0B9FEDC90B53EC102BFEF749
:101840005DFF41EC190B9FEDC70B53EC102BFEF71E
:101850004FFF41EC180BFFF75DF8C449886008465C
:1018600002E045E130E01CE290ED000AC048D0ED16
:10187000010A30EE600A084680ED030A90ED010A85
:10188000BB48D0ED000A30EE200A084680ED040A7D
:1018900090ED020AB648D0ED020A30EE200A084662
:1018A00080ED050A90ED000AB24880ED000A084676
:1018B00090ED010AB04880ED000A084690ED020A5A
:1018C000AE4880ED000AEDE19DF802000007000B34
:1018D0009DF8012040EA02209DF80020104300EE10
:1018E000100AB8EE400A10EE101A0846FEF7E7FF9D
:1018F00041EC1A0B9FEDA20B53EC102BFEF7FEFEF2
:1019000041EC190B9FEDA00B53EC102BFEF7F0FEF2
:1019100041EC180BFEF7FEFF944908639DF80400A4
:1019200000039DF8032040EA02109DF8022040EADF
:10193000121000EE100AB8EE400A10EE101A084617
:10194000FEF7BDFF41EC1A0B9FED8D0B53EC102BF6
:10195000FEF7D4FE41EC190B9FED8B0B53EC102BD3
:10196000FEF7C6FE41EC180BFEF7D4FF7F49486333
:101970009DF807000007000B9DF8062040EA0220B2
:101980009DF80520104300EE100AB8EE400A10EE54
:10199000101A0846FEF793FF41EC1A0B9FED780BE7
:1019A00053EC102BFEF7AAFE41EC190B9FED760BC2
:1019B00053EC102BFEF79CFE41EC180BFEF7AAFF30
:1019C0006A4988636EE19DF800009DF8012040EAB5
:1019D000022000EE100AB8EEC00A10EE101A0846F7
:1019E000FEF76DFF41EC1A0B9FED690B53EC102BCA
:1019F000FEF784FE41EC190B9FED670B53EC102BA7
:101A0000FEF776FE41EC180BFEF784FF5749C866D7
:101A10009DF802009DF8032040EA022000EE100A23
:101A2000B8EEC00A10EE101A0846FEF748FF41EC67
:101A30001A0B9FED570B53EC102BFEF75FFE41EC9A
:101A4000190B9FED550B53EC102BFEF751FE41EC9B
:101A5000180BFEF75FFF454908679DF804009DF8E5
:101A6000052040EA022000EE100AB8EEC00A10EE8F
:101A7000101A0846FEF723FF41EC1A0B9FED440BAA
:101A800053EC102BFEF73AFE41EC190B9FED420B85
:101A900053EC102BFEF72CFE41EC180BFEF73AFF2F
:101AA000324948679DF806009DF8072040EA022069
:101AB00000EE100AB8EEC00A10EE101A0846FEF743
:101AC000FEFE41EC1A0B9FED320B53EC102BFEF790
:101AD00015FE41EC190B9FED300B53EC102BFEF76C
:101AE00007FE41EC180BFEF715FF20498867D9E087
:101AF0009DF800009DF8011040EA01249DF80200C5
:101B00009DF8031040EA01259DF804009DF805109A
:101B100040EA012600EE104AB8EE400A10EE100A24
:101B2000FEF7CDFE41EC1A0B9FED150B53EC102B7D
:101B3000FEF7E4FD41EC190B9FED190B53EC102B54
:101B4000FEF7D6FD41EC180BFEF7E4FE074988646A
:101B500000EE105A28E00000A7D60FF37B14AE4722
:101B6000E17A843F0000000000007440E08900201A
:101B7000A08C002044000020480000204C000020E1
:101B8000000000000000803F000000000040AF4067
:101B90002EDCF1DA3000003F000000000000F03FD2
:101BA0000000000000406F40B8EE400A10EE100A3E
:101BB000FEF785FE41EC1A0B1FED0F0B53EC102BBB
:101BC000FEF79CFD41EC190B1FED0B0B53EC102B9A
:101BD000FEF78EFD41EC180BFEF79CFE36490865BA
:101BE00000EE106AB8EE400A10EE100AFEF767FE2B
:101BF00041EC1A0B1FED1E0B53EC102BFEF77EFD74
:101C000041EC190B1FED1A0B53EC102BFEF770FD76
:101C100041EC180BFEF77EFE2749C864084690ED9C
:101C2000120A10EE101A0846FEF749FE41EC190B95
:101C30009FED220B53EC102BFEF760FD41EC180BCF
:101C4000FEF768FE1C49C863084690ED140A10EEC2
:101C5000101A0846FEF733FE41EC190B9FED170BE7
:101C600053EC102BFEF74AFD41EC180BFEF752FE29
:101C700011494864084690ED130A10EE101A084600
:101C8000FEF71DFE41EC190B9FED0C0B53EC102BD6
:101C9000FEF734FD41EC180BFEF73CFE06490864E4
:101CA00000E000BF00BF02210648FFF7AFF909B00E
:101CB000BDEC068BF0BD0000E08900201839359D91
:101CC00046DF913F0C8D002070477047704770B51C
:101CD000044694F82000012822D1022084F8200034
:101CE0002068006820F001002168086000F070FBA7
:101CF00005460DE000F06CFB401B0A2808D9606A1D
:101D000040F400306062052084F82000012070BD9E
:101D10002068406800F001000028EBD16062F6E71F
:101D2000606A40F4002060620120F0E7704770476D
:101D30007047704770477047704770B50446A56D8F
:101D400000F046FB064694F83500022808D08020B3
:101D5000606500BF002084F8340000BF012070BD22
:101D60002068006820F0160021680860206840693B
:101D700020F0800021684861206C08B9A06C28B16F
:101D80002068006820F0080021680860206800686A
:101D900020F001002168086010E000F019FB801BB2
:101DA00005280BD920206065032084F8350000BF8A
:101DB000002084F8340000BF0320D0E720680068CA
:101DC00000F001000028E8D194F85C103F20884022
:101DD000A860012084F8350000BF002084F834009A
:101DE00000BF00BFBBE7014691F83500022803D0D1
:101DF0008020486501207047052081F8350008687B
:101E0000006820F001000A6810600020F3E700007D
:101E1000F8B50446002000908C4800684FF4165135
:101E2000B0FBF1F7A56D2E6894F85C10082088408F
:101E3000304098B12068006800F0040070B120685C
:101E4000006820F004002168086094F85C10082005
:101E50008840A860606D40F00100606594F85C10F7
:101E600001208840304068B12068406900F080005F
:101E700040B194F85C1001208840A860606D40F08B
:101E80000200606594F85C1004208840304068B11E
:101E90002068006800F0020040B194F85C10042053
:101EA0008840A860606D40F00400606594F85C10A4
:101EB00010208840304078B32068006800F00800A7
:101EC00050B394F85C1010208840A8602068006827
:101ED00000F4802080B12068006800F4002028B958
:101EE000206CC8B12046216C884715E0A06C98B1E1
:101EF0002046A16C88470FE02068006800F48070DD
:101F000028B92068006820F0080021680860206C6B
:101F100010B12046216C884794F85C10202088403E
:101F20003040002865D02068006800F010000028CC
:101F30005FD094F85C1020208840A86094F83500A9
:101F4000052828D12068006820F016002168086064
:101F50002068406920F0800021684861206C08B941
:101F6000A06C28B12068006820F008002168086093
:101F700094F85C103F208840A860012084F8350068
:101F800000BF002084F8340000BF206D10B120464F
:101F9000216D8847F8BD2068006800F4802080B17A
:101FA0002068006800F4002028B9606C10B1204659
:101FB000616C88471DE0E06BD8B12046E16B884733
:101FC00017E02068006800F4807068B92068006835
:101FD00020F0100021680860012084F8350000BF5F
:101FE000002084F8340000BFE06B10B12046E16BA4
:101FF0008847606D38B3606D00F00100F0B10520D6
:1020000084F835002068006820F00100216808602D
:1020100000BF0098401C0090B84200D905E020683D
:10202000006800F001000028F3D100BF012084F80F
:10203000350000BF002084F8340000BFE06C10B110
:102040002046E16C884700BFA4E700008C00002018
:102050002DE9F0410446002500F0BAF9074614B90D
:102060000120BDE8F081606A00B100BF022084F861
:10207000350000BF002084F8340000BF20680068ED
:1020800020F00100216808600AE000F0A1F9C01BFF
:10209000052805D920206065032084F83500E0E795
:1020A0002068006800F001000028EED12068056873
:1020B00021480540D4E901010843E168084321694A
:1020C000084361690843A1690843E1690843216A3B
:1020D00008430543606A042803D1D4E90B0108438F
:1020E0000543206805602068456925F00705606A9A
:1020F0000543606A04280DD1A06A0543E06A48B12F
:102100002046FEF7A5FE28B140206065012084F836
:102110003500A6E7206845612046FEF77FFE0646AB
:1021200094F85C103F208840B0600020606501207A
:1021300084F83500002094E73F8010F02DE9F04747
:1021400004460D4616461F464FF00008D4F8589036
:1021500000BF94F83400012802D10220BDE8F087C6
:10216000012084F8340000BF94F83500012825D1FF
:10217000022084F83500002060653B46324629463F
:102180002046FEF7BAFE94F85C103F208840C9F85C
:1021900008002068006840F0160021680860206C84
:1021A00028B12068006840F00800216808602068B5
:1021B000006840F001002168086006E000BF0020D0
:1021C00084F8340000BF4FF002084046C6E7000024
:1021D000F8B502460B460025002400200021D6E079
:1021E000012606FA01F51E6806EA0504AC4274D120
:1021F0001E7906F00306012E04D01E7906F00306B0
:10220000022E13D190684F000326BE40B0434F000A
:10221000DE68BE4030439060506801268E40B04377
:102220001E79C6F300168E40304350601E7906F0CA
:102230000306032E09D0D0684F000326BE40B043EA
:102240004F009E68BE403043D0601E7906F0030602
:10225000022E13D1CF0802F1200656F827004E07B0
:10226000F70E0F26BE40B0434F07FF0E1E69BE405B
:102270003043CF0802F1200646F8270010684F00CF
:102280000326BE40B0431E7906F003064F00BE4051
:10229000304310605E6806F44036002E76D000BFF2
:1022A000002600963C4E366846F480463A4F3E6023
:1022B0003E46366806F48046009600BF00BF374EA3
:1022C0008F0856F827008E07370F0F26BE40B04301
:1022D000334EB24202D1002624E057E0314EB242E2
:1022E00001D101261EE0304EB24201D1022619E092
:1022F0002E4EB24201D1032614E02D4EB24201D13E
:1023000004260FE02B4EB24201D105260AE02A4EE8
:10231000B24201D1062605E0284EB24201D107267D
:1023200000E008268F073F0FBE4030431B4E8F084A
:1023300046F82700224E3068A0435E6806F48016F7
:1023400006B120431E4E3060361D3068A0435E68E3
:1023500006F4001606B12043194E361D3060184EA3
:10236000361F3068A0435E6806F4003606B120438D
:10237000134E361F3060361F3068A0435E6806F487
:10238000803606B120430E4E083E3060491C1029AD
:10239000FFF426AFF8BD0000443802400838014081
:1023A000000002400004024000080240000C02400D
:1023B000001002400014024000180240001C0240BD
:1023C000083C01400AB1816101E00B048361704760
:1023D0000148006870470000800000200348006842
:1023E00003490978084401490860704780000020CB
:1023F0008800002010B50D48006840F400700B49BB
:1024000008600846006840F480600860084600687C
:1024100040F480700860032000F0A2F8002000F073
:1024200007F800F02BF8002010BD0000003C02402F
:1024300070B504460E4800784FF47A71B1FBF0F0A5
:102440000C490968B1FBF0F5284600F0E4FE08B13C
:10245000012070BD102C07D200222146501E00F032
:1024600041F80548046001E00120F2E70020F0E7B0
:10247000880000208C0000208400002008B500BFE8
:10248000002000900E48006840F480400C4908602D
:102490000846006800F48040009000BF00BF00BF05
:1024A00000200090081F006840F08050091F08605D
:1024B0000846006800F08050009000BF00BF08BDD3
:1024C0004438024001460846002809DB00F01F039B
:1024D00001229A4043099B0003F1E023C3F8002145
:1024E00000BF70472DE9F05F80460D461646002775
:1024F00002F024FE074639462A46334601F007001B
:10250000C0F1070ABAF1040F02D94FF0040A01E042
:10251000C0F1070AD14600F1040ABAF1070F02D24E
:102520004FF0000A01E0A0F1030AD4464FF0010A7F
:102530000AFA09FAAAF1010A0AEA020A0AFA0CFAE4
:102540004FF0010B0BFA0CFBABF1010B0BEA030B89
:102550004AEA0B042146404602F0F8FDBDE8F09F30
:1025600000BF00F00702064B19684FF6FF03194041
:10257000044B0B4343EA0221014B196000BF704733
:102580000CED00E00000FA0570B504460D460CB9EC
:10259000012070BD5848006800F00700A84209D229
:1025A00055490D700846006800F00700A84201D0A8
:1025B0000120EEE7207800F0020002281DD12078EB
:1025C00000F00400042805D14C48006840F4E050B5
:1025D0004A490860207800F00800082805D14748DB
:1025E000006840F46040454908604448006820F0B5
:1025F000F000A168084341490860207800F001001C
:10260000A8B36068012807D13C4808380068C0F3C7
:102610004040B8B90120BCE76068022802D0606879
:10262000032807D1354808380068C0F3406048B92E
:102630000120AEE7314808380068C0F3400008B90F
:102640000120A6E72D48006820F0030061680843D8
:102650002A490860FFF7BCFE064609E0FFF7B8FE0E
:10266000801B41F28831884202D9032091E707E0BC
:102670002248006800F00C006168B0EB810FEDD1DA
:102680001D48006800F00700A84209D91A490D70DA
:102690000846006800F00700A84201D0012078E752
:1026A000207800F00400042807D11448006820F4C2
:1026B000E050E168084311490860207800F0080004
:1026C000082808D10D48006820F46040216940EADC
:1026D000C1000A49086000F03FF808490968C1F3E1
:1026E0000311074A515CC840064908600648006863
:1026F000FFF79EFE00204CE7003C024008380240F5
:10270000385E00088C00002084000020014800682A
:10271000704700008C00002000B5FFF7F7FF044968
:102720000968C1F38221034A515CC84000BD000022
:1027300008380240485E000800B5FFF7E7FF04498B
:102740000968C1F34231034A515CC84000BD000032
:1027500008380240485E00082DE9F04700240025B3
:102760000026A1462548006800F00C0020B104288E
:1027700005D008283AD105E0DFF8849039E0DFF889
:10278000849036E01D48001F006800F03F041B489D
:10279000001F006800F4800078B11A481749091F2B
:1027A0000968C1F38811A0FB01700146224600238D
:1027B0003846FDF7B9FE05460EE011480F49091FDE
:1027C0000968C1F38811A0FB01700146224600236D
:1027D0003846FDF7A9FE05460848001F0068C0F30B
:1027E0000140401C4600B5FBF6F902E0DFF810900E
:1027F00000BF00BF4846BDE8F0870000083802402F
:102800000024F40040787D01F8B504460CB901209D
:10281000F8BD207800F00100002874D0F948006865
:1028200000F00C0004280DD0F648006800F00C0001
:10283000082813D1F348001F006800F48000B0F5A9
:10284000800F0BD1EF4808380068C0F340400028E3
:1028500059D06068002856D10120D9E700BF6068D0
:10286000B0F5803F08D1E7480838006840F4803070
:10287000E449083908601EE06068B0F5A02F0DD16A
:10288000E0480838006840F48020DE4908390860D4
:102890000846006840F4803008600CE0D9480838E9
:1028A000006820F48030D74908390860084600687D
:1028B00020F48020086000BF606890B1FFF788FDB9
:1028C000054606E0FFF784FD401B642801D903207C
:1028D0009EE7CC4808380068C0F340400028F1D09B
:1028E00011E0FFF775FD054606E0FFF771FD401B9F
:1028F000642801D903208BE7C24808380068C0F378
:1029000040400028F1D1207800F0020002285FD179
:10291000BC48006800F00C0058B1BA48006800F0EC
:102920000C0008281CD1B748001F006800F4800084
:10293000B0B9B44808380068C0F3400020B1E0687E
:10294000012801D0012063E7AE480838006820F074
:10295000F800216940EAC100AA490839086037E057
:10296000E06800B30120A8490860FFF731FD054683
:1029700006E0FFF72DFD401B022801D9032047E7A1
:10298000A04808380068C0F340000028F1D09D48F6
:102990000838006820F0F800216940EAC100994930
:1029A0000839086014E0002097490860FFF710FD1F
:1029B000054606E0FFF70CFD401B022801D9032065
:1029C00026E7904808380068C0F340000028F1D19D
:1029D000207800F0080008282CD16069A8B10120F7
:1029E0008A490860FFF7F4FC054606E0FFF7F0FCB3
:1029F000401B022801D903200AE782486C30006896
:102A0000C0F340000028F1D014E000207F490860A6
:102A1000FFF7DEFC054606E0FFF7DAFC401B022864
:102A200001D90320F4E677486C300068C0F3400019
:102A30000028F1D1207800F00400042870D100278C
:102A400070483830006800F0805090B900BF002016
:102A500000906C483830006840F080506949383147
:102A600008600846006800F08050009000BF00BF7A
:102A700001276748006800F48070B0B964480068B6
:102A800040F4807062490860FFF7A2FC054606E04A
:102A9000FFF79EFC401B022801D90320B8E65C48E2
:102AA000006800F480700028F2D000BFA068012800
:102AB00008D154486830006840F00100514968313D
:102AC00008601DE0A06805280DD14E4868300068F8
:102AD00040F004004B49683108600846006840F047
:102AE000010008600CE047486830006820F00100F1
:102AF0004449683108600846006820F00400086016
:102B000000BFA068A8B1FFF763FC054609E0FFF726
:102B10005FFC401B41F28831884202D9032077E6EE
:102B200026E0384868300068C0F340000028EED046
:102B300013E0FFF74DFC054608E0FFF749FC401B9A
:102B400041F28831884201D9032061E62D4868307E
:102B50000068C0F340000028EFD1012F07D12948B9
:102B60003830006820F0805026493831086000BFB6
:102B7000A069002845D02348006800F00C00082810
:102B80005DD0A069022845D100201F490866FFF7E3
:102B90001FFC054606E0FFF71BFC401B022801D97D
:102BA000032035E6174808380068C0F34060002865
:102BB000F1D1D4E907010843616A40EA8111012299
:102BC000A06AC2EB500041EA00412C20005D41EABE
:102BD00000600C49091F086001200B490866FFF7D7
:102BE000F7FB054606E0FFF7F3FB401B022801D97F
:102BF00003200DE6034808380068C0F34060002851
:102C0000F1D049E00838024000004742800E4742B8
:102C100000700040002021490866FFF7D9FB0546F7
:102C200006E0FFF7D5FB401B022801D90320EFE5A2
:102C30001B480068C0F340600028F2D12CE0A06976
:102C4000012800D1E4E51648001D0668A0690128A6
:102C500020D006F48001E06981421BD106F03F01DB
:102C6000206A814216D147F6C0703040616AB0EBED
:102C7000811F0FD106F440310122A06AC2EB50003F
:102C8000B1EB004F06D106F070612C20005DB1EB76
:102C9000006F01D00120BBE50020B9E500004742EC
:102CA0000038024070470000F8B5044620684668C6
:102CB00020688568C5F3801048B905F0010030B17F
:102CC000C6F3801018B12046216C8847F8BDC5F3C3
:102CD000400030B1C6F3C01018B12046616C88477F
:102CE000F4E7C5F3401030B9C5F3801018B9C5F347
:102CF000002000287CD0C6F3401000287DD0C5F30A
:102D00008010F0B194F8510003280ED0606D40F0AF
:102D10000400606500BF002000902068C06800903B
:102D200020688068009000BF0BE000BF002000908A
:102D30002068C068009020688068009000BF00BFD5
:102D4000C4E7C5F3401088B1606D40F001006065D4
:102D500000BF002000902068806800902068006814
:102D600020F040002168086000BF00BFC5F30020CC
:102D700058B1606D40F00800606500BF0020009011
:102D800020688068009000BF00BF606D78B3206845
:102D9000406820F0E00021684860012084F851007C
:102DA00006F00200022802D006F0010008B32068F5
:102DB000406820F0030021684860E06C50B1104882
:102DC000E16C0865E06CFFF70EF818B1606D40F03B
:102DD00040006065A06C50B10948A16C0865A06C0A
:102DE000FFF701F818B1606D40F04000606503E046
:102DF00003E02046FFF756FF68E700BF66E70000E4
:102E00007144000810B504460CB9012010BD606A79
:102E100038B96068B0F5827F00D105E00021E1613A
:102E200002E00021216161610021A16294F851005A
:102E300028B9002084F85000204600F047F802200E
:102E400084F851002068006820F040002168086084
:102E5000A08800F48270218901F404410843A1890B
:102E600001F400610843217C01F002010843217D47
:102E700001F001010843218B01F400710843217F17
:102E800001F0380108432021095D01F08001084369
:102E9000218D01F400510843216808600421A069D4
:102EA00001EA104094F8241001F010010843216851
:102EB00048602068C06920F400602168C861002073
:102EC0006065012084F8510000209FE710B586B0AE
:102ED0000446142101A8FDF75FFB3F4920688842A2
:102EE00038D100BF002000903C48006840F480507A
:102EF0003A4908600846006800F48050009000BF1E
:102F000000BF00BF0020009034481438006840F033
:102F100001003249143908600846006800F00100D9
:102F2000009000BF00BFE02001900220029000202E
:102F30000390032004900520059001A92848FFF77D
:102F400047F9002211462320FFF7CCFA2320FFF790
:102F5000B9FA3EE02349206888423AD100BF0020F8
:102F600000901E48001F006840F480401B49091F64
:102F700008600846006800F48040009000BF00BF71
:102F800000BF0020009015481438006840F002008F
:102F90001249143908600846006800F002000090E9
:102FA00000BF00BF4FF4604001900220029000205B
:102FB0000390032004900520059001A90A48FFF71B
:102FC00007F9002211462420FFF78CFA2420FFF78E
:102FD00079FA06B010BD00000030014044380240CC
:102FE0000000024000380040000402402DE9FF5F6D
:102FF0000446884691461D460E9E01200290002000
:10300000019000BF94F85000012803D1022004B0C1
:10301000BDE8F09F012084F8500000BFFFF7D8F909
:10302000074694F851B060680390AA46BBF1010FBF
:103030000BD00398B0F5827F04D1A06810B9BBF122
:10304000040F02D002200190DBE0B8F1000F03D0A2
:10305000B9F1000F00D015B901200190D1E094F82A
:103060005100042802D0052084F85100002060653A
:10307000C4F83890E587A587C4F83080E586A58632
:10308000206460642068006800F04000402805D09B
:103090002068006840F0400021680860E068B0F5F2
:1030A000006F4AD1606810B1BAF1010F09D1206BED
:1030B00000882168C860206B801C2063E08E401E61
:1030C000E08633E02068806800F00200022810D11A
:1030D000E08E70B1029801280BD1206B0088216826
:1030E000C860206B801C2063E08E401EE0860020BC
:1030F00002902068806800F0010068B1E08F58B14C
:103100002068C068A16B0880A06B801CA063E08F62
:10311000401EE08701200290FFF75AF9C01BB04221
:1031200004D3701C10B1032001906AE0E08E0028E7
:10313000C8D1E08F0028C5D14AE0606810B1BAF16B
:10314000010F09D1206B007821680873206B401CA7
:103150002063E08E401EE08634E02068806800F046
:103160000200022810D1E08E70B1029801280BD124
:10317000206B007821680873206B401C2063E08E70
:10318000401EE086002002902068806800F0010068
:1031900068B1E08F58B12068C068A16B0870A06B5F
:1031A000401CA063E08F401EE08701200290FFF7E3
:1031B0000FF9C01BB04201D3701C00B916B903202F
:1031C00001901EE0E08E0028C7D1E08F0028C4D116
:1031D0003A463146204601F055F920B101200190D0
:1031E000202060650DE0A06850B900BF002000906D
:1031F0002068C068009020688068009000BF00BF11
:1032000000BF012084F8510000BF002084F8500066
:1032100000BF0198FBE670B504462546681EB0F174
:10322000807F01D301200FE0681E4FF0E02148614C
:103230000F214FF0FF3001F089FF00204FF0E02117
:10324000886107200861002070BD7047704710B585
:1032500004460CB9012010BD94F83D0028B90020A7
:1032600084F83C00204600F025F8022084F83D0058
:10327000211D206801F02AFA012084F8460000BFD1
:1032800084F83E0001213F20015540200155412096
:10329000015500BF00BF012084F8420043200155C2
:1032A000442001554520015500BF012084F83D0010
:1032B0000020D0E738B504462D492068884218D14F
:1032C00000BF002000902B48006840F4802029496E
:1032D00008600846006800F48020009000BF00BF2E
:1032E000002203211A20FFF7FDF81A20FFF7EAF861
:1032F0003CE02149206888421AD100BF002000909C
:103300001C48001F006840F080001A49091F08602F
:103310000846006800F08000009000BF00BF002257
:1033200003212C20FFF7DEF82C20FFF7CBF81DE05F
:1033300012492068884219D100BF002000900D4832
:10334000001F006840F480700A49091F08600846A1
:10335000006800F48070009000BF00BF00220321CD
:103360002D20FFF7BFF82D20FFF7ACF838BD000087
:103370000048014044380240001C0040002000404A
:10338000014691F83D00012801D00120704702203C
:1033900081F83D000868C06840F001000B68D86003
:1033A0001A4B086898421BD00868B0F1804F17D0BC
:1033B000174B0868984213D0164B086898420FD0F4
:1033C000154B086898420BD0144B0868984207D0F8
:1033D000134B0868984203D0124B086898420CD1EE
:1033E0000868806800F00702062A0CD008680068A8
:1033F00040F001000B68186005E00868006840F0C4
:1034000001000B6818600020C0E7000000000140C8
:103410000004004000080040000C0040000401408F
:103420000040014000180040704710B50446206875
:103430000069C0F34000D8B12068C068C0F3400004
:10344000B0B16FF002002168086101202077206888
:10345000806900F0030018B12046FFF7E5FF05E0A2
:10346000204600F0ADF8204600F0ABF800202077B1
:1034700020680069C0F38000D8B12068C068C0F33C
:103480008000B0B16FF0040021680861022020774D
:103490002068806900F4407018B12046FFF7C4FF2F
:1034A00005E0204600F08CF8204600F08AF8002065
:1034B000207720680069C0F3C000D8B12068C068D8
:1034C000C0F3C000B0B16FF00800216808610420AB
:1034D00020772068C06900F0030018B12046FFF78C
:1034E000A3FF05E0204600F06BF8204600F069F8E5
:1034F0000020207720680069C0F30010D8B1206850
:10350000C068C0F30010B0B16FF01000216808610E
:10351000082020772068C06900F4407018B1204668
:10352000FFF782FF05E0204600F04AF8204600F051
:1035300048F8002020772068006900F0010058B1A9
:103540002068C06800F0010030B16FF00100216810
:103550000861204600F036F820680069C0F3C0100A
:1035600058B12068C068C0F3C01030B16FF080005F
:10357000216808612046FFF768FE20680069C0F3F3
:10358000801058B12068C068C0F3801030B16FF06F
:10359000400021680861204600F01CF9206800699D
:1035A000C0F3401058B12068C068C0F3401030B17B
:1035B0006FF02000216808612046FFF747FE10BD2C
:1035C0007047704710B52DED068B84B004467048E7
:1035D000844206D16F480068002802DD6E48FDF77E
:1035E00089FB6E4884427DD16D48D0F89000012857
:1035F000F9D16C480068B0F5FA7F74DB6A4800685E
:10360000401C694908600120FDF738FB0120FDF7E7
:10361000F9FA0220FDF732FB0220FDF7F3FA6048C9
:1036200090ED130AD0ED280A30EE600AD0ED290A99
:1036300030EE200A80ED270A5C48406C404200EEE4
:10364000100AB8EEC00A5A4880ED000A574890EDBB
:10365000080AB8EEC00A564880ED010A504890EDBD
:10366000270A534880ED020A4D4890ED2B0A514835
:10367000D0ED000A30EE200A494880ED2B0A90ED8B
:103680002A0A4C48D0ED010A30EE200A444880ED69
:103690002A0A90ED2B0A10EE101A0846FDF70FF9D2
:1036A00041EC190B9FED440B53EC102BFDF726F862
:1036B00041EC180BFDF72EF93949C1F8980008467E
:1036C00090ED2A0A10EE101A0846FDF7F8F841ECC2
:1036D000190B9FED390B53EC102BFDF70FF841EC54
:1036E000180B01E050E033E0FDF714F92C49C1F864
:1036F00094002D480068322844DB084690ED270AE4
:1037000010EE101A0846FDF7DAF841EC180B2448C1
:1037100090ED260A10EE101A0846FDF7D0F841EC9D
:10372000190B1F4890ED250A10EE101A0846FDF7F8
:10373000C6F841EC1A0B8DED028B8DED009B53EC1E
:103740001A2B1FA001F0EAFC00201749086019E0BD
:103750000120FDF793FA0120FDF754FA0220FDF74E
:103760008DFA0220FDF74EFA9FED180B0C4880ED04
:10377000060B9FED160B80ED080B0A480068401CF5
:103780000849086000F026FB04B0BDEC068B10BDB4
:10379000748E00207C00002000100140E48D002089
:1037A000E08900206800002064000020C48C002014
:1037B000D0800020E480002012329067976F8D3F08
:1037C00025662025662025660D0A00000000000001
:1037D0000000000070477047704700002DE9F84F67
:1037E0000446206805682068C668206847694FF06D
:1037F0000009CA4605F00F09B9F1000F0AD105F01A
:10380000200038B106F0200020B1204601F0BDF8BC
:10381000BDE8F88FB9F1000F7CD007F0010018B9AE
:1038200006F49070002875D005F0010030B106F460
:10383000807018B1206C40F00100206405F0040095
:1038400030B107F0010018B1206C40F00200206494
:1038500005F0020030B107F0010018B1206C40F013
:103860000400206405F0080048B106F0200010B9FB
:1038700007F0010018B1206C40F008002064206CB3
:10388000002846D005F0200028B106F0200010B135
:10389000204601F07AF820684069C0F3801A206C55
:1038A00000F0080010B9BAF1000F2DD0204601F049
:1038B00013F82068406900F04000402820D100BF84
:1038C00000BF2168143151E8001F21F04000216839
:1038D000143141E80002002AF3D100BFA06B50B1BF
:1038E0007548A16B0865A06BFEF77DFA88B1A06BE7
:1038F000016D88470DE02046FFF76EFF09E009E003
:103900002046FFF769FF04E02046FFF765FF00202F
:1039100020647DE7206B012876D105F01000002897
:1039200072D006F010000028FAD000BF00200090EE
:1039300020680068009020684068009000BF00BFC9
:103940002068406900F0400040285ED1A06B00680C
:1039500040681FFA80F8B8F1000F54D0A08D4045A0
:1039600051DDA4F82E80A06BC069B0F5807F43D0F4
:1039700000BF00BF21680C3151E8001F21F48070A6
:1039800021680C3141E80002002AF3D100BF00BFDA
:1039900000BF2168143151E8001F21F001002168A7
:1039A000143141E80002002AF3D100BF00BF00BF7C
:1039B0002168143151E8001F21F0400021681431C2
:1039C00041E80002002AF3D100BF202084F83E0025
:1039D0000020206300BF00BF21680C3151E8001FA8
:1039E00021F0100021680C3141E80002002AF3D1D7
:1039F00000BFA06BFEF7A1F9A08DE28D801A81B205
:103A00002046FFF7E8FE03E740E0A08DE18D401A75
:103A10001FFA80F8E08DC0B3B8F1000F35D000BFB9
:103A200000BF21680C3151E8001F21F4907021681B
:103A30000C3141E80002002AF3D100BF00BF00BFF3
:103A40002168143151E8001F21F001002168143170
:103A500041E80002002AF3D100BF202084F83E0094
:103A60000020206300BF00BF21680C3151E8001F17
:103A700021F0100021680C3141E80002002AF3D146
:103A800000BF41462046FFF7A6FEC1E605F08000D4
:103A900030B106F0800018B1204601F071F9B7E6A8
:103AA00005F0400030B106F0400018B1204600F0AB
:103AB00049FFADE600BFABE6A547000810B50446D8
:103AC0000CB9012010BDA06900B100E000BF94F85E
:103AD0003D0028B9002084F83C00204600F028F87A
:103AE000242084F83D002068C06820F4005021683C
:103AF000C860204600F0C6FF2068006920F49040AE
:103B0000216808612068406920F02A002168486126
:103B10002068C06840F400502168C860002020641C
:103B2000202084F83D0084F83E000020CAE7000011
:103B300010B586B00446142101A8FCF72DFD3049CC
:103B4000206888425AD100BF002000902D480068AC
:103B500040F010002B4908600846006800F0100093
:103B6000009000BF00BF00BF00200090254814381F
:103B7000006840F0010023491439086008460068D5
:103B800000F00100009000BF00BF4FF4C060019042
:103B9000022002900020039003200490072005904B
:103BA00001A91948FEF714FB1848194908604FF09D
:103BB00000604860002116488160C1604FF4806158
:103BC00001610021416181614FF48071C1614FF455
:103BD0004031016200214162FEF73AFA08B1FDF777
:103BE000A3F900BF0A48A063846300BF0022114606
:103BF0002520FEF777FC2520FEF764FC06B010BDFB
:103C0000001001404438024000000240406402407D
:103C1000008F002070B504460D46164694F83E000D
:103C2000202816D105B10EB9012070BD00BF94F84F
:103C30003C00012801D10220F7E7012084F83C0074
:103C400000BF0020206332462946204601F030F8AC
:103C5000EBE70220E9E7000010B5044610492068B0
:103C600088421BD10F4800780F280FD10D48C0792A
:103C7000AA280BD10B48FDF769F80B48006800280B
:103C800004DD09480068401E07490860002003E081
:103C90000021044A1154401C0828F9DB10BD000023
:103CA00000100140710000207C00002070472DE9C9
:103CB000F84F04460E46174699464FF0000A94F80E
:103CC0003D0020285AD106B117B90120BDE8F88F70
:103CD00000BF94F83C00012801D10220F6E7012042
:103CE00084F83C0000BF00202064212084F83D00BF
:103CF000FEF76EFB8246A784E784A068B0F5805F7C
:103D000004D1206910B90025B04602E035464FF0D5
:103D1000000800BF002084F83C0000BF1BE05346B1
:103D2000002280212046CDF8009001F059F808B11A
:103D30000320CBE745B9B8F80000C0F308002168BC
:103D4000486008F1020803E02878216848606D1C8B
:103D5000E08C401EE084E08C0028E0D15346002235
:103D600040212046CDF8009001F03AF808B1032038
:103D7000ACE7202084F83D000020A7E70220A5E75B
:103D8000704700BFFEE7000010B5082001F0E2FF19
:103D90009FED0D0A0D4880ED040A9FED0D0A1030CD
:103DA00080ED010A9FED080A103880ED060A9FEDAC
:103DB000080A183080ED010A0121183880F8301007
:103DC00080F8311010BD0000ACC527379880002066
:103DD0000000000000B52DED088B87B0E04890EDA5
:103DE000060ADFEDE00A20EE200AF7EE000A80EE78
:103DF000801AF0EE418AB0EE680A01F0BBF98DED51
:103E0000040AD94890ED020ADFEDD80A20EE200A14
:103E1000B0EE408ADFEDD60A78EE200AB0EE600AF6
:103E2000FCF70CFAD048D0ED000A20EE20AADFED16
:103E3000D10A78EE200AB0EE600AFCF7FFF9CA4812
:103E4000D0ED010A00EE20AAF0EE4A9ADFEDC80A92
:103E500078EE200AB0EE600AFCF7B4F9C248D0ED63
:103E6000000A20EE20AADFEDC30A78EE200AB0EEA9
:103E7000600AFCF7A7F9BC48D0ED010A00EE20AAC1
:103E8000B0EE4A8AB64890F8300028B1B44890EDB8
:103E9000080A8DED010A08E0B14890ED080ADFED4F
:103EA000B60A00EEA90A8DED010A9DED040ADFEDC8
:103EB000B30A00EEA90A8DED030AB14806AB03AAC6
:103EC00001A900900120FDF733F80498FCF7F7FCF6
:103ED00041EC1A0BA24890ED001BB0EE410AF0EE47
:103EE000610A9FEDA81B53EC112B51EC100BFCF752
:103EF0005EFB41EC1B0B53EC1A2BFCF7F3FC14D8C4
:103F00009DED040A38EEC00A60EE290A80EEA80A88
:103F1000DDED010A9DED061A70EEC10A9FED911AC2
:103F200000EE810AF0EE408A04E08D4890ED090A27
:103F3000F0EE408A8A4890F8310028B1884890ED28
:103F40000A0A8DED040A08E0854890ED0A0ADFEDC3
:103F50008A0A00EE880A8DED040A814890ED040A71
:103F6000DFED800A20EE200AF7EE000A80EE801ACC
:103F70008DED031A9DED030A01F0FCF8B0EE409AB6
:103F8000DFED7E0AB0EE490A00EE880A8DED020AE6
:103F90007E4805AB02AA04A900900120FCF7C8FFE7
:103FA00019EE100AFCF78BFC41EC1A0B6C4890EDF3
:103FB000021BB0EE410AF0EE610A9FED721B53EC5A
:103FC000112B51EC100BFCF7F2FA41EC1B0B53ECEC
:103FD0001A2BFCF787FC16D89DED030A30EE490A30
:103FE00060EE080A9DED031A80EE810ADDED040AF9
:103FF0009DED051A70EEC10A9FED5A1A00EE810A76
:104000008DED030A04E0564890ED0B0A8DED030A8E
:104010000021534880F830109DED010ADFED560A6B
:1040200000EEA90A80ED080A90ED001BB0EE410AEF
:10403000F0EE610A9FED531B53EC112B51EC100B6A
:10404000FCF7B5FA464A03C24548C0ED098A00218B
:1040500080F831109DED040ADFED470A00EE880A72
:1040600080ED0A0A90ED021BB0EE410AF0EE610A03
:104070009FED441B53EC112B51EC100BFCF797FAFE
:104080000A4601463648C0E902129DED030A80ED5A
:104090000B0A3F48C0ED008A9DED030A80ED010A3E
:1040A000314890ED030ADFED3B0AB4EEE00AF1EE91
:1040B00010FA09DD90ED030ADFED360A30EE600AF2
:1040C000334880ED020A19E0274890ED030ADFED3E
:1040D000320AB4EEE00AF1EE10FA05DB9FED270A92
:1040E0002B4880ED020A09E01F4890ED030ADFED3E
:1040F0002A0A30EE600A264880ED020A1A4890ED3E
:10410000040ADFED240AB4EEE00AF1EE10FA09DD4C
:1041100090ED040ADFED1F0A30EE600A1C4880EDC6
:10412000030A19E0104890ED040ADFED1B0AB4EE13
:10413000E00AF1EE10FA05DB9FED100A144880ED5D
:10414000030A09E0084890ED040ADFED130A30EE97
:10415000600A0F4880ED030A07B0BDEC088B00BD74
:10416000988000200000FA43D080002035FA8E3C71
:10417000DB0F493FE4CB1640ACC5A736000000007A
:1041800098000020000000000000F03F9840002050
:10419000E4800020CDCCCC3DCDCCCCBD10B50E48BC
:1041A0000E4908600620486000210C488160C1600B
:1041B0004FF4A02101614FF4C0014161002101765B
:1041C00041768176C17601774177FDF7ACF908B188
:1041D000FCF7AAFE10BD0000006400400C8D00201A
:1041E00008B500BF002000900A48006840F4800035
:1041F000084908600846006800F48000009000BF8D
:1042000000BF002211463A20FEF76CF93A20FEF773
:1042100059F908BD3038024000B587B0142102A812
:10422000FCF7BAF900BF002001902748006840F071
:104230008000254908600846006800F08000019071
:1042400000BF00BF00BF002001900846006840F09A
:10425000010008600846006800F00100019000BFFE
:1042600000BF00BF002001900846006840F0020037
:1042700008600846006800F00200019000BF00BF1F
:10428000002210211148FEF79DF800224FF48051C2
:104290000F48FEF797F810200290012003900020AD
:1042A0000490059002A90948FDF792FF4FF4805051
:1042B00002900120039000200490059002A9044878
:1042C000FDF786FF07B000BD303802400000024015
:1042D0000004024010B51048104908604FF4827085
:1042E000486000210D4881604FF40061C1600021E9
:1042F000016101214161490281611821C1610021EF
:104300000162416281620A21C162FEF77BFD08B150
:10431000FCF70AFE10BD000000300140348D002083
:1043200010B51048104908604FF4827048600021B1
:104330000D4881604FF40061C160002101610121DD
:104340004161490281611021C16100210162416224
:1043500081620A21C162FEF755FD08B1FCF7E4FD58
:1043600010BD0000003800408C8D002010B50948B9
:104370000949086053204860002107488160632193
:10438000C160002101618161FEF761FF08B1FCF7A6
:10439000CBFD10BD00480140E48D002010B50A4857
:1043A0000A490860A720486000210848816041F25E
:1043B0008731C160002101618161FEF748FF08B1CA
:1043C000FCF7B2FD10BD0000001C00402C8E002048
:1043D00010B50A480A49086053204860002108487F
:1043E000816042F20F71C160002101618161FEF7BD
:1043F0002EFF08B1FCF798FD10BD00000020004022
:10440000748E002010B50D480D4908604FF4E1305E
:1044100048604FF480510A4881600021C1604FF428
:10442000C06101610C21416100218161C161FFF71F
:1044300045FB08B1FCF778FD10BD000000100140FD
:10444000BC8E002000BFFEE700BFFEE77047000003
:1044500010B50248FEF728FC10BD0000348D002086
:1044600010B50248FEF720FC10BD00008C8D002026
:1044700070B50546AC6B0020E087E0862046FEF76D
:1044800011FC70BD7CB504460D4616461648006802
:104490001821B0FBF1F01549B0FBF1F04FF47A713F
:1044A000484301906068B0F5827F0DD12B46002211
:1044B00080212046009600F01BF898B1606D40F016
:1044C0002000606503207CBD00BF019800B908E0B2
:1044D0000198401E019020688068C0F3C010002839
:1044E000F3D100BF0020EEE78C00002040420F0017
:1044F0002DE9F84F04460D4690461E46DDF82890FB
:10450000FDF766FFA0EB0900371AFDF761FF824651
:104510002C480068C0F3CB307843009045E0701C15
:10452000002842D0FDF754FFA0EB0A00B84200D2A9
:10453000A7BB2068406820F0E00021684860606800
:10454000B0F5827F0DD1A068B0F5004F03D0A06810
:10455000B0F5806F05D12068006820F04000216828
:104560000860A06AB0F5005F0DD100BF2068006848
:1045700020F40050216808602068006840F4005072
:104580002168086000BF012084F8510000BF0020AE
:1045900084F8500000BF0320BDE8F88FFFE70098C3
:1045A00000B900270098401E0090206880682840CD
:1045B000A84201D1012000E000204045AFD10020F9
:1045C000EAE700008C000020704710B5FDF706FFF9
:1045D00010BD000000B593B0302107A8FBF7DCFF49
:1045E000142102A8FBF7D8FF00BF00200190244847
:1045F000006840F08050224908600846006800F0DA
:104600008050019000BF00BF00BF002001901D48F6
:10461000006840F480401B4908600846006800F4C8
:104620008040019000BF00BF012007900004089067
:1046300002200D9041050E9119210F914FF4A871A0
:104640001091022111910421129107A8FEF7DCF8C4
:1046500008B1FCF769FC0F200290022003900020B3
:1046600004904FF4A05005904FF48050069005211F
:1046700002A8FDF789FF08B1FCF756FC13B000BD96
:1046800040380240007000400348006840F4700069
:10469000014908607047000088ED00E010B502484D
:1046A000FEF7C3FE10BD0000E48D002010B50248E7
:1046B000FEF7BBFE10BD0000748E002010B502484E
:1046C000FEF7B3FE10BD00002C8E002010B502686E
:1046D000294B98420ED0B0F1804F0BD0274B984217
:1046E00008D0274B984205D0264B984202D0264B43
:1046F000984203D122F070024B681A431E4B984235
:1047000020D0B0F1804F1DD01C4B98421AD01C4BCA
:10471000984217D01B4B984214D01B4B984211D093
:104720001A4B98420ED01A4B98420BD0194B984214
:1047300008D0194B984205D0184B984202D0184B1C
:10474000984203D122F44072CB681A4322F08003CE
:104750004C6943EA040202608B68C3620B6883629F
:10476000054B984202D0084B984201D10B69036374
:104770000123436110BD000000000140000400401F
:1047800000080040000C00400004014000400140CF
:10479000004401400048014000180040001C004057
:1047A0000020004070B50546AC6B0020E085E08439
:1047B0002046FFF711F870BD70B506460025B46BB2
:1047C00020684069C0F3C01594F83D00212805D148
:1047D00025B10020E084204600F0C4F8206840693C
:1047E000C0F3801594F83E00222805D125B10020A1
:1047F000E085204600F070F8206C40F01000206446
:104800002046FEF7E9FF70BD70B50546AC6B286821
:10481000006800F48070002842D1E08500BF00BF2E
:1048200021680C3151E8001F21F4807021680C319F
:1048300041E80002002AF3D100BF00BF00BF216899
:10484000143151E8001F21F001002168143141E8C2
:104850000002002AF3D100BF00BF00BF216814315D
:1048600051E8001F21F040002168143141E80002A6
:10487000002AF3D100BF202084F83E00206B0128DD
:104880000ED100BF00BF21680C3151E8001F21F09C
:10489000100021680C3141E80002002AF3D100BF6A
:1048A000206B012804D1A18D2046FEF794FF02E081
:1048B0002046FFF7D1F970BD70B50546AC6B206B93
:1048C000012805D1A08D41082046FEF784FF02E0B3
:1048D0002046FFF7EBF970BD00BF00BF02680C3245
:1048E00052E8002F22F4907102680C3242E8001363
:1048F000002BF3D100BF00BF00BF0268143252E8A2
:10490000002F22F001010268143242E80013002B4C
:10491000F3D100BF016B01290ED100BF00BF0268B7
:104920000C3252E8002F22F0100102680C3242E8EB
:104930000013002BF3D100BF202180F83E1000218E
:104940000163704710B504462068C06820F040003D
:104950002168C860202084F83D002046FFF710FA47
:10496000002010BD00BF00BF02680C3252E8002FCB
:1049700022F0C00102680C3242E80013002BF3D190
:1049800000BF202180F83D107047F8B5044694F828
:104990003E00222873D1A068B0F5805F0CD1206959
:1049A00050B90025A66A20684068C0F3080030802E
:1049B000A06A801CA06215E0A56A0026A068B0F578
:1049C000805F03D0A06828B9206918B920684068C2
:1049D000287004E02068406800F07F002870A06A1A
:1049E000401CA062E08D401E80B2E085002844D1CA
:1049F0002068C06820F020002168C8602068C06876
:104A000020F480702168C8602068406920F00100AF
:104A100021684861202084F83E00206B012826D1BF
:104A20000020206300BF00BF21680C3151E8001F47
:104A300021F0100021680C3141E80002002AF3D176
:104A400000BF2068006800F0100010280AD100BFE5
:104A50000020009020680068009020684068009066
:104A600000BF00BFA18D2046FEF7B5FE02E0204644
:104A7000FFF7F2F80020F8BD01E00020FBE702207C
:104A8000F9E700002DE9F84F04462068006920F49A
:104A90004050E1680843216808612169A068084323
:104AA00061690843E169084300902068C06849F2E1
:104AB0000C618843009908432168C86020684069F8
:104AC00020F44070A1690843216848617649206854
:104AD000884203D075492068884203D1FDF72CFE37
:104AE000814602E0FDF718FE8146E069B0F5004F0F
:104AF0006CD102206168A0FB015003461920A9FB7C
:104B0000007001462A463846FBF70EFD6421B0FBD3
:104B1000F1F04FEA001A02206168A0FB01510B4638
:104B20001920A9FB00712A463846FBF7FDFC834695
:104B300002206168A0FB015003461920A9FB007107
:104B40002A463846FBF7F0FC6421B0FBF1F000EB9D
:104B5000C00101EB0010ABEB8000322101EBC00083
:104B60006421B0FBF1F000F0F8000AEB400A0220EB
:104B70006168A0FB015003461920A9FB00700146A3
:104B80002A463846FBF7D0FC834602206168A0FB2A
:104B9000015003461920A9FB00712A463846FBF74D
:104BA000C3FC6421B0FBF1F000EBC00101EB00108D
:104BB000ABEB8000322101EBC0006421B0FBF1F0CF
:104BC00000F007005044216888606AE004206168B2
:104BD000A0FB015003461920A9FB007001462A469C
:104BE0003846FBF7A1FC824604206168A0FB015017
:104BF00003461920A9FB007001462A463846FBF7F8
:104C000093FC6421B0FBF1F000EBC00101EB00105C
:104C1000AAEB8000322101EB00106421B0FBF1F01F
:104C200000F0F00A04206168A0FB0170034619201F
:104C3000A9FB00513A462846FBF776FC6421B0FBFD
:104C4000F1F00AEB001A04206168A0FB01510B4649
:104C50001920A9FB00712A463846FBF765FC8346FC
:104C600004206168A0FB015003461920A9FB0070D5
:104C700001462A463846FBF757FC6421B0FBF1F0A9
:104C800000EBC00101EB0010ABEB8000322101EB27
:104C900000106421B0FBF1F000F00F0050442168D7
:104CA0008860BDE8F88F000000100140001401404A
:104CB00077B581B0044615460298A062A58500200C
:104CC0002064222084F83E002A48A16BC8632A4849
:104CD000A16B08642948A16BC8640020A16B08651A
:104CE00002AE32682368191D2B46A06BFDF726FA29
:104CF00000BF002000902068006800902068406895
:104D0000009000BF00BF00BF002084F83C0000BF3F
:104D1000206970B100BF00BF21680C3151E8001F4D
:104D200041F4807021680C3141E80002002AF3D17F
:104D300000BF00BF00BF2168143151E8001F41F0DF
:104D400001002168143141E80002002AF3D100BFBC
:104D500000BF00BF2168143151E8001F41F040003E
:104D60002168143141E80002002AF3D100BF00207D
:104D700004B070BD09480008B9480008B9470008E8
:104D8000014691F83D00212828D18868B0F5805F60
:104D90000BD1086948B90A6A1088C0F308000B688B
:104DA0005860086A801C086205E00B6A581C08629B
:104DB00018780B685860C88C401E80B2C88458B9F7
:104DC0000868C06820F080000B68D8600868C06878
:104DD00040F040000B68D860002070470220FCE7DC
:104DE0002DE9F04104460D4617469846069E34E0EC
:104DF000701C88B32EB1FDF7EBFAA0EB0800B042AF
:104E00002BD900BF00BF21680C3151E8001F21F4ED
:104E1000D07021680C3141E80002002AF3D100BFB4
:104E200000BF00BF2168143151E8001F21F00100CC
:104E30002168143141E80002002AF3D100BF20208C
:104E400084F83D0084F83E0000BF002084F83C0058
:104E500000BF0320BDE8F081FFE72068006828401C
:104E6000A84201D1012000E00020B842C0D00020BB
:104E7000F0E7000010B50248FEF7B0FC10BD0000DE
:104E8000BC8E002000BFFEE700B52DED028B93B075
:104E90009E48D0ED100AB0EE600AFBF793F9B0EE31
:104EA000408A9A48D0ED0F0AB0EE600AFBF78AF903
:104EB00028EE000A8DED0A0A9448D0ED100AB0EEF3
:104EC000600AFBF77FF9B0EE408A9048D0ED110AF6
:104ED000B0EE600AFBF7B2F928EE008A8B48D0EDFD
:104EE0000F0AB0EE600AFBF7A9F928EE008A87489E
:104EF000D0ED100AB0EE600AFBF7A0F9F0EE408AA0
:104F00008248D0ED110AB0EE600AFBF75BF908EEBB
:104F1000C08A8DED0B8A7D48D0ED110AB0EE600A93
:104F2000FBF78CF9B0EE408A7848D0ED100AB0EE6D
:104F3000600AFBF783F928EE008A7448D0ED110A65
:104F4000B0EE600AFBF73EF9F0EE408A6F48D0ED14
:104F5000100AB0EE600AFBF735F968EE808A6B48FC
:104F6000D0ED0F0AB0EE600AFBF768F908EE808A10
:104F70008DED0C8A6548D0ED100AB0EE600AFBF7A3
:104F80005DF9B0EE408A6148D0ED0F0AB0EE600ADC
:104F9000FBF718F928EE000A8DED0D0A5B48D0EDFD
:104FA000100AB0EE600AFBF749F9B0EE408A5748A4
:104FB000D0ED0F0AB0EE600AFBF740F928EE008A48
:104FC0005248D0ED110AB0EE600AFBF737F928EE2F
:104FD000008A4E48D0ED100AB0EE600AFBF7F2F8F6
:104FE000F0EE408A4948D0ED110AB0EE600AFBF7B6
:104FF000E9F808EE808A8DED0E8A4448D0ED100A5B
:10500000B0EE600AFBF71AF9B0EE408A3F48D0EDE7
:105010000F0AB0EE600AFBF711F928EE008A3B4850
:10502000D0ED110AB0EE600AFBF7CCF828EE008A4A
:105030003648D0ED100AB0EE600AFBF7C3F8F0EE88
:10504000408A3248D0ED110AB0EE600AFBF7F6F85C
:1050500008EEC08A8DED0F8A2C48D0ED0F0AB0EE15
:10506000600AFBF7EBF8B1EE400A8DED100A274815
:10507000D0ED0F0AB0EE600AFBF7A4F8B0EE408A5C
:105080002248D0ED110AB0EE600AFBF7D7F828EEFF
:10509000000A8DED110A1D48D0ED0F0AB0EE600A2E
:1050A000FBF790F8B0EE408A1848D0ED110AB0EE48
:1050B000600AFBF787F828EE000A8DED120A0AABAA
:1050C0000322114608A8FBF703F906A908A8FBF775
:1050D000A1F90F4AD2E900109268CDE904020391C8
:1050E00003AB0122032101A8FBF7F2F8094B0122CF
:1050F00003210948FBF7ECF8074A01A908A8FBF7C8
:10510000EBF813B0BDEC028B00BD0000E08900207D
:10511000245E0008A08C0020380000200FB4054B4E
:1051200010B503A9044A029800F042F910BC5DF8DA
:1051300014FB0000F55A00089000002002480068A7
:10514000C0F30220704700000CED00E010B500280D
:1051500004DB0A07130E054A135406E00A07140E6F
:10516000034A00F00F031B1FD45410BD00E400E0FD
:1051700018ED00E010B52DED028BB0EE408A18EE70
:10518000100AFBF761FC01EE100A18EE100AB7EEE8
:10519000000A78EE410A10F0004F4FF07F4010EE09
:1051A000901A12D0B1F13F4F24BF10EE901AB0EB1D
:1051B000410F12D210EE901AB1F17C5F1CDD10EE9F
:1051C000901AB0EB410F17D314E0B1F13F4F07D95C
:1051D00010EE901AB0EB410F02D331EE401A0BE003
:1051E00010EE901AB1F17C5F06DB10EE901AB0EB76
:1051F000410F01D331EE001A18EE100ABDEC028BFC
:1052000011EE101A61F31E0000EE100A10BD02E04C
:1052100008C8121F08C1002AFAD170477047002041
:1052200001E001C1121F002AFBD170472DE9FF5F89
:1052300082B00021DDE90430020DDDF840B0034307
:1052400018D044F61050A2F2FF32424315141198C0
:1052500001281FD0A5EB0B00401C5FEA000A4FF0AD
:1052600000064E4FDFF83891B046504615D5CAF1CA
:10527000000413E0119801244AA3012801D16FEA28
:105280000B010298119AC0E90031C0E9024206B050
:10529000BDE8F09FCBF10000DFE704460021404A63
:1052A000491842EB0450CDE9001012E0E00707D0A6
:1052B00032463B4640464946FBF720FA804689463F
:1052C00032463B4610461946FBF718FA06460F468B
:1052D0006410002CEAD1DDE90401DDE90023BAF114
:1052E000000F06DAFBF70AFA42464B46FBF706FACE
:1052F00005E0FBF775FA42464B46FBF771FA0446A8
:105300000E460022284BFBF7EDFA03D84FF0FF3092
:10531000014607E00022254B20463146FBF747F9BE
:10532000FBF70DFC102409E0002C0ADB0A22002305
:10533000FBF7FAF8039B30321A55641E50EA01025B
:10534000F2D1641C039AC4F111031444119A012A86
:1053500003D0012208430DD10AE0084304D0002005
:105360004FF0110B119072E7A3EB0B056D1E0DE0D2
:105370005B4504DD4FF0000205F1010504E003DAAE
:105380004FF00002A5F10105002AECD00298119916
:10539000C0E90231C0E9004579E70000000014408F
:1053A0000000F03F300000000000F0430000E03F4C
:1053B0002DE9FF4F95B09A46884606460025EEE156
:1053C000252877D100242746F94A0121039400E0DB
:1053D000044316F8013F203B01FA03F01042F7D1D5
:1053E00030782A2811D06FF02F033078A0F13002E6
:1053F000092A16D8039A44F0020402EB820203EB56
:1054000042021044761C0390EFE758F8042B0392F5
:10541000002A03DA504244F40054039044F002049A
:10542000761C30782E2816D116F8010F44F00404AB
:105430002A280DD06FF02F023078A0F13003092B0D
:1054400009D807EB870302EB4303C718761CF3E781
:1054500058F8047B761C30786C280FD006DC4C287A
:1054600017D068280DD06A2814D104E0742810D011
:105470007A280FD10DE044F400140AE044F48014BB
:1054800001E044F440147278824202D104F58014A1
:10549000761C761C307866280BD013DC582877D021
:1054A00009DC002875D04528F6D04628F4D04728D6
:1054B0001AD193E118E0632835D0642879D06528A3
:1054C00012D18BE1702873D008DC6728F1D06928ED
:1054D0006FD06E280DD06F2806D1ACE073282CD089
:1054E000752874D0782853D05246179990476D1C70
:1054F00054E1C4F30250022809D003280DD0D8F893
:10550000001004280DD00D6008F1040846E1D8F819
:105510000010EA17C1E90052F6E7D8F800100D8034
:10552000F2E70D70F0E718F8041B8DF8001000206A
:105530008DF80100EB46012003E058F804BB4FF062
:10554000FF3061074FF0000102D40DE009F10101C5
:105550008946B9420FDA8145F8DB1BF809100029AA
:10556000F4D108E009F1010189468142FADB1BF818
:1055700009100029F6D103985346A0EB09072146EC
:105580003846179A00F080FA284400EB090507E036
:1055900044E008E10DE01BF8010B524617999047D3
:1055A000B9F10109F7D2534621463846179AF2E07D
:1055B00039E00A21C4F302524FF0000B0091022A95
:1055C00006D058F8040BC117032A09D00AE023E0DB
:1055D00008F1070020F00702F2E80201904605E01A
:1055E00000B2C117042A01D140B2C117002906DA5E
:1055F0000A460021404261EB02012D2202E0220511
:1056000004D52B228DF80420012203E0E20701D00B
:105610002022F7E7914657E00A2100E010214FF0E1
:10562000000B00910BE010214FF0000B44F004043C
:105630000827009103E008204FF0000B0090C4F30E
:105640000252022A05D058F8040B0021032A08D080
:1056500008E008F1070020F00702F2E80201904696
:1056600003E080B2042A00D1C0B24FF00009220743
:105670002AD53278702A07D0DDF800C08CF0100CE3
:105680005CEA0B0C05D00EE040228DF804200122CC
:1056900008E050EA010306D030238DF804308DF87D
:1056A000052002229146009B83F0080353EA0B0376
:1056B0000AD150EA010201D1620705D530228DF8E6
:1056C00004204FF001097F1E3278582A04D039A2F5
:1056D0000C920CAA02920BE03BA2F9E75B46009AFF
:1056E000FAF722FF0C9B9B5C029A521E02921370E7
:1056F00050EA0102F2D1029804A9081A00F1200B25
:10570000600702D524F4803400E001275F4502DD04
:10571000A7EB0B0000E0002000EB0B0100900398CA
:105720004944401A0390E00306D453462146179A91
:10573000039800F0A9F90544002706E001A85246A5
:10574000C05D179990476D1C7F1C4F45F6DBE00349
:105750000CD553462146179A039800F095F9054455
:1057600004E030205246179990476D1C0099481E5E
:1057700000900029F5DC08E0029802995246007872
:10578000491C0291179990476D1CBBF10001ABF1C8
:10579000010BF1DC5BE100F065F90544761C307823
:1057A00000287FF40DAE19B02846BDE8F08F000048
:1057B00009280100303132333435363738396162E7
:1057C00063646566000000003031323334353637AB
:1057D000383941424344454600000000600700D488
:1057E000062708F1070020F00700F0E802238046B2
:1057F00003F0004C5FEA0C0001D097A009E02005FF
:1058000001D596A005E0E00701D095A001E0AFF238
:105810004C001390307823F0004365280CD006DC50
:10582000452809D046281DD047287FD13BE066286F
:1058300018D067287AD136E00021112F01DB112022
:1058400000E0781CCDE9000104A90CA8FFF7EEFCEC
:10585000DDE90D010C9A4FF0000B07F101091092E0
:1058600000914EE04FF000400097CDE9011004A9EF
:105870000CA8FFF7DBFCDDE90D020C9B0F994FF044
:10588000000B91461093009211B9791C00EB0109AD
:10589000B7EB090003D4C0F1FF3B07F10109A9EB05
:1058A0000700019042E0012F00DA01270021112FAB
:1058B00001DD112000E03846CDE9000104A90CA863
:1058C000FFF7B4FCDDE90D010C9A00914FF0000BDD
:1058D000B946109221070FD4009A4A4503DA91463F
:1058E00001E0A9F10109B9F1010F05DD109AA9F153
:1058F0000101515C3029F4D0B84202DA10F1040FF2
:1059000003DA0121CDE9011010E0002803DC834413
:10591000A9EB000102E0411C494500DD8946A0EBEE
:105920000B00401C01904FF000400290200705D46E
:105930000198484502DB4FF0FF30019000208DF8C0
:105940004B0002980DF14B07B0F1004F25D002201B
:105950000C902B200D90029800280CDA4042029007
:105960002D200D9007E00A210298FAF7EFFF303161
:10597000029007F8011D0C99481E0C900029F2DCDA
:1059800002980028EFD1791E0D980870307800F049
:10599000200040F0450007F8020D11A8C01BC01DF3
:1059A00002901398007800B1012000EB09010198E2
:1059B00001EBE071029801440398401A401E0390E5
:1059C000E00306D453462146179A039800F05CF88A
:1059D00005441398007818B15246179990476D1CEA
:1059E000E00323D553462146179A039800F04CF85C
:1059F00005441BE0BBF1000F07DB0098584504DDB0
:105A00001098179910F80B0001E0179930205246B2
:105A1000904701980BF1010B401E05F10105019023
:105A200004D12E205246179990476D1CB9F1000100
:105A3000A9F10109DEDC05E017F8010B52461799C0
:105A400090476D1C0299481E02900029F4DC5346D1
:105A50002146179A03989EE62D0000002B000000B7
:105A6000200000002DE9F041044600251E4617469F
:105A7000880404D405E039462020B0476D1C641E1C
:105A8000F9D52846BDE8F0812DE9F041044600250E
:105A90001E469046C80301D5302700E02027880421
:105AA00004D505E041463846B0476D1C641EF9D563
:105AB0002846BDE8F081000000B58BB001200990B8
:105AC0000020079001200890002001900290039090
:105AD00004900690059001A90548FBF7ADFA04482B
