:020000040800F2
:1000000060940020A101000855460008893E0008C0
:1000100051460008390B0008555100080000000047
:10002000000000000000000000000000C1480008BF
:10003000170E00080000000059460008C3480008D9
:10004000BB010008BB010008BB010008BB010008A0
:10005000BB010008BB010008BB010008BB01000890
:10006000BB010008BB010008BB010008BB01000880
:10007000BB010008BB010008BB010008BB01000870
:10008000BB010008BB010008BB0100084D0B0008C4
:100090003D0B0008BB010008BB010008BB010008C4
:1000A000BB010008BB01000895490008BB0100081E
:1000B000BB010008BB010008BB010008BB01000830
:1000C000BB010008BB010008BB0100082D47000868
:1000D0003D47000841510008BB010008BB01000872
:1000E000BB010008BB010008BB010008BB01000800
:1000F000BB010008A5490008BB010008BB010008BE
:10010000BB010008BB010008BB010008BB010008DF
:10011000BB010008BB010008BB010008BB010008CF
:10012000BB010008BB010008ED0C0008BB01000882
:10013000BB010008BB010008BB010008BB010008AF
:10014000BB010008BB010008BB010008BB0100089F
:10015000BB010008BB010008FD0C0008BB01000842
:10016000BB010008BB010008BB010008BB0100087F
:10017000BB010008BB010008BB0100080000000033
:10018000BB010008BB010008DFF810D000F0C2FC82
:100190000048004719550008AFF300806094002024
:1001A0000648804706480047FEE7FEE7FEE7FEE711
:1001B000FEE7FEE7FEE7FEE7FEE7FEE7814900080F
:1001C000890100089FED1A1AF5EE000A40EE010AB7
:1001D000BDEEE00AF5EEC00A10EE100AF1EE10FADC
:1001E00038BF401E00EE100A1349F7EE001AB8EEB1
:1001F000C00A30EEC00ADFED0F0A20EE200AFCEE46
:10020000C00A10EE900AC0F3080000EE900A01EB5D
:100210008000F8EE600A90ED011A70EE600A90ED31
:10022000000A71EEE01A21EE800A00EE810A7047A2
:1002300083F9223E0000004470580008B5EEC00A61
:10024000F1EE10FA07D2DFED1E0AB4EEE00AF1EE8D
:1002500010FAA8BF7047DFED1B0AB5EEC00A60EECA
:10026000200ABDEEE01A11EE100AF1EE10FA38BFC6
:10027000401E00EE100A1549F7EE001AB8EEC00A4B
:1002800030EEC00ADFED100A60EE200ABCEEE00A94
:1002900010EE100AC0F3080000EE100A01EB800017
:1002A000B8EE400A90ED011A70EEC00A90ED000A17
:1002B00071EEE01A21EE800A00EE810A704700001C
:1002C000CD024CB483F9223E00000044705800086F
:1002D00001804280436070472DE9F04F82B046684C
:1002E00053680193058847884B8800200090088850
:1002F000874201BFB2F800C06545528893421EBFD5
:100300006FF0020002B0BDE8F08F9FED412A4FEA86
:10031000970EC7F3400B00BFDDE9000202EB800A35
:100320004A6898464FF00009B0EE420AB4465FEAC8
:100330000E0025D092ED001ADCED001A02EB8302CC
:10034000DCED010A01EE810A92ED001A02EB830254
:10035000401ED2ED001A02EB830200EE810A9CEDF2
:10036000021ADCED030A00040CF1100C000C01EE83
:10037000210A92ED001A02EB830200EE810AD9D124
:1003800017F0030026D0ACF10404A2EB830210F0B6
:10039000010F08D002EB8302D4ED010A92ED001A9E
:1003A000241D00EE810A5FEA0B0013D002EB830CE0
:1003B000D4ED010A9CED001A02EBC302401E00EED0
:1003C000810AD4ED020A92ED001A04F1080400EE4D
:1003D000810AEBD109F10100AAEC010A1FFA80F9A8
:1003E000486800EB8902A8F101001FFA80F8B8F113
:1003F000000F99D1009806EB8706184480B2009050
:10040000681E05042D0C87D102B00020BDE8F08FD6
:10041000000000002DE9F04F02884768B0F8028024
:100420004888D1F8049082B04FF0000A1646824204
:1004300007BF098888456FF0020002B018BFBDE809
:10044000F08F4FEA980B02EB42000190C8F3400096
:10045000CDF8000009EB8A01BBF1000F33D0019801
:1004600001EB820C01EB80043B46E64601EBC20542
:100470004FEA0B0093ED000A401E81ED000A93ED58
:10048000010A01EB02118CED000A93ED020A0CEB5C
:10049000021C85ED000A93ED030A05EB021584EDBD
:1004A000000A04EB021403F11003E3D10EEB820007
:1004B00000EB820000EB8201ABF10100504307EB3F
:1004C0000B1701EB001118F0030C21D03B1FA1EB1F
:1004D00082011CF0010F06D093ED010A01EB8201AD
:1004E0001B1D81ED000A009880B100BF93ED010A49
:1004F00001EB820401EBC20184ED000A93ED020AD4
:10050000401E81ED000A03F10803EFD107EB8C07D1
:100510000AF101001FFA80FA701E0604360C99D108
:1005200002B00020BDE8F08F2DE9F05F0546002005
:1005300092469B4688460646814640241BE0284654
:1005400041464746224600F010FA53465A46C01A22
:10055000914110D311461846224600F0F7F92D1AA2
:1005600067EB01084F4622460120002100F0EEF91A
:1005700017EB00094E41201EA4F10104DFDC4846C0
:1005800031462A464346BDE8F09FD2B201E000F86A
:10059000012B491EFBD270470022F6E710B5134627
:1005A0000A4604461946FFF7F0FF204610BD2DE924
:1005B000FE4F804681EA0300C00F0C46009021F0F8
:1005C000004123F00045B8EB0200A94105D24046A6
:1005D000214690461C460B46024623F0004010433D
:1005E00047D0270DC7F30A00C3F30A510290401AFF
:1005F000019040286BDAC3F3130040F4801B00988D
:10060000924620B10023D2EB030A63EB0B0B019857
:100610005946C0F14002504600F098F906460D4692
:1006200050465946019A00F0B0F910EB08006141BC
:10063000002487EA115284EAE7731A4340D0009AF3
:1006400062B3019A012A4FEA075215DC001B61EBE5
:1006500002014FF0004202EA0752CDE90042001CBD
:1006600041F5801132462B4600F005FA03B0BDE893
:10067000F08F40462146F9E7001B61EB0201001CA8
:1006800041F5801300185B412018A2F5001747EBD5
:10069000030140EAD570B6196D4111E06D084FEACB
:1006A000360645EAC0754FEA0752001B61EB0201AE
:1006B000001C41F5801149084FEA300000195141F2
:1006C00032462B4603B0BDE8F04F00F0C5B90098A4
:1006D000012240000023D0EB020263EBE07300989C
:1006E00021464FEAE074B8EB000061EB0401E9E752
:1006F00083F000435BE781F0004158E72DE9FE4FAE
:1007000081EA030404F0004421F0004100944FF01A
:10071000000B23F0004350EA01045ED052EA0304C8
:100720005BD0C3F30A54C1F30A552C44A4F2F3344A
:100730000194A0FB0254C1F3130141F48011C3F3EF
:10074000130343F4801301FB024400FB034E840AAD
:10075000970A44EA815447EA8357A4FB0768029545
:100760008D0A05FB07854FEA932C04FB0C542705E3
:10077000029D4FEA065847EA1637B5EB08056EEBBF
:10078000070C870E920E47EA811742EA8312A7FBF5
:100790000201B6EB0B0164EB00042B0D43EA0C33B2
:1007A0005E1844EB1C50DA465146E7FB0201C5F3E4
:1007B00013044FEA0B3343EA14534FEA0432019C0B
:1007C00043EA0603A4F10C040294009CCDE900B4B2
:1007D00000F051F903B0BDE8F08F00200146F9E7C1
:1007E0002DE9F04D81EA030404F0004B21F00045AF
:1007F00014464FF0000A23F0004150EA050220D0D1
:1008000054EA01021DD0C5F30A570246C5F313038B
:10081000C1F31300C1F30A5640F4801543F480136A
:10082000A7EB0608101BD64608F2FD3873EB05004F
:1008300002D308F1010801E092185B41B8F1000F02
:1008400003DA00200146BDE8F08D00204FF480114E
:10085000064684460EE0171B73EB050705D3121BF3
:1008600063EB050306434CEA010C49084FEA3000EC
:1008700092185B4150EA0107EDD152EA030012D011
:1008800082EA040083EA0501084305D0101BAB414E
:1008900006D20122002306E000224FF0004302E0CE
:1008A0006FF0010253101AEB06004CEB085110EBED
:1008B0000A0041EB0B01BDE8F04D00F0CDB800F0AF
:1008C000004230F000400AD0C10D01F56071C0F364
:1008D000160042EA0151C208400711437047002048
:1008E0000146704730B5041E71F1000404DB4FF07F
:1008F0000044404264EB0101141E73F1000405DB67
:100900001C464FF00043524263EB0403994208BF78
:10091000904230BD01F0004330B421F0004150EA74
:10092000010206D00A0DA2F56072C1F31301002A7C
:1009300002DC30BC00207047440F44EAC104C1000F
:10094000E01830BC00EBC25000F031B8202A04DBC4
:10095000203A00FA02F1002070479140C2F12003D2
:1009600020FA03F3194390407047202A04DB203A11
:1009700021FA02F00021704721FA02F3D040C2F1BF
:1009800020029140084319467047202A06DBCB1706
:10099000203A41FA02F043EAE07306E041FA02F33A
:1009A000D040C2F120029140084319467047002907
:1009B000A8BF7047401C490008BF20F001007047E5
:1009C00010B4B0FA80FC00FA0CF050EA010404BF45
:1009D00010BC704749B1CCF1200421FA04F411FA9B
:1009E0000CF118BF012121430843A3EB0C01CB1DDF
:1009F0004FEA00614FEA102042BF002010BC704750
:100A000000EBC35010440029A4BF10BC7047401C29
:100A1000490008BF20F0010010BC704710B541002C
:100A20000CD0C0F3C751962908DC7E2909DC06DB0F
:100A3000410204D000F0004040F07E5010BD002084
:100A400010BDC1F19604C4F1200100FA01F1E040AB
:100A5000FFF7ADFFA04010BD10B5141E73F10004E8
:100A600008DA401C41F1000192185B411A4301D1A0
:100A700020F0010010BD2DE9F04D92469B4611B1CA
:100A8000B1FA81F202E0B0FA80F220329046FFF72C
:100A90005DFF04460F4640EA0A0041EA0B01534657
:100AA0005A46084313D0114653EA010019D0C8F141
:100AB00040025046FFF759FF05460E46504659463C
:100AC0004246FFF743FF084305D0012004E02046DB
:100AD0003946BDE8F08D0020054346EAE0762C4318
:100AE00037430A986305E40AA0EB08000022FD0AD8
:100AF00044EA47540A3002D500200146E9E70105DF
:100B000010196941DDE9084500196941BDE8F04D5A
:100B1000A2E70000064C074D06E0E06840F0010344
:100B200094E8070098471034AC42F6D3FFF730FB47
:100B3000746000089460000800BFFEE710B502482A
:100B400000F04FFB10BD00002401002010B502484A
:100B500000F047FB10BD00002401002010B52DED72
:100B6000048B82B0044600200190607838B9A078E8
:100B700028B99FED5A0A5A4880ED250A38E0A07836
:100B800000F08000802828D1A078ADF80400BDF8DE
:100B900004004FF6FF7101EA0020ADF80400BDF833
:100BA00004006178084480B2ADF80400BDF8040088
:100BB000401E80B2ADF80400BDF80400C04380B20E
:100BC000ADF80400BDF80400404200EE100AB8EE93
:100BD000C00A434880ED250A0AE06078A17840EA1F
:100BE000012000EE100AB8EEC00A3D4880ED250A4B
:100BF000E07838B9207928B99FED380A384880ED77
:100C0000260A38E0207900F08000802828D1207959
:100C1000ADF80600BDF806004FF6FF7101EA0020AE
:100C2000ADF80600BDF80600E178084480B2ADF8E2
:100C30000600BDF80600401E80B2ADF80600BDF803
:100C40000600C04380B2ADF80600BDF80600404281
:100C500000EE100AB8EEC00A214880ED260A0AE02C
:100C6000E078217940EA012000EE100AB8EEC00ACF
:100C70001B4880ED260A1A4890ED250A10EE101A3E
:100C80000846FFF71CFE41EC190B9FED160B53ECC9
:100C9000102BFFF7A5FD41EC180BFFF73BFE1049A9
:100CA000C1F8A800084690ED260A10EE101A084672
:100CB000FFF705FE41EC190B9FED0A0B53EC102BCF
:100CC000FFF78EFD41EC180BFFF724FE0449C1F835
:100CD000AC0002B0BDEC048B10BD000000000000B1
:100CE000788D002012329067976F8D3F10B50248C3
:100CF00001F056F810BD00001C03002010B502489A
:100D000001F04EF810BD00007C0300200146087879
:100D100010381823B0FBF3F20848805CC865032A3A
:100D200005D908686FF30900001D886503E00868AD
:100D30006FF309008865886D7047000050580008FF
:100D4000014600208A6A8B69CBB932B1012A0DD0E5
:100D5000022A03D0032A10D10EE000BFCB6A03F0B1
:100D60008073B3F1807F00D1012007E0CB6AB3F13B
:100D7000C07F00D1012001E000E000BF34E08B69BA
:100D8000B3F5005F1AD132B1012A07D0022A03D08D
:100D9000032A11D10AE000BF01200EE0CB6A03F064
:100DA0008073B3F1807F00D1012006E0CB6AB3F1FC
:100DB000C07F00D1012000E000BF15E032B1012A60
:100DC00005D0022A04D0032A0CD103E000BF00BFE3
:100DD000012008E0CB6A03F08073B3F1807F00D17B
:100DE000012000E000BF00BF704730B504682468F0
:100DF00024F4802405682C60046863608468402CB7
:100E000004D10468A2600468E16003E00468A160A2
:100E10000468E26030BD704772B600BFFEE70000B4
:100E20002DE9F0478246884615469946089E0024DB
:100E30005EE005EB840090ED000AF7EE000AB4EEE8
:100E4000E00AF1EE10FA08D305EB8400D0ED000AB9
:100E5000B0EE600A04F07CFC40B108EB840090ED39
:100E6000000A09EB840080ED000A22E005EB840112
:100E700091ED000ADFED200AB4EEE00AF1EE10FA7F
:100E800002DD4FF4805007E005EB840191ED000A8C
:100E9000BCEEC00A10EE100A06EB8431C0F5805299
:100EA00001EB820191ED000A09EB840181ED000A5A
:100EB00000BF00270DE006EB8431781C01EB8000B9
:100EC00090ED000A06EB843000EB870080ED000A0D
:100ED0007F1C40F6FF708742EDDB08EB840090ED4D
:100EE000000A06EB843000F5705080EDFF0A641CA8
:100EF00054459EDBBDE8F0870000804510B50246F2
:100F000092F82030012B01D0022B06D110684069E5
:100F1000084314686061002010BD506A40F48020CE
:100F200050620120F8E70000F0B504460A46216847
:100F300094F82050012D01D0022D7ED1424901F5B7
:100F40000071086840F001000860086820F47C50D7
:100F500008600868566A40EA06200860107D00F0C4
:100F60001F06012000FA06F3C8699843C861A1F57D
:100F70000071D069C8B9D1F80C029843C1F80C02CD
:100F8000908880B2968940EA064601F5107057694C
:100F900040F83760108880B2168940EA064601F5AD
:100FA0001070576900EBC7004660D069012819D15D
:100FB000D1F80C021843C1F80C02908880B2168850
:100FC00040EA064601F51070576940F8376090898D
:100FD00080B2168940EA064601F51070576900EBA9
:100FE000C7004660906928B9D1F804029843C1F857
:100FF000040204E0D1F804021843C1F804021069A5
:1010000028B9D1F814029843C1F8140204E0D1F8C9
:1010100014021843C1F81402106A012804D1D1F84F
:101020001C021843C1F81C02D1F8000220F0010094
:10103000C1F800020020F0BDFFE7606A40F48020A4
:1010400060620120F7E7000000640040704770B55F
:10105000044694F82050012D01D0022D7DD151B9C4
:101060002068C06800F0030080B9606A40F4001096
:101070006062012070BD2068006900F0030028B99B
:10108000606A40F4001060620120F3E7206800F518
:10109000D87000EB0110006800F0040090609068C8
:1010A00040B9206800F5D87000EB01100068400DD1
:1010B000106007E0206800F5D87000EB01100068B0
:1010C000C0085060206800F5D87000EB011000687F
:1010D00000F00200D060206800F5D87000EB01102D
:1010E000406800F00F00082802D30820106108E0D3
:1010F000206800F5D87000EB0110406800F00F0088
:101100001061206800F5D87000EB0110406800F411
:101110007F40000A9061206800F5D87000EB011054
:101120004068000C5061206800F5D87000EB011099
:1011300080681870206800F5D87000EB0110806896
:1011400000F47F40000A5870206800F5D87000EB6A
:101150000110806800F47F0000E03CE0000C987013
:10116000206800F5D87000EB01108068000ED87080
:10117000206800F5D87000EB0110C0681871206875
:1011800000F5D87000EB0110C06800F47F40000A41
:101190005871206800F5D87000EB0110C06800F4A9
:1011A0007F00000C9871206800F5D87000EB0110EA
:1011B000C068000ED87131B92068C06840F02000C6
:1011C0002668F06005E02068006940F0200026688D
:1011D000306100204EE7606A40F4802060620120A8
:1011E00048E72DE9F05F044600252068466920683D
:1011F000D0F80490206887682068D0F80CA0206898
:10120000D0F810B02068D0F8188006F0010000284F
:1012100055D007F00100C0B101202168886007F0B7
:10122000020018B1204600F04AFD0EE007F004006D
:1012300010B145F4006508E007F0080010B145F46E
:10124000805502E0204600F039FD07F48070C8B1F7
:101250004FF480702168886007F4007018B1204650
:1012600000F02FFD0EE007F4806010B145F400554A
:1012700008E007F4006010B145F4804502E0204624
:1012800000F01EFD07F48030C8B14FF480302168B3
:10129000886007F4003018B1204600F014FD0EE01D
:1012A00007F4802010B145F4004508E007F4002061
:1012B00010B145F4803502E0204600F003FD06F051
:1012C000080038B10AF0100020B145F40075102074
:1012D0002168C86006F0040040B10AF0080028B197
:1012E00008202168C860204600F0B0F906F002002E
:1012F00038B12068C06800F0030010B1204600F04B
:10130000A7F906F0400038B10BF0100020B145F409
:10131000806510202168086106F0200040B10BF0C4
:10132000080028B1082021680861204600F094FCDC
:1013300006F0100038B12068006900F0030010B119
:10134000204600F08AFC06F4003040B109F010009D
:1013500028B1102021684860204600F07FFC06F488
:10136000803040B109F0080028B1082021684860A9
:10137000204600F0A9FC06F4004088B309F0040000
:1013800078B306F4807020B108F0010008B145F090
:10139000010506F4007020B108F0020008B145F024
:1013A000020506F4806020B108F0040008B145F0A1
:1013B000040506F40060A0B108F0700088B108F0E0
:1013C0007000402817D006DC10280BD020280CD045
:1013D000302819D10CE0502810D0602814D110E02A
:1013E0001DE019E045F008050FE045F010050CE0A0
:1013F00045F0200509E045F0400506E045F0800590
:1014000003E045F4807500E000BF00BF20688069FC
:1014100020F07000216888610420216848602DB1A7
:10142000606A284360622046FFF710FEBDE8F09F27
:1014300070B504460CB9012070BD94F8200010B9B5
:10144000204600F0AFF82068006840F001002168F5
:10145000086000F099FF05460DE000F095FF401B85
:101460000A2808D9606A40F400306062052084F8D8
:1014700020000120E0E72068406800F0010000281B
:10148000EBD02068006820F002002168086000F0BE
:101490007BFF05460DE000F077FF401B0A2808D9C6
:1014A000606A40F400306062052084F8200001206A
:1014B000C2E72068406800F002000028EBD1207EDF
:1014C000012806D12068006840F08000216808608B
:1014D00005E02068006820F0800021680860607ED8
:1014E000012806D12068006840F0400021680860AB
:1014F00005E02068006820F0400021680860A07EB8
:10150000012806D12068006840F0200021680860AA
:1015100005E02068006820F0200021680860E07E77
:10152000012806D12068006820F0100021680860BA
:1015300005E02068006840F0100021680860207F06
:10154000012806D12068006840F008002168086082
:1015500005E02068006820F0080021680860607FCE
:10156000012806D12068006840F004002168086066
:1015700005E02068006820F0040021680860D4E9D4
:101580000201084321690843616908436168491EF3
:1015900008432168C86100206062012084F82000AF
:1015A000002049E710B586B00446142101A8FEF7D3
:1015B000F3FF23492068884240D100BF00200090FB
:1015C0002048006840F000701E4908600846006826
:1015D00000F00070009000BF00BF00BF002000902E
:1015E00018481038006840F00100164910390860AA
:1015F0000846006800F00100009000BF00BF4FF4F3
:10160000C05001900220029000200390032004901B
:101610000920059001A90C4800F0B6FD0022012127
:10162000132000F03FFF132000F028FF00220121CB
:10163000142000F037FF142000F020FF06B010BD8A
:101640000064004040380240000002407047000043
:10165000F0B52DED068B89B007466B4602AA002136
:101660003846FFF7F4FCFB490398084400287BD078
:10167000B0F5807F79D0B0F5806F03D0B0F5E06F22
:1016800074D152E103F068FD9DF80000F2498870C2
:101690009DF80110F048C1709DF8021001719DF88D
:1016A000031041719DF8041081719DF80510C171FE
:1016B0009DF800009DF8012040EA022000EE100A8B
:1016C000B8EEC00A10EE101A0846FFF7F8F841EC21
:1016D0001A0B9FEDE20B53EC102BFFF70FF841ECC8
:1016E000190B9FEDE00B53EC102BFFF701F841ECC9
:1016F000180BFFF70FF9DD4908609DF802009DF80F
:10170000032040EA022000EE100AB8EEC00A10EEF4
:10171000101A0846FFF7D3F841EC1A0B9FEDCF0BD8
:1017200053EC102BFEF7EAFF41EC190B9FEDCD0BAC
:1017300053EC102BFEF7DCFF41EC180BFFF7EAF837
:10174000CA4948609DF804009DF8052040EA02203F
:1017500000EE100AB8EEC00A10EE101A0846FFF7A5
:10176000AEF841EC1A0B02E09AE145E05BE29FED36
:10177000BB0B53EC102BFEF7C1FF41EC190B9FED97
:10178000B90B53EC102BFEF7B3FF41EC180BFFF72E
:10179000C1F8B6498860084690ED000AB448D0ED1B
:1017A000010A30EE600A084680ED030A90ED010A56
:1017B000AF48D0ED000A30EE200A084680ED040A5A
:1017C00090ED020AAA48D0ED020A30EE200A08463F
:1017D00080ED050A90ED000AA64880ED000A084653
:1017E00090ED010AA44880ED000A084690ED020A37
:1017F000A24880ED000A17E29DF8000096490872A1
:101800009DF80110944841729DF8021081729DF874
:101810000310C1729DF8041001739DF80510417307
:101820009DF8061081739DF80710C1739DF80200A2
:101830000007000B9DF8012040EA02209DF80020DF
:10184000104300EE100AB8EE400A10EE101A0846D7
:10185000FFF735F841EC1A0B9FED890B53EC102B79
:10186000FEF74CFF41EC190B9FED870B53EC102B4F
:10187000FEF73EFF41EC180BFFF74CF87B4908637D
:101880009DF8040000039DF8032040EA02109DF833
:10189000022040EA121000EE100AB8EE400A10EEE4
:1018A000101A0846FFF70BF841EC1A0B9FED740B6A
:1018B00053EC102BFEF722FF41EC190B9FED720B3E
:1018C00053EC102BFEF714FF41EC180BFFF722F836
:1018D000664948639DF807000007000B9DF8062045
:1018E00040EA02209DF80520104300EE100AB8EEF1
:1018F000400A10EE101A0846FEF7E1FF41EC1A0B01
:101900009FED5F0B53EC102BFEF7F8FE41EC190B2B
:101910009FED5D0B53EC102BFEF7EAFE41EC180B2C
:10192000FEF7F8FF514988637EE19DF800009DF8BD
:10193000012040EA022000EE100AB8EEC00A10EEC4
:10194000101A0846FEF7BBFF41EC1A0B9FED500B37
:1019500053EC102BFEF7D2FE41EC190B9FED4E0B12
:1019600053EC102BFEF7C4FE41EC180BFEF7D2FF30
:101970003E49C8669DF802009DF8032040EA022017
:1019800000EE100AB8EEC00A10EE101A0846FEF774
:1019900096FF41EC1A0B9FED3E0B53EC102BFEF71C
:1019A000ADFE41EC190B9FED3C0B53EC102BFEF7F9
:1019B0009FFE41EC180BFEF7ADFF2C4908679DF820
:1019C00004009DF8052040EA022000EE100AB8EE5F
:1019D000C00A10EE101A0846FEF771FF41EC1A0B10
:1019E0009FED2B0B53EC102BFEF788FE41EC190BEF
:1019F0009FED290B53EC102BFEF77AFE41EC180BF0
:101A0000FEF788FF194948679DF806009DF80720F2
:101A100040EA022000EE100AB8EEC00A10EE101ADA
:101A20000846FEF74CFF41EC1A0B9FED190B53ECE7
:101A3000102BFEF763FE41EC190B9FED170B53ECD7
:101A4000102BFEF755FE41EC180BFEF763FF07491C
:101A50008867E9E0A7D60FF3180000207B14AE4793
:101A6000E17A843F0000000000007440788D00207F
:101A7000389000207C00002080000020840000209E
:101A8000000000000000803F000000000040AF4068
:101A90002EDCF1DA3000003F000000000000F03FD3
:101AA0009DF80000654908749DF801106348417471
:101AB0009DF8021081749DF80310C1749DF8041004
:101AC00001759DF8051041759DF800009DF8011005
:101AD00040EA01249DF802009DF8031040EA012528
:101AE0009DF804009DF8051040EA012600EE104A1A
:101AF000B8EE400A10EE100AFEF7E1FE41EC1A0BB8
:101B00001FED210B53EC102BFEF7F8FD41EC190BE8
:101B10009FED4B0B53EC102BFEF7EAFD41EC180B3D
:101B2000FEF7F8FE4849886400EE105AB8EE400A05
:101B300010EE100AFEF7C3FE41EC180B1FED300B40
:101B400053EC102BFEF7DAFD41EC1A0B9FED3C0B2A
:101B500053EC102BFEF7CCFD41EC190BFEF7DAFE2F
:101B60003949086500EE106AB8EE400A10EE100A16
:101B7000FEF7A5FE41EC1A0B1FED3F0B53EC102BAB
:101B8000FEF7BCFD41EC190B9FED2D0B53EC102B18
:101B9000FEF7AEFD41EC180BFEF7BCFE2A49C86407
:101BA000084690ED120A10EE101A0846FEF787FE5E
:101BB00041EC190B9FED250B53EC102BFEF79EFD0E
:101BC00041EC180BFEF7A6FE1F49C863084690EDCE
:101BD000140A10EE101A0846FEF771FE41EC190BBC
:101BE0009FED1A0B53EC102BFEF788FD41EC180B00
:101BF000FEF790FE14494864084690ED130A10EE73
:101C0000101A0846FEF75BFE41EC190B9FED0F0B17
:101C100053EC102BFEF772FD41EC180BFEF77AFE29
:101C20000949086400E000BF00BF02210948FFF72E
:101C300065F909B0BDEC068BF0BD0000180000206E
:101C40000000000000406F40788D00201839359D5D
:101C500046DF913F2401002070477047704770B500
:101C6000044694F82000012822D1022084F82000A4
:101C70002068006820F001002168086000F084FB03
:101C800005460DE000F080FB401B0A2808D9606A79
:101C900040F400306062052084F82000012070BD0F
:101CA0002068406800F001000028EBD16062F6E790
:101CB000606A40F4002060620120F0E770477047DE
:101CC0007047704770477047704770B50446A56D00
:101CD00000F05AFB064694F83500022808D0802010
:101CE000606500BF002084F8340000BF012070BD93
:101CF0002068006820F016002168086020684069AC
:101D000020F0800021684861206C08B9A06C28B1DF
:101D10002068006820F008002168086020680068DA
:101D200020F001002168086010E000F02DFB801B0E
:101D300005280BD920206065032084F8350000BFFA
:101D4000002084F8340000BF0320D0E7206800683A
:101D500000F001000028E8D194F85C103F20884092
:101D6000A860012084F8350000BF002084F834000A
:101D700000BF00BFBBE7014691F83500022803D041
:101D80008020486501207047052081F835000868EB
:101D9000006820F001000A6810600020F3E70000EE
:101DA000F8B50446002000908C4800684FF41651A6
:101DB000B0FBF1F7A56D2E6894F85C100820884000
:101DC000304098B12068006800F0040070B12068CD
:101DD000006820F004002168086094F85C10082076
:101DE0008840A860606D40F00100606594F85C1068
:101DF00001208840304068B12068406900F08000D0
:101E000040B194F85C1001208840A860606D40F0FB
:101E10000200606594F85C1004208840304068B18E
:101E20002068006800F0020040B194F85C100420C3
:101E30008840A860606D40F00400606594F85C1014
:101E400010208840304078B32068006800F0080017
:101E500050B394F85C1010208840A8602068006897
:101E600000F4802080B12068006800F4002028B9C8
:101E7000206CC8B12046216C884715E0A06C98B151
:101E80002046A16C88470FE02068006800F480704D
:101E900028B92068006820F0080021680860206CDC
:101EA00010B12046216C884794F85C1020208840AF
:101EB0003040002865D02068006800F0100000283D
:101EC0005FD094F85C1020208840A86094F835001A
:101ED000052828D12068006820F0160021680860D5
:101EE0002068406920F0800021684861206C08B9B2
:101EF000A06C28B12068006820F008002168086004
:101F000094F85C103F208840A860012084F83500D8
:101F100000BF002084F8340000BF206D10B12046BF
:101F2000216D8847F8BD2068006800F4802080B1EA
:101F30002068006800F4002028B9606C10B12046C9
:101F4000616C88471DE0E06BD8B12046E16B8847A3
:101F500017E02068006800F4807068B920680068A5
:101F600020F0100021680860012084F8350000BFCF
:101F7000002084F8340000BFE06B10B12046E16B14
:101F80008847606D38B3606D00F00100F0B1052046
:101F900084F835002068006820F00100216808609E
:101FA00000BF0098401C0090B84200D905E02068AE
:101FB000006800F001000028F3D100BF012084F880
:101FC000350000BF002084F8340000BFE06C10B181
:101FD0002046E16C884700BFA4E700009400002081
:101FE0002DE9F0410446002500F0CEF9074614B96A
:101FF0000120BDE8F081606A00B100BF022084F8D2
:10200000350000BF002084F8340000BF206800685D
:1020100020F00100216808600AE000F0B5F9C01B5B
:10202000052805D920206065032084F83500E0E705
:102030002068006800F001000028EED120680568E3
:1020400021480540D4E901010843E16808432169BA
:10205000084361690843A1690843E1690843216AAB
:1020600008430543606A042803D1D4E90B010843FF
:102070000543206805602068456925F00705606A0A
:102080000543606A04280DD1A06A0543E06A48B19F
:102090002046FEF755FE28B140206065012084F8F7
:1020A0003500A6E7206845612046FEF72FFE06466C
:1020B00094F85C103F208840B060002060650120EB
:1020C00084F83500002094E73F8010F02DE9F047B8
:1020D00004460D4616461F464FF00008D4F85890A7
:1020E00000BF94F83400012802D10220BDE8F08737
:1020F000012084F8340000BF94F83500012825D170
:10210000022084F83500002060653B4632462946AF
:102110002046FEF76AFE94F85C103F208840C9F81C
:1021200008002068006840F0160021680860206CF4
:1021300028B12068006840F0080021680860206825
:10214000006840F001002168086006E000BF002040
:1021500084F8340000BF4FF002084046C6E7000094
:1021600070B5044600F010F906462546681C10B10B
:1021700004480078054400BF00F006F9801BA8421F
:10218000FAD370BD90000020F8B502460B4600253A
:10219000002400200021D6E0012606FA01F51E6881
:1021A00006EA0504AC4274D11E7906F00306012E3E
:1021B00004D01E7906F00306022E13D190684F005A
:1021C0000326BE40B0434F00DE68BE4030439060FF
:1021D000506801268E40B0431E79C6F300168E402B
:1021E000304350601E7906F00306032E09D0D068F4
:1021F0004F000326BE40B0434F009E68BE403043B0
:10220000D0601E7906F00306022E13D1CF0802F12A
:10221000200656F827004E07F70E0F26BE40B043A3
:102220004F07FF0E1E69BE403043CF0802F1200663
:1022300046F8270010684F000326BE40B0431E79C1
:1022400006F003064F00BE40304310605E6806F49F
:102250004036002E76D000BF002600963C4E3668F1
:1022600046F480463A4F3E603E46366806F4804665
:10227000009600BF00BF374E8F0856F827008E0724
:10228000370F0F26BE40B043334EB24202D1002674
:1022900024E057E0314EB24201D101261EE0304E1B
:1022A000B24201D1022619E02E4EB24201D10326DC
:1022B00014E02D4EB24201D104260FE02B4EB24263
:1022C00001D105260AE02A4EB24201D1062605E0D8
:1022D000284EB24201D1072600E008268F073F0FA3
:1022E000BE4030431B4E8F0846F82700224E306810
:1022F000A0435E6806F4801606B120431E4E30608F
:10230000361D3068A0435E6806F4001606B120430F
:10231000194E361D3060184E361F3068A0435E6877
:1023200006F4003606B12043134E361F3060361FC8
:102330003068A0435E6806F4803606B120430E4E36
:10234000083E3060491C1029FFF426AFF8BD00009C
:1023500044380240083801400000024000040240B6
:1023600000080240000C024000100240001402402D
:1023700000180240001C0240083C01400AB1816183
:1023800001E00B048361704701480068704700005A
:10239000880000200348006803490978084401497F
:1023A00008607047880000209000002010B50D489C
:1023B000006840F400700B4908600846006840F46B
:1023C000806008600846006840F480700860032060
:1023D00000F0A6F8002000F007F800F02BF800202D
:1023E00010BD0000003C024070B504460E48007865
:1023F0004FF47A71B1FBF0F00C490968B1FBF0F5CC
:10240000284600F0F7FE08B1012070BD102C07D25D
:1024100000222146501E00F045F80548046001E006
:102420000120F2E70020F0E7900000209400002057
:102430008C00002008B500BF002000900E48006806
:1024400040F480400C4908600846006800F4804071
:10245000009000BF00BF00BF00200090081F006870
:1024600040F08050091F08600846006800F0805066
:10247000009000BF00BF08BD443802400146084636
:1024800000280DDB00BF00BF00F01F0301229A40AF
:1024900043099B0003F1E023C3F8002100BF00BF04
:1024A00000BF70472DE9F05F80460D4616460027B5
:1024B00002F09CFF074639462A46334601F00700E2
:1024C000C0F1070ABAF1040F02D94FF0040A01E083
:1024D000C0F1070AD14600F1040ABAF1070F02D28F
:1024E0004FF0000A01E0A0F1030AD4464FF0010AC0
:1024F0000AFA09FAAAF1010A0AEA020A0AFA0CFA25
:102500004FF0010B0BFA0CFBABF1010B0BEA030BC9
:102510004AEA0B042146404602F070FFBDE8F09FF6
:1025200000BF00F00702064B19684FF6FF03194081
:10253000044B0B4343EA0221014B196000BF704773
:102540000CED00E00000FA0570B504460D460CB92C
:10255000012070BD5848006800F00700A84209D269
:1025600055490D700846006800F00700A84201D0E8
:102570000120EEE7207800F0020002281DD120782B
:1025800000F00400042805D14C48006840F4E050F5
:102590004A490860207800F00800082805D147481B
:1025A000006840F46040454908604448006820F0F5
:1025B000F000A168084341490860207800F001005C
:1025C000A8B36068012807D13C4808380068C0F308
:1025D0004040B8B90120BCE76068022802D06068BA
:1025E000032807D1354808380068C0F3406048B96F
:1025F0000120AEE7314808380068C0F3400008B950
:102600000120A6E72D48006820F003006168084318
:102610002A490860FFF7B8FE064609E0FFF7B4FE56
:10262000801B41F28831884202D9032091E707E0FC
:102630002248006800F00C006168B0EB810FEDD11A
:102640001D48006800F00700A84209D91A490D701A
:102650000846006800F00700A84201D0012078E792
:10266000207800F00400042807D11448006820F402
:10267000E050E168084311490860207800F0080044
:10268000082808D10D48006820F46040216940EA1C
:10269000C1000A49086000F03FF808490968C1F321
:1026A0000311074A515CC8400649086006480068A3
:1026B000FFF79AFE00204CE7003C02400838024039
:1026C00058580008940000208C0000200148006841
:1026D000704700009400002000B5FFF7F7FF0449A1
:1026E0000968C1F38221034A515CC84000BD000063
:1026F000083802406858000800B5FFF7E7FF0449B2
:102700000968C1F34231034A515CC84000BD000072
:1027100008380240685800082DE9F04700240025D9
:102720000026A1462548006800F00C0020B10428CE
:1027300005D008283AD105E0DFF8849039E0DFF8C9
:10274000849036E01D48001F006800F03F041B48DD
:10275000001F006800F4800078B11A481749091F6B
:102760000968C1F38811A0FB0170014622460023CD
:102770003846FDF7D9FE05460EE011480F49091FFE
:102780000968C1F38811A0FB0170014622460023AD
:102790003846FDF7C9FE05460848001F0068C0F32B
:1027A0000140401C4600B5FBF6F902E0DFF810904E
:1027B00000BF00BF4846BDE8F0870000083802406F
:1027C0000024F40040787D01F8B504460CB90120DE
:1027D000F8BD207800F00100002874D0F9480068A6
:1027E00000F00C0004280DD0F648006800F00C0042
:1027F000082813D1F348001F006800F48000B0F5EA
:10280000800F0BD1EF4808380068C0F34040002823
:1028100059D06068002856D10120D9E700BF606810
:10282000B0F5803F08D1E7480838006840F48030B0
:10283000E449083908601EE06068B0F5A02F0DD1AA
:10284000E0480838006840F48020DE490839086014
:102850000846006840F4803008600CE0D948083829
:10286000006820F48030D7490839086008460068BD
:1028700020F48020086000BF606890B1FFF784FDFD
:10288000054606E0FFF780FD401B642801D90320C0
:102890009EE7CC4808380068C0F340400028F1D0DB
:1028A00011E0FFF771FD054606E0FFF76DFD401BE7
:1028B000642801D903208BE7C24808380068C0F3B8
:1028C00040400028F1D1207800F0020002285FD1BA
:1028D000BC48006800F00C0058B1BA48006800F02D
:1028E0000C0008281CD1B748001F006800F48000C5
:1028F000B0B9B44808380068C0F3400020B1E068BF
:10290000012801D0012063E7AE480838006820F0B4
:10291000F800216940EAC100AA490839086037E097
:10292000E06800B30120A8490860FFF72DFD0546C7
:1029300006E0FFF729FD401B022801D9032047E7E5
:10294000A04808380068C0F340000028F1D09D4836
:102950000838006820F0F800216940EAC100994970
:102960000839086014E0002097490860FFF70CFD63
:10297000054606E0FFF708FD401B022801D90320A9
:1029800026E7904808380068C0F340000028F1D1DD
:10299000207800F0080008282CD16069A8B1012037
:1029A0008A490860FFF7F0FC054606E0FFF7ECFCFB
:1029B000401B022801D903200AE782486C300068D6
:1029C000C0F340000028F1D014E000207F490860E7
:1029D000FFF7DAFC054606E0FFF7D6FC401B0228AD
:1029E00001D90320F4E677486C300068C0F340005A
:1029F0000028F1D1207800F00400042870D10027CD
:102A000070483830006800F0805090B900BF002056
:102A100000906C483830006840F080506949383187
:102A200008600846006800F08050009000BF00BFBA
:102A300001276748006800F48070B0B964480068F6
:102A400040F4807062490860FFF79EFC054606E08E
:102A5000FFF79AFC401B022801D90320B8E65C4826
:102A6000006800F480700028F2D000BFA068012840
:102A700008D154486830006840F00100514968317D
:102A800008601DE0A06805280DD14E486830006838
:102A900040F004004B49683108600846006840F087
:102AA000010008600CE047486830006820F0010031
:102AB0004449683108600846006820F00400086056
:102AC00000BFA068A8B1FFF75FFC054609E0FFF76B
:102AD0005BFC401B41F28831884202D9032077E633
:102AE00026E0384868300068C0F340000028EED087
:102AF00013E0FFF749FC054608E0FFF745FC401BE3
:102B000041F28831884201D9032061E62D486830BE
:102B10000068C0F340000028EFD1012F07D12948F9
:102B20003830006820F0805026493831086000BFF6
:102B3000A069002845D02348006800F00C00082850
:102B40005DD0A069022845D100201F490866FFF723
:102B50001BFC054606E0FFF717FC401B022801D9C5
:102B6000032035E6174808380068C0F340600028A5
:102B7000F1D1D4E907010843616A40EA81110122D9
:102B8000A06AC2EB500041EA00412C20005D41EAFE
:102B900000600C49091F086001200B490866FFF717
:102BA000F3FB054606E0FFF7EFFB401B022801D9C7
:102BB00003200DE6034808380068C0F34060002891
:102BC000F1D049E00838024000004742800E4742F9
:102BD00000700040002021490866FFF7D5FB05463C
:102BE00006E0FFF7D1FB401B022801D90320EFE5E7
:102BF0001B480068C0F340600028F2D12CE0A069B7
:102C0000012800D1E4E51648001D0668A0690128E6
:102C100020D006F48001E06981421BD106F03F011B
:102C2000206A814216D147F6C0703040616AB0EB2D
:102C3000811F0FD106F440310122A06AC2EB50007F
:102C4000B1EB004F06D106F070612C20005DB1EBB6
:102C5000006F01D00120BBE50020B9E5000047422C
:102C60000038024070470000F8B504462068466806
:102C700020688568C5F3801048B905F0010030B1BF
:102C8000C6F3801018B12046216C8847F8BDC5F303
:102C9000400030B1C6F3C01018B12046616C8847BF
:102CA000F4E7C5F3401030B9C5F3801018B9C5F387
:102CB000002000287CD0C6F3401000287DD0C5F34A
:102CC0008010F0B194F8510003280ED0606D40F0F0
:102CD0000400606500BF002000902068C06800907C
:102CE00020688068009000BF0BE000BF00200090CB
:102CF0002068C068009020688068009000BF00BF16
:102D0000C4E7C5F3401088B1606D40F00100606514
:102D100000BF002000902068806800902068006854
:102D200020F040002168086000BF00BFC5F300200C
:102D300058B1606D40F00800606500BF0020009051
:102D400020688068009000BF00BF606D78B3206885
:102D5000406820F0E00021684860012084F85100BC
:102D600006F00200022802D006F0010008B3206835
:102D7000406820F0030021684860E06C50B11048C2
:102D8000E16C0865E06CFEF7F6FF18B1606D40F08D
:102D900040006065A06C50B10948A16C0865A06C4A
:102DA000FEF7E9FF18B1606D40F04000606503E098
:102DB00003E02046FFF756FF68E700BF66E7000024
:102DC0004D47000810B504460CB9012010BD606ADB
:102DD00038B96068B0F5827F00D105E00021E1617B
:102DE00002E00021216161610021A16294F851009B
:102DF00028B9002084F85000204600F047F802204F
:102E000084F851002068006820F0400021680860C4
:102E1000A08800F48270218901F404410843A1894B
:102E200001F400610843217C01F002010843217D87
:102E300001F001010843218B01F400710843217F57
:102E400001F0380108432021095D01F080010843A9
:102E5000218D01F400510843216808600421A06914
:102E600001EA104094F8241001F010010843216891
:102E700048602068C06920F400602168C8610020B3
:102E80006065012084F8510000209FE710B586B0EE
:102E90000446142101A8FDF77FFB3F4920688842C2
:102EA00038D100BF002000903C48006840F48050BA
:102EB0003A4908600846006800F48050009000BF5E
:102EC00000BF00BF0020009034481438006840F074
:102ED00001003249143908600846006800F001001A
:102EE000009000BF00BFE02001900220029000206F
:102EF0000390032004900520059001A92848FFF7BE
:102F000043F9002211462320FFF7CCFA2320FFF7D4
:102F1000B5FA3EE02349206888423AD100BF00203C
:102F200000901E48001F006840F480401B49091FA4
:102F300008600846006800F48040009000BF00BFB1
:102F400000BF0020009015481438006840F00200CF
:102F50001249143908600846006800F00200009029
:102F600000BF00BF4FF4604001900220029000209B
:102F70000390032004900520059001A90A48FFF75B
:102F800003F9002211462420FFF78CFA2420FFF7D2
:102F900075FA06B010BD0000003001404438024010
:102FA0000000024000380040000402402DE9FE4FBE
:102FB00004460F4690461D460C9E01200190FFF7E7
:102FC000E3F9814694F851B060680290AA46BBF1DB
:102FD000010F0BD00298B0F5827F04D1A06810B920
:102FE000BBF1040F02D00220BDE8FE8F1FB1B8F183
:102FF000000F00D00DB90120F6E700BF94F8500093
:10300000012801D10220EFE7012084F8500000BF21
:1030100094F85100042802D0052084F851000020C3
:103020006065C4F83880E587A5872763E586A586AF
:10303000206460642068006800F04000402805D0EB
:103040002068006840F0400021680860E068B0F542
:10305000006F52D1606810B1BAF1010F09D1206B35
:1030600000882168C860206B801C2063E08E401EB1
:10307000E0863BE02068806800F00200022810D162
:10308000E08E70B1019801280BD1206B0088216877
:10309000C860206B801C2063E08E401EE08600200C
:1030A00001902068806800F0010068B1E08F58B19D
:1030B0002068C068A16B0880A06B801CA063E08FB3
:1030C000401EE08701200190FFF75EF9A0EB0900A8
:1030D000B0420BD3701C48B1012084F8510000BFEE
:1030E000002084F8500000BF03207DE7E08E002818
:1030F000C0D1E08F0028BDD152E0606810B1BAF1B4
:10310000010F09D1206B007821680873206B401CE7
:103110002063E08E401EE0863CE02068806800F07E
:103120000200022810D1E08E70B1019801280BD165
:10313000206B007821680873206B401C2063E08EB0
:10314000401EE086002001902068806800F00100A9
:1031500068B1E08F58B12068C068A16B0870A06B9F
:10316000401CA063E08F401EE08701200190FFF724
:103170000BF9A0EB0900B04201D3701C00B94EB9A5
:10318000012084F8510000BF002084F8500000BFE7
:10319000032029E7E08E0028BFD1E08F0028BCD1B2
:1031A0004A463146204601F0DBFA40B120206065F6
:1031B00000BF002084F8500000BF012014E7A06881
:1031C00050B900BF002000902068C06800902068BF
:1031D0008068009000BF00BF012084F8510000BF4C
:1031E000002084F8500000BF606D08B10120FBE6AC
:1031F0000020F9E670B504462546681EB0F1807FD0
:1032000001D301200FE0681E4FF0E02148610F213B
:103210004FF0FF3002F0F2F800204FF0E02188611B
:1032200007200861002070BD7047704730B5024626
:103230000B4600BF92F83C00012801D1022030BDAE
:10324000012082F83C0000BF022082F83D00106897
:1032500044681068816824F070041868044310689A
:103260004460184D1068A8421BD01068B0F1804F20
:1032700017D0154D1068A84213D0144D1068A842FD
:103280000FD0134D1068A8420BD0124D1068A84201
:1032900007D0114D1068A84203D0104D1068A84205
:1032A00005D121F080015868014310688160012038
:1032B00082F83D0000BF002082F83C0000BF00BF44
:1032C000BDE700000000014000040040000800408D
:1032D000000C004000040140004001400018004084
:1032E00010B504460CB9012010BD94F83D0028B972
:1032F000002084F83C00204600F026F8022084F8E4
:103300003D00211D206801F055FB012084F8460096
:1033100000BF84F83E0001213F20015540200155A7
:103320004120015500BF00BF012084F84200432026
:103330000155442001554520015500BF012084F866
:103340003D000020D0E7000038B50446274920683A
:1033500088420FD100BF002000902548006840F04F
:103360001000234908600846006800F01000009033
:1033700000BF3AE01F49206888421AD100BF0020F0
:1033800000901B48001D006840F480201849091D6A
:1033900008600846006800F48020009000BF00BF6D
:1033A000002203211A20FFF77DF81A20FFF766F8A4
:1033B0001BE011492068884217D100BF002000900F
:1033C0000B48006840F480700949086008460068AE
:1033D00000F48070009000BF00BF002202212D2069
:1033E000FFF760F82D20FFF749F838BD00100040C6
:1033F000403802400048014000200040014691F85A
:103400003D00012801D001207047022081F83D00D5
:103410001A4B086898421BD00868B0F1804F17D04B
:10342000174B0868984213D0164B086898420FD083
:10343000154B086898420BD0144B0868984207D087
:10344000134B0868984203D0124B086898420CD17D
:103450000868806800F00702062A0CD00868006837
:1034600040F001000B68186005E00868006840F053
:1034700001000B6818600020C6E700000000014052
:103480000004004000080040000C0040000401401F
:103490000040014000180040014691F83D0001281D
:1034A00001D001207047022081F83D000868C06803
:1034B00040F001000B68D8601A4B086898421BD096
:1034C0000868B0F1804F17D0174B0868984213D0A6
:1034D000164B086898420FD0154B086898420BD0DD
:1034E000144B0868984207D0134B0868984203D0E1
:1034F000124B086898420CD10868806800F00702F7
:10350000062A0CD00868006840F001000B681860BB
:1035100005E00868006840F001000B6818600020B2
:10352000C0E7000000000140000400400008004027
:10353000000C004000040140004001400018004021
:10354000704770B504462068C5682068066906F0B3
:103550000200022819D105F00200022815D1401FEF
:1035600021680861012020772068806900F003004D
:1035700018B12046FFF7E4FF05E0204600F097F879
:10358000204600F095F80020207706F0040004287B
:1035900019D105F00400042815D1C0432168086141
:1035A000022020772068806900F4407018B120461E
:1035B000FFF7C6FF05E0204600F079F8204600F04E
:1035C00077F80020207706F00800082819D105F0C8
:1035D0000800082815D1C04321680861042020771D
:1035E0002068C06900F0030018B12046FFF7A8FF6B
:1035F00005E0204600F05BF8204600F059F8002076
:10360000207706F01000102819D105F010001028BE
:1036100015D1C04321680861082020772068C0695F
:1036200000F4407018B12046FFF78AFF05E02046FD
:1036300000F03DF8204600F03BF80020207706F02F
:10364000010048B105F0010030B16FF001002168C0
:103650000861204600F02EF806F08000802809D18D
:1036600005F08000802805D1C0432168086120460C
:10367000FFF7DAFD06F04000402809D105F04000D0
:10368000402805D1C04321680861204600F010F9A8
:1036900006F02000202809D105F02000202805D1BF
:1036A000C043216808612046FFF7BFFD70BD704729
:1036B0007047000010B52DED048B04466B48844222
:1036C0000FD16B480068401C6949086008460068D3
:1036D000052806DB0020086018226649664800F0CD
:1036E0008BFB664884427DD16548D0F89000012864
:1036F000F9D164480068B0F5FA7F7FDB6248006862
:10370000401C61490860614800F0CAFD5F4800F054
:10371000F5FD5E48283000F0C3FD5C48283000F01D
:10372000EDFD574890ED130A80ED270A5748808F2A
:10373000404200EE100AB8EEC00A554880ED000A7B
:103740005248808A00EE100AB8EE400A504880EDD8
:10375000010A4B4890ED270A4D4880ED020A48487F
:1037600090ED2B0A4B48D0ED000A30EE200A444879
:1037700080ED2B0A90ED2A0A4648D0ED010A30EE82
:10378000200A3F4880ED2A0A90ED2B0A10EE101A0D
:103790000846FDF794F841EC190B9FED3F0B53ECF5
:1037A000102BFCF7ABFF41EC180BFDF7B3F83449D5
:1037B000C1F89800084690ED2A0A10EE101A084643
:1037C000FDF77DF841EC190B9FED330B53EC102BFB
:1037D000FCF794FF41EC180BFDF79CF82849C1F861
:1037E000940001E028E009E000F038FF2648006876
:1037F00032281FDB0020244908601BE0234800F02A
:103800004FFD224800F07AFD2048283000F048FDA6
:103810001E48283000F072FD9FED210B184880ED06
:10382000060B9FED1F0B80ED080B16480068401C2F
:103830001449086000F050FB144880891A49088038
:1038400008460088B62190FBF1F0184908800F481F
:10385000808E1549488008464088B62190FBF1F0DB
:1038600012494880BDEC048B10BD00008C02002082
:103870001400002018000020D40200204402002080
:10388000788D0020100000200C0000203C840020D7
:10389000188400202C84002012329067976F8D3F8F
:1038A00000000000000000000000002004000020D4
:1038B0007047704770B50446002520684069C0F322
:1038C000C01594F84100212817D1B5B100BF00BF41
:1038D0002168143151E8001F21F080002168143163
:1038E00041E80002002AF3D100BFA06B10B1A06B29
:1038F000FEF7EBF9204601F0E8F920684069C0F3D3
:10390000801594F84200222817D1B5B100BF00BF3E
:103910002168143151E8001F21F040002168143162
:1039200041E80002002AF3D100BFE06B10B1E06B68
:10393000FEF7CBF9204601F082F9002070BD7047F8
:103940002DE9F84F0446206805682068C66820689D
:1039500047694FF00009CA4605F00F09B9F1000F99
:103960000AD105F0200038B106F0200020B1204631
:1039700001F0BEF9BDE8F88FB9F1000F7CD007F077
:10398000010018B906F49070002875D005F0010008
:1039900030B106F4807018B1606C40F001006064D2
:1039A00005F0040030B107F0010018B1606C40F080
:1039B0000200606405F0020030B107F0010018B1A8
:1039C000606C40F00400606405F0080048B106F047
:1039D000200010B907F0010018B1606C40F0080039
:1039E0006064606C002846D005F0200028B106F025
:1039F000200010B1204601F07BF920684069C0F337
:103A0000801A606C00F0080010B9BAF1000F2DD0D8
:103A1000204601F014F92068406900F04000402879
:103A200020D100BF00BF2168143151E8001F21F0F0
:103A300040002168143141E80002002AF3D100BFA0
:103A4000E06B50B17748E16B0865E06BFEF793F9E6
:103A500088B1E06B016D88470DE02046FFF76FFFEE
:103A600009E009E02046FFF76AFF04E02046FFF77F
:103A700066FF002060647DE7206B012878D105F0A7
:103A80001000002874D006F010000028FAD000BF03
:103A90000020009020680068009020684068009036
:103AA00000BF00BF2068406900F04000402860D19E
:103AB000E06B006840681FFA80F8B8F1000F56D03C
:103AC000A08D404553DDA4F82E80E06BC069B0F5B1
:103AD000807F43D000BF00BF21680C3151E8001F38
:103AE00021F4807021680C3141E80002002AF3D1F2
:103AF00000BF00BF00BF2168143151E8001F21F052
:103B000001002168143141E80002002AF3D100BF0E
:103B100000BF00BF2168143151E8001F21F04000B0
:103B20002168143141E80002002AF3D100BF2020AF
:103B300084F842000020206300BF00BF21680C31E0
:103B400051E8001F21F0100021680C3141E800020B
:103B5000002AF3D100BFE06BFEF7B7F802206063E4
:103B6000A08DE28D801A81B22046FFF7A2FE01E708
:103B700042E0A08DE18D401A1FFA80F8E08DD0B3AD
:103B8000B8F1000F37D000BF00BF21680C3151E8F9
:103B9000001F21F4907021680C3141E80002002AD6
:103BA000F3D100BF00BF00BF2168143151E8001FEE
:103BB00021F001002168143141E80002002AF3D10C
:103BC00000BF202084F842000020206300BF00BF17
:103BD00021680C3151E8001F21F0100021680C31E0
:103BE00041E80002002AF3D100BF02206063414691
:103BF0002046FFF75EFEBDE605F0800030B106F01E
:103C0000800018B1204601F06BFAB3E605F04000E1
:103C100030B106F0400018B1204601F046F8A9E6A0
:103C200000BFA7E69D4A000810B504460CB9012064
:103C300010BDA06900B100E000BF94F8410028B9B0
:103C4000002084F84000204600F02AF8242084F860
:103C500041002068C06820F400502168C8602046F8
:103C600001F0C4F82068006920F4904021680861E0
:103C70002068406920F02A00216848612068C068F7
:103C800040F400502168C86000206064202084F85F
:103C9000410084F842000020606300BFC8E70000D4
:103CA00010B586B00446142101A8FCF775FC404904
:103CB000206888427AD100BF002000903D4800680B
:103CC00040F010003B4908600846006800F0100012
:103CD000009000BF00BF00BF00200090354814389E
:103CE000006840F001003349143908600846006854
:103CF00000F00100009000BF00BF4FF4C0600190D1
:103D000002200290002003900320049007200590D9
:103D100001A92948FEF738FA2848294908604FF0D8
:103D200000604860002126488160C1604FF48061D6
:103D30000161002141618161C1614FF44031016243
:103D400000214162FEF74CF908B1FDF765F800BFAC
:103D50001B48E063846300BF184878301949086045
:103D60004FF0006048604021164881600021C1602A
:103D70004FF480610161002141618161C1614FF4B3
:103D80008031016200214162FEF72AF908B1FDF796
:103D900043F800BF0B48A063846300BF00221146B4
:103DA0002520FEF77FFB2520FEF768FB06B010BD3F
:103DB00000100140443802400000024040640240CC
:103DC0001C0300207C03002070B504460D461646F7
:103DD00094F8420020280BD105B10EB9012070BD26
:103DE0000020206332462946204601F015F9F6E707
:103DF0000220F4E770477047F7B50446154694F87B
:103E00004100202836D1019800B10DB90120FEBD36
:103E100001982062A584E58400206064212084F854
:103E200041001548A16BC8631448A16B086414488D
:103E3000A16BC8640020A16B086501AE23681A1D40
:103E400031682B46A06BFEF741F96FF04000216806
:103E5000086000BF00BF2168143151E8001F41F025
:103E600080002168143141E80002002AF3D100BF2C
:103E70000020CCE70220CAE7D94B0008314C0008EB
:103E8000B14A00087047704700BFFEE710B5082030
:103E900001F070FC9FED0D0A0D4880ED040A9FEDC6
:103EA0000D0A103080ED010A9FED080A103880EDF0
:103EB000060A9FED080A183080ED010A0121183822
:103EC00080F8301080F8311010BD0000ACC52737E5
:103ED000E08300200000000000B52DED088B87B0C6
:103EE000E04890ED060ADFEDE00A20EE200AF7EE4A
:103EF000000A80EE801AF0EE418AB0EE680A01F006
:103F000091FA8DED040AD94890ED020ADFEDD80A46
:103F100020EE200AB0EE408ADFEDD60A78EE200AC5
:103F2000B0EE600AFCF78AF9D048D0ED000A20EE26
:103F300020AADFEDD10A78EE200AB0EE600AFCF785
:103F40007DF9CA48D0ED010A00EE20AAF0EE4A9AA7
:103F5000DFEDC80A78EE200AB0EE600AFCF732F90D
:103F6000C248D0ED000A20EE20AADFEDC30A78EEA9
:103F7000200AB0EE600AFCF725F9BC48D0ED010A32
:103F800000EE20AAB0EE4A8AB64890F8300028B178
:103F9000B44890ED080A8DED010A08E0B14890EDB3
:103FA000080ADFEDB60A00EEA90A8DED010A9DEDC3
:103FB000040ADFEDB30A00EEA90A8DED030AB14849
:103FC00006AB03AA01A900900120FCF729FF049881
:103FD000FCF775FC41EC1A0BA24890ED001BB0EE0B
:103FE000410AF0EE610A9FEDA81B53EC112B51EC36
:103FF000100BFCF7DCFA41EC1B0B53EC1A2BFCF713
:1040000071FC14D89DED040A38EEC00A60EE290A4E
:1040100080EEA80ADDED010A9DED061A70EEC10AD8
:104020009FED911A00EE810AF0EE408A04E08D487F
:1040300090ED090AF0EE408A8A4890F8310028B1E4
:10404000884890ED0A0A8DED040A08E0854890ED55
:104050000A0ADFED8A0A00EE880A8DED040A81481B
:1040600090ED040ADFED800A20EE200AF7EE000A48
:1040700080EE801A8DED031A9DED030A01F0D2F94E
:10408000B0EE409ADFED7E0AB0EE490A00EE880AF3
:104090008DED020A7E4805AB02AA04A9009001201A
:1040A000FCF7BEFE19EE100AFCF709FC41EC1A0BF6
:1040B0006C4890ED021BB0EE410AF0EE610A9FEDF4
:1040C000721B53EC112B51EC100BFCF770FA41EC06
:1040D0001B0B53EC1A2BFCF705FC16D89DED030ABD
:1040E00030EE490A60EE080A9DED031A80EE810A5F
:1040F000DDED040A9DED051A70EEC10A9FED5A1A16
:1041000000EE810A8DED030A04E0564890ED0B0A9B
:104110008DED030A0021534880F830109DED010A0F
:10412000DFED560A00EEA90A80ED080A90ED001BAB
:10413000B0EE410AF0EE610A9FED531B53EC112BD8
:1041400051EC100BFCF733FA464A03C24548C0ED68
:10415000098A002180F831109DED040ADFED470A3D
:1041600000EE880A80ED0A0A90ED021BB0EE410ACB
:10417000F0EE610A9FED441B53EC112B51EC100B38
:10418000FCF715FA0A4601463648C0E902129DEDD1
:10419000030A80ED0B0A3F48C0ED008A9DED030A3B
:1041A00080ED010A314890ED030ADFED3B0AB4EEE1
:1041B000E00AF1EE10FA09DD90ED030ADFED360AB0
:1041C00030EE600A334880ED020A19E0274890ED8E
:1041D000030ADFED320AB4EEE00AF1EE10FA05DB75
:1041E0009FED270A2B4880ED020A09E01F4890ED59
:1041F000030ADFED2A0A30EE600A264880ED020A43
:104200001A4890ED040ADFED240AB4EEE00AF1EE5C
:1042100010FA09DD90ED040ADFED1F0A30EE600AA6
:104220001C4880ED030A19E0104890ED040ADFED08
:104230001B0AB4EEE00AF1EE10FA05DB9FED100A5E
:10424000144880ED030A09E0084890ED040ADFED08
:10425000130A30EE600A0F4880ED030A07B0BDEC88
:10426000088B00BDE08300200000FA431884002082
:1042700035FA8E3CDB0F493FE4CB1640ACC5A73680
:1042800000000000E0030020000000000000F03FFC
:10429000E04300202C840020CDCCCC3DCDCCCCBD47
:1042A0003EB5044614B94FF6FF703EBD00200290A3
:1042B00060684069A168884361684861FF20009098
:1042C000012301AA02A92068FEF770FEBDF80400D0
:1042D000A08160684069A168084361684861A0895D
:1042E000E3E710B5016042608360002484810482AA
:1042F00044828489C4810024848210BD8289C38958
:10430000D11A4EF6602291420BDD428A521E428241
:104310008289438AC3EB03431A4402824A1C828285
:104320001DE0104A91420DDA428A521C4282828973
:10433000438AC3EB03431A4402824FF6FF720A44D6
:1043400082820CE0002904DB028A0A440282818214
:1043500005E0002903DA028A0A4402828182828906
:10436000C2817047A015FFFF10B50E480E490860C6
:104370000620486000210C488160C1604FF4A021F4
:1043800001614FF4C00141610021017641768176DF
:10439000C17601774177FDF74BF808B1FCF73CFD9A
:1043A00010BD0000006400402401002008B500BFDB
:1043B000002000900E48006840F480000C4908601E
:1043C0000846006800F48000009000BF00BF002293
:1043D00011463A20FEF766F83A20FEF74FF8002221
:1043E00011464620FEF75EF84620FEF747F808BD66
:1043F0003038024000B587B0142102A8FCF7CCF891
:1044000000BF002001902E48006840F080002C4939
:1044100008600846006800F08000019000BF00BFFF
:1044200000BF002001900846006840F001000860CD
:104430000846006800F00100019000BF00BF00BF07
:10444000002001900846006840F00200086008461D
:10445000006800F00200019000BF00BF002248F297
:1044600010011848FDF78AFF00224FF480511648CA
:10447000FDF784FF1020029001200390002004909B
:10448000059002A90F48FDF77FFE4FF4805002907F
:104490000120039000200490059002A90A48FDF72E
:1044A00073FE4FF40040029001200390022004901C
:1044B0000020059002A90348FDF766FE07B000BD85
:1044C00030380240000002400004024010B510489D
:1044D000104908604FF48270486000210D488160E7
:1044E0004FF40061C1600221016101214161490273
:1044F00081610821C16100210162416281620A215A
:10450000C162FEF75FFC08B1FCF786FC10BD00003D
:10451000003001404C01002010B50F480F490860E1
:104520004FF48270486000210C4881604FF40061B4
:10453000C1600221016101214161490281610021C3
:10454000C1610162416281620A21C162FEF73AFCE7
:1045500008B1FCF761FC10BD00380040A401002048
:1045600010B50948094908605320486000210748F0
:1045700081606321C160002101618161FEF7B0FEAD
:1045800008B1FCF749FC10BD00480140440200207E
:1045900010B50A480A4908605320486000210848BD
:1045A000816040F2E731C160002101618161FEF765
:1045B00097FE08B1FCF730FC10BD00000020004061
:1045C0008C0200201CB50020009001900E480F497D
:1045D00008605320486000210C4881604FF6FF714D
:1045E000C16000218161FEF77BFE08B1FCF714FC7D
:1045F00000200090019069460448FEF717FE08B1BC
:10460000FCF70AFC1CBD000000100040FC0100206B
:1046100010B50D480D4908604FF4E13048604FF483
:1046200080510A4881600021C1604FF4C06101617E
:104630000C21416100218161C161FFF7F5FA08B1E8
:10464000FCF7EAFB10BD000000100140D40200207E
:1046500000BFFEE700BFFEE77047000010B51F482F
:104660000068012837D11E4800780F2807D11C4860
:10467000C079AA2803D11A48FCF770FA19E0184843
:104680000078BB2815D11648C079CC2811D1012259
:10469000D1031448FDF772FE4FF4FA70FDF760FD88
:1046A00000224FF400410F48FDF768FE0C48FCF76C
:1046B00055FA002003E00021094A1154401C082843
:1046C000F9DB002005490860082205490648FFF784
:1046D0007BFB002010BD4FF0FF30FBE730000020D7
:1046E000A100002000000240D402002008B50D48BF
:1046F00000680068C0F3001090B100BF0020009077
:10470000084800680068009006480068406800900B
:1047100000BF00BF0348FFF7CDF801200249086041
:1047200008BD0000D40200203000002010B502486F
:10473000FEF79AFA10BD00004C01002010B50248A7
:10474000FEF792FA10BD0000A401002070B50546E6
:10475000AC6B0020E087E0862046FEF783FA70BD50
:104760007CB504460E4615463346012202212046FA
:10477000009500F039F828B1606D40F020006065C8
:1047800003207CBD164800681821B0FBF1F01549E4
:10479000B0FBF1F04FF47A71484301906068B0F5D6
:1047A000827F0DD13346002280212046009500F003
:1047B0001BF898B1606D40F0200060650320E0E7D1
:1047C00000BF019800B908E00198401E01902068E0
:1047D0008068C0F3C0100028F3D100BF0020D0E7EC
:1047E0009400002040420F002DE9F84F04460D468A
:1047F00090461E46DDF82890FDF7C6FDA0EB0900A7
:10480000371AFDF7C1FD82462C480068C0F3CB3053
:104810007843009045E0701C002842D0FDF7B4FDBD
:10482000A0EB0A00B84200D2A7BB2068406820F085
:10483000E000216848606068B0F5827F0DD1A06813
:10484000B0F5004F03D0A068B0F5806F05D12068A7
:10485000006820F0400021680860A06AB0F5005FA1
:104860000DD100BF2068006820F400502168086066
:104870002068006840F400502168086000BF0120F3
:1048800084F8510000BF002084F8500000BF0320CE
:10489000BDE8F88FFFE7009800B900270098401E98
:1048A0000090206880682840A84201D1012000E0E3
:1048B00000204045AFD10020EAE70000940000202E
:1048C000704710B5FDF766FD10BD000000B593B050
:1048D000302107A8FBF760FE142102A8FBF75CFE5D
:1048E00000BF002001902448006840F08050224919
:1048F00008600846006800F08050019000BF00BFCB
:1049000000BF002001901D48006840F480401B4912
:1049100008600846006800F48040019000BF00BFB6
:10492000012007900004089002200D9041050E918F
:1049300019210F914FF4A8711091022111910421B6
:10494000129107A8FDF740FF08B1FCF765FA0F20A8
:10495000029002200390002004904FF4A050059094
:104960004FF480500690052102A8FDF7EDFD08B137
:10497000FCF752FA13B000BD40380240007000400E
:104980000348006840F47000014908607047000067
:1049900088ED00E010B50248FEF7D3FD10BD000021
:1049A0004402002010B50248FEF7CBFD10BD000008
:1049B0008C02002010B502682D4B98420ED0B0F149
:1049C000804F0BD02B4B984208D02B4B984205D0F0
:1049D0002A4B984202D02A4B984203D122F070020F
:1049E0004B681A43224B984220D0B0F1804F1DD023
:1049F000204B98421AD0204B984217D01F4B984218
:104A000014D01F4B984211D01E4B98420ED01E4B13
:104A100098420BD01D4B984208D01D4B984205D0B0
:104A20001C4B984202D01C4B984203D122F4407296
:104A3000CB681A4322F080034C6943EA0402026007
:104A40008B68C3620B688362094B984202D00C4B9F
:104A5000984201D10B69036301234361036903F0A9
:104A600001031BB1036923F00103036110BD0000C2
:104A7000000001400004004000080040000C00401D
:104A80000004014000400140004401400048014052
:104A900000180040001C00400020004070B5054692
:104AA000AC6B0020E085E0842046FEF748FF70BD37
:104AB00070B506460025B46B20684069C0F3C01588
:104AC00094F84100212805D125B10020E08420463A
:104AD00000F0FBF820684069C0F3801594F84200AC
:104AE000222805D125B10020E085204600F0A7F856
:104AF000606C40F0100060642046FEF720FF70BD3F
:104B000070B50546AC6B2868006800F4807000281A
:104B100042D1E08500BF00BF21680C3151E8001F81
:104B200021F4807021680C3141E80002002AF3D1A1
:104B300000BF00BF00BF2168143151E8001F21F001
:104B400001002168143141E80002002AF3D100BFBE
:104B500000BF00BF2168143151E8001F21F0400060
:104B60002168143141E80002002AF3D100BF20205F
:104B700084F84200206B01280ED100BF00BF2168DD
:104B80000C3151E8001F21F0100021680C3141E880
:104B90000002002AF3D100BF00206063206B0128CF
:104BA00004D1A18D2046FEF784FE02E02046FFF7E7
:104BB00021F970BD70B50546AC6B01206063206BB8
:104BC000012805D1A08D41082046FEF772FE02E0C3
:104BD0002046FFF710F970BD70B50546AC6B28682C
:104BE000006800F48070F8B90020E08400BF00BFC6
:104BF0002168143151E8001F21F080002168143130
:104C000041E80002002AF3D100BF00BF00BF2168C5
:104C10000C3151E8001F41F0400021680C3141E89F
:104C20000002002AF3D102E02046FFF72BF970BD05
:104C300070B50446A56B2846FFF725F970BD00BF87
:104C400000BF02680C3252E8002F22F49071026813
:104C50000C3242E80013002BF3D100BF00BF00BFAD
:104C60000268143252E8002F22F001010268143267
:104C700042E80013002BF3D100BF016B01290ED1D4
:104C800000BF00BF02680C3252E8002F22F0100172
:104C900002680C3242E80013002BF3D100BF202140
:104CA00080F8421000210163704710B50446206867
:104CB000C06820F040002168C860202084F84100CE
:104CC0002046FFF7DFF8002010BD00BF00BF0268DC
:104CD0000C3252E8002F22F0C00102680C3242E888
:104CE0000013002BF3D100BF202180F84110704742
:104CF000F8B5044694F84200222875D1A068B0F5B2
:104D0000805F0CD1206950B90025A66A20684068F0
:104D1000C0F308003080A06A801CA06215E0A56A7C
:104D20000026A068B0F5805F03D0A06828B920698C
:104D300018B920684068287004E02068406800F0D6
:104D40007F002870A06A401CA062E08D401E80B2E7
:104D5000E085002846D12068C06820F02000216846
:104D6000C8602068C06820F480702168C86020682E
:104D7000406920F0010021684861202084F8420049
:104D800000206063206B012826D10020206300BF33
:104D900000BF21680C3151E8001F21F0100021688C
:104DA0000C3141E80002002AF3D100BF20680068FE
:104DB00000F0100010280AD100BF002000902068E9
:104DC0000068009020684068009000BF00BFA18D7F
:104DD0002046FEF76EFD02E02046FFF70BF80020AC
:104DE000F8BD01E00020FBE70220F9E72DE9F84FCC
:104DF00004462068006920F44050E16808432168B7
:104E000008612169A068084361690843E1690843B2
:104E100000902068C06849F20C61884300990843FB
:104E20002168C8602068406920F44070A169084387
:104E30002168486176492068884203D07549206816
:104E4000884203D1FDF758FC814602E0FDF744FC9F
:104E50008146E069B0F5004F6CD102206168A0FB8B
:104E6000015003461920A9FB007001462A46384626
:104E7000FBF75AFB6421B0FBF1F04FEA001A022065
:104E80006168A0FB01510B461920A9FB00712A465D
:104E90003846FBF749FB834602206168A0FB0150BE
:104EA00003461920A9FB00712A463846FBF73CFB54
:104EB0006421B0FBF1F000EBC00101EB0010ABEBA3
:104EC0008000322101EBC0006421B0FBF1F000F062
:104ED000F8000AEB400A02206168A0FB015003467B
:104EE0001920A9FB007001462A463846FBF71CFB37
:104EF000834602206168A0FB015003461920A9FBEC
:104F000000712A463846FBF70FFB6421B0FBF1F035
:104F100000EBC00101EB0010ABEB8000322101EB94
:104F2000C0006421B0FBF1F000F00700504421689C
:104F300088606AE004206168A0FB015003461920E4
:104F4000A9FB007001462A463846FBF7EDFA824677
:104F500004206168A0FB015003461920A9FB0070E2
:104F600001462A463846FBF7DFFA6421B0FBF1F030
:104F700000EBC00101EB0010AAEB8000322101EB35
:104F800000106421B0FBF1F000F0F00A0420616829
:104F9000A0FB017003461920A9FB00513A462846A0
:104FA000FBF7C2FA6421B0FBF1F00AEB001A04200F
:104FB0006168A0FB01510B461920A9FB00712A462C
:104FC0003846FBF7B1FA834604206168A0FB015024
:104FD00003461920A9FB007001462A463846FBF714
:104FE000A3FA6421B0FBF1F000EBC00101EB00106B
:104FF000ABEB8000322101EB00106421B0FBF1F03B
:1050000000F00F00504421688860BDE8F88F000070
:10501000001001400014014077B581B004461546E8
:105020000298A062A58500206064222084F84200D6
:105030002848E16BC8632848E16B08642748E16BA6
:10504000C8640020E16B086502AE32682368191D50
:105050002B46E06BFDF73AF800BF00200090206877
:105060000068009020684068009000BF00BF206981
:1050700070B100BF00BF21680C3151E8001F41F43E
:10508000807021680C3141E80002002AF3D100BF92
:1050900000BF00BF2168143151E8001F41F001003A
:1050A0002168143141E80002002AF3D100BF00BF9B
:1050B00000BF2168143151E8001F41F04000216811
:1050C000143141E80002002AF3D100BF002004B0EF
:1050D00070BD0000014B0008B54B0008B14A000844
:1050E000014691F84100212828D18868B0F5805FF9
:1050F0000BD1086948B90A6A1088C0F308000B6828
:105100005860086A801C086205E00B6A581C086237
:1051100018780B685860C88C401E80B2C88458B993
:105120000868C06820F080000B68D8600868C06814
:1051300040F040000B68D860002070470220FCE778
:1051400010B5FFF7D3FA0248FEF7FAFB10BD0000D6
:10515000D402002000BFFEE700B52DED028B93B016
:105160009E48D0ED100AB0EE600AFBF72BF8B0EEC7
:10517000408A9A48D0ED0F0AB0EE600AFBF722F899
:1051800028EE000A8DED0A0A9448D0ED100AB0EE20
:10519000600AFBF717F8B0EE408A9048D0ED110A8C
:1051A000B0EE600AFBF74AF828EE008A8B48D0ED93
:1051B0000F0AB0EE600AFBF741F828EE008A874834
:1051C000D0ED100AB0EE600AFBF738F8F0EE408A36
:1051D0008248D0ED110AB0EE600AFAF7F3FF08EE4C
:1051E000C08A8DED0B8A7D48D0ED110AB0EE600AC1
:1051F000FBF724F8B0EE408A7848D0ED100AB0EE04
:10520000600AFBF71BF828EE008A7448D0ED110AFB
:10521000B0EE600AFAF7D6FFF0EE408A6F48D0EDA4
:10522000100AB0EE600AFAF7CDFF68EE808A6B488C
:10523000D0ED0F0AB0EE600AFBF700F808EE808AA6
:105240008DED0C8A6548D0ED100AB0EE600AFAF7D1
:10525000F5FFB0EE408A6148D0ED0F0AB0EE600A6B
:10526000FAF7B0FF28EE000A8DED0D0A5B48D0ED8D
:10527000100AB0EE600AFAF7E1FFB0EE408A574834
:10528000D0ED0F0AB0EE600AFAF7D8FF28EE008AD8
:105290005248D0ED110AB0EE600AFAF7CFFF28EEBF
:1052A000008A4E48D0ED100AB0EE600AFAF78AFF85
:1052B000F0EE408A4948D0ED110AB0EE600AFAF7E4
:1052C00081FF08EE808A8DED0E8A4448D0ED100AE9
:1052D000B0EE600AFAF7B2FFB0EE408A3F48D0ED78
:1052E0000F0AB0EE600AFAF7A9FF28EE008A3B48E1
:1052F000D0ED110AB0EE600AFAF764FF28EE008ADA
:105300003648D0ED100AB0EE600AFAF75BFFF0EE17
:10531000408A3248D0ED110AB0EE600AFAF78EFFEB
:1053200008EEC08A8DED0F8A2C48D0ED0F0AB0EE42
:10533000600AFAF783FFB1EE400A8DED100A2748A4
:10534000D0ED0F0AB0EE600AFAF73CFFB0EE408AEB
:105350002248D0ED110AB0EE600AFAF76FFF28EE8E
:10536000000A8DED110A1D48D0ED0F0AB0EE600A5B
:10537000FAF728FFB0EE408A1848D0ED110AB0EED7
:10538000600AFAF71FFF28EE000A8DED120A0AAB39
:105390000322114608A8FAF79BFF06A908A8FBF705
:1053A00039F80F4AD2E900109268CDE9040203915E
:1053B00003AB0122032101A8FAF78AFF094B01225E
:1053C00003210948FAF784FF074A01A908A8FAF758
:1053D00083FF13B0BDEC028B00BD0000788D002070
:1053E00044580008389000207000002002480068EF
:1053F000C0F30220704700000CED00E010B500285B
:1054000004DB0A07130E054A135406E00A07140EBC
:10541000034A00F00F031B1FD45410BD00E400E04A
:1054200018ED00E010B52DED028BB0EE408A18EEBD
:10543000100AFBF7F3FA01EE100A18EE100AB7EEA5
:10544000000A78EE410A10F0004F4FF07F4010EE56
:10545000901A12D0B1F13F4F24BF10EE901AB0EB6A
:10546000410F12D210EE901AB1F17C5F1CDD10EEEC
:10547000901AB0EB410F17D314E0B1F13F4F07D9A9
:1054800010EE901AB0EB410F02D331EE401A0BE050
:1054900010EE901AB1F17C5F06DB10EE901AB0EBC3
:1054A000410F01D331EE001A18EE100ABDEC028B49
:1054B00011EE101A61F31E0000EE100A10BD02E09A
:1054C00008C8121F08C1002AFAD17047704700208F
:1054D00001E001C1121F002AFBD1704700B58BB05B
:1054E00001200990002007900120089000200190E1
:1054F0000290039004900690059001A90548FBF7DF
:1055000013FD0448FCF7ABFB02210248FBF7F6FC55
:105510000BB000BD24010020FCF748FFFFF7D6F9CF
:10552000FEF768FFFEF742FFFEF71EFFFFF718F8D1
:10553000FFF72EF8FFF76CF8FEF7C8FFFEF7ECFF59
:10554000FFF740F81F480068C06840F010001D4990
:105550000968C86008221C491A48FEF735FC102368
:105560001A4A1B491B48FEF7BCFE4FF480531A4AE7
:105570001A4918482830FEF7B4FE01201849C1F82E
:1055800090009FED180B084680ED060B9FED150B64
:1055900080ED080B9FED150A80ED280A9FED130A98
:1055A00080ED290AFFF79AFFFEF770FC1048FDF71F
:1055B00025FF1048FDF770FF0F48FDF76DFF00BF96
:1055C000FEE70000D4020020A100002000000240FD
:1055D0004C0100203C84002000040240A401002073
:1055E000788D002000000000000000000000000096
:1055F000FC010020440200208C02002030B52DED7B
:10560000028B83B040249FED120BB0EE408AF0EE87
:10561000608A202C09D100F021F810EE105A28469B
:10562000FBF74DF941EC180B0AE00B480190002004
:1056300000909DED000BB0EE408AF0EE608A00BF56
:10564000B0EE480AF0EE680A03B0BDEC028B30BD44
:1056500000000000000000000000F07F08B54FF0DF
:10566000FF4000909DED000A08BD000030B52DED13
:10567000028B83B040249FED120BB0EE408AF0EE17
:10568000608A202C09D100F021F810EE105A28462B
:10569000FBF715F941EC180B0AE00B4801900020CC
:1056A00000909DED000BB0EE408AF0EE608A00BFE6
:1056B000B0EE480AF0EE680A03B0BDEC028B30BDD4
:1056C00000000000000000000000F0FF08B50248E4
:1056D00000909DED000A08BD000080FF30B52DED63
:1056E000028B83B040249FED120BB0EE408AF0EEA7
:1056F000608A202C09D100F021F810EE105A2846BB
:10570000FBF7DDF841EC180B0AE00B480190002094
:1057100000909DED000BB0EE408AF0EE608A00BF75
:10572000B0EE480AF0EE680A03B0BDEC028B30BD63
:1057300000000000000000000000F8FF08B5002095
:105740000090024800909DED000A08BD0000C0FFD7
:1057500008B58DED000A009800F0FF40B0F1FF4F52
:1057600005D10098C0F3160008B1012008BD002043
:10577000FCE7000010B50446FFF7B0FF0E4880EDCF
:10578000000BFFF7DBFF0D4880ED000AFFF736FF47
:105790000B4880ED000BFFF761FF0A4880ED000A1F
:1057A000FFF764FF084880ED000BFFF78FFF074805
:1057B00080ED000A10BD00005000002060000020B5
:1057C0004000002058000020480000205C0000201D
:1057D000BAE1EEBA1122D0BA4EEDB421F755723BC0
:1057E000CF4E043C58C20B3CA8A99DA29E858EBCFE
:1057F00088DC0BBD9CA308BD52EE14230A828A3DAF
:10580000F0DB1B3E5F46643E0641803E5F46643EE1
:10581000F0DB1B3E0A828A3D52EE14239CA308BD96
:1058200088DC0BBD9E858EBCA8A99DA258C20B3CEE
:10583000CF4E043CF755723B4EEDB4211122D0BA45
:10584000BAE1EEBA0000000000000000F54A1CC1F9
:1058500000061016000610160000000000000000F0
:105860000102030406070809000000000102030406
:1058700000000000920E493CB10AC93C2BC3163D02
:105880002EFB483D752B7B3D04A9963D80B6AF3D70
:1058900036BDC83D2FBCE13D73B2FA3D87CF093E0E
:1058A0008340163EB5AB223EA2102F3ECF6E3B3E4C
:1058B000C2C5473E0115543E135C603E7F9A6C3E64
:1058C000CCCF783EC07D823E938E883E229A8E3E1B
:1058D00032A0943E86A09A3EE59AA03E128FA63E44
:1058E000D47CAC3EEF63B23E2A44B83E491DBE3E76
:1058F00015EFC33E53B9C93ECA7BCF3E4136D53EB4
:1059000080E8DA3E4F92E03E7533E63EBBCBEB3E9D
:10591000EA5AF13ECBE0F63E275DFC3EE4E7003F6D
:105920003D9C033F824B063F9BF5083F6B9A0B3F24
:10593000DA390E3FCDD3103F2A68133FD9F6153F11
:10594000C07F183FC6021B3FD17F1D3FCBF61F3FD4
:105950009967223F25D2243F5636273F1594293F89
:105960004AEB2B3FDE3B2E3FBB85303FC9C8323F61
:10597000F304353F233A373F4268393F3B8F3B3F83
:10598000F9AE3D3F67C73F3F70D8413F01E2433F1B
:1059900003E4453F65DE473F12D1493FF8BB4B3F2B
:1059A000029F4D3F207A4F3F3D4D513F4918533F95
:1059B00031DB543FE595563F5348583F6AF2593F13
:1059C0001A945B3F532D5D3F05BE5E3F2146603F0D
:1059D00097C5613F5A3C633F59AA643F880F663FB1
:1059E000D86B673F3CBF683FA7096A3F0C4B6B3FD2
:1059F0005E836C3F93B26D3F9ED86E3F73F56F3FF1
:105A00000809713F5213723F4714733FDD0B743F17
:105A10000BFA743FC6DE753F07BA763FC58B773FFA
:105A2000F853783F9812793F9DC7793F02737A3FC8
:105A3000BE147B3FCDAC7B3F283B7C3FC9BF7C3F46
:105A4000AC3A7D3FCCAB7D3F23137E3FB0707E3FB1
:105A50006DC47E3F580E7F3F6D4E7F3FAB847F3FCE
:105A60000FB17F3F97D37F3F43EC7F3F11FB7F3FD9
:105A70000000803F11FB7F3F43EC7F3F97D37F3F88
:105A80000FB17F3FAB847F3F6D4E7F3F580E7F3F0E
:105A90006DC47E3FB0707E3F23137E3FCCAB7D3F15
:105AA000AC3A7D3FC9BF7C3F283B7C3FCDAC7B3FC0
:105AB000BE147B3F02737A3F9DC7793F9812793FAE
:105AC000F853783FC58B773F07BA763FC6DE753F00
:105AD0000BFA743FDD0B743F4714733F5213723F50
