:020000040800F2
:1000000038080020A1010008353D00081F31000814
:10001000313D00086309000879460008000000002F
:10002000000000000000000000000000D53F0008B4
:100030007D0A000800000000393D0008D73F000895
:10004000BB010008BB010008BB010008BB010008A0
:10005000BB010008BB010008BB010008BB01000890
:10006000BB010008BB010008BB010008BB01000880
:10007000BB010008BB010008BB010008BB01000870
:10008000BB010008BB010008BB010008790900089A
:1000900069090008BB010008BB010008BB0100089A
:1000A000BB010008BB010008A9400008BB01000813
:1000B000BB010008BB010008BB010008BB01000830
:1000C000BB010008BB010008BB010008BB01000820
:1000D000BB01000869460008BB010008BB0100081D
:1000E000BB010008BB010008BB010008BB01000800
:1000F000C9400008B9400008BB010008BB01000866
:10010000BB010008BB010008BB010008BB010008DF
:10011000BB010008BB010008BB010008BB010008CF
:10012000BB010008BB010008BB010008BB010008BF
:10013000BB010008BB010008BB010008BB010008AF
:10014000BB010008BB010008BB010008BB0100089F
:10015000BB010008BB010008BB010008BB0100088F
:10016000BB010008BB010008BB010008BB0100087F
:10017000BB010008BB010008BB0100080000000033
:10018000BB010008BB010008DFF810D000F086FBBF
:1001900000480047A56F0008AFF300803808002032
:1001A0000648804706480047FEE7FEE7FEE7FEE711
:1001B000FEE7FEE7FEE7FEE7FEE7FEE79540000804
:1001C000890100082DE9F05F0546002092469B4614
:1001D00088460646814640241BE02846414647465D
:1001E000224600F05DFA53465A46C01A914110D398
:1001F00011461846224600F047F82D1A67EB010811
:100200004F4622460120002100F03EF817EB00097E
:100210004E41201EA4F10104DFDC484631462A4647
:100220004346BDE8F09F2DE9F0410024061B25461A
:1002300071F1000605DA01240027D0EB070067EB17
:100240000101161E73F1000605DA0027D2EB070242
:10025000012567EB0303FFF7B5FF86460E461746F9
:100260009C46AC4204D00025D0EB050E65EB0106A0
:1002700024B10020D2EB000760EB030C704631463E
:100280003A466346BDE8F081202A04DB203A00FAB2
:1002900002F1002070479140C2F1200320FA03F3DD
:1002A000194390407047D2B201E000F8012B491E7B
:1002B000FBD270470022F6E710B513460A46044603
:1002C0001946FFF7F0FF204610BD30B50446002068
:1002D000034600E05B1C934203D2E05CCD5C401B14
:1002E000F8D030BD2DE9FE4F804681EA0300C00FF3
:1002F0000C46009021F0004123F00045B8EB0200CD
:10030000A94105D24046214690461C460B4602466E
:1003100023F00040104347D0270DC7F30A00C3F372
:100320000A510290401A019040286BDAC3F313007F
:1003300040F4801B0098924620B10023D2EB030AC0
:1003400063EB0B0B01985946C0F140025046FFF792
:100350009BFF06460D4650465946019A00F0B0F9FB
:1003600010EB08006141002487EA115284EAE77328
:100370001A4340D0009A62B3019A012A4FEA075209
:1003800015DC001B61EB02014FF0004202EA07524C
:10039000CDE90042001C41F5801132462B4600F0A9
:1003A000E7F903B0BDE8F08F40462146F9E7001BAE
:1003B00061EB0201001C41F5801300185B4120181D
:1003C000A2F5001747EB030140EAD570B6196D415D
:1003D00011E06D084FEA360645EAC0754FEA07524C
:1003E000001B61EB0201001C41F5801149084FEA36
:1003F00030000019514132462B4603B0BDE8F04FA2
:1004000000F0A7B90098012240000023D0EB0202BF
:1004100063EBE073009821464FEAE074B8EB00000C
:1004200061EB0401E9E783F000435BE781F0004101
:1004300058E72DE9FE4F81EA030404F0004421F05F
:10044000004100944FF0000B23F0004350EA0104F8
:100450005ED052EA03045BD0C3F30A54C1F30A55D9
:100460002C44A4F2F3340194A0FB0254C1F3130111
:1004700041F48011C3F3130343F4801301FB0244DE
:1004800000FB034E840A970A44EA815447EA8357E3
:10049000A4FB076802958D0A05FB07854FEA932C9C
:1004A00004FB0C542705029D4FEA065847EA16370D
:1004B000B5EB08056EEB070C870E920E47EA811725
:1004C00042EA8312A7FB0201B6EB0B0164EB0004C6
:1004D0002B0D43EA0C335E1844EB1C50DA465146B0
:1004E000E7FB0201C5F313044FEA0B3343EA14534D
:1004F0004FEA0432019C43EA0603A4F10C0402947F
:10050000009CCDE900B400F033F903B0BDE8F08FF2
:1005100000200146F9E72DE9F04D81EA030404F0DB
:10052000004B21F0004514464FF0000A23F0004133
:1005300050EA050220D054EA01021DD0C5F30A5743
:100540000246C5F31303C1F31300C1F30A5640F486
:10055000801543F48013A7EB0608101BD64608F25B
:10056000FD3873EB050002D308F1010801E0921891
:100570005B41B8F1000F03DA00200146BDE8F08DC1
:1005800000204FF48011064684460EE0171B73EBE3
:10059000050705D3121B63EB050306434CEA010C68
:1005A00049084FEA300092185B4150EA0107EDD14B
:1005B00052EA030012D082EA040083EA05010843EC
:1005C00005D0101BAB4106D20122002306E0002219
:1005D0004FF0004302E06FF0010253101AEB0600E7
:1005E0004CEB085110EB0A0041EB0B01BDE8F04D5C
:1005F00000F0AFB80EB5C10F80EAE0700844CA073A
:10060000002140F233438DE80E000A460B4600F00D
:10061000AFF803B000BD00F0004230F000400AD057
:10062000C10D01F56071C0F3160042EA0151C20824
:1006300040071143704700200146704701F0004316
:1006400030B421F0004150EA010206D00A0DA2F5B3
:100650006072C1F31301002A02DC30BC0020704735
:10066000440F44EAC104C100E01830BC00EBC250A2
:1006700000F038B830B50B46014600202022012496
:1006800009E021FA02F59D4205D303FA02F5491B60
:1006900004FA02F52844151EA2F10102F1DC30BD76
:1006A000202A04DB203A21FA02F00021704721FAC7
:1006B00002F3D040C2F1200291400843194670472E
:1006C000202A06DBCB17203A41FA02F043EAE07316
:1006D00006E041FA02F3D040C2F120029140084303
:1006E000194670470029A8BF7047401C490008BF41
:1006F00020F00100704710B4B0FA80FC00FA0CF052
:1007000050EA010404BF10BC704749B1CCF1200489
:1007100021FA04F411FA0CF118BF01212143084316
:10072000A3EB0C01CB1D4FEA00614FEA102042BF42
:10073000002010BC704700EBC35010440029A4BF38
:1007400010BC7047401C490008BF20F0010010BCDD
:10075000704710B5141E73F1000408DA401C41F113
:10076000000192185B411A4301D120F0010010BD35
:100770002DE9F04D92469B4611B1B1FA81F202E0AB
:10078000B0FA80F220329046FFF77EFD04460F4615
:1007900040EA0A0041EA0B0153465A46084313D087
:1007A000114653EA010019D0C8F140025046FFF744
:1007B00077FF05460E46504659464246FFF764FD10
:1007C000084305D0012004E020463946BDE8F08DFD
:1007D0000020054346EAE0762C4337430A98630538
:1007E000E40AA0EB08000022FD0A44EA47540A305C
:1007F00002D500200146E9E7010510196941DDE94C
:10080000084500196941BDE8F04DA2E7C1F30A525D
:10081000C1F3130140F2FF3341F480119A4202DA2E
:1008200000200146704740F233439A42A2F233421D
:1008300002DC5242FFF734BFFFF726BD30B5041E7D
:1008400071F1000404DB4FF00044404264EB01010D
:10085000141E73F1000405DB1C464FF000435242A6
:1008600063EB04038B4208BF824230BD30B5041EE7
:1008700071F1000404DB4FF00044404264EB0101DD
:10088000141E73F1000405DB1C464FF00043524276
:1008900063EB0403994208BF904230BD064C074DFC
:1008A00006E0E06840F0010394E807009847103440
:1008B000AC42F6D3FFF76CFC68DD030888DD030863
:1008C0002DE9F04D00231A461B1A8A4103DB002054
:1008D0000146BDE8F08DC1F30A52C1F3130141F4A2
:1008E00080154FF0000BD10702D100186D41521E48
:1008F0000027044640F2FF11384601EB620A3E46EB
:100900008046024600204FF48011FFF7C9FEC2194D
:100910007141BB1846EB0100B4EB030C75EB000C06
:1009200004D3E41A65EB000517460E46241908F1B6
:1009300001006D4180463428E3DDF91946EB0600DD
:10094000091BA84103D24FF0FF32134601E00022F9
:1009500013461BEB070046EB0A51BDE8F04DFFF7CD
:10096000F8BE00BFFEE7000010B5024800F09AFA9A
:1009700010BD0000A002002010B5024800F092FA5D
:1009800010BD0000A002002038B504460D460B48FB
:100990000560002009498860C86004200861084992
:1009A000087008464470012088700020C8706B46AB
:1009B0000A460249034800F07AF838BD1C010020BD
:1009C00000000020A00200203EB504466420012162
:1009D000264A0B46CDE9002102907522D0212046FF
:1009E00000F060FF2148007868281DD000BF00BFDC
:1009F00000BF00BF00BFBFF34F8F00BF00BF00BFED
:100A00001B48006800F4E0601A490843001D1849BB
:100A1000086000BF00BF00BFBFF34F8F00BF00BF23
:100A200000BF00BF00BFFDE706F042FCE0B9782040
:100A300007F018FA782006F021FBC82007F0C4F967
:100A400005F060FA0C4806F071FA054605F0B4FCB2
:100A500040F2731005F0FEF8C82005F0DDFB07F04A
:100A6000AAFA012007F0ACF83EBD00003C000020CF
:100A70000CED00E00000FA0568000020704772B637
:100A800000BFFEE710B5024692F82030012B01D0DE
:100A9000022B06D110684069084314686061002089
:100AA00010BD506A40F4802050620120F8E7F0B594
:100AB00004460D461E4694F8207020688368A86896
:100AC00000B900E000BF012F01D0022F7CD103F05C
:100AD000806030B903F0006018B903F0805000283E
:100AE00073D0C3F30161022905D9606A40F40000A4
:100AF00060620120F0BD012088403060A86860B9C4
:100B0000B5F800C0E86840EA4C5C206800F5C070A9
:100B100000EB0110C0F800C00FE0D5E901C040EAC9
:100B2000CC00D5F80CC040EA0C00D4F800C00CF59D
:100B3000C07C0CEB011CCCF80000D5F810C020687C
:100B400000F5C07000EB0110C0F804C0287D01283A
:100B50000ED1206800F5C07000EB0110406840F431
:100B6000807C206800F5C07000EB0110C0F804C064
:100B7000D079000692F806C040EA0C4092F805C011
:100B800040EA0C2C10794CEA000C206800F5C0708B
:100B900000EB0110C0F80CC0D078000692F802C03B
:100BA00040EA0C4092F801C040EA0C2092F800C0E4
:100BB00040EA0C00D4F800C00CF5C07C0CEB011C22
:100BC000CCF80800206801E016E00FE000F5C070E6
:100BD00000EB0110006840F0010C206800F5C070C7
:100BE00000EB0110C0F800C0002083E7606A40F409
:100BF0000010606201207DE7606A40F4802060623E
:100C0000012077E7F0B504460A46216894F82050A1
:100C1000012D01D0022D7ED1424901F500710868F5
:100C200040F001000860086820F47C500860086803
:100C3000566A40EA06200860107D00F01F06012079
:100C400000FA06F3C8699843C861A1F50071D0693C
:100C5000C8B9D1F80C029843C1F80C02908880B250
:100C6000968940EA064601F51070576940F83760EA
:100C7000108880B2168940EA064601F5107057695F
:100C800000EBC7004660D069012819D1D1F80C02E9
:100C90001843C1F80C02908880B2168840EA0646D4
:100CA00001F51070576940F83760908980B2168955
:100CB00040EA064601F51070576900EBC700466030
:100CC000906928B9D1F804029843C1F8040204E0FD
:100CD000D1F804021843C1F80402106928B9D1F808
:100CE00014029843C1F8140204E0D1F81402184326
:100CF000C1F81402106A012804D1D1F81C0218436B
:100D0000C1F81C02D1F8000220F00100C1F8000275
:100D10000020F0BDFFE7606A40F48020606201209F
:100D2000F7E7000000640040704770B5044694F88F
:100D30002050012D01D0022D7DD151B92068C0680D
:100D400000F0030080B9606A40F400106062012086
:100D500070BD2068006900F0030028B9606A40F4A3
:100D6000001060620120F3E7206800F5D87000EB06
:100D70000110006800F004009060906840B920689D
:100D800000F5D87000EB01100068400D106007E01E
:100D9000206800F5D87000EB01100068C0085060B2
:100DA000206800F5D87000EB0110006800F0020028
:100DB000D060206800F5D87000EB0110406800F0AA
:100DC0000F001061206800F5D87000EB011040683A
:100DD00000F47F40000A9061206800F5D87000EBB5
:100DE00001104068000C5061206800F5D87000EBDD
:100DF000011080681870206800F5D87000EB0110B1
:100E0000806800F47F40000A5870206800F5D870B0
:100E100000EB0110806800F47F00000C98702068DF
:100E200000F5D87000EB01108068000ED8702068C3
:100E300000F5D87000E02FE000EB0110C0681871D9
:100E4000206800F5D87000EB0110C06800F47F4006
:100E5000000A5871206800F5D87000EB0110C068D6
:100E600000F47F00000C9871206800F5D87000EB4A
:100E70000110C068000ED87131B92068C06840F018
:100E800020002668F06005E02068006940F020003E
:100E90002668306100205BE7606A40F48020606271
:100EA000012055E72DE9F05F0446002520684669DA
:100EB0002068D0F80490206887682068D0F80CA0DB
:100EC0002068D0F810B02068D0F8188006F0010033
:100ED000002855D007F00100C0B1012021688860CA
:100EE00007F0020018B1204600F06FFA0EE007F09C
:100EF000040010B145F4006508E007F0080010B1E7
:100F000045F4805502E0204600F05EFA07F4807058
:100F1000C8B14FF480702168886007F4007018B180
:100F2000204600F054FA0EE007F4806010B145F45A
:100F3000005508E007F4006010B145F4804502E078
:100F4000204600F043FA07F48030C8B14FF48030F7
:100F50002168886007F4003018B1204600F039FAA3
:100F60000EE007F4802010B145F4004508E007F4D6
:100F7000002010B145F4803502E0204600F028FA48
:100F800006F0080038B10AF0100020B145F40075F1
:100F900010202168C86006F0040040B10AF0080083
:100FA00028B108202168C860204600F0B1F906F099
:100FB000020038B12068C06800F0030010B120467C
:100FC00000F0A8F906F0400038B10BF0100020B195
:100FD00045F4806510202168086106F0200040B1CA
:100FE0000BF0080028B1082021680861204600F0B5
:100FF000B9F906F0100038B12068006900F003006C
:1010000010B1204600F0AFF906F4003040B109F00D
:10101000100028B1102021684860204600F0A4F993
:1010200006F4803040B109F0080028B1082021689A
:101030004860204600F0CEF906F4004088B309F07D
:10104000040078B306F4807020B108F0010008B104
:1010500045F0010506F4007020B108F0020008B167
:1010600045F0020506F4806020B108F0040008B1E4
:1010700045F0040506F40060A0B108F0700088B1E6
:1010800008F07000402817D006DC10280BD020286C
:101090000CD0302819D10CE0502810D0602814D181
:1010A00010E01DE019E045F008050FE045F01005DF
:1010B0000CE045F0200509E045F0400506E045F06C
:1010C000800503E045F4807500E000BF00BF2068A4
:1010D000806920F0700021688861042021684860E0
:1010E0002DB1606A284360622046FFF71DFEBDE80F
:1010F000F09F70B504460CB9012070BD94F8200033
:1011000010B9204600F0B0F82068006840F00100F7
:101110002168086000F0D8FA05460DE000F0D4FA26
:10112000401B0A2808D9606A40F40030606205203C
:1011300084F820000120E0E72068406800F001000A
:101140000028EBD02068006820F0020021680860C9
:1011500000F0BAFA05460DE000F0B6FA401B0A2886
:1011600008D9606A40F400306062052084F82000ED
:101170000120C2E72068406800F002000028EBD19F
:10118000207E012806D12068006840F08000216898
:10119000086005E02068006820F080002168086091
:1011A000607E012806D12068006840F04000216878
:1011B000086005E02068006820F0400021680860B1
:1011C000A07E012806D12068006840F02000216838
:1011D000086005E02068006820F0200021680860B1
:1011E000E07E012806D12068006820F01000216808
:1011F000086005E02068006840F010002168086081
:10120000207F012806D12068006840F0080021688E
:10121000086005E02068006820F008002168086088
:10122000607F012806D12068006840F00400216832
:10123000086005E02068006820F00400216808606C
:10124000D4E90201084321690843616908436168E0
:10125000491E08432168C86100206062012084F8AB
:101260002000002049E7000010B586B00446142194
:1012700001A8FFF71FF823492068884240D100BF2A
:10128000002000902048006840F000701E4908606F
:101290000846006800F00070009000BF00BF00BF6B
:1012A0000020009018481038006840F001001649EE
:1012B000103908600846006800F00100009000BF87
:1012C00000BF4FF4C0500190022002900020039014
:1012D000032004900920059001A90C4800F0FAF8B9
:1012E00000220121132000F0D1FD132000F0BEFDEB
:1012F00000220121142000F0C9FD142000F0B6FDE9
:1013000006B010BD006400404038024000000240BA
:101310007047000010B58AB004460F49206809687C
:10132000884217D101AB03AA00212046FFF7FDFC3C
:101330000398401E09490870097801EB8101084AA9
:1013400002EB810001A905F0D3FA02210248FFF760
:1013500099FB00BF0AB010BDA002002004000020CD
:10136000CC00002070477047704770B5044694F871
:101370002000012822D1022084F820002068006883
:1013800020F001002168086000F09EF905460DE09C
:1013900000F09AF9401B0A2808D9606A40F400302E
:1013A0006062052084F82000012070BD206840683C
:1013B00000F001000028EBD16062F6E7606A40F4BB
:1013C000002060620120F0E7704770477047704767
:1013D00070477047704770B50446A56D00F074F90A
:1013E000064694F83500022808D08020606500BFCA
:1013F000002084F8340000BF012070BD2068006820
:1014000020F01600216808602068406920F0800004
:1014100021684861206C08B9A06C28B12068006878
:1014200020F00800216808602068006820F00100B2
:101430002168086010E000F047F9801B05280BD9EF
:1014400020206065032084F8350000BF002084F868
:10145000340000BF0320D0E72068006800F00100DE
:101460000028E8D194F85C103F208840A860012053
:1014700084F8350000BF002084F8340000BF00BFAE
:10148000BBE7014691F83500022803D0802048656B
:1014900001207047052081F835000868006820F0B9
:1014A00001000A6810600020F3E7000070B50446F0
:1014B00000F00AF906462546681C10B10448007879
:1014C000054400BF00F000F9801BA842FAD370BDAC
:1014D000BC000020F8B502460B4600250024002081
:1014E0000021D6E0012606FA01F51E6806EA050489
:1014F000AC4274D11E7906F00306012E04D01E7989
:1015000006F00306022E13D190684F000326BE405A
:10151000B0434F00DE68BE40304390605068012603
:101520008E40B0431E79C6F300168E4030435060A3
:101530001E7906F00306032E09D0D0684F0003265B
:10154000BE40B0434F009E68BE403043D0601E791D
:1015500006F00306022E13D1CF0802F1200656F83A
:1015600027004E07F70E0F26BE40B0434F07FF0E71
:101570001E69BE403043CF0802F1200646F827001E
:1015800010684F000326BE40B0431E7906F00306E4
:101590004F00BE40304310605E6806F44036002EB7
:1015A00076D000BF002600963C4E366846F4804652
:1015B0003A4F3E603E46366806F48046009600BFCD
:1015C00000BF374E8F0856F827008E07370F0F26BB
:1015D000BE40B043334EB24202D1002624E057E071
:1015E000314EB24201D101261EE0304EB24201D14D
:1015F000022619E02E4EB24201D1032614E02D4EF0
:10160000B24201D104260FE02B4EB24201D1052691
:101610000AE02A4EB24201D1062605E0284EB24227
:1016200001D1072600E008268F073F0FBE40304358
:101630001B4E8F0846F82700224E3068A0435E6894
:1016400006F4801606B120431E4E3060361D306809
:10165000A0435E6806F4001606B12043194E361DFD
:101660003060184E361F3068A0435E6806F40036BE
:1016700006B12043134E361F3060361F3068A0433A
:101680005E6806F4803606B120430E4E083E306098
:10169000491C1029FFF426AFF8BD00004438024071
:1016A00008380140000002400004024000080240E7
:1016B000000C0240001002400014024000180240DA
:1016C000001C0240083C01400148006870470000CF
:1016D000B400002070B504460CB9012070BD94F828
:1016E0003D0028B9002084F83C00204600F006FBAD
:1016F000242084F83D002068006820F00100216863
:1017000008602068006840F4004021680860206894
:10171000006820F400402168086000F0D1FC054614
:101720005C496068884206D85B48854201D2012046
:1017300007E0002005E05948854201D2012000E081
:101740000020012800D1C9E75548B5FBF0F6206814
:10175000406820F03F003043216848604D49606890
:10176000884201D8701C07E04FF4967070434FF424
:101770007A71B0FBF1F0401C2168096A21F03F0149
:1017800008432168086243496068884214D8681E8B
:1017900061684900B0FBF1F0401CC0F30B00042865
:1017A00001D204203DE0681E61684900B0FBF1F001
:1017B000401CC0F30B0034E0A06838B9681E6168B3
:1017C00001EB4101B0FBF1F0401C0AE0681E6168CA
:1017D00001EBC10202EB0111B0FBF1F0401C40F43F
:1017E0008040C0F30B0008B901201AE0A06848B996
:1017F000681E616801EB4101B0FBF1F0401CC0F3D1
:101800000B000CE0681E616801EBC10202EB0111E4
:10181000B0FBF1F0401CC0F30B0040F4804040F4FA
:1018200000402168C9694CF6FF7291430843216862
:10183000C861D4E9070108432168096821F0C001A3
:10184000084321680860D4E90310084321688968C7
:1018500048F2FF329143084321688860D4E90501CA
:1018600008432168C96821F0FF0108432168C86066
:101870002068006840F001002168086000202064B2
:10188000202084F83D000020206384F83E0000BF43
:1018900024E70000A086010080841E0000093D00AE
:1018A00040420F002DE9FC5F04460F4690469946E2
:1018B000DDE90CAB0E9EFFF707FF054694F83D00EF
:1018C000202870D119230122B0492046009501F04B
:1018D00095FD10B10220BDE8FC9F00BF94F83C00CC
:1018E000012801D10220F6E7012084F83C0000BF66
:1018F0002068006800F0010028B92068006840F006
:101900000100216808602068006820F400602168F8
:101910000860222084F83D00402084F83E0000202A
:101920002064C4F824A0A4F82AB0608D20859848CB
:10193000E0624B46424639462046CDE9006501F05B
:101940000FFC08B10120C6E7208D88B900BF002038
:10195000019020684069019020688069019000BF73
:1019600000BF2068006840F400702168086040E013
:10197000208D012818D12068006820F4806021683B
:10198000086000BF00200190206840690190206835
:101990008069019000BF00BF2068006840F40070BB
:1019A0002168086025E0EFE0208D022816D120682C
:1019B000006820F48060216808602068006840F4B6
:1019C00000602168086000BF002001902068406925
:1019D000019020688069019000BF0AE000BF0020EC
:1019E000019020684069019020688069019000BFE3
:1019F00000BFBAE0208D03287ED8208D012815D1A4
:101A00002A463146204601F09EFD08B1012062E7DA
:101A100020680069616A0870606A401C6062208DFD
:101A2000401E2085608D401E60859EE0208D02282E
:101A30002AD13346002257492046009501F0DEFCAA
:101A400008B1012047E72068006840F40070216871
:101A5000086020680069616A0870606A401C606202
:101A6000208D401E2085608D401E608520680069A5
:101A7000616A0870606A401C6062208D401E20858B
:101A8000608D401E608570E033460022414920464B
:101A9000009501F0B3FC08B101201CE72068006844
:101AA00020F480602168086020680069616A08701D
:101AB000606A401C6062208D401E2085608D401E43
:101AC00060853346002233492046009501F096FC9C
:101AD00008B10120FFE62068006840F4007021682A
:101AE000086020680069616A0870606A401C606272
:101AF000208D401E208500E010E0608D401E608536
:101B000020680069616A0870606A401C6062208D0C
:101B1000401E2085608D401E608526E02A463146A5
:101B2000204601F010FD08B10120D4E620680069CC
:101B3000616A0870606A401C6062208D401E2085CA
:101B4000608D401E608520684069C0F3800060B1F0
:101B500020680069616A0870606A401C6062208DBC
:101B6000401E2085608D401E6085208D00287FF4FA
:101B700041AF202084F83D00002084F83E0000BFE3
:101B800084F83C0000BFA6E60220A4E60200100094
:101B90000000FFFF040001002DE9FC5F04460F4632
:101BA00090469946DDE90CAB0E9EFFF78DFD05468C
:101BB00094F83D0020287DD1192301224D4920466B
:101BC000009501F01BFC10B10220BDE8FC9F00BF96
:101BD00094F83C00012801D10220F6E7012084F8A6
:101BE0003C0000BF2068006800F0010028B92068B0
:101BF000006840F00100216808602068006820F457
:101C0000006021680860212084F83D00402084F8AD
:101C10003E0000202064C4F824A0A4F82AB0608DFF
:101C200020853548E0624B46424639462046CDE99C
:101C3000006501F045FB08B10120C6E731E02A4606
:101C40003146204601F0BFFC50B1206C042805D17C
:101C50002068006840F40070216808600120B4E743
:101C6000606A007821680861606A401C6062208DAB
:101C7000401E2085608D401E608520684069C0F34D
:101C8000800070B1208D60B1606A007821680861C1
:101C9000606A401C6062208D401E2085608D401E61
:101CA0006085208D0028CAD12A463146204601F0A1
:101CB00077FB00E01CE050B1206C042805D12068BF
:101CC000006840F400702168086001207DE720680A
:101CD000006840F4007021680860202084F83D000E
:101CE000002084F83E0000BF84F83C0000BF6CE791
:101CF00002206AE7020010000000FFFF10B586B066
:101D00000446142101A8FEF7D5FA1B492068884231
:101D10002FD100BF002000901848006840F002005A
:101D2000164908600846006800F00200009000BFF5
:101D300000BFC020019012200290002003900320D9
:101D400004900420059001A90D48FFF7C3FB00BFD4
:101D50000020009009481030006840F40010074946
:101D6000103108600846006800F40010009000BFC1
:101D700000BF06B010BD00000054004030380240E3
:101D800000040240034800680349097808440149F7
:101D900008607047B4000020BC00002010B50D485A
:101DA000006840F400700B4908600846006840F481
:101DB000806008600846006840F480700860032076
:101DC00000F0A2F8002000F007F800F02BF8002047
:101DD00010BD0000003C024070B504460E4800787B
:101DE0004FF47A71B1FBF0F00C490968B1FBF0F5E2
:101DF000284600F02BFC08B1012070BD102C07D242
:101E000000222146501E00F041F80548046001E020
:101E10000120F2E70020F0E7BC000020C000002015
:101E2000B800002008B500BF002000900E480068F0
:101E300040F480400C4908600846006800F4804087
:101E4000009000BF00BF00BF00200090081F006886
:101E500040F08050091F08600846006800F080507C
:101E6000009000BF00BF08BD44380240014608464C
:101E7000002809DB00F01F0301229A4043099B0060
:101E800003F1E023C3F8002100BF70472DE9F05FA4
:101E900080460D461646002702F018FC07463946D4
:101EA0002A46334601F00700C0F1070ABAF1040FD1
:101EB00002D94FF0040A01E0C0F1070AD14600F14F
:101EC000040ABAF1070F02D24FF0000A01E0A0F1B4
:101ED000030AD4464FF0010A0AFA09FAAAF1010AE4
:101EE0000AEA020A0AFA0CFA4FF0010B0BFA0CFB91
:101EF000ABF1010B0BEA030B4AEA0B042146404607
:101F000002F0ECFBBDE8F09F00BF00F00702064BBB
:101F100019684FF6FF031940044B0B4343EA0221B3
:101F2000014B196000BF70470CED00E00000FA059E
:101F300070B504460D460CB9012070BD58480068C4
:101F400000F00700A84209D255490D700846006804
:101F500000F00700A84201D00120EEE7207800F051
:101F6000020002281DD1207800F00400042805D1C9
:101F70004C48006840F4E0504A490860207800F07E
:101F80000800082805D14748006840F460404549EA
:101F900008604448006820F0F000A1680843414907
:101FA0000860207800F00100A8B36068012807D11C
:101FB0003C4808380068C0F34040B8B90120BCE78D
:101FC0006068022802D06068032807D135480838C5
:101FD0000068C0F3406048B90120AEE731480838D6
:101FE0000068C0F3400008B90120A6E72D4800684A
:101FF00020F00300616808432A490860FFF764FB8A
:10200000064609E0FFF760FB801B41F288318842F9
:1020100002D9032091E707E02248006800F00C0095
:102020006168B0EB810FEDD11D48006800F007003A
:10203000A84209D91A490D700846006800F0070047
:10204000A84201D0012078E7207800F0040004289D
:1020500007D11448006820F4E050E16808431149B2
:102060000860207800F00800082808D10D480068B2
:1020700020F46040216940EAC1000A49086000F08C
:102080003FF808490968C1F30311074A515CC84089
:102090000649086006480068FFF79EFE00204CE7EE
:1020A000003C024008380240928D0008C000002029
:1020B000B80000200148006870470000C000002000
:1020C00000B5FFF7F7FF04490968C1F38221034A0D
:1020D000515CC84000BD000008380240A28D0008D5
:1020E00000B5FFF7E7FF04490968C1F34231034A2D
:1020F000515CC84000BD000008380240A28D0008B5
:102100002DE9F047002400250026A1462548006857
:1021100000F00C0020B1042805D008283AD105E0D1
:10212000DFF8849039E0DFF8849036E01D48001F26
:10213000006800F03F041B48001F006800F48000A6
:1021400078B11A481749091F0968C1F38811A0FB23
:1021500001700146224600233846FEF733F8054653
:102160000EE011480F49091F0968C1F38811A0FB4F
:1021700001700146224600233846FEF723F8054643
:102180000848001F0068C0F30140401C4600B5FB32
:10219000F6F902E0DFF8109000BF00BF4846BDE846
:1021A000F0870000083802400024F40040787D01E8
:1021B000F8B504460CB90120F8BD207800F0010004
:1021C000002874D0F948006800F00C0004280DD0F5
:1021D000F648006800F00C00082813D1F348001FEF
:1021E000006800F48000B0F5800F0BD1EF4808388C
:1021F0000068C0F34040002859D06068002856D1DC
:102200000120D9E700BF6068B0F5803F08D1E748FA
:102210000838006840F48030E449083908601EE05E
:102220006068B0F5A02F0DD1E0480838006840F490
:102230008020DE49083908600846006840F4803094
:1022400008600CE0D9480838006820F48030D7498D
:10225000083908600846006820F48020086000BF44
:10226000606890B1FFF730FA054606E0FFF72CFAF8
:10227000401B642801D903209EE7CC480838006839
:10228000C0F340400028F1D011E0FFF71DFA0546E9
:1022900006E0FFF719FA401B642801D903208BE7F9
:1022A000C24808380068C0F340400028F1D12078C7
:1022B00000F0020002285FD1BC48006800F00C006A
:1022C00058B1BA48006800F00C0008281CD1B74883
:1022D000001F006800F48000B0B9B44808380068F6
:1022E000C0F3400020B1E068012801D0012063E77D
:1022F000AE480838006820F0F800216940EAC100C3
:10230000AA490839086037E0E06800B30120A8490D
:102310000860FFF7D9F9054606E0FFF7D5F9401B3D
:10232000022801D9032047E7A04808380068C0F315
:1023300040000028F1D09D480838006820F0F800DF
:10234000216940EAC10099490839086014E0002079
:1023500097490860FFF7B8F9054606E0FFF7B4F9BA
:10236000401B022801D9032026E79048083800685E
:10237000C0F340000028F1D1207800F008000828C0
:102380002CD16069A8B101208A490860FFF79CF947
:10239000054606E0FFF798F9401B022801D9032003
:1023A0000AE782486C300068C0F340000028F1D092
:1023B00014E000207F490860FFF786F9054606E033
:1023C000FFF782F9401B022801D90320F4E6774881
:1023D0006C300068C0F340000028F1D1207800F094
:1023E0000400042870D1002770483830006800F0DD
:1023F000805090B900BF002000906C4838300068D1
:1024000040F080506949383108600846006800F0A3
:102410008050009000BF00BF01276748006800F4AB
:102420008070B0B96448006840F480706249086008
:10243000FFF74AF9054606E0FFF746F9401B022878
:1024400001D90320B8E65C48006800F480700028D9
:10245000F2D000BFA068012808D154486830006855
:1024600040F001005149683108601DE0A06805286E
:102470000DD14E486830006840F004004B49683187
:1024800008600846006840F0010008600CE047481A
:102490006830006820F0010044496831086008464F
:1024A000006820F00400086000BFA068A8B1FFF732
:1024B0000BF9054609E0FFF707F9401B41F28831A7
:1024C000884202D9032077E626E038486830006861
:1024D000C0F340000028EED013E0FFF7F5F8054602
:1024E00008E0FFF7F1F8401B41F28831884201D93A
:1024F000032061E62D4868300068C0F340000028E2
:10250000EFD1012F07D129483830006820F08050E2
:1025100026493831086000BFA069002845D023480B
:10252000006800F00C0008285DD0A069022845D1A1
:1025300000201F490866FFF7C7F8054606E0FFF7C9
:10254000C3F8401B022801D9032035E61748083894
:102550000068C0F340600028F1D1D4E907010843C6
:10256000616A40EA81110122A06AC2EB500041EA8F
:1025700000412C20005D41EA00600C49091F086001
:1025800001200B490866FFF79FF8054606E0FFF7B4
:102590009BF8401B022801D903200DE603480838A8
:1025A0000068C0F340600028F1D049E008380240DC
:1025B00000004742800E4742007000400020214941
:1025C0000866FFF781F8054606E0FFF77DF8401B37
:1025D000022801D90320EFE51B480068C0F34060E2
:1025E0000028F2D12CE0A069012800D1E4E51648CA
:1025F000001D0668A069012820D006F48001E0696A
:1026000081421BD106F03F01206A814216D147F674
:10261000C0703040616AB0EB811F0FD106F44031C9
:102620000122A06AC2EB5000B1EB004F06D106F0C8
:1026300070612C20005DB1EB006F01D00120BBE583
:102640000020B9E5000047420038024070B504465A
:102650002546681EB0F1807F01D301200FE0681E7F
:102660004FF0E02148610F214FF0FF3002F036F8C3
:1026700000204FF0E021886107200861002070BD34
:102680007047704710B504460CB9012010BD94F88E
:102690003D0028B9002084F83C00204600F026F8D0
:1026A000022084F83D00211D206801F015FD012065
:1026B00084F8460000BF84F83E0001213F20015508
:1026C000402001554120015500BF00BF012084F882
:1026D000420043200155442001554520015500BFCB
:1026E000012084F83D000020D0E7000038B5044602
:1026F0002D492068884218D100BF002000902B4847
:10270000006840F48020294908600846006800F409
:102710008020009000BF00BF002203211A20FFF795
:10272000B5FB1A20FFF7A2FB3CE021492068884254
:102730001AD100BF002000901C48001F006840F024
:1027400080001A49091F08600846006800F08000F0
:10275000009000BF00BF002203212C20FFF796FB52
:102760002C20FFF783FB1DE012492068884219D115
:1027700000BF002000900D48001F006840F48070EA
:102780000A49091F08600846006800F4807000903C
:1027900000BF00BF002203212D20FFF777FB2D2073
:1027A000FFF764FB38BD0000004801404438024098
:1027B000001C004000200040014691F83D00012827
:1027C00001D001207047022081F83D000868C068F0
:1027D00040F001000B68D8601A4B086898421BD083
:1027E0000868B0F1804F17D0174B0868984213D093
:1027F000164B086898420FD0154B086898420BD0CA
:10280000144B0868984207D0134B0868984203D0CD
:10281000124B086898420CD10868806800F00702E3
:10282000062A0CD00868006840F001000B681860A8
:1028300005E00868006840F001000B68186000209F
:10284000C0E7000000000140000400400008004014
:10285000000C00400004014000400140001800400E
:10286000704710B5044620680069C0F34000D8B135
:102870002068C068C0F34000B0B16FF0020021686A
:102880000861012020772068806900F0030018B1FA
:102890002046FFF7E5FF05E0204600F0ADF82046B2
:1028A00000F0ABF80020207720680069C0F38000BA
:1028B000D8B12068C068C0F38000B0B16FF00400E8
:1028C00021680861022020772068806900F4407048
:1028D00018B12046FFF7C4FF05E0204600F08CF851
:1028E000204600F08AF80020207720680069C0F3B5
:1028F000C000D8B12068C068C0F3C000B0B16FF0AC
:10290000080021680861042020772068C06900F071
:10291000030018B12046FFF7A3FF05E0204600F0B2
:102920006BF8204600F069F80020207720680069E5
:10293000C0F30010D8B12068C068C0F30010B0B177
:102940006FF0100021680861082020772068C069B6
:1029500000F4407018B12046FFF782FF05E02046E2
:1029600000F04AF8204600F048F800202077206860
:10297000006900F0010058B12068C06800F0010053
:1029800030B16FF0010021680861204600F036F890
:1029900020680069C0F3C01058B12068C068C0F357
:1029A000C01030B16FF08000216808612046FFF749
:1029B00067FE20680069C0F3801058B12068C068C5
:1029C000C0F3801030B16FF04000216808612046EC
:1029D00000F040F920680069C0F3401058B1206849
:1029E000C068C0F3401030B16FF02000216808616A
:1029F0002046FFF746FE10BD7047704710B52DED1D
:102A00000C8B96B004467348844215D1724890ED01
:102A1000140A10EE101A0846FDF7FDFD41EC190BE3
:102A20009FED6E0B53EC102BFDF75CFC41EC180B8B
:102A3000FDF704FE684908656A4884427DD1032099
:102A40006949087069490860084601686648007865
:102A5000FDF79AFF6648806865490969401A65492B
:102A600008606348806862490861624890ED000A26
:102A7000B8EEC00A604880ED000A0120FEF716FD9E
:102A800001205949087059490860084601685648AC
:102A90000078FDF779FF5648016B806B081A57499B
:102AA00008605348016B8163544890ED000AB8EE0A
:102AB000C00A534880ED000A0120FEF7F7FC4649A2
:102AC000504800F09BFE4C4890ED000A4E4880EDC7
:102AD000000A4B4890ED000A4B4880ED010A3E4841
:102AE00090ED130A484880ED020A484890ED000A2C
:102AF0004748D0ED000A30EE200A80ED000A434836
:102B000090ED010A4348D0ED000A30EE200A80ED36
:102B1000000A41480068401C3F49086008460068B8
:102B2000642850D13D480068FDF775FD41EC180B55
:102B30003B480068FDF76FFD00E046E041EC190BF3
:102B400038480068FDF767FD41EC1A0B364800680D
:102B5000FDF761FD41EC1B0B2E480068FDF75BFDA6
:102B600041EC1C0B2A480068FDF755FD41EC1D0B9C
:102B7000194890ED060B8DED140B90ED040B8DEDC7
:102B8000120B90ED020B8DED100B90ED0E0B8DEDF9
:102B90000E0B90ED0C0B8DED0C0B90ED0A0B8DEDEB
:102BA0000A0B8DED088B8DED069B8DED04AB8DED45
:102BB00002BB8DED00CB53EC1D2B1CA001F05EFD84
:102BC00000201549086000F02DFD16B0BDEC0C8BFF
:102BD00010BD00006403002048020020D0E2D6EEC1
:102BE000682DF63E1C030020780000207C000020A9
:102BF000CC00002084000020940000208C000020E5
:102C000098000020C80200203401002008000020A5
:102C10009C000020A0000020800000206400002014
:102C2000600000205C000020580000202566202560
:102C300066202566202566202566202566202566D7
:102C40002025662025662025662025662025660D20
:102C50000A00000070477047704700002DE9F84FE8
:102C60000446206805682068C668206847694FF0F8
:102C70000009CA4605F00F09B9F1000F0AD105F0A5
:102C8000200038B106F0200020B1204601F0E0FA23
:102C9000BDE8F88FB9F1000F7CD007F0010018B93A
:102CA00006F49070002875D005F0010030B106F4EC
:102CB000807018B1206C40F00100206405F0040021
:102CC00030B107F0010018B1206C40F00200206420
:102CD00005F0020030B107F0010018B1206C40F09F
:102CE0000400206405F0080048B106F0200010B987
:102CF00007F0010018B1206C40F008002064206C3F
:102D0000002846D005F0200028B106F0200010B1C0
:102D1000204601F09DFA20684069C0F3801A206CBB
:102D200000F0080010B9BAF1000F2DD0204601F0D4
:102D300049FA2068406900F04000402820D100BFD7
:102D400000BF2168143151E8001F21F040002168C4
:102D5000143141E80002002AF3D100BFA06B50B14A
:102D60007548A16B0865A06BFEF78BFB88B1A06B63
:102D7000016D88470DE02046FFF76EFF09E009E08E
:102D80002046FFF769FF04E02046FFF765FF0020BB
:102D900020647DE7206B012876D105F01000002823
:102DA00072D006F010000028FAD000BF002000907A
:102DB00020680068009020684068009000BF00BF55
:102DC0002068406900F0400040285ED1A06B006898
:102DD00040681FFA80F8B8F1000F54D0A08D40452C
:102DE00051DDA4F82E80A06BC069B0F5807F43D080
:102DF00000BF00BF21680C3151E8001F21F4807032
:102E000021680C3141E80002002AF3D100BF00BF65
:102E100000BF2168143151E8001F21F00100216832
:102E2000143141E80002002AF3D100BF00BF00BF07
:102E30002168143151E8001F21F04000216814314D
:102E400041E80002002AF3D100BF202084F83E00B0
:102E50000020206300BF00BF21680C3151E8001F33
:102E600021F0100021680C3141E80002002AF3D162
:102E700000BFA06BFEF7AFFAA08DE28D801A81B281
:102E80002046FFF7E8FE03E740E0A08DE18D401A01
:102E90001FFA80F8E08DC0B3B8F1000F35D000BF45
:102EA00000BF21680C3151E8001F21F490702168A7
:102EB0000C3141E80002002AF3D100BF00BF00BF7F
:102EC0002168143151E8001F21F0010021681431FC
:102ED00041E80002002AF3D100BF202084F83E0020
:102EE0000020206300BF00BF21680C3151E8001FA3
:102EF00021F0100021680C3141E80002002AF3D1D2
:102F000000BF41462046FFF7A6FEC1E605F080005F
:102F100030B106F0800018B1204601F02BFBB7E677
:102F200005F0400030B106F0400018B1204601F035
:102F30007FF9ADE600BFABE6B141000810B504462D
:102F40000CB9012010BDA06900B100E000BF94F8E9
:102F50003D0028B9002084F83C00204600F028F805
:102F6000242084F83D002068C06820F400502168C7
:102F7000C860204601F0E8F92068006920F490401C
:102F8000216808612068406920F02A0021684861B2
:102F90002068C06840F400502168C86000202064A8
:102FA000202084F83D0084F83E000020CAE700009D
:102FB00010B586B00446142101A8FDF77BF91F491E
:102FC0002068884238D100BF002000901C4800686B
:102FD00040F010001A4908600846006800F0100030
:102FE000009000BF00BF00BF0020009014481438BC
:102FF000006840F001001249143908600846006872
:1030000000F00100009000BF00BF4FF4C0600190CD
:1030100002200290002003900320049007200590D6
:1030200001A90848FEF756FA002202212520FEF7E2
:103030002DFF2520FEF71AFF06B010BD001001403D
:10304000443802400000024070472DE9F84F044622
:103050000E46174699464FF0000A94F83D00202886
:103060005AD106B117B90120BDE8F88F00BF94F816
:103070003C00012801D10220F6E7012084F83C0041
:1030800000BF00202064212084F83D00FEF71CFBD7
:103090008246A784E784A068B0F5805F04D12069E8
:1030A00010B90025B04602E035464FF0000800BFD9
:1030B000002084F83C0000BF1BE053460022802122
:1030C0002046CDF8009001F085FA08B10320CBE747
:1030D00045B9B8F80000C0F308002168486008F15D
:1030E000020803E02878216848606D1CE08C401ECF
:1030F000E084E08C0028E0D15346002240212046A5
:10310000CDF8009001F066FA08B10320ACE720206A
:1031100084F83D000020A7E70220A5E7704700BF24
:10312000FEE7014608684069C0F38020B0B16FF443
:1031300080600A68506100200863202081F83D000B
:10314000002081F83E00086C40F00400086400BFD5
:10315000002081F83C0000BF012070470020FCE700
:103160002DE9F84304460F4615469946DDE90886E1
:103170002068006840F4806021680860206800686A
:1031800040F4807021680860434600224FF001112E
:103190002046009600F032F960B12068006800F423
:1031A0008070B0F5807F02D14FF40070206403205E
:1031B000BDE8F88307F0FE00216808613346424607
:1031C0003E49204600F05DF908B10120F0E700BF5C
:1031D000002000902068406900902068806900907D
:1031E00000BF00BF32464146204600F0ECF950B126
:1031F000206C042805D12068006840F40070216824
:1032000008600120D4E7B9F1010F03D1E8B22168C9
:10321000086117E0C5F3072021680861324641467E
:10322000204600F0D0F950B1206C042805D1206868
:10323000006840F40070216808600120B8E7E8B237
:103240002168086132464146204600F0BCF950B181
:10325000206C042805D12068006840F400702168C3
:1032600008600120A4E72068006840F480702168AD
:103270000860434600224FF001112046009600F0FE
:10328000BDF858B12068006800F48070B0F5807F08
:1032900002D14FF400702064032089E7F8B240F0B7
:1032A000010021680861334642460449204600F087
:1032B000E8F808B101207BE7002079E7020001006F
:1032C0002DE9F8430446884615469946DDE9086726
:1032D0002068006840F4807021680860334600224E
:1032E0004FF001112046009700F088F860B1206887
:1032F000006800F48070B0F5807F02D14FF4007058
:1033000020640320BDE8F88308F0FE00216808610E
:103310003B4632462149204600F0B3F808B101206F
:10332000F0E700BF0020009020684069009020680E
:103330008069009000BF00BF3A463146204600F049
:1033400042F950B1206C042805D12068006840F48F
:103350000070216808600120D4E7B9F1010F03D1A2
:10336000E8B22168086117E0C5F307202168086109
:103370003A463146204600F026F950B1206C042828
:1033800005D12068006840F40070216808600120C1
:10339000B8E7E8B2216808610020B3E70200010045
:1033A00070B504460D46164620E02046FFF7B9FEEC
:1033B00008B1012070BD681CC0B1FEF785F9801B03
:1033C000A84200D895B900202063202084F83D0051
:1033D000002084F83E00206C40F02000206400BFF4
:1033E000002084F83C0000BF0120E3E7206840692A
:1033F000C0F380000028D8D00020DBE72DE9F041A1
:1034000004460D4617461E46DDF818801CE0701C69
:10341000D0B1FEF759F9A0EB0800B04200D89EB930
:1034200000202063202084F83D00002084F83E0026
:10343000206C40F02000206400BF002084F83C0095
:1034400000BF0120BDE8F081C5F3074001280AD183
:1034500020684069A9B20840A9B2884201D1012080
:103460000BE0002009E020688069A9B20840A9B2F9
:10347000884201D1012000E00020B842C7D00020DE
:10348000E0E72DE9F04104460D4616461F463DE0B3
:1034900020684069C0F38020E8B12068006840F4EB
:1034A0000070216808606FF4806021684861002026
:1034B0002063202084F83D00002084F83E00206C2A
:1034C00040F00400206400BF002084F83C0000BFEE
:1034D0000120BDE8F081701CC0B1FEF7F5F8C01BFB
:1034E000B04200D896B900202063202084F83D0027
:1034F000002084F83E00206C40F02000206400BFD3
:10350000002084F83C0000BF0120E2E7C5F307403B
:1035100001280AD120684069A9B20840A9B28842AE
:1035200001D101200BE0002009E020688069A9B2E8
:103530000840A9B2884201D1012000E00020002803
:10354000A6D00020C5E770B504460D46164632E009
:1035500020684069C0F30010A0B16FF0100021682E
:10356000486100202063202084F83D00002084F87A
:103570003E00206C206400BF002084F83C0000BFA7
:10358000012070BDFEF7A0F8801BA84200D895B9B5
:1035900000202063202084F83D00002084F83E00B5
:1035A000206C40F02000206400BF002084F83C0024
:1035B00000BF0120E5E720684069C0F380100028C3
:1035C000C6D00020DDE770B504460D46164620E063
:1035D0002046FFF7A6FD08B1012070BD681CC0B1F0
:1035E000FEF772F8801BA84200D895B9002020632E
:1035F000202084F83D00002084F83E00206C40F03C
:103600002000206400BF002084F83C0000BF01209F
:10361000E3E720684069C0F3C0100028D8D000203C
:10362000DBE7000010B52DED048B454890ED020A54
:10363000DFED440A20EE200AF0EE408ADFED420A78
:1036400078EEA00AB0EE600A02F02EFA3C48D0ED07
:10365000000A20EE209ADFED3D0A78EEA00AB0EED7
:10366000600A02F021FA3648D0ED010A00EE209AF5
:10367000B0EE498A9FED360AB4EEC08AF1EE10FA38
:1036800007DD9FED330A38EE400A324880ED000A2C
:1036900013E09FED310AB4EEC08AF1EE10FA05DBBB
:1036A0009FED2E0A2B4880ED000A06E09FED2A0AC6
:1036B00038EE400A274880ED000ADFED230A78EE55
:1036C000A00AB0EE600A02F0A7F91D48D0ED000A8A
:1036D00020EE209ADFED1D0A78EEA00AB0EE600A17
:1036E00002F09AF91648D0ED010A00EE209AB0EEE9
:1036F000498A9FED170AB4EEC08AF1EE10FA07DD91
:103700009FED130A38EE400A124880ED010A13E0DB
:103710009FED110AB4EEC08AF1EE10FA05DB9FEDC1
:103720000F0A0C4880ED010A06E09FED0B0A38EE07
:10373000400A084880ED010ABDEC048B10BD000072
:103740003401002035FA8E3CDB0F493FE4CB1640B4
:1037500017B75138080000206F1203BA00000000AC
:103760001FB5044664200121234A0B46CDE9002100
:1037700002907522D0212046FEF794F81E4800786A
:10378000682837D1002003906420012103AA0B464A
:10379000CDE9002102906B22D0212046FEF7FCF9F2
:1037A000072003906420012103AA0B46CDE90021E4
:1037B00002901922D0212046FEF7EEF9182003903E
:1037C0006420012103AA0B46CDE9002102901B22AF
:1037D000D0212046FEF7E0F900200390642001216B
:1037E00003AA0B46CDE9002102901C22D0212046DD
:1037F000FEF7D2F91FBD00003C00002070B52DED92
:10380000048B82B005460C4600F098FA5148B0F996
:1038100004005049B1F902104E4ECDE90010B6F93E
:1038200000304D4EB6F90420B6F90210B6F900008A
:1038300000F0A8F84949B1F91400FCF7DBFE41ECAF
:10384000180B9FED470B53EC102BFCF7F2FDC4E96E
:1038500002014249B1F92A00FCF7CCFE41EC180BF9
:103860009FED3F0B53EC102BFCF7E3FDC4E9040183
:103870003A49B1F94010A1F58040FCF7BBFE41EC9C
:10388000180B9FED370B53EC102BFCF7D2FDC4E95E
:1038900006013249B1F95600FCF7ACFE41EC180BB9
:1038A0009FED310B53EC102BFCF735FEC4E90A01F8
:1038B0002A49B1F96C00FCF79DFE41EC180B9FED15
:1038C0002A0B53EC102BFCF726FEC4E90C0123490C
:1038D000B1F98200FCF78EFE41EC180B9FED220B34
:1038E00053EC102BFCF717FEC4E90E0194ED140AFB
:1038F00010EE101A0846FCF78EFE41EC190B9FEDF6
:103900001C0B53EC102BFCF7EDFC41EC180BFCF7F7
:1039100095FE206594ED140A1748D0ED000A30EEAC
:10392000200A84ED120A94ED140A1448D0ED000A1E
:1039300030EE200A84ED130A94ED140A1048D0EDFD
:10394000000A30EE200A84ED110A02B0BDEC048BAF
:1039500070BD00003E000020440000205E010020F9
:103960009A9999999999433F66666666666630406A
:10397000D0E2D6EE682DF63E500000205400002024
:103980004C0000202DE9F04304460D46DDE90767B1
:103990000021012041E0DFF8DCC13CF81080A0F1FB
:1039A000010CDFF8D09129F81C8009F1160C3CF8C5
:1039B0001090A0F1010CDFF8BC8108F1160828F87E
:1039C0001C9008F1160C3CF81090A0F1010C08F1C5
:1039D000160828F81C9008F1160C3CF81090A0F17D
:1039E000010C08F1160828F81C9008F1160C3CF898
:1039F0001090A0F1010C08F1160828F81C9008F1AD
:103A0000160C3CF81090A0F1010C08F1160828F8EB
:103A10001C9000F1010C0CF0FF000A28BBDBDFF862
:103A200054C1ACF81240ACF82850ACF83E20ACF8C9
:103A30005430ACF86A60ACF880700021002008E0D7
:103A4000DFF830C13CF910C0614400F1010C0CF00A
:103A5000FF000A28F4DB4FF00A0C91FBFCFC0FFA84
:103A60008CFCDFF81081A8F814C0002100200AE0C7
:103A7000DFF800C10CF1160C3CF910C0614400F1F4
:103A8000010C0CF0FF000A28F2DB4FF00A0C91FB4E
:103A9000FCFC0FFA8CF8DFF8DCC0ACF82A800021BF
:103AA00000200AE0DFF8CCC00CF12C0C3CF910C06F
:103AB000614400F1010C0CF0FF000A28F2DB4FF02A
:103AC0000A0C91FBFCFC0FFA8CF8DFF8A8C0ACF8EC
:103AD0004080002100200AE0DFF898C00CF1420C81
:103AE0003CF910C0614400F1010C0CF0FF000A2801
:103AF000F2DB4FF00A0C91FBFCFC0FFA8CF8DFF8BC
:103B000074C0ACF85680002100200AE0DFF864C0E1
:103B10000CF1580C3CF910C0614400F1010C0CF0A0
:103B2000FF000A28F2DB4FF00A0C91FBFCFC0FFAB5
:103B30008CF8DFF840C0ACF86C80002100200AE06F
:103B4000DFF830C00CF16E0C3CF910C0614400F19C
:103B5000010C0CF0FF000A28F2DB4FF00A0C91FB7D
:103B6000FCFC0FFA8CF8DFF80CC0ACF88280BDE8E2
:103B7000F08300005E01002010B50E480E49086079
:103B80000620486000210C488160C1604FF4A021EC
:103B900001614FF4C00141610021017641768176D7
:103BA000C17601774177FDF7A4FA08B1FCF767FF0A
:103BB00010BD000000640040A002002008B500BF56
:103BC000002000901548006840F08000134908600C
:103BD0000846006800F08000009000BF00BF00BFF2
:103BE000002000900846006840F001000860084688
:103BF000006800F00100009000BF00BF00BF00207F
:103C000000900846006840F002000860084600681E
:103C100000F00200009000BF00BF08BD3038024035
:103C200010B50B480B4908600B4848600021094853
:103C30008160C1604FF48041016100214161816177
:103C4000C1610162FDF746FD08B1FCF718FF10BD28
:103C500000540040C8020020A086010010B50A48A8
:103C60000A490860532048600021084881604FF4E9
:103C70007A71C160002101618161FEF703FD08B125
:103C8000FCF7FDFE10BD0000004801401C030020B1
:103C900010B50A480A490860A72048600021084872
:103CA000816041F28731C160002101618161FEF7CD
:103CB000E9FC08B1FCF7E3FE10BD0000001C004069
:103CC0006403002010B50A480A4908605320486080
:103CD00000210848816042F20F71C160002101613A
:103CE0008161FEF7CFFC08B1FCF7C9FE10BD0000F2
:103CF00000200040AC03002010B50B480B490860C1
:103D00004FF4E1304860002108488160C1600161E2
:103D10000C21416100218161C161FFF70FF908B1F8
:103D2000FCF7ADFE10BD000000100140F4030020C0
:103D300000BFFEE700BFFEE77047000000B52DEDB5
:103D4000088B89B007A8964908AB03AACDE90010F3
:103D50009449954802F0E2F89148008800F4807098
:103D600000287DD09DED030AB8EEC00ADFED8F0A72
:103D700080EE201A8E4880ED001A9DED040AB8EE00
:103D8000C00ADFED8A0A80EE201A8A4880ED001A08
:103D90009DED050AB8EEC00ADFED840A80EE201A18
:103DA000854880ED001A9DED060AB8EEC00ADFEDE9
:103DB0007F0A80EE201A814880ED001A7D4890ED40
:103DC000000AF8EE000A20EE200A7C48D0ED000A36
:103DD00020EE200A7648D0ED000AB0EE001A60EE20
:103DE000810A754890ED001A00EE810A10EE101A53
:103DF0000846FCF710FC41EC1A0BB0EE4A0AF0EE54
:103E00006A0A00F081FCB0EE409AF0EE609A9FEDF5
:103E10006C0B53EC102B51EC190BFCF70AFB41EC2B
:103E2000180BFCF70BFC68490860624890ED000A2B
:103E3000F8EE000A20EE200AD0ED000A20EE200A5B
:103E40005D48D0ED000AB0EE001A60EE810A90EDF8
:103E5000001A00EEC10AF7EE000A30EE200A00E078
:103E600099E010EE101A0846FCF7D5FB41EC1A0B4E
:103E7000514890ED000AF0EE000A20EE200A4F486B
:103E8000D0ED000A20EE200A4948D0ED000AB0EE3D
:103E9000001A60EE810A474890ED001A00EE810A90
:103EA00010EE101A0846FCF7B6FB41EC1B0BB0EE07
:103EB0004A1AF0EE6A1AB0EE4B0AF0EE6B0A00F006
:103EC0003FFFB0EE409AF0EE609A9FED3D0B53EC51
:103ED000102B51EC190BFCF7ACFA41EC180BFCF76A
:103EE000ADFB3A490860324890ED000A20EE000A26
:103EF0003048D0ED000A90ED001A00EE810A2E48FD
:103F0000D0ED000A90ED001A00EEC10A2B48D0ED6A
:103F1000000A90ED001A00EEC10A10EE101A0846D1
:103F2000FCF779FB41EC1A0B224890ED000A22487D
:103F3000D0ED000A20EE200A1D48D0ED000A1F48EF
:103F400090ED001A00EE810AF0EE000A20EE200A41
:103F500010EE101A0846FCF75EFB41EC1B0BB0EEAE
:103F60004A1AF0EE6A1AB0EE4B0AF0EE6B0A00F055
:103F7000E7FEB0EE409AF0EE609A9FED110B53EC25
:103F8000102B51EC190BFCF754FA41EC180BFCF711
:103F900055FB0F49086009B0BDEC088B00BD00005F
:103FA0004A000020440000203E0000200000804E17
:103FB000580000205C000020600000206400002009
:103FC0006666666666A64C404C00002050000020E5
:103FD00054000020704710B5FDF7D4FE10BD00005E
:103FE00000B593B0302107A8FCF764F9142102A8AA
:103FF000FCF760F900BF002001902448006840F001
:104000008050224908600846006800F08050019006
:1040100000BF00BF00BF002001901D48006840F4B1
:1040200080401B4908600846006800F48040019009
:1040300000BF00BF012007900004089002200D90EF
:1040400041050E9119210F914FF4A8711091022191
:1040500011910421129107A8FEF7AAF808B1FCF704
:104060000EFD0F20029002200390002004904FF4D8
:10407000A05005904FF480500690052102A8FDF74E
:1040800057FF08B1FCF7FBFC13B000BD40380240FD
:10409000007000400348006840F470000149086067
:1040A0007047000088ED00E010B50248FEF7D9FB2C
:1040B00010BD00001C03002010B50248FEF7D1FB24
:1040C00010BD0000AC03002010B50248FEF7C9FB8C
:1040D00010BD00006403002010B50268294B98420F
:1040E0000ED0B0F1804F0BD0274B984208D0274B11
:1040F000984205D0264B984202D0264B984203D1D5
:1041000022F070024B681A431E4B984220D0B0F147
:10411000804F1DD01C4B98421AD01C4B984217D090
:104120001B4B984214D01B4B984211D01A4B98420B
:104130000ED01A4B98420BD0194B984208D0194B0D
:10414000984205D0184B984202D0184B984203D1A0
:1041500022F44072CB681A4322F080034C6943EA90
:10416000040202608B68C3620B688362054B98424D
:1041700002D0084B984201D10B69036301234361CC
:1041800010BD000000000140000400400008004095
:10419000000C004000040140004001400044014088
:1041A0000048014000180040001C00400020004072
:1041B00070B50546AC6B0020E085E0842046FEF734
:1041C0004BFD70BD00BF00BF02680C3252E8002FEB
:1041D00022F4907102680C3242E80013002BF3D1F4
:1041E00000BF00BF00BF0268143252E8002F22F067
:1041F00001010268143242E80013002BF3D100BF22
:10420000016B01290ED100BF00BF02680C3252E8D9
:10421000002F22F0100102680C3242E80013002B3C
:10422000F3D100BF202180F83E10002101637047C8
:1042300010B504462068C06820F040002168C860BE
:10424000202084F83D002046FEF768FF002010BDC6
:10425000F8B5044694F83E00222873D1A068B0F562
:10426000805F0CD1206950B90025A66A206840689B
:10427000C0F308003080A06A801CA06215E0A56A27
:104280000026A068B0F5805F03D0A06828B9206937
:1042900018B920684068287004E02068406800F081
:1042A0007F002870A06A401CA062E08D401E80B292
:1042B000E085002844D12068C06820F020002168F3
:1042C000C8602068C06820F480702168C8602068D9
:1042D000406920F0010021684861202084F83E00F8
:1042E000206B012826D10020206300BF00BF216879
:1042F0000C3151E8001F21F0100021680C3141E819
:104300000002002AF3D100BF2068006800F010000E
:1043100010280AD100BF002000902068006800909B
:1043200020684068009000BF00BFA18D2046FEF7C6
:1043300092FC02E02046FEF787FE0020F8BD01E077
:104340000020FBE70220F9E72DE9F84F044620683A
:10435000006920F44050E168084321680861216940
:10436000A068084361690843E16908430090206838
:10437000C06849F20C618843009908432168C8600D
:104380002068406920F44070A169084321684861B1
:1043900076492068884203D075492068884203D155
:1043A000FDF79EFE814602E0FDF78AFE8146E06948
:1043B000B0F5004F6CD102206168A0FB01500346AC
:1043C0001920A9FB007001462A463846FBF7FAFE81
:1043D0006421B0FBF1F04FEA001A02206168A0FBF3
:1043E00001510B461920A9FB00712A463846FBF7FC
:1043F000E9FE834602206168A0FB015003461920B4
:10440000A9FB00712A463846FBF7DCFE6421B0FBAD
:10441000F1F000EBC00101EB0010ABEB80003221AA
:1044200001EBC0006421B0FBF1F000F0F8000AEBF2
:10443000400A02206168A0FB015003461920A9FB35
:10444000007001462A463846FBF7BCFE8346022030
:104450006168A0FB015003461920A9FB00712A46A0
:104460003846FBF7AFFE6421B0FBF1F000EBC00172
:1044700001EB0010ABEB8000322101EBC0006421A6
:10448000B0FBF1F000F007005044216888606AE05A
:1044900004206168A0FB015003461920A9FB0070AD
:1044A00001462A463846FBF78DFE824604206168A5
:1044B000A0FB015003461920A9FB007001462A46C3
:1044C0003846FBF77FFE6421B0FBF1F000EBC00142
:1044D00001EB0010AAEB8000322101EB00106421F7
:1044E000B0FBF1F000F0F00A04206168A0FB01705D
:1044F00003461920A9FB00513A462846FBF762FE05
:104500006421B0FBF1F00AEB001A04206168A0FB03
:1045100001510B461920A9FB00712A463846FBF7CA
:1045200051FE834604206168A0FB01500346192018
:10453000A9FB007001462A463846FBF743FE64217A
:10454000B0FBF1F000EBC00101EB0010ABEB800021
:10455000322101EB00106421B0FBF1F000F00F00FC
:10456000504421688860BDE8F88F000000100140C9
:1045700000140140014691F83D00212828D18868A7
:10458000B0F5805F0BD1086948B90A6A1088C0F39A
:1045900008000B685860086A801C086205E00B6A16
:1045A000581C086218780B685860C88C401E80B28E
:1045B000C88458B90868C06820F080000B68D860CB
:1045C0000868C06840F040000B68D8600020704761
:1045D0000220FCE72DE9F04104460D4617469846B7
:1045E000069E34E0701C88B32EB1FDF76DF8A0EB89
:1045F0000800B0422BD900BF00BF21680C3151E840
:10460000001F21F4D07021680C3141E80002002A1B
:10461000F3D100BF00BF00BF2168143151E8001F73
:1046200021F001002168143141E80002002AF3D191
:1046300000BF202084F83D0084F83E0000BF002029
:1046400084F83C0000BF0320BDE8F081FFE720684C
:1046500000682840A84201D1012000E00020B842B3
:10466000C0D00020F0E7000010B50248FEF7F6FACF
:1046700010BD0000F403002000BFFEE70FB4054B9F
:1046800010B503A9044A029800F0E2FD10BC5DF8E1
:1046900014FB000005680008C400002003B4019862
:1046A0004100009850EAC12018BF04204A0D18BFED
:1046B00040F0010040F2FF72B2EB515F08BF40F0E2
:1046C0000200012808BF052002B0704702480068B8
:1046D000C0F30220704700000CED00E010B5002888
:1046E00004DB0A07130E054A135406E00A07140EEA
:1046F000034A00F00F031B1FD45410BD00E400E078
:1047000018ED00E00000000070B5C1482DED020B6F
:104710002DED0E8B82B0119D25F000449FEDBEDB88
:104720009FEDBFEB84423EDBA4F140511098A1F114
:104730007F6108430FD0BC48844202DC28D1109826
:1047400030B39DED100B02B0BDEC0E8B02B0BDE896
:10475000704000F071BC9DED100B53EC1D2B51EC23
:10476000100BFBF766FE9DED100B41EC180B53ECA4
:104770001E2B51EC100BFBF75CFE53EC182BFBF7D8
:10478000B1FD41EC100B02B0BDEC0E8B02B070BD60
:10479000012000F095FC02B0BDEC0E8B02B0BDE82C
:1047A000704000F05DBCA1489FEDA18B844256DAB9
:1047B0009DED100BB4F1795F0ADA51EC100BFFF7A5
:1047C0006DFF042808BF00F05BFC9DED100BDAE7DD
:1047D00053EC102B51EC100BFBF72BFE41EC190B9B
:1047E00095480621B0EE490AF0EE690A784400F0D7
:1047F000A7FB53EC192B51EC100BFBF71AFE41EC05
:104800001A0B8E48B0EE490AF0EE690A042178448A
:1048100000F096FB53EC192B51EC100BFBF709FE43
:1048200053EC182BFBF75EFD41EC100B51EC1A0B0F
:1048300053EC102BFBF76FFECDE900019DED000B53
:1048400053EC102B9DED100B51EC100BFBF7F1FD11
:104850009DED101B53EC112BFBF744FDD2E09DEDB9
:10486000100B51EC100B01F0C1FF53EC182BFBF7B0
:10487000DDFD9FED730BCDE9000153EC102B9DED99
:10488000000B51EC100BFBF7D4FD41EC190B6E48FB
:104890000621B0EE490AF0EE690A784400F050FBB8
:1048A00053EC192B51EC100BFBF7C3FD41EC1B0B28
:1048B0006648B0EE490AF0EE690A0421784400F037
:1048C0003FFB53EC192B51EC100BFBF7B2FD53ECF3
:1048D000182BFBF707FD41EC1C0B51EC190B03F0F7
:1048E000FDFB41EC180B5A489FED5BABA04222DC6C
:1048F00053EC1C2B51EC1B0BFBF70DFECDE900011B
:104900009DED000B51EC180B53EC102BFBF791FDB8
:1049100053EC182BFBF7E6FC53EC1A2BFBF789FD45
:1049200053EC1D2BFBF77FFD53EC1E2BFBF77EFD9D
:1049300041EC100B5FE08DED008B002000909DEDB1
:10494000000B51EC180B53EC102BFBF7CBFC9DED3F
:10495000000B41EC1E0B53EC102B51EC100BFBF732
:1049600068FD53EC192BFBF761FD53EC1E2BFBF795
:10497000D2FD41EC190B53EC1C2B51EC1B0BFBF73C
:10498000CAFD41EC1B0B53EC1A2B51EC190BFBF736
:1049900050FD53EC1D2BFBF749FD41EC190B53EC7B
:1049A0001A2B51EC180BFBF744FD53EC1B2BFBF7B8
:1049B00040FD53EC192BFBF736FD9DED000B41EC50
:1049C000180B53EC1A2B51EC100BFBF732FD9FED3B
:1049D000249B53EC192BFBF729FD41EC100B51ECF8
:1049E000180B53EC102BFBF71EFD53EC192BFBF7A8
:1049F0001DFD41EC100B002D3FF7C5AE51EC100B27
:104A000081F0004141EC100BBDE600000000000009
:104A10000000F03F00000000075C143326A6913C24
:104A2000182D4454FB21F93F0000F07F0000E03FC7
:104A3000000000000000F03F8894030096940300FB
:104A4000000000000000E03FDA930300E893030059
:104A50003333EF3F00000000000000000000004082
:104A6000182D4454FB21E93F70B59B482DED020BF6
:104A70002DED068B079D25F00044A04218DC9748D9
:104A8000844202DC0AD1069840B19DED060BBDECD4
:104A9000068B02B0BDE8704000F0CEBA002DCCBF4E
:104AA0009FED8F0B9FED900BBDEC068B02B070BDA0
:104AB0008F48A04215DD8F48A042D8BF4FF0FF3489
:104AC00058DD9DED060B51EC100BFFF7E7FD0428B8
:104AD00008BF00F0D5FA9DED060BBDEC068B02B0C9
:104AE00070BD9DED060B51EC100B01F07FFECDE982
:104AF000060181489FED828BA0423CDD8248A042A6
:104B00001FDD00249FED82AB9DED060B53EC1A2BAD
:104B100051EC100BFBF7E6FB9DED060B41EC190B7E
:104B200053EC1A2B51EC100BFBF783FC53EC182BB6
:104B3000FBF779FC53EC192BFBF7EDFCCDE90601F3
:104B400049E09DED060B012453EC182B51EC100BA2
:104B5000FBF7C8FB9DED060B41EC190B53EC182B32
:104B600051EC100BFBF75FFC53EC192BFBF7D3FC5C
:104B7000CDE906012FE06848A0421FDD02249FED29
:104B8000689B9DED060B53EC192B51EC100BFBF7BA
:104B900050FC53EC182BFBF7A5FB9DED060B41ECED
:104BA000180B53EC192B51EC100BFBF73CFC53EC9E
:104BB000182BFBF7B0FCCDE906010CE09DED060BD0
:104BC000032453EC102B9FED580B51EC100BFBF70B
:104BD000A2FCCDE906019DED060B53EC102B51EC28
:104BE000100BFBF726FC41EC180B53EC182BFBF7D2
:104BF00020FC41EC190B4E480621B0EE490AF0EEBC
:104C0000690A784400F09CF953EC182B51EC100B16
:104C1000FBF70FFC41EC180B4648B0EE490AF0EEEA
:104C2000690A0521784400F08BF953EC192B51ECFB
:104C3000100BFBF7FEFB41EC100B51EC180B53EC87
:104C4000102B002C0EDAFBF74DFB9DED061B53ECF1
:104C5000112BFBF7EEFB9DED061B53EC112BFBF725
:104C6000E5FB35E0FBF73EFB9DED061B53EC112BFE
:104C7000FBF7DFFB41EC100B2F48784400EBC4003E
:104C800090ED001B51EC100B53EC112BFBF7CBFB01
:104C90009DED061B53EC112BFBF7C5FB41EC100BF4
:104CA0002648784400EBC40090ED001B51EC100B3B
:104CB00053EC112BFBF7BAFB41EC100B002DA2BFFC
:104CC000BDEC068B02B070BD51EC100B81F00041C1
:104CD00041EC100B01E70000000010440000F07FE1
:104CE000182D4454FB21F93F182D4454FB21F9BFE2
:104CF0000000DC3F0000203E0000F33F0000000009
:104D0000000000000000F03F0000E63F000000004F
:104D10000000000000000040008003400000000090
:104D2000000000000000F83F000000000000F0BF9D
:104D30002A910300E09003006A9003002290030090
:104D400070B56F4E2DED040B2DED048B82B0DDF8A8
:104D500024C0DDE907235C422CF000411C4341EAFA
:104D6000D474069D22F00040B44205D86C422C4316
:104D700040EAD474B4420BD99DED081B9DED060B9F
:104D800002B0BDEC048B04B0BDE8704000F05EB929
:104D9000ACF14054A4F17F641C430BD0022404EA1C
:104DA000AC7444EAD27405439FED578B9FED582BAA
:104DB00007D015E09DED060B51EC100B00F0CCFE7A
:104DC00042E0002C11BF012C9DED060B02B0BDECA2
:104DD000048B04BF04B070BD022C38D0032C3BD030
:104DE0000B439FED4D1B9FED4E0B0AD0B14218D1E6
:104DF000B04209D121F0804120F080400991079014
:104E00000FE0002A15DA10E0474B7B44002C08BF66
:104E100093ED000B0DD0012C10D0022C17D0032CD9
:104E20001AD0B0421DD1002A03DAB0EE410AF0EEEA
:104E3000610A02B0BDEC048B04B070BD93ED000BB1
:104E400051EC100B81F0004141EC100BF1E7B0EE9A
:104E5000480AF0EE680AECE7B0EE420AF0EE620AA9
:104E6000E7E7401A00159FED329B3C28C8BF8DED47
:104E7000000B17DCBCF1000FBCBF10F13C0F8DED37
:104E8000009B0FDB9DED080B53EC102B9DED060BEB
:104E900051EC100BFBF73FFB01F0A8FC00F05CFEAF
:104EA000CDE90001B4B1012C10D0022C9FED220BF2
:104EB00053EC102B9DED000B51EC100B19D0FBF7B0
:104EC000B2FA53EC182BFBF7AEFABDE7019880F06D
:104ED000004001909DED000B53EC192B51EC100B91
:104EE000FBF7ACFC04BF022000F0EAF89DED000BDC
:104EF0009FE7FBF798FA53EC182BFBF797FAA3E719
:104F00000000F07F00000000182D4454FB210940F0
:104F1000182D4454FB2109C0182D4454FB21F9BF1E
:104F2000182D4454FB21F93F528F0300000000006C
:104F30000000000000000000075C143326A6A13C1E
:104F400070B504462DED028B4D1E00EBC500B0EE92
:104F5000408AF0EE608A90ED000B35F0060017D025
:104F600053EC182B51EC100BFBF763FA41EC100BD0
:104F70006D1E04EBC50090ED001B51EC100B53ECC3
:104F8000112BFBF7AFF941EC100B35F00600E7D120
:104F9000022D36D0042D1CD0062D1CBFBDEC028B7B
:104FA00070BD53EC182B51EC100BFBF742FA94ED4B
:104FB0000A1B53EC112BFBF795F953EC182BFBF75D
:104FC00038FA94ED081B53EC112BFBF78BF941ECED
:104FD000100B53EC182B51EC100BFBF72AFA94ED45
:104FE000061B53EC112BFBF77DF953EC182BFBF749
:104FF00020FA94ED040B53EC102BFBF773F941EC02
:10500000100B53EC182B51EC100BFBF712FA94ED2C
:10501000021B53EC112BFBF765F953EC182BFBF734
:1050200008FA94ED001B53EC112BFBF75BF9BDEC78
:10503000028B41EC100B70BD10B553EC102B51ECF2
:10504000100BFBF74FF941EC100B10BD10B553ECF2
:10505000112B51EC100BFBF745F941EC100B10BD77
:105060009FED050B10B553EC102B51EC100BFBF71B
:1050700052FA41EC100B10BD0000000000000000CF
:105080009FED050B10B553EC102B51EC100BFBF7FB
:10509000D0F941EC100B10BD000000000000001022
:1050A00002E008C8121F08C1002AFAD170477047F1
:1050B000002001E001C1121F002AFBD1704700004F
:1050C0000149086070470000C80000202DE9FF5F1B
:1050D00082B00021DDE90430020DDDF840B0034369
:1050E00018D044F61050A2F2FF3242431514119822
:1050F00001281FD0A5EB0B00401C5FEA000A4FF00F
:1051000000064E4FDFF83891B046504615D5CAF12B
:10511000000413E0119801244AA3012801D16FEA89
:105120000B010298119AC0E90031C0E9024206B0B1
:10513000BDE8F09FCBF10000DFE704460021404AC4
:10514000491842EB0450CDE9001012E0E00707D007
:1051500032463B4640464946FBF76BF98046894656
:1051600032463B4610461946FBF763F906460F46A2
:105170006410002CEAD1DDE90401DDE90023BAF175
:10518000000F06DAFBF755F942464B46FBF751F99B
:1051900005E0FBF7C0F942464B46FBF7BCF9044675
:1051A0000E460022284BFBF761FB03D84FF0FF307F
:1051B000014607E00022254B20463146FBF792F8D6
:1051C000FBF724FB102409E0002C0ADB0A22002351
:1051D000FAF7F8FF039B30321A55641E50EA0102B9
:1051E000F2D1641C039AC4F111031444119A012AE8
:1051F00003D0012208430DD10AE0084304D0002067
:105200004FF0110B119072E7A3EB0B056D1E0DE033
:105210005B4504DD4FF0000205F1010504E003DA0F
:105220004FF00002A5F10105002AECD00298119977
:10523000C0E90231C0E9004579E7000000001440F0
:105240000000F03F300000000000F0430000E03FAD
:105250002DE9FF4F95B09A46884606460025EEE1B7
:10526000252877D100242746F94A0121039400E03C
:10527000044316F8013F203B01FA03F01042F7D136
:1052800030782A2811D06FF02F033078A0F1300247
:10529000092A16D8039A44F0020402EB820203EBB7
:1052A00042021044761C0390EFE758F8042B039257
:1052B000002A03DA504244F40054039044F00204FC
:1052C000761C30782E2816D116F8010F44F004040D
:1052D0002A280DD06FF02F023078A0F13003092B6F
:1052E00009D807EB870302EB4303C718761CF3E7E3
:1052F00058F8047B761C30786C280FD006DC4C28DC
:1053000017D068280DD06A2814D104E0742810D072
:105310007A280FD10DE044F400140AE044F480141C
:1053200001E044F440147278824202D104F5801402
:10533000761C761C307866280BD013DC582877D082
:1053400009DC002875D04528F6D04628F4D0472837
:105350001AD193E118E0632835D0642879D0652804
:1053600012D18BE1702873D008DC6728F1D069284E
:105370006FD06E280DD06F2806D1ACE073282CD0EA
:10538000752874D0782853D05246179990476D1CD1
:1053900054E1C4F30250022809D003280DD0D8F8F4
:1053A000001004280DD00D6008F1040846E1D8F87B
:1053B0000010EA17C1E90052F6E7D8F800100D8096
:1053C000F2E70D70F0E718F8041B8DF800100020CC
:1053D0008DF80100EB46012003E058F804BB4FF0C4
:1053E000FF3061074FF0000102D40DE009F1010127
:1053F0008946B9420FDA8145F8DB1BF8091000290C
:10540000F4D108E009F1010189468142FADB1BF879
:1054100009100029F6D103985346A0EB090721464D
:105420003846179A00F080FA284400EB090507E097
:1054300044E008E10DE01BF8010B52461799904734
:10544000B9F10109F7D2534621463846179AF2E0DE
:1054500039E00A21C4F302524FF0000B0091022AF6
:1054600006D058F8040BC117032A09D00AE023E03C
:1054700008F1070020F00702F2E80201904605E07B
:1054800000B2C117042A01D140B2C117002906DABF
:105490000A460021404261EB02012D2202E0220572
:1054A00004D52B228DF80420012203E0E20701D06D
:1054B0002022F7E7914657E00A2100E010214FF043
:1054C000000B00910BE010214FF0000B44F004049E
:1054D0000827009103E008204FF0000B0090C4F370
:1054E0000252022A05D058F8040B0021032A08D0E2
:1054F00008E008F1070020F00702F2E802019046F8
:1055000003E080B2042A00D1C0B24FF000092207A4
:105510002AD53278702A07D0DDF800C08CF0100C44
:105520005CEA0B0C05D00EE040228DF8042001222D
:1055300008E050EA010306D030238DF804308DF8DE
:10554000052002229146009B83F0080353EA0B03D7
:105550000AD150EA010201D1620705D530228DF847
:1055600004204FF001097F1E3278582A04D039A256
:105570000C920CAA02920BE03BA2F9E75B46009A60
:10558000FAF720FE0C9B9B5C029A521E029213704B
:1055900050EA0102F2D1029804A9081A00F1200B86
:1055A000600702D524F4803400E001275F4502DD66
:1055B000A7EB0B0000E0002000EB0B01009003982C
:1055C0004944401A0390E00306D453462146179AF3
:1055D000039800F0A9F90544002706E001A8524607
:1055E000C05D179990476D1C7F1C4F45F6DBE003AB
:1055F0000CD553462146179A039800F095F90544B7
:1056000004E030205246179990476D1C0099481EBF
:1056100000900029F5DC08E00298029952460078D3
:10562000491C0291179990476D1CBBF10001ABF129
:10563000010BF1DC5BE100F065F90544761C307884
:1056400000287FF40DAE19B02846BDE8F08F0000A9
:105650000928010030313233343536373839616248
:10566000636465660000000030313233343536370C
:10567000383941424344454600000000600700D4E9
:10568000062708F1070020F00700F0E80223804613
:1056900003F0004C5FEA0C0001D097A009E0200560
:1056A00001D596A005E0E00701D095A001E0AFF29A
:1056B0004C001390307823F0004365280CD006DCB2
:1056C000452809D046281DD047287FD13BE06628D1
:1056D00018D067287AD136E00021112F01DB112084
:1056E00000E0781CCDE9000104A90CA8FFF7EEFC4E
:1056F000DDE90D010C9A4FF0000B07F10109109242
:1057000000914EE04FF000400097CDE9011004A950
:105710000CA8FFF7DBFCDDE90D020C9B0F994FF0A5
:10572000000B91461093009211B9791C00EB01090E
:10573000B7EB090003D4C0F1FF3B07F10109A9EB66
:105740000700019042E0012F00DA01270021112F0C
:1057500001DD112000E03846CDE9000104A90CA8C4
:10576000FFF7B4FCDDE90D010C9A00914FF0000B3E
:10577000B946109221070FD4009A4A4503DA9146A0
:1057800001E0A9F10109B9F1010F05DD109AA9F1B4
:105790000101515C3029F4D0B84202DA10F1040F53
:1057A00003DA0121CDE9011010E0002803DC834475
:1057B000A9EB000102E0411C494500DD8946A0EB50
:1057C0000B00401C01904FF000400290200705D4D0
:1057D0000198484502DB4FF0FF30019000208DF822
:1057E0004B0002980DF14B07B0F1004F25D002207D
:1057F0000C902B200D90029800280CDA4042029069
:105800002D200D9007E00A210298FAF733FF30317E
:10581000029007F8011D0C99481E0C900029F2DC3B
:1058200002980028EFD1791E0D980870307800F0AA
:10583000200040F0450007F8020D11A8C01BC01D54
:1058400002901398007800B1012000EB0901019843
:1058500001EBE071029801440398401A401E039046
:10586000E00306D453462146179A039800F05CF8EB
:1058700005441398007818B15246179990476D1C4B
:10588000E00323D553462146179A039800F04CF8BD
:1058900005441BE0BBF1000F07DB0098584504DD11
:1058A0001098179910F80B0001E017993020524614
:1058B000904701980BF1010B401E05F10105019085
:1058C00004D12E205246179990476D1CB9F1000162
:1058D000A9F10109DEDC05E017F8010B5246179922
:1058E00090476D1C0299481E02900029F4DC534633
:1058F0002146179A03989EE62D0000002B00000019
:10590000200000002DE9F041044600251E46174600
:10591000880404D405E039462020B0476D1C641E7D
:10592000F9D52846BDE8F0812DE9F041044600256F
:105930001E469046C80301D5302700E02027880482
:1059400004D505E041463846B0476D1C641EF9D5C4
:105950002846BDE8F0810000F0B52DED028B83B044
:1059600006460F460025684600F05AFF002447E02F
:1059700056F8241057F82420881A002801DB014625
:1059800000E0414200EE101AB8EEC00ADFED200A36
:1059900080EE208A684600EB840090ED000AB5EEA8
:1059A000C00AF1EE10FA18D0684600EB8400D0ED82
:1059B000000A88EE200AF7EE000A70EE608AB0EE68
:1059C000E80A1448D0ED090AB4EEE00AF1EE10FA44
:1059D00015DD0120A040054311E00E4890ED070AB7
:1059E000B4EEC80AF1EE10FA06DC90ED080AB4EE47
:1059F000C80AF1EE10FA02D20120A0400543641C4F
:105A0000032CB5DB284603B0BDEC028BF0BD0000D3
:105A10000000804774810008B0EE402A9FED1F4AC5
:105A2000F5EE003A42EE043AF0EE630AFDEEE03A9B
:105A300013EE901AF5EEC00AF1EE10FA00D2491EEC
:105A400003EE901AF8EEE33A70EEE33AF0EE630AF2
:105A5000DFED133A60EEA31AFCEEE13A13EE902A62
:105A6000C2F3080003EE900AF8EE633A31EEE31A4F
:105A70000C4A02EB8002D2ED002A0A4B421C03EBD7
:105A8000820292ED003AF7EE003A73EEC13A63EE0D
:105A9000A23AB0EE630A01EE030A704783F9223E90
:105AA000000000446CC80308F0EE400AF5EEC00A9E
:105AB000F1EE10FA09D29FED240AF4EEC00AF1EEDD
:105AC00010FA02DBB0EE600A70479FED200A20EE6C
:105AD000801ABDEEC10A10EE101AF5EEC00AF1EE02
