:020000040800F2
:10000000C0100020A1010008E12E0008FD2A000810
:10001000DD2E0008210A0008F53400080000000069
:10002000000000000000000000000000E72E0008B3
:10003000450A000800000000E52E0008E92E00082F
:10004000BB010008BB010008BB010008BB010008A0
:10005000BB010008BB010008BB010008BB01000890
:10006000BB010008BB010008BB010008BB01000880
:10007000BB010008BB010008BB010008BB01000870
:10008000BB010008BB010008BB010008350A0008DD
:10009000250A0008BB010008BB010008BB010008DD
:1000A000BB010008BB010008B92F0008BB01000814
:1000B000BB010008BB010008BB010008BB01000830
:1000C000BB010008BB010008BB010008BB01000820
:1000D000BB010008E5340008BB010008BB010008B3
:1000E000BB010008BB010008BB010008BB01000800
:1000F000D92F0008C92F0008BB010008BB01000868
:10010000BB010008BB010008BB010008BB010008DF
:10011000BB010008BB010008BB010008BB010008CF
:10012000BB010008BB010008BB010008BB010008BF
:10013000BB010008BB010008BB010008BB010008AF
:10014000BB010008BB010008BB010008BB0100089F
:10015000BB010008BB010008BB010008BB0100088F
:10016000BB010008BB010008BB010008BB0100087F
:10017000BB010008BB010008BB0100080000000033
:10018000BB010008BB010008DFF810D000F036FC0E
:100190000048004721380008AFF30080C01000205D
:1001A0000648804706480047FEE7FEE7FEE7FEE711
:1001B000FEE7FEE7FEE7FEE7FEE7FEE7A52F000805
:1001C000890100089FED1A1AF5EE000A40EE010AB7
:1001D000BDEEE00AF5EEC00A10EE100AF1EE10FADC
:1001E00038BF401E00EE100A1349F7EE001AB8EEB1
:1001F000C00A30EEC00ADFED0F0A20EE200AFCEE46
:10020000C00A10EE900AC0F3080000EE900A01EB5D
:100210008000F8EE600A90ED011A70EE600A90ED31
:10022000000A71EEE01A21EE800A00EE810A7047A2
:1002300083F9223E0000004428390008B5EEC00AC8
:10024000F1EE10FA07D2DFED1E0AB4EEE00AF1EE8D
:1002500010FAA8BF7047DFED1B0AB5EEC00A60EECA
:10026000200ABDEEE01A11EE100AF1EE10FA38BFC6
:10027000401E00EE100A1549F7EE001AB8EEC00A4B
:1002800030EEC00ADFED100A60EE200ABCEEE00A94
:1002900010EE100AC0F3080000EE100A01EB800017
:1002A000B8EE400A90ED011A70EEC00A90ED000A17
:1002B00071EEE01A21EE800A00EE810A704700001C
:1002C000CD024CB483F9223E0000004428390008D6
:1002D00001804280436070472DE9F04F82B046684C
:1002E00053680193058847884B8800200090088850
:1002F000874201BFB2F800C06545528893421EBFD5
:100300006FF0020002B0BDE8F08F9FED412A4FEA86
:10031000970EC7F3400B00BFDDE9000202EB800A35
:100320004A6898464FF00009B0EE420AB4465FEAC8
:100330000E0025D092ED001ADCED001A02EB8302CC
:10034000DCED010A01EE810A92ED001A02EB830254
:10035000401ED2ED001A02EB830200EE810A9CEDF2
:10036000021ADCED030A00040CF1100C000C01EE83
:10037000210A92ED001A02EB830200EE810AD9D124
:1003800017F0030026D0ACF10404A2EB830210F0B6
:10039000010F08D002EB8302D4ED010A92ED001A9E
:1003A000241D00EE810A5FEA0B0013D002EB830CE0
:1003B000D4ED010A9CED001A02EBC302401E00EED0
:1003C000810AD4ED020A92ED001A04F1080400EE4D
:1003D000810AEBD109F10100AAEC010A1FFA80F9A8
:1003E000486800EB8902A8F101001FFA80F8B8F113
:1003F000000F99D1009806EB8706184480B2009050
:10040000681E05042D0C87D102B00020BDE8F08FD6
:10041000000000002DE9F04F02884768B0F8028024
:100420004888D1F8049082B04FF0000A1646824204
:1004300007BF098888456FF0020002B018BFBDE809
:10044000F08F4FEA980B02EB42000190C8F3400096
:10045000CDF8000009EB8A01BBF1000F33D0019801
:1004600001EB820C01EB80043B46E64601EBC20542
:100470004FEA0B0093ED000A401E81ED000A93ED58
:10048000010A01EB02118CED000A93ED020A0CEB5C
:10049000021C85ED000A93ED030A05EB021584EDBD
:1004A000000A04EB021403F11003E3D10EEB820007
:1004B00000EB820000EB8201ABF10100504307EB3F
:1004C0000B1701EB001118F0030C21D03B1FA1EB1F
:1004D00082011CF0010F06D093ED010A01EB8201AD
:1004E0001B1D81ED000A009880B100BF93ED010A49
:1004F00001EB820401EBC20184ED000A93ED020AD4
:10050000401E81ED000A03F10803EFD107EB8C07D1
:100510000AF101001FFA80FA701E0604360C99D108
:1005200002B00020BDE8F08F2DE9F05F0546002005
:1005300092469B4688460646814640241BE0284654
:1005400041464746224600F0A2F953465A46C01A91
:10055000914110D311461846224600F089F92D1A10
:1005600067EB01084F4622460120002100F080F988
:1005700017EB00094E41201EA4F10104DFDC4846C0
:1005800031462A464346BDE8F09FD2B201E000F86A
:10059000012B491EFBD270470022F6E710B5134627
:1005A0000A4604461946FFF7F0FF204610BD2DE924
:1005B000FE4F804681EA0300C00F0C46009021F0F8
:1005C000004123F00045B8EB0200A94105D24046A6
:1005D000214690461C460B46024623F0004010433D
:1005E00047D0270DC7F30A00C3F30A510290401AFF
:1005F000019040286BDAC3F3130040F4801B00988D
:10060000924620B10023D2EB030A63EB0B0B019857
:100610005946C0F14002504600F02AF906460D4600
:1006200050465946019A00F042F910EB080061412A
:10063000002487EA115284EAE7731A4340D0009AF3
:1006400062B3019A012A4FEA075215DC001B61EBE5
:1006500002014FF0004202EA0752CDE90042001CBD
:1006600041F5801132462B4600F079F903B0BDE820
:10067000F08F40462146F9E7001B61EB0201001CA8
:1006800041F5801300185B412018A2F5001747EBD5
:10069000030140EAD570B6196D4111E06D084FEACB
:1006A000360645EAC0754FEA0752001B61EB0201AE
:1006B000001C41F5801149084FEA300000195141F2
:1006C00032462B4603B0BDE8F04F00F039B9009830
:1006D000012240000023D0EB020263EBE07300989C
:1006E00021464FEAE074B8EB000061EB0401E9E752
:1006F00083F000435BE781F0004158E72DE9FE4FAE
:1007000081EA030404F0004421F0004100944FF01A
:10071000000B23F0004350EA01045ED052EA0304C8
:100720005BD0C3F30A54C1F30A552C44A4F2F3344A
:100730000194A0FB0254C1F3130141F48011C3F3EF
:10074000130343F4801301FB024400FB034E840AAD
:10075000970A44EA815447EA8357A4FB0768029545
:100760008D0A05FB07854FEA932C04FB0C542705E3
:10077000029D4FEA065847EA1637B5EB08056EEBBF
:10078000070C870E920E47EA811742EA8312A7FBF5
:100790000201B6EB0B0164EB00042B0D43EA0C33B2
:1007A0005E1844EB1C50DA465146E7FB0201C5F3E4
:1007B00013044FEA0B3343EA14534FEA0432019C0B
:1007C00043EA0603A4F10C040294009CCDE900B4B2
:1007D00000F0C5F803B0BDE8F08F00200146F9E74E
:1007E00000F0004230F000400AD0C10D01F5607108
:1007F000C0F3160042EA0151C20840071143704796
:10080000002001467047000030B5041E71F100045D
:1008100004DB4FF00044404264EB0101141E73F10D
:10082000000405DB1C464FF00043524263EB040317
:10083000994208BF904230BD01F0004330B421F02E
:10084000004150EA010206D00A0DA2F56072C1F320
:100850001301002A02DC30BC00207047440F44EA38
:10086000C104C100E01830BC00EBC25000F031B848
:10087000202A04DB203A00FA02F100207047914060
:10088000C2F1200320FA03F3194390407047202A55
:1008900004DB203A21FA02F00021704721FA02F32A
:1008A000D040C2F120029140084319467047202AE7
:1008B00006DBCB17203A41FA02F043EAE07306E088
:1008C00041FA02F3D040C2F1200291400843194698
:1008D00070470029A8BF7047401C490008BF20F09E
:1008E0000100704710B4B0FA80FC00FA0CF050EA36
:1008F000010404BF10BC704749B1CCF1200421FAB7
:1009000004F411FA0CF118BF012121430843A3EBB1
:100910000C01CB1D4FEA00614FEA102042BF0020BE
:1009200010BC704700EBC35010440029A4BF10BC9A
:100930007047401C490008BF20F0010010BC704700
:1009400010B5141E73F1000408DA401C41F10001D7
:1009500092185B411A4301D120F0010010BD2DE92E
:10096000F04D92469B4611B1B1FA81F202E0B0FA25
:1009700080F220329046FFF77BFF04460F4640EAA4
:100980000A0041EA0B0153465A46084313D0114668
:1009900053EA010019D0C8F140025046FFF777FF33
:1009A00005460E46504659464246FFF761FF08434A
:1009B00005D0012004E020463946BDE8F08D002036
:1009C000054346EAE0762C4337430A986305E40A78
:1009D000A0EB08000022FD0A44EA47540A3002D581
:1009E00000200146E9E7010510196941DDE90845E4
:1009F00000196941BDE8F04DA2E70000064C074D23
:100A000006E0E06840F0010394E8070098471034DE
:100A1000AC42F6D3FFF7BCFB2C4100084C41000868
:100A200000BFFEE710B5024800F076F910BD0000E7
:100A30007C0B002010B5024800F06EF910BD0000DC
:100A40007C0B0020704772B600BFFEE710B502466F
:100A500092F82030012B01D0022B06D1106840699A
:100A6000084314686061002010BD506A40F4802083
:100A700050620120F8E70000F0B504460A462168FC
:100A800094F82050012D01D0022D7ED1424901F56C
:100A90000071086840F001000860086820F47C508C
:100AA00008600868566A40EA06200860107D00F079
:100AB0001F06012000FA06F3C8699843C861A1F532
:100AC0000071D069C8B9D1F80C029843C1F80C0282
:100AD000908880B2968940EA064601F51070576901
:100AE00040F83760108880B2168940EA064601F562
:100AF0001070576900EBC7004660D069012819D112
:100B0000D1F80C021843C1F80C02908880B2168804
:100B100040EA064601F51070576940F83760908941
:100B200080B2168940EA064601F51070576900EB5D
:100B3000C7004660906928B9D1F804029843C1F80B
:100B4000040204E0D1F804021843C1F80402106959
:100B500028B9D1F814029843C1F8140204E0D1F87E
:100B600014021843C1F81402106A012804D1D1F804
:100B70001C021843C1F81C02D1F8000220F0010049
:100B8000C1F800020020F0BDFFE7606A40F4802059
:100B900060620120F7E7000000640040704770B514
:100BA000044694F82050012D01D0022D7DD151B979
:100BB0002068C06800F0030080B9606A40F400104B
:100BC0006062012070BD2068006900F0030028B950
:100BD000606A40F4001060620120F3E7206800F5CD
:100BE000D87000EB0110006800F00400906090687D
:100BF00040B9206800F5D87000EB01100068400D86
:100C0000106007E0206800F5D87000EB0110006864
:100C1000C0085060206800F5D87000EB0110006833
:100C200000F00200D060206800F5D87000EB0110E1
:100C3000406800F00F001061206800F5D87000EBEC
:100C40000110406800F47F40000A9061206800F5C0
:100C5000D87000EB01104068000C5061206800F56E
:100C6000D87000EB011080681870206800F5D8700B
:100C700000EB0110806800F47F40000A5870206883
:100C800000F5D87000EB0110806800F47F00000CC4
:100C90009870206800F5D87000EB01108068000E95
:100CA000D870206800F5D87000E02FE000EB01104C
:100CB000C0681871206800F5D87000EB0110C0689A
:100CC00000F47F40000A5871206800F5D87000EBEE
:100CD0000110C06800F47F00000C9871206800F5D6
:100CE000D87000EB0110C068000ED87131B92068CF
:100CF000C06840F020002668F06005E020680069C8
:100D000040F020002668306100205BE7606A40F414
:100D100080206062012055E72DE9F05F0446002540
:100D2000206846692068D0F80490206887682068A9
:100D3000D0F80CA02068D0F810B02068D0F8188047
:100D400006F00100002855D007F00100C0B10120D5
:100D50002168886007F0020018B1204600F007FD06
:100D60000EE007F0040010B145F4006508E007F05C
:100D7000080010B145F4805502E0204600F0F6FC72
:100D800007F48070C8B14FF480702168886007F460
:100D9000007018B1204600F0ECFC0EE007F4806013
:100DA00010B145F4005508E007F4006010B145F4B7
:100DB000804502E0204600F0DBFC07F48030C8B13B
:100DC0004FF480302168886007F4003018B1204665
:100DD00000F0D1FC0EE007F4802010B145F400458E
:100DE00008E007F4002010B145F4803502E0204609
:100DF00000F0C0FC06F0080038B10AF0100020B185
:100E000045F4007510202168C86006F0040040B168
:100E10000AF0080028B108202168C860204600F0C8
:100E2000B1F906F0020038B12068C06800F0030094
:100E300010B1204600F0A8F906F0400038B10BF0E0
:100E4000100020B145F4806510202168086106F08B
:100E5000200040B10BF0080028B10820216808618B
:100E6000204600F051FC06F0100038B120680069FF
:100E700000F0030010B1204600F047FC06F40030FB
:100E800040B109F0100028B11020216848602046C8
:100E900000F03CFC06F4803040B109F0080028B1B5
:100EA000082021684860204600F066FC06F40040F7
:100EB00088B309F0040078B306F4807020B108F01C
:100EC000010008B145F0010506F4007020B108F0FA
:100ED000020008B145F0020506F4806020B108F078
:100EE000040008B145F0040506F40060A0B108F064
:100EF000700088B108F07000402817D006DC102878
:100F00000BD020280CD0302819D10CE0502810D05C
:100F1000602814D110E01DE019E045F008050FE04D
:100F200045F010050CE045F0200509E045F04005CE
:100F300006E045F0800503E045F4807500E000BF61
:100F400000BF2068806920F070002168886104205B
:100F5000216848602DB1606A284360622046FFF72F
:100F60001DFEBDE8F09F70B504460CB9012070BDB0
:100F700094F8200010B9204600F0B0F8206800680E
:100F800040F001002168086000F070FD05460DE0AA
:100F900000F06CFD401B0A2808D9606A40F400305C
:100FA0006062052084F820000120E0E720684068A6
:100FB00000F001000028EBD02068006820F002005B
:100FC0002168086000F052FD05460DE000F04EFD7E
:100FD000401B0A2808D9606A40F40030606205208E
:100FE00084F820000120C2E72068406800F0020079
:100FF0000028EBD1207E012806D12068006840F04F
:1010000080002168086005E02068006820F080000A
:1010100021680860607E012806D12068006840F0E1
:1010200040002168086005E02068006820F040006A
:1010300021680860A07E012806D12068006840F081
:1010400020002168086005E02068006820F020008A
:1010500021680860E07E012806D12068006820F041
:1010600010002168086005E02068006840F010006A
:1010700021680860207F012806D12068006840F0C0
:1010800008002168086005E02068006820F008007A
:1010900021680860607F012806D12068006840F060
:1010A00004002168086005E02068006820F0040062
:1010B00021680860D4E90201084321690843616995
:1010C00008436168491E08432168C86100206062C6
:1010D000012084F82000002049E7000010B586B008
:1010E0000446142101A8FFF757FA234920688842D3
:1010F00040D100BF002000902048006840F0007000
:101100001E4908600846006800F00070009000BFAB
:1011100000BF00BF0020009018481038006840F061
:1011200001001649103908600846006800F0010007
:10113000009000BF00BF4FF4C05001900220029009
:1011400000200390032004900920059001A90C4879
:1011500000F092FB00220121132000F011FD13206A
:1011600000F0FEFC00220121142000F009FD1420F3
:1011700000F0F6FC06B010BD0064004040380240AC
:101180000000024070470000F0B52DED068B89B0DD
:1011900007466B4602AA00213846FFF700FDFE49CC
:1011A0000398084400287CD0B0F5807F7AD0B0F551
:1011B000806F03D0B0F5E06F75D124E102F09CF9A7
:1011C0009DF800009DF8012040EA022000EE100A80
:1011D000B8EEC00A10EE101A0846FFF701FB41EC0A
:1011E0001A0B9FEDEE0B53EC102BFFF787FA41EC37
:1011F000190B9FEDEC0B53EC102BFFF779FA41EC38
:10120000180BFFF719FBE94908609DF802009DF8EB
:10121000032040EA022000EE100AB8EEC00A10EEE9
:10122000101A0846FFF7DCFA41EC1A0B9FEDDB0BB6
:1012300053EC102BFFF762FA41EC190B9FEDD90B21
:1012400053EC102BFFF754FA41EC180BFFF7F4FAAC
:10125000D64948609DF804009DF8052040EA022028
:1012600000EE100AB8EEC00A10EE101A0846FFF79A
:10127000B7FA41EC1A0B9FEDC90B53EC102BFFF79B
:101280003DFA41EC190B9FEDC70B53EC102BFFF708
:101290002FFA41EC180BFFF7CFFAC44988600846D3
:1012A00002E045E130E01CE290ED000AC048D0EDDC
:1012B000010A30EE600A084680ED030A90ED010A4B
:1012C000BB48D0ED000A30EE200A084680ED040A43
:1012D00090ED020AB648D0ED020A30EE200A084628
:1012E00080ED050A90ED000AB24880ED000A08463C
:1012F00090ED010AB04880ED000A084690ED020A20
:10130000AE4880ED000AEDE19DF802000007000BF9
:101310009DF8012040EA02209DF80020104300EED5
:10132000100AB8EE400A10EE101A0846FFF758FAF5
:1013300041EC1A0B9FEDA20B53EC102BFFF7DEF9DB
:1013400041EC190B9FEDA00B53EC102BFFF7D0F9DC
:1013500041EC180BFFF770FA944908639DF80400FC
:1013600000039DF8032040EA02109DF8022040EAA5
:10137000121000EE100AB8EE400A10EE101A0846DD
:10138000FFF72EFA41EC1A0B9FED8D0B53EC102B4F
:10139000FFF7B4F941EC190B9FED8B0B53EC102BBD
:1013A000FFF7A6F941EC180BFFF746FA7F494863AF
:1013B0009DF807000007000B9DF8062040EA022078
:1013C0009DF80520104300EE100AB8EE400A10EE1A
:1013D000101A0846FFF704FA41EC1A0B9FED780B40
:1013E00053EC102BFFF78AF941EC190B9FED760BAC
:1013F00053EC102BFFF77CF941EC180BFFF71CFAAC
:101400006A4988636EE19DF800009DF8012040EA7A
:10141000022000EE100AB8EEC00A10EE101A0846BC
:10142000FFF7DEF941EC1A0B9FED690B53EC102B23
:10143000FFF764F941EC190B9FED670B53EC102B90
:10144000FFF756F941EC180BFFF7F6F957494865D5
:101450009DF802009DF8032040EA022000EE100AE9
:10146000B8EEC00A10EE101A0846FFF7B9F941ECC1
:101470001A0B9FED570B53EC102BFFF73FF941EC84
:10148000190B9FED550B53EC102BFFF731F941EC85
:10149000180BFFF7D1F9454988659DF804009DF8C0
:1014A000052040EA022000EE100AB8EEC00A10EE55
:1014B000101A0846FFF794F941EC1A0B9FED440B04
:1014C00053EC102BFFF71AF941EC190B9FED420B6F
:1014D00053EC102BFFF70CF941EC180BFFF7ACF9AC
:1014E0003249C8659DF806009DF8072040EA0220B1
:1014F00000EE100AB8EEC00A10EE101A0846FFF708
:101500006FF941EC1A0B9FED320B53EC102BFFF7E8
:10151000F5F841EC190B9FED300B53EC102BFFF756
:10152000E7F841EC180BFFF787F920490866D9E086
:101530009DF800009DF8011040EA01249DF802008A
:101540009DF8031040EA01259DF804009DF8051060
:1015500040EA012600EE104AB8EE400A10EE100AEA
:10156000FFF73EF941EC1A0B9FED150B53EC102BD6
:10157000FFF7C4F841EC190B9FED190B53EC102B3E
:10158000FFF7B6F841EC180BFFF756F907498864E6
:1015900000EE105A28E00000A7D60FF37B14AE47E8
:1015A000E17A843F000000000000744058090020E8
:1015B000580B0020180000201C00002020000020F4
:1015C000000000000000803F000000000040AF402D
:1015D0002EDCF1DA3000003F000000000000F03F98
:1015E0000000000000406F40B8EE400A10EE100A04
:1015F000FFF7F6F841EC1A0B1FED0F0B53EC102B15
:10160000FFF77CF841EC190B1FED0B0B53EC102B83
:10161000FFF76EF841EC180BFFF70EF93649086535
:1016200000EE106AB8EE400A10EE100AFFF7D8F884
:1016300041EC1A0B1FED1E0B53EC102BFFF75EF85D
:1016400041EC190B1FED1A0B53EC102BFFF750F860
:1016500041EC180BFFF7F0F82749C864084690EDF5
:10166000120A10EE101A0846FFF7BAF841EC190BEF
:101670009FED220B53EC102BFFF740F841EC180BB9
:10168000FFF7DAF81C49C863084690ED140A10EE1B
:10169000101A0846FFF7A4F841EC190B9FED170B41
:1016A00053EC102BFFF72AF841EC180BFFF7C4F8A6
:1016B00011494864084690ED130A10EE101A0846C6
:1016C000FFF78EF841EC190B9FED0C0B53EC102B30
:1016D000FFF714F841EC180BFFF7AEF80649086461
:1016E00000E000BF00BF02210648FFF7AFF909B0D4
:1016F000BDEC068BF0BD0000580900201839359D5F
:1017000046DF913F7C0B002070477047704770B5F3
:10171000044694F82000012822D1022084F82000F9
:101720002068006820F001002168086000F09EF940
:1017300005460DE000F09AF9401B0A2808D9606AB6
:1017400040F400306062052084F82000012070BD64
:101750002068406800F001000028EBD16062F6E7E5
:10176000606A40F4002060620120F0E77047704733
:101770007047704770477047704770B50446A56D55
:1017800000F074F9064694F83500022808D080204D
:10179000606500BF002084F8340000BF012070BDE8
:1017A0002068006820F01600216808602068406901
:1017B00020F0800021684861206C08B9A06C28B135
:1017C0002068006820F00800216808602068006830
:1017D00020F001002168086010E000F047F9801B4C
:1017E00005280BD920206065032084F8350000BF50
:1017F000002084F8340000BF0320D0E72068006890
:1018000000F001000028E8D194F85C103F208840E7
:10181000A860012084F8350000BF002084F834005F
:1018200000BF00BFBBE7014691F83500022803D096
:101830008020486501207047052081F83500086840
:10184000006820F001000A6810600020F3E7000043
:1018500070B5044600F00AF906462546681C10B12A
:1018600004480078054400BF00F000F9801BA8423E
:10187000FAD370BD2C000020F8B502460B460025B7
:10188000002400200021D6E0012606FA01F51E689A
:1018900006EA0504AC4274D11E7906F00306012E57
:1018A00004D01E7906F00306022E13D190684F0073
:1018B0000326BE40B0434F00DE68BE403043906018
:1018C000506801268E40B0431E79C6F300168E4044
:1018D000304350601E7906F00306032E09D0D0680D
:1018E0004F000326BE40B0434F009E68BE403043C9
:1018F000D0601E7906F00306022E13D1CF0802F144
:10190000200656F827004E07F70E0F26BE40B043BC
:101910004F07FF0E1E69BE403043CF0802F120067C
:1019200046F8270010684F000326BE40B0431E79DA
:1019300006F003064F00BE40304310605E6806F4B8
:101940004036002E76D000BF002600963C4E36680A
:1019500046F480463A4F3E603E46366806F480467E
:10196000009600BF00BF374E8F0856F827008E073D
:10197000370F0F26BE40B043334EB24202D100268D
:1019800024E057E0314EB24201D101261EE0304E34
:10199000B24201D1022619E02E4EB24201D10326F5
:1019A00014E02D4EB24201D104260FE02B4EB2427C
:1019B00001D105260AE02A4EB24201D1062605E0F1
:1019C000284EB24201D1072600E008268F073F0FBC
:1019D000BE4030431B4E8F0846F82700224E306829
:1019E000A0435E6806F4801606B120431E4E3060A8
:1019F000361D3068A0435E6806F4001606B1204329
:101A0000194E361D3060184E361F3068A0435E6890
:101A100006F4003606B12043134E361F3060361FE1
:101A20003068A0435E6806F4803606B120430E4E4F
:101A3000083E3060491C1029FFF426AFF8BD0000B5
:101A400044380240083801400000024000040240CF
:101A500000080240000C0240001002400014024046
:101A600000180240001C0240083C01400148006888
:101A700070470000240000200348006803490978EB
:101A80000844014908607047240000202C00002011
:101A900010B50D48006840F400700B490860084616
:101AA000006840F4806008600846006840F4807078
:101AB0000860032000F0A2F8002000F007F800F012
:101AC0002BF8002010BD0000003C024070B5044619
:101AD0000E4800784FF47A71B1FBF0F00C490968B8
:101AE000B1FBF0F5284600F02BFC08B1012070BDD9
:101AF000102C07D200222146501E00F041F8054864
:101B0000046001E00120F2E70020F0E72C00002053
:101B1000300000202800002008B500BF0020009001
:101B20000E48006840F480400C4908600846006890
:101B300000F48040009000BF00BF00BF0020009074
:101B4000081F006840F08050091F086008460068C0
:101B500000F08050009000BF00BF08BD4438024034
:101B600001460846002809DB00F01F0301229A40C5
:101B700043099B0003F1E023C3F8002100BF704735
:101B80002DE9F05F80460D461646002701F0FEFD68
:101B9000074639462A46334601F00700C0F1070AD6
:101BA000BAF1040F02D94FF0040A01E0C0F1070AAC
:101BB000D14600F1040ABAF1070F02D24FF0000A31
:101BC00001E0A0F1030AD4464FF0010A0AFA09FA2B
:101BD000AAF1010A0AEA020A0AFA0CFA4FF0010B0A
:101BE0000BFA0CFBABF1010B0BEA030B4AEA0B04FB
:101BF0002146404601F0D2FDBDE8F09F00BF00F055
:101C00000702064B19684FF6FF031940044B0B43BC
:101C100043EA0221014B196000BF70470CED00E060
:101C20000000FA0570B504460D460CB9012070BDE0
:101C30005848006800F00700A84209D255490D70C5
:101C40000846006800F00700A84201D00120EEE736
:101C5000207800F0020002281DD1207800F0040056
:101C6000042805D14C48006840F4E0504A49086017
:101C7000207800F00800082805D14748006840F4A3
:101C80006040454908604448006820F0F000A168C1
:101C9000084341490860207800F00100A8B360685B
:101CA000012807D13C4808380068C0F34040B8B963
:101CB0000120BCE76068022802D06068032807D1D1
:101CC000354808380068C0F3406048B90120AEE7E5
:101CD000314808380068C0F3400008B90120A6E781
:101CE0002D48006820F00300616808432A49086015
:101CF000FFF7BCFE064609E0FFF7B8FE801B41F285
:101D00008831884202D9032091E707E02248006821
:101D100000F00C006168B0EB810FEDD11D48006848
:101D200000F00700A84209D91A490D70084600685A
:101D300000F00700A84201D0012078E7207800F0E9
:101D40000400042807D11448006820F4E050E1683A
:101D5000084311490860207800F00800082808D1DD
:101D60000D48006820F46040216940EAC1000A493A
:101D7000086000F03FF808490968C1F30311074AF9
:101D8000515CC8400649086006480068FFF79EFE9F
:101D900000204CE7003C024008380240103900089F
:101DA0003000002028000020014800687047000033
:101DB0003000002000B5FFF7F7FF04490968C1F3C0
:101DC0008221034A515CC84000BD0000083802402F
:101DD0002039000800B5FFF7E7FF04490968C1F39F
:101DE0004231034A515CC84000BD0000083802403F
:101DF000203900082DE9F047002400250026A146DF
:101E00002548006800F00C0020B1042805D00828FF
:101E10003AD105E0DFF8849039E0DFF8849036E0CD
:101E20001D48001F006800F03F041B48001F0068A9
:101E300000F4800078B11A481749091F0968C1F3F6
:101E40008811A0FB01700146224600233846FEF7A8
:101E50006BFB05460EE011480F49091F0968C1F3E5
:101E60008811A0FB01700146224600233846FEF788
:101E70005BFB05460848001F0068C0F30140401C9A
:101E80004600B5FBF6F902E0DFF8109000BF00BF96
:101E90004846BDE8F0870000083802400024F400FE
:101EA00040787D01F8B504460CB90120F8BD2078D2
:101EB00000F00100002874D0F948006800F00C0020
:101EC00004280DD0F648006800F00C00082813D153
:101ED000F348001F006800F48000B0F5800F0BD1BC
:101EE000EF4808380068C0F34040002859D06068C7
:101EF000002856D10120D9E700BF6068B0F5803FC7
:101F000008D1E7480838006840F48030E4490839CF
:101F100008601EE06068B0F5A02F0DD1E0480838D9
:101F2000006840F48020DE490839086008460068EF
:101F300040F4803008600CE0D9480838006820F48C
:101F40008030D749083908600846006820F48020AE
:101F5000086000BF606890B1FFF788FD054606E0A5
:101F6000FFF784FD401B642801D903209EE7CC487D
:101F700008380068C0F340400028F1D011E0FFF7B6
:101F800075FD054606E0FFF771FD401B642801D989
:101F900003208BE7C24808380068C0F3404000289F
:101FA000F1D1207800F0020002285FD1BC4800681F
:101FB00000F00C0058B1BA48006800F00C00082886
:101FC0001CD1B748001F006800F48000B0B9B448C5
:101FD00008380068C0F3400020B1E068012801D053
:101FE000012063E7AE480838006820F0F800216956
:101FF00040EAC100AA490839086037E0E06800B348
:102000000120A8490860FFF731FD054606E0FFF70B
:102010002DFD401B022801D9032047E7A0480838BE
:102020000068C0F340000028F1D09D4808380068DF
:1020300020F0F800216940EAC10099490839086098
:1020400014E0002097490860FFF710FD054606E000
:10205000FFF70CFD401B022801D9032026E790481A
:1020600008380068C0F340000028F1D1207800F063
:10207000080008282CD16069A8B101208A490860AD
:10208000FFF7F4FC054606E0FFF7F0FC401B0228D2
:1020900001D903200AE782486C300068C0F3400091
:1020A0000028F1D014E000207F490860FFF7DEFC33
:1020B000054606E0FFF7DAFC401B022801D90320A1
:1020C000F4E677486C300068C0F340000028F1D196
:1020D000207800F00400042870D1002770483830C0
:1020E000006800F0805090B900BF002000906C485C
:1020F0003830006840F0805069493831086008463F
:10210000006800F08050009000BF00BF01276748C2
:10211000006800F48070B0B96448006840F48070D2
:1021200062490860FFF7A2FC054606E0FFF79EFC47
:10213000401B022801D90320B8E65C48006800F47F
:1021400080700028F2D000BFA068012808D1544850
:102150006830006840F001005149683108601DE0B6
:10216000A06805280DD14E486830006840F0040092
:102170004B49683108600846006840F0010008607B
:102180000CE047486830006820F00100444968319D
:1021900008600846006820F00400086000BFA068DE
:1021A000A8B1FFF763FC054609E0FFF75FFC401BA1
:1021B00041F28831884202D9032077E626E0384888
:1021C00068300068C0F340000028EED013E0FFF74D
:1021D0004DFC054608E0FFF749FC401B41F2883101
:1021E000884201D9032061E62D4868300068C0F3B9
:1021F00040000028EFD1012F07D12948383000686E
:1022000020F0805026493831086000BFA0690028BE
:1022100045D02348006800F00C0008285DD0A06974
:10222000022845D100201F490866FFF71FFC05461C
:1022300006E0FFF71BFC401B022801D9032035E60E
:10224000174808380068C0F340600028F1D1D4E98D
:1022500007010843616A40EA81110122A06AC2EBCA
:10226000500041EA00412C20005D41EA00600C4929
:10227000091F086001200B490866FFF7F7FB0546B8
:1022800006E0FFF7F3FB401B022801D903200DE60F
:10229000034808380068C0F340600028F1D049E0E6
:1022A0000838024000004742800E4742007000405C
:1022B000002021490866FFF7D9FB054606E0FFF735
:1022C000D5FB401B022801D90320EFE51B4800681D
:1022D000C0F340600028F2D12CE0A069012800D1B1
:1022E000E4E51648001D0668A069012820D006F420
:1022F0008001E06981421BD106F03F01206A8142E2
:1023000016D147F6C0703040616AB0EB811F0FD123
:1023100006F440310122A06AC2EB5000B1EB004F3D
:1023200006D106F070612C20005DB1EB006F01D08A
:102330000120BBE50020B9E500004742003802401B
:1023400070B504462546681EB0F1807F01D3012098
:102350000FE0681E4FF0E02148610F214FF0FF3081
:1023600001F01CFA00204FF0E0218861072008618D
:10237000002070BD7047704710B504460CB90120AD
:1023800010BD94F83D0028B9002084F83C00204698
:1023900000F026F8022084F83D00211D206800F09E
:1023A00023FE012084F8460000BF84F83E0001218E
:1023B0003F200155402001554120015500BF00BF7D
:1023C000012084F842004320015544200155452056
:1023D000015500BF012084F83D000020D0E7000037
:1023E00038B504462D492068884218D100BF002026
:1023F00000902B48006840F4802029490860084676
:10240000006800F48020009000BF00BF002203217C
:102410001A20FFF7B5FB1A20FFF7A2FB3CE0214989
:10242000206888421AD100BF002000901C48001F7D
:10243000006840F080001A49091F086008460068DB
:1024400000F08000009000BF00BF002203212C207C
:10245000FFF796FB2C20FFF783FB1DE01249206855
:10246000884219D100BF002000900D48001F00686D
:1024700040F480700A49091F08600846006800F4AB
:102480008070009000BF00BF002203212D20FFF7C5
:1024900077FB2D20FFF764FB38BD000000480140AA
:1024A00044380240001C004000200040014691F8E2
:1024B0003D00012801D001207047022081F83D0035
:1024C0000868C06840F001000B68D8601A4B0868C3
:1024D00098421BD00868B0F1804F17D0174B08689E
:1024E000984213D0164B086898420FD0154B0868D5
:1024F00098420BD0144B0868984207D0134B0868D9
:10250000984203D0124B086898420CD10868806842
:1025100000F00702062A0CD00868006840F00100AD
:102520000B68186005E00868006840F001000B685F
:1025300018600020C0E700000000014000040040D7
:1025400000080040000C0040000401400040014031
:1025500000180040704710B5044620680069C0F3B9
:102560004000D8B12068C068C0F34000B0B16FF03F
:10257000020021680861012020772068806900F04E
:10258000030018B12046FFF7E5FF05E0204600F004
:10259000ADF8204600F0ABF80020207720680069F5
:1025A000C0F38000D8B12068C068C0F38000B0B12B
:1025B0006FF004002168086102202077206880699C
:1025C00000F4407018B12046FFF7C4FF05E0204634
:1025D00000F08CF8204600F08AF800202077206870
:1025E0000069C0F3C000D8B12068C068C0F3C00063
:1025F000B0B16FF0080021680861042020772068DE
:10260000C06900F0030018B12046FFF7A3FF05E002
:10261000204600F06BF8204600F069F80020207793
:1026200020680069C0F30010D8B12068C068C0F30A
:102630000010B0B16FF01000216808610820207709
:102640002068C06900F4407018B12046FFF782FF8F
:1026500005E0204600F04AF8204600F048F8002047
:1026600020772068006900F0010058B12068C06838
:1026700000F0010030B16FF00100216808612046D0
:1026800000F036F820680069C0F3C01058B1206827
:10269000C068C0F3C01030B16FF0800021680861DD
:1026A0002046FFF767FE20680069C0F3801058B12C
:1026B0002068C068C0F3801030B16FF0400021681E
:1026C0000861204600F01EF820680069C0F3401041
:1026D00058B12068C068C0F3401030B16FF02000DE
:1026E000216808612046FFF746FE10BD704770471D
:1026F00010B504460248844201D100F001FA10BD31
:10270000A40B002070477047704700002DE9F84F78
:102710000446206805682068C668206847694FF04D
:102720000009CA4605F00F09B9F1000F0AD105F0FA
:10273000200038B106F0200020B1204600F010FD46
:10274000BDE8F88FB9F1000F7CD007F0010018B98F
:1027500006F49070002875D005F0010030B106F441
:10276000807018B1206C40F00100206405F0040076
:1027700030B107F0010018B1206C40F00200206475
:1027800005F0020030B107F0010018B1206C40F0F4
:102790000400206405F0080048B106F0200010B9DC
:1027A00007F0010018B1206C40F008002064206C94
:1027B000002846D005F0200028B106F0200010B116
:1027C000204600F0CDFC20684069C0F3801A206CE0
:1027D00000F0080010B9BAF1000F2DD0204600F02B
:1027E00079FC2068406900F04000402820D100BFFB
:1027F00000BF2168143151E8001F21F0400021681A
:10280000143141E80002002AF3D100BFA06B50B19F
:102810007548A16B0865A06BFFF705F888B1A06B40
:10282000016D88470DE02046FFF76EFF09E009E0E3
:102830002046FFF769FF04E02046FFF765FF002010
:1028400020647DE7206B012876D105F01000002878
:1028500072D006F010000028FAD000BF00200090CF
:1028600020680068009020684068009000BF00BFAA
:102870002068406900F0400040285ED1A06B0068ED
:1028800040681FFA80F8B8F1000F54D0A08D404581
:1028900051DDA4F82E80A06BC069B0F5807F43D0D5
:1028A00000BF00BF21680C3151E8001F21F4807087
:1028B00021680C3141E80002002AF3D100BF00BFBB
:1028C00000BF2168143151E8001F21F00100216888
:1028D000143141E80002002AF3D100BF00BF00BF5D
:1028E0002168143151E8001F21F0400021681431A3
:1028F00041E80002002AF3D100BF202084F83E0006
:102900000020206300BF00BF21680C3151E8001F88
:1029100021F0100021680C3141E80002002AF3D1B7
:1029200000BFA06BFEF729FFA08DE28D801A81B257
:102930002046FFF7E8FE03E740E0A08DE18D401A56
:102940001FFA80F8E08DC0B3B8F1000F35D000BF9A
:1029500000BF21680C3151E8001F21F490702168FC
:102960000C3141E80002002AF3D100BF00BF00BFD4
:102970002168143151E8001F21F001002168143151
:1029800041E80002002AF3D100BF202084F83E0075
:102990000020206300BF00BF21680C3151E8001FF8
:1029A00021F0100021680C3141E80002002AF3D127
:1029B00000BF41462046FFF7A6FEC1E605F08000B5
:1029C00030B106F0800018B1204600F05BFDB7E69C
:1029D00005F0400030B106F0400018B1204600F08C
:1029E000AFFBADE600BFABE6C130000810B5044652
:1029F0000CB9012010BDA06900B100E000BF94F83F
:102A00003D0028B9002084F83C00204600F028F85A
:102A1000242084F83D002068C06820F4005021681C
:102A2000C860204600F018FC2068006920F490403F
:102A3000216808612068406920F02A002168486107
:102A40002068C06840F400502168C86000202064FD
:102A5000202084F83D0084F83E000020CAE70000F2
:102A600010B586B00446142101A8FDF795FD1F4955
:102A70002068884238D100BF002000901C480068C0
:102A800040F010001A4908600846006800F0100085
:102A9000009000BF00BF00BF002000901448143811
:102AA000006840F0010012491439086008460068C7
:102AB00000F00100009000BF00BF4FF4C060019023
:102AC000022002900020039003200490072005902C
:102AD00001A90848FEF7D0FE002211462520FFF785
:102AE0004FF82520FFF73CF806B010BD001001405C
:102AF00044380240000002407047704700BFFEE7C4
:102B000010B52DED048B904890ED020ADFED8F0A91
:102B100020EE200AF0EE408ADFED8D0A78EEA00A62
:102B2000B0EE600AFDF78AFB8748D0ED000A20EE80
:102B3000209ADFED880A78EEA00AB0EE600AFDF771
:102B40007DFB8148D0ED010A00EE209AB0EE498A63
:102B50009FED810AB4EEC08AF1EE10FA07DD9FED19
:102B60007E0A38EE400A7D4880ED000A13E09FEDB2
:102B70007C0AB4EEC08AF1EE10FA05DB9FED790A0B
:102B8000764880ED000A06E09FED750A38EE400AAF
:102B9000724880ED000ADFED6E0A78EEA00AB0EE12
:102BA000600AFDF70FFB6848D0ED000A20EE209A7E
:102BB000DFED680A78EEA00AB0EE600AFDF702FBCE
:102BC0006148D0ED010A00EE209AB0EE498A9FEDEF
:102BD000620AB4EEC08AF1EE10FA07DD9FED5E0ADC
:102BE00038EE400A5D4880ED010A13E09FED5C0A73
:102BF000B4EEC08AF1EE10FA05DB9FED5A0A574891
:102C000080ED010A06E09FED560A38EE400A53486F
:102C100080ED010A4C4890ED041BB0EE410AF0EE45
:102C2000610A9FED511B53EC112B51EC100BFDF77A
:102C3000EBFD12D2444890ED041BB0EE410AF0EED9
:102C4000610A9FED491B53EC112B51EC100BFDF762
:102C50004FFD424AC2E9020127E03B4890ED041BC8
:102C6000B0EE410AF0EE610A9FED411B53EC112BCF
:102C700051EC100BFDF7C8FD05D89FED3F0B374811
:102C800080ED020B11E0304890ED041BB0EE410ADC
:102C9000F0EE610A9FED361B53EC112B51EC100B3B
:102CA000FDF726FD2D4AC2E90201274890ED061BDB
:102CB000B0EE410AF0EE610A9FED2B1B53EC112B95
:102CC00051EC100BFDF7A0FD12D21F4890ED061B32
:102CD000B0EE410AF0EE610A9FED231B53EC112B7D
:102CE00051EC100BFDF704FD1C4AC2E9040127E07A
:102CF000154890ED061BB0EE410AF0EE610A9FED1B
:102D00001C1B53EC112B51EC100BFDF77DFD05D86E
:102D10009FED190B114880ED040B11E00A4890ED6E
:102D2000061BB0EE410AF0EE610A9FED111B53EC59
:102D3000112B51EC100BFDF7DBFC084AC2E9040132
:102D4000BDEC048B10BD00003800002035FA8E3C2D
:102D5000DB0F493FE4CB164017B75138580000202D
:102D60006F1203BA000000009A9999999999B93F96
:102D70009A9999999999B9BF000000000000000044
:102D800010B50E480E4908600620486000210C4826
:102D90008160C1604FF4A02101614FF4C001416125
:102DA0000021017641768176C17601774177FEF781
:102DB000DAF808B1FDF747FE10BD000000640040DE
:102DC0007C0B002008B500BF002000900E48006872
:102DD00040F080000C4908600846006800F0800060
:102DE000009000BF00BF00BF0020009008460068B0
:102DF00040F0010008600846006800F00100009003
:102E000000BF00BF08BD00003038024010B50948BF
:102E10000949086053204860002107488160632108
:102E2000C160002101618161FFF7A6FA08B1FDF7D9
:102E30000AFE10BD00480140A40B002010B50A484E
:102E40000A490860A720486000210848816041F2D3
:102E50008731C160002101618161FFF78DFA08B1FE
:102E6000FDF7F1FD10BD0000001C0040EC0B002040
:102E700010B50A480A4908605320486000210848F4
:102E8000816042F20F71C160002101618161FFF731
:102E900073FA08B1FDF7D7FD10BD00000020004017
:102EA000340C002010B50B480B4908604FF4E1309A
:102EB0004860002108488160C16001610C214161C6
:102EC00000218161C161FFF791FD08B1FDF7BBFDF4
:102ED00010BD0000001001407C0C002000BFFEE788
:102EE00000BFFEE77047704710B5FEF7C5FD10BD87
:102EF00000B593B0302107A8FDF74EFB142102A8BE
:102F0000FDF74AFB00BF002001902448006840F014
:102F10008050224908600846006800F08050019007
:102F200000BF00BF00BF002001901D48006840F4B2
:102F300080401B4908600846006800F4804001900A
:102F400000BF00BF012007900004089002200D90F0
:102F500041050E9119210F914FF4A8711091022192
:102F600011910421129107A8FEF79CFF08B1FDF70B
:102F70006AFD0F20029002200390002004904FF47D
:102F8000A05005904FF480500690052102A8FEF74E
:102F900049FE08B1FDF757FD13B000BD40380240AF
:102FA000007000400348006840F470000149086068
:102FB0007047000088ED00E010B50248FFF7CBFA3B
:102FC00010BD0000A40B002010B50248FFF7C3FAA3
:102FD00010BD0000340C002010B50248FFF7BBFA0A
:102FE00010BD0000EC0B002010B50268294B984280
:102FF0000ED0B0F1804F0BD0274B984208D0274B12
:10300000984205D0264B984202D0264B984203D1D5
:1030100022F070024B681A431E4B984220D0B0F148
:10302000804F1DD01C4B98421AD01C4B984217D091
:103030001B4B984214D01B4B984211D01A4B98420C
:103040000ED01A4B98420BD0194B984208D0194B0E
:10305000984205D0184B984202D0184B984203D1A1
:1030600022F44072CB681A4322F080034C6943EA91
:10307000040202608B68C3620B688362054B98424E
:1030800002D0084B984201D10B69036301234361CD
:1030900010BD000000000140000400400008004096
:1030A000000C004000040140004001400044014089
:1030B0000048014000180040001C00400020004073
:1030C00070B50546AC6B0020E085E0842046FFF734
:1030D0001BFB70BD00BF00BF02680C3252E8002F1E
:1030E00022F4907102680C3242E80013002BF3D1F5
:1030F00000BF00BF00BF0268143252E8002F22F068
:1031000001010268143242E80013002BF3D100BF22
:10311000016B01290ED100BF00BF02680C3252E8DA
:10312000002F22F0100102680C3242E80013002B3D
:10313000F3D100BF202180F83E10002101637047C9
:1031400010B504462068C06820F040002168C860BF
:10315000202084F83D002046FFF7CFFC002010BD62
:10316000F8B5044694F83E00222873D1A068B0F563
:10317000805F0CD1206950B90025A66A206840689C
:10318000C0F308003080A06A801CA06215E0A56A28
:103190000026A068B0F5805F03D0A06828B9206938
:1031A00018B920684068287004E02068406800F082
:1031B0007F002870A06A401CA062E08D401E80B293
:1031C000E085002844D12068C06820F020002168F4
:1031D000C8602068C06820F480702168C8602068DA
:1031E000406920F0010021684861202084F83E00F9
:1031F000206B012826D10020206300BF00BF21687A
:103200000C3151E8001F21F0100021680C3141E819
:103210000002002AF3D100BF2068006800F010000F
:1032200010280AD100BF002000902068006800909C
:1032300020684068009000BF00BFA18D2046FFF7C6
:1032400062FA02E02046FFF757FC0020F8BD01E0DB
:103250000020FBE70220F9E72DE9F84F044620683B
:10326000006920F44050E168084321680861216941
:10327000A068084361690843E16908430090206839
:10328000C06849F20C618843009908432168C8600E
:103290002068406920F44070A169084321684861B2
:1032A00076492068884203D075492068884203D156
:1032B000FEF790FD814602E0FEF77CFD8146E06965
:1032C000B0F5004F6CD102206168A0FB01500346AD
:1032D0001920A9FB007001462A463846FDF724F95B
:1032E0006421B0FBF1F04FEA001A02206168A0FBF4
:1032F00001510B461920A9FB00712A463846FDF7FB
:1033000013F9834602206168A0FB0150034619208F
:10331000A9FB00712A463846FDF706F96421B0FB87
:10332000F1F000EBC00101EB0010ABEB80003221AB
:1033300001EBC0006421B0FBF1F000F0F8000AEBF3
:10334000400A02206168A0FB015003461920A9FB36
:10335000007001462A463846FDF7E6F8834602200B
:103360006168A0FB015003461920A9FB00712A46A1
:103370003846FDF7D9F86421B0FBF1F000EBC0014D
:1033800001EB0010ABEB8000322101EBC0006421A7
:10339000B0FBF1F000F007005044216888606AE05B
:1033A00004206168A0FB015003461920A9FB0070AE
:1033B00001462A463846FDF7B7F882460420616880
:1033C000A0FB015003461920A9FB007001462A46C4
:1033D0003846FDF7A9F86421B0FBF1F000EBC0011D
:1033E00001EB0010AAEB8000322101EB00106421F8
:1033F000B0FBF1F000F0F00A04206168A0FB01705E
:1034000003461920A9FB00513A462846FDF78CF8DF
:103410006421B0FBF1F00AEB001A04206168A0FB04
:1034200001510B461920A9FB00712A463846FDF7C9
:103430007BF8834604206168A0FB015003461920F5
:10344000A9FB007001462A463846FDF76DF8642155
:10345000B0FBF1F000EBC00101EB0010ABEB800022
:10346000322101EB00106421B0FBF1F000F00F00FD
:10347000504421688860BDE8F88F000000100140CA
:1034800000140140014691F83D00212828D18868A8
:10349000B0F5805F0BD1086948B90A6A1088C0F39B
:1034A00008000B685860086A801C086205E00B6A17
:1034B000581C086218780B685860C88C401E80B28F
:1034C000C88458B90868C06820F080000B68D860CC
:1034D0000868C06840F040000B68D8600020704762
:1034E0000220FCE710B50248FFF710F910BD0000FC
:1034F0007C0C002000BFFEE700B52DED028B93B0E1
:103500009E48D0ED100AB0EE600AFCF75BFEB0EE0C
:10351000408A9A48D0ED0F0AB0EE600AFCF752FEDE
:1035200028EE000A8DED0A0A9448D0ED100AB0EE9C
:10353000600AFCF747FEB0EE408A9048D0ED110AD1
:10354000B0EE600AFCF77AFE28EE008A8B48D0EDD8
:103550000F0AB0EE600AFCF771FE28EE008A874879
:10356000D0ED100AB0EE600AFCF768FEF0EE408A7B
:103570008248D0ED110AB0EE600AFCF723FE08EE97
:10358000C08A8DED0B8A7D48D0ED110AB0EE600A3D
:10359000FCF754FEB0EE408A7848D0ED100AB0EE49
:1035A000600AFCF74BFE28EE008A7448D0ED110A41
:1035B000B0EE600AFCF706FEF0EE408A6F48D0EDF0
:1035C000100AB0EE600AFCF7FDFD68EE808A6B48D9
:1035D000D0ED0F0AB0EE600AFCF730FE08EE808AEC
:1035E0008DED0C8A6548D0ED100AB0EE600AFCF74C
:1035F00025FEB0EE408A6148D0ED0F0AB0EE600AB9
:10360000FCF7E0FD28EE000A8DED0D0A5B48D0EDD9
:10361000100AB0EE600AFCF711FEB0EE408A57487F
:10362000D0ED0F0AB0EE600AFCF708FE28EE008A23
:103630005248D0ED110AB0EE600AFCF7FFFD28EE0B
:10364000008A4E48D0ED100AB0EE600AFCF7BAFDD1
:10365000F0EE408A4948D0ED110AB0EE600AFCF75E
:10366000B1FD08EE808A8DED0E8A4448D0ED100A37
:10367000B0EE600AFCF7E2FDB0EE408A3F48D0EDC4
:103680000F0AB0EE600AFCF7D9FD28EE008A3B482D
:10369000D0ED110AB0EE600AFCF794FD28EE008A26
:1036A0003648D0ED100AB0EE600AFCF78BFDF0EE64
:1036B000408A3248D0ED110AB0EE600AFCF7BEFD38
:1036C00008EEC08A8DED0F8A2C48D0ED0F0AB0EEBF
:1036D000600AFCF7B3FDB1EE400A8DED100A2748F1
:1036E000D0ED0F0AB0EE600AFCF76CFDB0EE408A38
:1036F0002248D0ED110AB0EE600AFCF79FFD28EEDB
:10370000000A8DED110A1D48D0ED0F0AB0EE600AD7
:10371000FCF758FDB0EE408A1848D0ED110AB0EE23
:10372000600AFCF74FFD28EE000A8DED120A0AAB85
:103730000322114608A8FCF7CBFD06A908A8FCF750
:1037400069FE0F4AD2E900109268CDE904020391A4
:1037500003AB0122032101A8FCF7BAFD094B0122AA
:1037600003210948FCF7B4FD074A01A908A8FCF7A2
:10377000B3FD13B0BDEC028B00BD00005809002062
:1037800004390008580B00200C0000200248006893
:10379000C0F30220704700000CED00E010B50028D7
:1037A00004DB0A07130E054A135406E00A07140E39
:1037B000034A00F00F031B1FD45410BD00E400E0C7
:1037C00018ED00E002E008C8121F08C1002AFAD173
:1037D00070477047002001E001C1121F002AFBD191
:1037E0007047000000B58BB00120099000200790C1
:1037F0000120089000200190029003900490069010
:10380000059001A90548FDF737F90448FDF77FFF4A
:1038100002210248FDF71AF90BB000BD7C0B002015
:10382000FEF736F9FFF764FBFFF7CCFAFFF7A8FACB
:10383000FFF7ECFAFFF702FBFFF71AFBFFF732FB8B
:1038400001200D4988679FED0D0B084680ED060BA2
:103850009FED0A0B80ED080B0A48FEF727FE0A4889
:10386000FEF724FE0948FEF721FEFFF7BBFF6420A8
:10387000FDF7EEFF00BFFEE7580900200000000042
:1038800000000000EC0B0020340C0020A40B0020F2
:10389000BAE1EEBA1122D0BA4EEDB421F755723B1F
:1038A000CF4E043C58C20B3CA8A99DA29E858EBC5D
:1038B00088DC0BBD9CA308BD52EE14230A828A3D0E
:1038C000F0DB1B3E5F46643E0641803E5F46643E41
:1038D000F0DB1B3E0A828A3D52EE14239CA308BDF6
:1038E00088DC0BBD9E858EBCA8A99DA258C20B3C4E
:1038F000CF4E043CF755723B4EEDB4211122D0BAA5
:10390000BAE1EEBA0000000000000000F54A1CC158
:10391000000000000000000001020304060708097F
:10392000000000000102030400000000920E493C68
:10393000B10AC93C2BC3163D2EFB483D752B7B3D80
:1039400004A9963D80B6AF3D36BDC83D2FBCE13DD4
:1039500073B2FA3D87CF093E8340163EB5AB223E97
:10396000A2102F3ECF6E3B3EC2C5473E0115543ECE
:10397000135C603E7F9A6C3ECCCF783EC07D823E29
:10398000938E883E229A8E3E32A0943E86A09A3E26
:10399000E59AA03E128FA63ED47CAC3EEF63B23EC9
:1039A0002A44B83E491DBE3E15EFC33E53B9C93E39
:1039B000CA7BCF3E4136D53E80E8DA3E4F92E03EAC
:1039C0007533E63EBBCBEB3EEA5AF13ECBE0F63E2A
:1039D000275DFC3EE4E7003F3D9C033F824B063FF2
:1039E0009BF5083F6B9A0B3FDA390E3FCDD3103F62
:1039F0002A68133FD9F6153FC07F183FC6021B3F08
:103A0000D17F1D3FCBF61F3F9967223F25D2243F30
:103A10005636273F1594293F4AEB2B3FDE3B2E3F7E
:103A2000BB85303FC9C8323FF304353F233A373FA7
:103A30004268393F3B8F3B3FF9AE3D3F67C73F3F51
:103A400070D8413F01E2433F03E4453F65DE473F15
:103A500012D1493FF8BB4B3F029F4D3F207A4F3F69
:103A60003D4D513F4918533F31DB543FE595563F9B
:103A70005348583F6AF2593F1A945B3F532D5D3FBC
:103A800005BE5E3F2146603F97C5613F5A3C633F9C
:103A900059AA643F880F663FD86B673F3CBF683FB9
:103AA000A7096A3F0C4B6B3F5E836C3F93B26D3F3F
:103AB0009ED86E3F73F56F3F0809713F5213723FF6
:103AC0004714733FDD0B743F0BFA743FC6DE753F3E
:103AD00007BA763FC58B773FF853783F9812793F06
:103AE0009DC7793F02737A3FBE147B3FCDAC7B3FCD
:103AF000283B7C3FC9BF7C3FAC3A7D3FCCAB7D3F90
:103B000023137E3FB0707E3F6DC47E3F580E7F3FD3
:103B10006D4E7F3FAB847F3F0FB17F3F97D37F3F99
:103B200043EC7F3F11FB7F3F0000803F11FB7F3F55
:103B300043EC7F3F97D37F3F0FB17F3FAB847F3F05
:103B40006D4E7F3F580E7F3F6DC47E3FB0707E3F0D
:103B500023137E3FCCAB7D3FAC3A7D3FC9BF7C3F5A
:103B6000283B7C3FCDAC7B3FBE147B3F02737A3F4A
:103B70009DC7793F9812793FF853783FC58B773FBF
:103B800007BA763FC6DE753F0BFA743FDD0B743F14
:103B90004714733F5213723F0809713F73F56F3F2B
:103BA0009ED86E3F93B26D3F5E836C3F0C4B6B3F74
:103BB000A7096A3F3CBF683FD86B673F880F663FE5
:103BC00059AA643F5A3C633F97C5613F2146603F15
:103BD00005BE5E3F532D5D3F1A945B3F6AF2593F2D
:103BE0005348583FE595563F31DB543F4918533F02
:103BF0003D4D513F207A4F3F029F4D3FF8BB4B3F19
:103C000012D1493F65DE473F03E4453F01E2433FB0
:103C100070D8413F67C73F3FF9AE3D3F3B8F3B3FC9
:103C20004268393F233A373FF304353FC9C8323F32
:103C3000BB85303FDE3B2E3F4AEB2B3F1594293F9F
:103C40005636273F25D2243F9967223FCBF61F3FA8
:103C5000D17F1D3FC6021B3FC07F183FD9F6153FDD
:103C60002A68133FCDD3103FDA390E3F6B9A0B3FD2
:103C70009BF5083F824B063F3D9C033FE4E7003F36
:103C8000275DFC3ECBE0F63EEA5AF13EBBCBEB3E75
:103C90007533E63E4F92E03E80E8DA3E4136D53E4F
:103CA000CA7BCF3E53B9C93E15EFC33E491DBE3E48
:103CB0002A44B83EEF63B23ED47CAC3E128FA63E9F
:103CC000E59AA03E86A09A3E32A0943E229A8E3E6D
:103CD000938E883EC07D823ECCCF783E7F9A6C3EEC
:103CE000135C603E0115543EC2C5473ECF6E3B3E5D
:103CF000A2102F3EB5AB223E8340163E87CF093E31
:103D000073B2FA3D2FBCE13D36BDC83D80B6AF3D34
:103D100004A9963D752B7B3D2EFB483D2BC3163DDC
:103D2000B10AC93C920E493C00000000920E49BC09
:103D3000B10AC9BC2BC316BD2EFB48BD752B7BBD7C
:103D400004A996BD80B6AFBD36BDC8BD2FBCE1BDD0
:103D500073B2FABD87CF09BE834016BEB5AB22BE93
:103D6000A2102FBECF6E3BBEC2C547BE011554BECA
:103D7000135C60BE7F9A6CBECCCF78BEC07D82BE25
:103D8000938E88BE229A8EBE32A094BE86A09ABE22
:103D9000E59AA0BE128FA6BED47CACBEEF63B2BEC5
:103DA0002A44B8BE491DBEBE15EFC3BE53B9C9BE35
:103DB000CA7BCFBE4136D5BE80E8DABE4F92E0BEA8
:103DC0007533E6BEBBCBEBBEEA5AF1BECBE0F6BE26
:103DD000275DFCBEE4E700BF3D9C03BF824B06BFEE
:103DE0009BF508BF6B9A0BBFDA390EBFCDD310BF5E
:103DF0002A6813BFD9F615BFC07F18BFC6021BBF04
:103E0000D17F1DBFCBF61FBF996722BF25D224BF2C
:103E1000563627BF159429BF4AEB2BBFDE3B2EBF7A
:103E2000BB8530BFC9C832BFF30435BF233A37BFA3
:103E3000426839BF3B8F3BBFF9AE3DBF67C73FBF4D
:103E400070D841BF01E243BF03E445BF65DE47BF11
:103E500012D149BFF8BB4BBF029F4DBF207A4FBF65
:103E60003D4D51BF491853BF31DB54BFE59556BF97
:103E7000534858BF6AF259BF1A945BBF532D5DBFB8
:103E800005BE5EBF214660BF97C561BF5A3C63BF98
:103E900059AA64BF880F66BFD86B67BF3CBF68BFB5
:103EA000A7096ABF0C4B6BBF5E836CBF93B26DBF3B
:103EB0009ED86EBF73F56FBF080971BF521372BFF2
:103EC000471473BFDD0B74BF0BFA74BFC6DE75BF3A
:103ED00007BA76BFC58B77BFF85378BF981279BF02
:103EE0009DC779BF02737ABFBE147BBFCDAC7BBFC9
:103EF000283B7CBFC9BF7CBFAC3A7DBFCCAB7DBF8C
:103F000023137EBFB0707EBF6DC47EBF580E7FBFCF
:103F10006D4E7FBFAB847FBF0FB17FBF97D37FBF95
:103F200043EC7FBF11FB7FBF000080BF11FB7FBF51
:103F300043EC7FBF97D37FBF0FB17FBFAB847FBF01
:103F40006D4E7FBF580E7FBF6DC47EBFB0707EBF09
:103F500023137EBFCCAB7DBFAC3A7DBFC9BF7CBF56
:103F6000283B7CBFCDAC7BBFBE147BBF02737ABF46
:103F70009DC779BF981279BFF85378BFC58B77BFBB
:103F800007BA76BFC6DE75BF0BFA74BFDD0B74BF10
:103F9000471473BF521372BF080971BF73F56FBF27
:103FA0009ED86EBF93B26DBF5E836CBF0C4B6BBF70
:103FB000A7096ABF3CBF68BFD86B67BF880F66BFE1
:103FC00059AA64BF5A3C63BF97C561BF214660BF11
:103FD00005BE5EBF532D5DBF1A945BBF6AF259BF29
:103FE000534858BFE59556BF31DB54BF491853BFFE
:103FF0003D4D51BF207A4FBF029F4DBFF8BB4BBF15
:1040000012D149BF65DE47BF03E445BF01E243BFAC
:1040100070D841BF67C73FBFF9AE3DBF3B8F3BBFC5
:10402000426839BF233A37BFF30435BFC9C832BF2E
:10403000BB8530BFDE3B2EBF4AEB2BBF159429BF9B
:10404000563627BF25D224BF996722BFCBF61FBFA4
:10405000D17F1DBFC6021BBFC07F18BFD9F615BFD9
:104060002A6813BFCDD310BFDA390EBF6B9A0BBFCE
:104070009BF508BF824B06BF3D9C03BFE4E700BF32
:10408000275DFCBECBE0F6BEEA5AF1BEBBCBEBBE71
:104090007533E6BE4F92E0BE80E8DABE4136D5BE4B
:1040A000CA7BCFBE53B9C9BE15EFC3BE491DBEBE44
:1040B0002A44B8BEEF63B2BED47CACBE128FA6BE9B
:1040C000E59AA0BE86A09ABE32A094BE229A8EBE69
:1040D000938E88BEC07D82BECCCF78BE7F9A6CBEE8
:1040E000135C60BE011554BEC2C547BECF6E3BBE59
:1040F000A2102FBEB5AB22BE834016BE87CF09BE2D
:1041000073B2FABD2FBCE1BD36BDC8BD80B6AFBD30
:1041100004A996BD752B7BBD2EFB48BD2BC316BDD8
:10412000B10AC9BC920E49BC000000804C41000895
:104130000000002034000000C4370008804100085F
:10414000340000208C100000D4370008010000006B
:1041500080000000000000000000000000000000DF
:10416000000000000000000000000000000000004F
:104170000000000010000000010000000024F40016
:040000050800018965
:00000001FF
